S019000053414D42415F424F4F544C4F41444552312E737265632C
S1130000F010002095410000914100009141000052
S113001000000000000000000000000000000000DC
S113002000000000000000000000000091410000FA
S11300300000000000000000914100009141000018
S11300409141000091410000914100001D12000007
S11300509141000091410000C1380000914100002D
S1130060D1160000E1160000F1160000011700008F
S11300701117000021170000914100009141000078
S113008091410000914100009141000000000000F6
S113009000000000914100009141000091410000E6
S11300A09141000091410000914100009141000004
S11300B00000000010B5064C2378002B07D1054B37
S11300C0002B02D0044800E000BF0123237010BDC0
S11300D01401002000000000E4510000084B10B59A
S11300E0002B03D00749084800E000BF0748036815
S11300F0002B00D110BD064B002BFBD09847F9E72D
S11301000000000018010020E4510000E451000048
S113011000000000024A1378013BDBB21370704701
S11301203B010020002070470020704710B50249B1
S11301300020024B984710BD34010020ED4200001E
S113014010B50022124B1A700020124B1A80124B69
S1130150A1211970813959705A809A801E39D98029
S11301601A810E49E1235B020B6008714871082370
S11301708B7100200A4B984700200A4B98470028AF
S113018004D0034A13780133DBB2137010BDC046A8
S11301903B010020D0030020680600203401002029
S11301A0ED420000CD42000070B584B0484B1B788E
S11301B0002B01D004B070BD464B9847002846D0B0
S11301C0454B1C88454B98478442F3D0EFF310838A
S11301D05A425341039372B6BFF35F8F0022404BE0
S11301E01A70039D3F4B1C78E4B262003E4BD35A15
S11301F0002B33D000223D4B1A803D4B1B78002B43
S11302004BD163426341DBB2364A13700122304B57
S11302101A70002D04D0324B1A70BFF35F8F62B690
S113022026006300304A9B5A1D00413DFF3D6A1E73
S11302309541EDB2A0225200934237D0254B984706
S113024000282ED0254B9847234B188031E0224BB1
S11302501C88284B98478442B8D1ABE7234A1388BB
S1130260013313801B4B9847002803D11F4B1B8875
S1130270632B08D9174B98470028BBD01E4B1B4A49
S113028012889A42B6D8002D00D193E70122144B6C
S11302901A70BFF35F8F62B68CE762425441E4B2D6
S11302A0B4E7144B98470C4B188002E000220A4B29
S11302B01A8076000C4BF35AA2001419A4010F4AB9
S11302C012190F490091290081200E4CA04771E7B3
S11302D064060020F52B000060060020092C0000B5
S11302E0120100205C060020580600203001002086
S11302F0D4030020F92B00001F030000D8030020C2
S113030009030000012F000010B5002800D010BD23
S1130310074B1B785A4253415B000022054958524F
S1130320054B1A70054B1A70054B9847EFE7C0460A
S11303305C06002058060020D40300206406002038
S1130340A901000010B50020014B984710BDC0461C
S1130350A901000010B5064A1378013BDBB2137003
S11303601078C0B2034B98470022034B1A7010BD9B
S11303703C010020DD4200003201002010B5204B7A
S11303801A7853B2002B05DB602313400020202B86
S113039014D010BD602313400020202BF9D1184B3A
S11303A05B78212B29D1164BDB88072BF1D1144B19
S11303B0144A9A6007229A810130EAE7104B5B786D
S11303C0202B03D0222B0FD00020E2E70C4BDB883C
S11303D00020072BDDD10A4B0B4A1A61094A9A60A7
S11303E007229A810130D4E7054B5B88012119402B
S11303F00020064B98470120CBE70020C9E7C04600
S1130400EC090020340100202D010000E942000025
S113041082B0EFF310835A425341019372B6BFF393
S11304205F8F00220A4B1A70019A0A4B19880A4BF3
S11304301B785B000948185A401A002A05D001228B
S1130440034B1A70BFF35F8F62B602B07047C046A9
S113045012010020C8030020C4030020C0030020B0
S113046010B5034B9847431E9841C0B210BDC04617
S11304701104000010B584B0EFF310835A425341C5
S1130480039372B6BFF35F8F0022234B1A70039B52
S1130490224A1478E4B2224A1278002A07D1214A67
S11304A0128861002048095A92B28A420AD2002076
S11304B0002B05D00122184B1A70BFF35F8F62B670
S11304C004B010BD0021174A118062426241D2B2C9
S11304D012490A700121124A1170002B05D0012221
S11304E00D4B1A70BFF35F8F62B600200F4B984715
S11304F000280DD1A2001419A4010D4A12190D4BA4
S11305000093A0235B00012102200B4CA047D7E7F6
S113051000200A4B9847EDE712010020C403002095
S1130520CC030020C8030020C003002061040000A5
S113053040010020D1050000012F0000EB42000023
S113054070B50024154B1C70154B1C70154B1C709A
S1130550154B1C70154B00251C805C80144B1C80B3
S11305600020144B9847144B1D70144B1D70144BF2
S11305701C805C80134B1C800020134B9847002880
S113058007D0064A13780133DBB213701378012BBA
S113059000D070BD01220D4B1A70FAE73C01002017
S11305A064060020D40300205C06002058060020C6
S11305B060060020A9010000CC030020C403002031
S11305C0C0030020C803002075040000320100208D
S11305D010B582B01400002810D1104B1A78534281
S11305E05A41D2B200290BD089B252000C4BD152DD
S11305F000220C4B1A7000200B4B984702B010BD20
S113060093009A189201094B9A18094B0093A0235E
S11306105B0001312000074CA047EFE7C403002032
S1130620C0030020CC03002075040000400100201A
S1130630D1050000012F000010B50020014B9847A0
S113064010BDC04661040000F0B5D6464F4646468C
S1130650C0B582B0284B9B79093B5A425341DBB267
S1130660994600239C46254B98460027244E254C4A
S113067005E08B4229D3244B1B78002B1DD0EFF3CC
S113068010835A425341019372B6BFF35F8F4346BE
S11306901F70019833889BB22278D2B255001B494F
S11306A0695A89B20028E4D001208246134855468D
S11306B00570BFF35F8F62B6DBE70025280002B048
S11306C01CBC90469946A246F0BD91008A1892013E
S11306D00F498A18D25C6546154301339BB2084A18
S11306E0138000200B4B98474B46002BE6D02B027F
S11306F09C4600239946C2E73401002012010020E1
S1130700C8030020C403002032010020C0030020DD
S1130710400100207504000010B50020014B9847EB
S113072010BDC04649060000F0B5DE4657464E46A9
S1130730C0B582B015000E00274B9B4600239A4695
S1130740264B9946264F1DE05A002648125A521A43
S11307502C00954200D914009A00D3189B01591813
S1130760214B591822003000204B98471B4A13880C
S11307701B199BB2138036192D1B00201C4B984764
S1130780002D22D0EFF310835A425341019372B6E5
S1130790BFF35F8F5B4652461A7001984B46198827
S11307A089B23B78DBB25C000E4AA25A92B20028AE
S11307B005D0012408480470BFF35F8F62B69142EC
S11307C0C2D30C4B1B78002BDCD1280002B01CBC1C
S11307D091469A46A346F0BD12010020C8030020AA
S11307E0C4030020C0030020400100208D500000FD
S11307F0750400003201002070B582B00800294B56
S11308001B780024002B23D0EFF3108359424B4173
S1130810009372B6BFF35F8F0021234B1970009DC4
S1130820224B198889B2224B1B78DBB25E00214C23
S1130830345B641A002D05D001261B4D2E70BFF3C6
S11308405F8F62B62500944200D91500002D02D1B5
S1130850200002B070BD9A00D3189B015918164BA2
S113086059182A00154B9847EFF310835A42534105
S1130870019372B6BFF35F8F00220B4B1A7001997C
S11308800A4A13885D19ADB21580002905D00122EA
S1130890054B1A70BFF35F8F62B60020084B984770
S11308A0D6E7C0463201002012010020C803002010
S11308B0C4030020C0030020400100208D5000002C
S11308C07504000010B50A0001000020014B984790
S11308D010BDC046F907000010B50A000100002051
S11308E0014B984710BDC0462907000082B0EFF3C2
S11308F010835A425341019372B6BFF35F8F0022B3
S1130900154B1A700199154B1B78DBB25800144A29
S1130910825AA020400082420CD0A0204000801ABD
S1130920002905D001220C4B1A70BFF35F8F62B609
S113093002B070470B4800780028EED10A480078CE
S11309400028EAD10130084A10705A425341DBB200
S1130950024A13700022E0E7120100205C06002026
S11309605806002064060020D403002010B5034B71
S11309709847431E9841C0B210BDC046ED08000020
S1130980F0B5DE4657464E464546E0B583B00C000A
S1130990234B9D79093D6B425D41EDB2214E224BC3
S11309A09846224B9A4629E0EFF310835A4253416A
S11309B0019372B6BFF35F8F002342461370019B0D
S11309C09B4653461A78D2B2194B9C465700F85AA4
S11309D0431C61467B5293009B189B01154AD31814
S11309E01C545B46002B05D001220F4B1A70BFF339
S11309F05F8F62B6002D10D0241200250020B0476E
S1130A000028D1D10C4B1B78002BF7D103B03CBC90
S1130A1090469946A246AB46F0BD0120F6E7C04693
S1130A20340100206D090000120100205C06002042
S1130A3058060020D80300203201002010B5010020
S1130A400020014B984710BD81090000F0B5DE4637
S1130A5057464E464546E0B583B01700274B9B7971
S1130A60092B05D08846264B9946264B9B4635E0F4
S1130A705700F7E7EFF310835A425341019372B6DC
S1130A80BFF35F8F00235A461370019B9A461E4B97
S1130A901C78E4B262001D4BD55AA0235B005B1B9B
S1130AA03E009F4200D91E00A00000198001401999
S1130AB0174B181832004146164B98476400AD197D
S1130AC0124BE5525346002B05D001220D4B1A70F0
S1130AD0BFF35F8F62B6B044BF1B07D00020C84786
S1130AE00028C7D10C4B1B78002BF7D1380003B07A
S1130AF03CBC90469946A246AB46F0BD340100206A
S1130B006D090000120100205C0600205806002038
S1130B10D80300208D5000003201002010B50A00D7
S1130B2001000020014B984710BDC0464D0A00004B
S1130B3010B5114B1B681A689478D3781B022343B1
S1130B40D2180378C018904210D24378042B0FD0E7
S1130B508B420AD00378C018904205D24378042B04
S1130B6008D08B42F6D100E0002010BD0020FCE745
S1130B700020FAE70020F8E78006002010B5034BB8
S1130B805B887F201840024B984710BDEC09002079
S1130B90D930000070B5194B1B780022002B29D0E6
S1130BA0174B1B681B681C79844223D9154A1360B0
S1130BB09A78DC78240214431C19A3421CD2002521
S1130BC0012607E00F4A13600FE01A789B183500DE
S1130BD0A3420CD25A78042AF7D19A788242F4D1EB
S1130BE0DA788A42F1D1002DECD1012202E0054AE3
S1130BF013600022100070BD0022FBE77C06002079
S1130C008006002084060020F0B5C64600B5040026
S1130C100021134B9847051E03D1280004BC9046BD
S1130C20F0BD104B1B685B68A200D3589846DB6884
S1130C309847010020000A4B9847051EEDD00A4B47
S1130C401C680A4E0A4F05212000B047041E02D03A
S1130C508078B847F7E743465B689847DDE7C046C6
S1130C60950B00008006002084060020310B000054
S1130C70192C0000F8B505000F4B9847002819D02F
S1130C800E4B1C680E4E0F4F05212000B047041E6A
S1130C9009D00379427912021A43C1788078B8479F
S1130CA00028F1D106E0084B1B685B68AD00EB58E7
S1130CB01B689847F8BDC046950B000084060020C9
S1130CC0310B0000712C00008006002010B5014B90
S1130CD0984710BD8931000070B50E4B1B78002B6E
S1130CE011D00D4B1B681B681B79002B0BD0002403
S1130CF00A4E094D2000B0470134E4B22B681B684A
S1130D001B79A342F6D80022024B1A700132044B1D
S1130D101A8070BD7C06002080060020090C0000AB
S1130D207206002070B50E4B1B78002B17D00D4BAC
S1130D301B681A681279002A11D00024094D06E0B4
S1130D400134E4B22B681A681279A24207D95B68AD
S1130D50A200D3581B69002BF2D09847F0E770BD6E
S1130D607C06002080060020F8B5AB4B00229A8157
S1130D701A615A611B785AB2002A13DB60221A42A4
S1130D8000D1D7E0A44B1A781F231340012B00D1C4
S1130D9074E1A14B1A781F2313400020022B00D1C9
S1130DA0CAE1F8BD9C4AD2880020002AF9D060210B
S1130DB01942E7D11F210B4008D1974949780629E8
S1130DC023D0082900D184E0002917D0012B00D1B9
S1130DD087E0022BD6D1904B5B780020002B00D00B
S1130DE0A6E1022AD5D18C4B18798C4B98478C4BB1
S1130DF01880022118008B4B9847FCE0022AC8D1C6
S1130E0002318948874B9847F5E0834B5A88130A87
S1130E10022B23D0D9B202290FD9032B34D00F2BA4
S1130E2000D082E1814B98680028B2D08378C178E1
S1130E30090219437B4B984707E0012B00D074E16A
S1130E407A4B18680178774B9847734BDA889B89FB
S1130E50934200D8CFE0704B9A81CCE0D2B2734B6E
S1130E601B685B7C934200D893E7704B5B68D200AD
S1130E70D0588378C178090219436A4B9847664B66
S1130E809B6802225A70E0E7FF231A40012A1DD012
S1130E90002A16D0022A00D074E7654C1D20654A4A
S1130EA002320023E15C118001330232D9B2814263
S1130EB0F8D3410002315F48017089B2594B984719
S1130EC0C3E704215C48574B9847BEE75B4C0920B5
S1130ED0E5E7012A00D05CE701215948514B9847C6
S1130EE089E04D4949780A2900D072E7012A00D0E7
S1130EF0C4E0534B1B78002B00D1BFE0464B1C7958
S1130F00504B1D682B681B79A34200D8B6E0002122
S1130F1020004D4B9847002800D133E76B68A400AC
S1130F20E358DB689847494B1870012118003D4B82
S1130F30984760E01F2213405FD1374A5278032A52
S1130F4000D1F4E0D1B203293BD9052A4BD0092AB8
S1130F5053D1314BDB88002B00D01AE73C4B984728
S1130F60002800D10EE72C4B9A78304B1B685B7C31
S1130F709A4200DD06E7374B9847274B9B78304A67
S1130F801370002B37D0344A94466344DB00274A5D
S1130F905268D3182B4A13601B681B79002B2AD084
S1130FA000242E4D160000212000A847002800D15F
S1130FB0E8E60134E4B233681B681B79A342F2D833
S1130FC019E0012A19D1144BDB88002B00D0E0E68C
S1130FD0114B5B88012B00D0DBE6134A13880221F6
S1130FE08B43138007E00C4BDB88002B00D0D0E64A
S1130FF01B4A094B1A610120D3E6012B32D0022B84
S113100000D0BFE6044B5B78012B6DD0032B00D1DD
S113101079E000208CE0C046EC090020792D000026
S113102074060020F9300000720600202800002019
S1131030F4000020A8000020E4000020E8000020C4
S11310407C06002080060020950B00007806002016
S1131050E9300000D90C0000FFFFFF1F750C0000F1
S11310607D0B0000484A52780B2AC8D1464BDB88D6
S1131070002B03D1454B1B78002B27D1434B1B7806
S11310800020002B00D18CE63F4B1C79404B1D689F
S11310902B681B79A34200D883E6002120003D4B36
S11310A09847002800D174E66B68A200D558EB6815
S11310B0984701002000374B9847002800D168E684
S11310C0AB689847002800D06BE662E62E4B1D798A
S11310D05C882800304B9847002800D152E6E1B2E2
S11310E028002E4B984723E0274BDB88002B00D0A9
S11310F04FE6254B5B88002B00D04AE6224B18793B
S1131100274B984714E0204BDB88002B00D040E6A7
S11311101D4B5B88002B00D03BE61B4C2079214BF8
S113112098472079204B984702E0002000E00020F7
S1131130002800D035E625E6144B1B78002B00D19F
S11311402FE6134B1B681A681279002A1AD000255F
S1131150104E0F4F5B68AA00D458E368984701000B
S11311602800B047002800D11BE6A3689847002850
S113117000D016E60135EDB23B681A681279AA422E
S1131180E8D80EE600200CE6EC0900207C060020DE
S113119080060020950B0000090C0000750C00006F
S11311A0BD2E0000B92B00008D2D00000C4B1B68D8
S11311B0002B06D1EFF31083002B07D00022094B3C
S11311C01A70074A136801331360704772B6BFF38D
S11311D05F8F0022044B1A700132024B1A70F0E741
S11311E0880600208C06002012010020084B1A6893
S11311F0013A1A601B68002B09D1064B1B78002B9F
S113120005D00122044B1A70BFF35F8F62B670479A
S1131210880600208C0600201201002070B50022F0
S1131220104B1A70002310491F25104E0D4C0AE074
S11312300D4908E023780133DBB223700F2B10D85B
S113124000211F2BF4D9280018400122824048694C
S11312501042EFD04A619B009B59002BEAD098477B
S1131260E8E770BD69070020002400406C070020F7
S1131270064A137802210B43137001205368194264
S1131280FCD153681842F9D17047C046002400408D
S113129010B5124A516980239B000B435361104AD5
S11312A0137801210B431370013101205368194253
S11312B0FCD153681842F9D1094A137810210B4321
S11312C01370084B19004031002204C38B42FCD137
S11312D00822054B1A60054B984710BD00040040D6
S11312E0002400406C07002000E100E071120000BF
S11312F0F0B5DE4657464E464546E0B587B08046D3
S1131300049116001F000022002300218B463F2475
S113131001202100009601975C46039444460594FD
S113132013E02024641A0500E540A84614E0009C5C
S1131330019D121BAB415C464D462C43A346039CC6
S113134045462C430394013925D3202464420C19C7
S1131350E7D40500A540A84604008C40A146921895
S11313605B4114001D00059E4F463E40B446049E5A
S113137047463E40B246664657463E4303D00600C3
S1131380264332002B00009C019D9D42DBD8CED128
S11313909442D8D8CBE7039B5846190007B03CBC0D
S11313A090469946A246AB46F0BD10B54908402385
S11313B00024814202D2180010BD1C00091A631CCB
S11313C09BB28842F9D94023FF2CF4D8148000231F
S11313D0F1E70000F0B583B00F00160008AA1178F9
S11313E004004C434022BC4202D9100003B0F0BDBB
S11313F0002B14D1020008000021194CA047010061
S11314003A0000230020174CA04700220123121A9F
S11314108B41120C1B041A4332800022E5E70022A0
S1131420012BF9D10A00002300210D4CA047020032
S11314300B0000920193380000210A4CA0470500DC
S113144080239B0140229842CFD8790FF800009A5C
S1131450019BA047EA00821AD2B252032A43DBE777
S1131460F14F0000F112000010B582B004000E4BE1
S11314701B78002B07D0002905D10B4B5B788342E6
S113148010D01D200CE001A90C701120074B9847C7
S11314901120074B9847044B5C7001221A700020FE
S11314A002B010BD0020FBE790060020D12300000D
S11314B061230000404B984232D00AD93F4B9842F6
S11314C04ED03F4B98425BD03E4B984238D00020E0
S11314D070478423DB0598420CD03B4B9842F6D1ED
S11314E0012917D000295DD0022915D0032915D070
S11314F00020EDE7012907D0002951D0022905D0A9
S1131500032905D00020E3E73048E1E73048DFE76E
S11315103048DDE73048DBE73048D9E73048D7E7E3
S1131520012907D000293FD0022905D0032905D07D
S11315300020CDE72B48CBE72B48C9E72B48C7E76A
S1131540012907D0002931D0022905D0032905D06B
S11315500020BDE72648BBE72648B9E72648B7E799
S1131560012907D0002923D0022905D0032905D059
S11315700020ADE72148ABE72148A9E72148A7E7C8
S1131580012907D0002915D0022905D0032905D047
S113159000209DE71C489BE71C4899E71C4897E7F7
S11315A01C4895E7032093E71B4891E71B488FE706
S11315B01B488DE71B488BE70008004200100042DF
S11315C000040043000C0042000400420300050034
S11315D003000600030007000300010003001E00CF
S11315E003001F000300090003000A0003000B00AE
S11315F003001100030012000300130003000D0098
S113160003000E0003000F0003001700030018007E
S11316100300190003000400030008000300100085
S113162003000C000300160030B587B00B4B6A466C
S113163032CB32C232CB32C2009B83420BD0012365
S11316409A0069465258824206D00133062BF7D1DC
S1131650002007B030BD0023D8B2FAE7B050000034
S113166070470000F0B50A4B1B78002B0CD1094FD2
S1131670094E0A4D0024DE515A1914600433182B04
S1131680F9D10122024B1A708000024BC150F0BD07
S1131690920600209406002061160000AC0700208A
S11316A000B583B008236A461370013353700133C5
S11316B093700133D3700133137101335371034BAE
S11316C098476B46185603B000BDC0462916000063
S11316D010B5024B1B680020984710BD94060020EB
S11316E010B5024B5B680120984710BD940600209A
S11316F010B5024B9B680220984710BD9406002049
S113170010B5024BDB680320984710BD94060020F7
S113171010B5024B1B690420984710BD94060020A5
S113172010B5024B5B690520984710BD9406002054
S1131730F0B5DE4657464E464546E0B591B0050045
S11317400C00160029600800C44B984702000528C5
S11317500DD007001237030021680520C90709D5F9
S113176011B03CBC90469946A246AB46F0BD182742
S11317700123F1E7216817308907F1D4052A49D0FC
S1131780B749C86901229A4013000343CB610FA9EA
S11317902D239846F35C0B70FFB23800B14B984789
S11317A03800B14B98474346F05C0021AF4B984753
S11317B0F37A6B712423F35CAB712523F35CEB7137
S11317C0F37E2B72337F6B722B6898461800A34B01
S11317D09847052826D0123000220E2306A98C46ED
S11317E063441A80328A02928023DB019A4200D138
S11317F0A7E019D9C023DB01029A9A4200D19BE0E9
S113180080231B029A4200D023E103230693002382
S1131810079312E09249086A043A9A40130003437A
S11318200B62B4E71820D7E780239B019A4200D0CB
S11318300FE1102306930F3B079333680593F36876
S11318409B4673690393337E04932623F35C9A4681
S113185073689946002B00D19BE080235B05994572
S113186004D12723F35C002B00D180E0737E002B8E
S113187002D0B37E424693730E2306AA9446634471
S11318801B8842469381059B5A461343039A13438C
S11318904A461343029F1F43049B1B021F435346A4
S11318A05B071F432723F35C002B01D104331F4341
S11318B0737E9B02327F52021343727F12021343E0
S11318C02422B25C520413432522B25C1204134353
S11318D0B17AF27A114319433389FF2B7DD08022E8
S11318E05204174319432C23F35C002B03D1604BA0
S11318F09B789B0701D580231F432A68D369002B5B
S1131900FCD1434659602A68D369002BFCD1434675
S11319101F600EAB80221A7000225A70DA709A701F
S1131920336B0A93736B0B93B36B0C93F36B02934C
S11319300D9300270AAE5EE008230693073B079346
S11319407BE733680593F3689B4673690393337E9F
S113195004932623F35C9A4673689946002B14D0AB
S113196080235B05994500D17BE7002020E0336AA2
S11319701F00C0B23F4B984701000E2206AB9C46A5
S1131980624438003C4B984712E008230693002336
S113199007932723F35C002B0ED0069B0093079B31
S11319A00E2206A98C466244B16A306A334FB847A6
S11319B0002800D0D4E659E7336A1F00C0B22D4B8B
S11319C098470100069B0093079B0E2206A88446B5
S11319D062443800294FB847EAE7F37E002B82D0EF
S11319E08023DB041F437EE72000254B984707E054
S11319F00137042F0DD0F9B2BB0098590028F3D059
S1131A00431CF5D00EA90870000CC0B21D4B9847BA
S1131A10EEE70023EB602B616B61AB61EB612B6242
S1131A20AB626B620022EB85AB853033EA54013341
S1131A30EA540133EA540133EA542868074B9847BF
S1131A4004001149114B9847A400114BE5500020A4
S1131A5086E61023069300230793EEE6291600007A
S1131A6000040040D1230000612300006914000039
S1131A7000200041F5230000AB130000D513000043
S1131A80B5140000CD240000251B000065160000DD
S1131A90AC070020C2791C23002A01D1180070472A
S1131AA0C28D92B2173B002AF8D102681185022137
S1131AB0137E0B42FCD00023F0E782791C23002A1A
S1131AC001D118007047828D92B2173B002AF8D1D9
S1131AD00268107E4007F4D5538BDBB298061DD004
S1131AE0980703D5022353831833EAE7580703D52D
S1131AF0042353831A33E4E7D80703D5012353831C
S1131B001233DEE7D80603D5102353833233D8E7E4
S1131B109B0603D5202353832133D2E7138D0B80F7
S1131B200023CEE7F8B58000624BC5582C68E36902
S1131B30002BFCD1237EA67D1E403023EB5C31229A
S1131B40AF5C1F40F30722D5EB8D9BB2002B1CD05A
S1131B50AA6A1378DBB2511CA962697901290ED0F3
S1131B609BB2DB05DB0D2385EB8D013B9BB2EB8543
S1131B70002B0CD1013323750133A37507E0517891
S1131B8009020B430232AA62EBE701232375B30770
S1131B9006D50223237500223133EA54FB071AD4F5
S1131BA0730765D5AB8D9BB2002B5FD0638BDBB223
S1131BB01A0714D43F221340002B34D09A0711D5AE
S1131BC01A223223EA54303B63837B0750D5280022
S1131BD06B6998474CE02800EB689847E0E73722A8
S1131BE01340E9E75A0705D51E223223EA542E3B57
S1131BF06383EAE7DA0705D513223223EA54313B3B
S1131C006383E2E7DA0605D542223223EA54223B13
S1131C106383DAE720221A42D7D021323223EA54EE
S1131C20123B6383D1E7238DDB05DB0DDAB2696AEE
S1131C300A706A6A511C69626979012910D0AB8DF6
S1131C40013B9BB2AB85002B12D1043323750022D8
S1131C502E33EA54BB070BD528002B69984707E0BD
S1131C601B0A53706B6A01336B62E8E70423237524
S1131C70F30604D5102323752376FB060ED4B3068E
S1131C8004D52023237523763B070BD4330704D5CF
S1131C90082323752376BB0608D4F8BD2800EB6916
S1131CA09847ECE72800AB699847EFE72B6A2800D0
S1131CB09847F2E7AC07002010B5082803D8800045
S1131CC01D4B1B589F46002034E01C4B186931E023
S1131CD01B4B187D0007800F431C1A48584329E00A
S1131CE0164B586926E0154B1B6800209B0721D52D
S1131CF0134980225200CB681342FCD00F4B1A6860
S1131D0024231340042B01D00F4813E000200F4B71
S1131D1098470A4B9B681B041B0C58430AE0282372
S1131D20074AD35C00209B0704D5044BD86801E024
S1131D308020000210BDC046C8500000AC06002040
S1131D40000C004000093D00006CDC02F52300009B
S1131D5070B50B4C237D85784678027803211140B9
S1131D6089000C2293430B430B3A324092014021E9
S1131D708B431343ED017F2213402B43237570BD26
S1131D80000C0040F0B5CE46474680B5194B994645
S1131D909B6941788C4605780679C77844798078C0
S1131DA00121084080000422934303436046084015
S1131DB0C0000432934303433800084080014027A5
S1131DC0BB43034330000840C0018026B3430343B0
S1131DD0072005402D02084803402B4321400903F6
S1131DE0064803400B434A4693610CBC904699460F
S1131DF0F0BDC04600100040FFF8FFFFFFEFFFFFFB
S1131E0010B5837A9B061B0C82899205920D1343AD
S1131E101A494B60037A427A13438288C488224366
S1131E2013434278D20113438278920113430B6027
S1131E300378042B11D0202B0ED1837B9B06428A7E
S1131E401343028A12040E490A4013430B4A936057
S1131E5011680C4B0B43136010BD837B9B06428AB5
S1131E601343028A120406490A401343034A936047
S1131E70136804210B431360EEE7C046AC06002050
S1131E800000FF0324040000082803D880002D4B21
S1131E901B589F46172054E02B4A137D02210B4305
S1131EA0137500204DE0294A936902210B43936185
S1131EB0002046E0244A138A02210B4313820020A7
S1131EC03FE0224A536902210B435361002038E06A
S1131ED01F490B68022213430B601B4B1A83190022
S1131EE0FE32CB681342FCD0194B9A68164B1A6227
S1131EF002221A831900FE32CB681342FCD0144B21
S1131F005A68114BDA6100221A8319000132FF3238
S1131F10CB681342FCD00E4B1B689BB20A4A138356
S1131F2000200EE0084928228B5C022003438B54D6
S1131F3008003821263A435C1342FCD1002000E01B
S1131F4000207047EC500000000C004000100040DE
S1131F50AC060020082832D880001A4B1B589F4634
S1131F60194A137D02218B43137500207047174AC9
S1131F70936902218B4393610020F7E7124A138A85
S1131F8002218B4313820020F0E7104A5369022197
S1131F908B4353610020E9E70D4B1A6802218A4301
S1131FA01A601B689BB2084A13830020DEE70649C7
S1131FB028228B5C022083438B540020D6E7172011
S1131FC0D4E7C04610510000000C0040001000404F
S1131FD0AC060020F0B5C64600B58CB08022520095
S1131FE06D4B9A60FD3A6D4B9A606D4A53681E21A1
S1131FF08B4353608023DB059B78022B0FD0802317
S1132000DB059B785BB2002B09DB8023DB05012217
S11320109A7101329A701A009379002BFCD00AA8A5
S11320200125457085700024C47005710723037071
S113203044715C4B984704205B4EB04702A94D6045
S11320404C700C724C7202350D700020574B98473F
S11320500620574B984701A8447005708470554B6F
S113206098470620B0474C491022CB681A42FCD04E
S113207002A901234B6000244C7005330B700C72D1
S11320804C720020494B9847434A137D80210B43EF
S1132090137505AB00229C801A725A729A706039CB
S11320A019705A70444B1B689B0E3F2B00D171E092
S11320B005A8837203238373073303823F4B838111
S11320C0FF3BC3803E4B43823E4B98473E4B984771
S11320D002AC01239846039300256570257265724E
S11320E00433237021000120304FB8470120374EBC
S11320F0B04743466360657025726572063323708A
S113210021000320B8470320B0470720264B9847F7
S1132110214980225200CB681342FCD02C4C01236D
S1132120A3716371237102A94B6000234B700622D3
S11321300A700B724B7200201C4B98470020234BF3
S113214098470020234B98472179C9B2224B9847DE
S1132150224B984202D90822A2716271204B984204
S113216014D88023DB059B78002B0FD08023DB055C
S11321709B785BB2002B09DB8023DB0501229A717B
S113218000229A701A009379002BFCD00CB004BC86
S11321909046F0BD203B8BE7000C0040001400404B
S11321A000400041851D0000891E00000922000036
S11321B0551F0000511D000020608000FF01000039
S11321C080BBFFFF011E0000E5210000B5220000D6
S11321D000040040F5220000C54C0000808D5B0027
S11321E0001BB700064A536940210B435361012287
S11321F0044B1A7019000B781342FCD17047C04687
S1132200000400400018004070B504000D784B78BD
S1132210002B02D08023DB001D434B7A002B02D01D
S113222080231B011D43486801280FD9431E18420F
S113223031D102282DD90223002201325B009842B9
S1132240FBD880235B011D43120415430B7A002B3A
S113225002D080239B011D430426A6401149124A43
S11322604B6813401E42FBD1104B9847A4000D4B02
S11322709C466444226A80235B001A402A432262FB
S11322806146094A4B6813401E42FBD1084B9847EC
S113229070BD0022D5E7000480239B00184305434A
S11322A0D4E7C04600180040FC070000AD11000050
S11322B0ED11000010B504000422824009480A49C7
S11322C043680B401A42FBD1084B9847A400054BC6
S11322D09C466444226A80235B0013432362044BBC
S11322E0984710BD00180040FC070000AD11000025
S11322F0ED110000F8B5040004228240124813498D
S113230043680B401A42FBD1114B98470E4F0834D7
S1132310A400E0590007000F0E4B98470600E5594A
S1132320ED04ED0FE459240C0B4B9847002D07D115
S1132330012C07D921003000084B9847060001E022
S11323400134E6403000F8BD00180040FC070000EE
S1132350AD110000B91C0000ED110000C54C0000D7
S113236010B50400094B9847A000094B9C466044F3
S11323708022835840210B4383504031403A4358D4
S11323801A42FCD0034B984710BDC046AD11000063
S113239000180040ED11000010B50400094B9847E7
S11323A0A000094B9C4660448022835840218B4303
S11323B083504031403A43581A42FCD1034B98476A
S11323C010BDC046AD11000000180040ED11000022
S11323D070B504000D00054B98472A780F2313406D
S11323E02034A400024AA35070BDC04699230000C3
S11323F00018004010B50400064B98472034A40090
S1132400054BE4582407240F044B98472000044B41
S1132410984710BDAD11000000180040ED110000F8
S1132420F522000030B5D378002B35D11378802BFA
S113243029D01B0680246402234354780225AC432C
S113244006D19478002C20D18024A4022343416037
S11324505478013C012C1CD90D042D0CA024E40556
S11324602C431C4384620D0CD02424062C431C43AF
S11324708462D478002C22D15B031CD59378012B81
S11324801ED0416117E00023D7E7C024E4022343B0
S1132490DDE70D4C2340DFE741600C04240CA0234E
S11324A0DB05234383620C0CD0231B062343836286
S11324B0D378002B03D15378013B012B02D930BDD3
S11324C08161F8E78160FAE7FFFFFBFF10B50A00BE
S11324D0C1090023002904D14309DB0105498C46C5
S11324E063441F242040012181401800024B984777
S11324F010BDC0460028004025240000704700009D
S113250010B5054B9847054B9847054B9847054B25
S11325109847054B984710BDD51F0000FD240000C7
S1132520FD24000091120000FD24000010B584B0C9
S113253003AB00221A7001325A709A70DA70274B7A
S11325401B78834207D0002807D1244B1B78002B2B
S113255023D1224B187004B010BD03AB1B5C204A7E
S1132560D25CFF2A00D1FEE7EFF3108251424A41C8
S1132570019272B6BFF35F8F00211A4A1170019C59
S11325801749CA5C0132CA54002CDED00122154B13
S11325901A70BFF35F8F62B6D7E703AAD35C104A01
S11325A0D25C002A00D1FEE7EFF3108251424A4187
S11325B0029272B6BFF35F8F00210A4A1170029C27
S11325C00749CA5C013ACA54002CC2D00122054B07
S11325D01A70BFF35F8F62B6BBE7C04644070020A2
S11325E0640700201201002043060BD00F23034090
S11325F05B00C00918180238830018188000024BC9
S1132600181870470020FCE7CC060020F0B5D64629
S11326104F464646C0B589468D796BB2002B26DB02
S113262028005E4B984704000F272F40038A9846E2
S11326304B461B889A46837C5B076AD4E368534401
S11326401E00E360A3689E4200D874E0E360A37CAC
S113265001229343A3742368002B03D0E1682A006A
S1132660002098471CBC90469946A246F0BD28001D
S11326704A4B984704000F272F40038A98464B463D
S11326805E88C3689C466644C66081688E4225D0D5
S11326908D1BADB2424B9D4206D91D004146180028
S11326A0404B98476D1AADB2A27C0023920707D520
S11326B0414628003C4B984789B24B424B41DBB220
S11326C05B00A27C02218A431343A37462689219BB
S11326D02B0039003548364CA047C3E7837C9B0761
S11326E00BD4837C0122934383740368002BB9D0F9
S11326F02A00310000209847B4E7837C02229343E8
S1132700837442689219002339002848284CA04752
S1132710A8E74368C268944663441E004146806843
S1132720214B98470A007B1E9B012249591830000F
S1132730214B984782E74A469288524500D086E763
S11327409E4200D183E79B1B9DB2154B9D4216D937
S11327501D0041461800134B98476B1A9BB29845CD
S113276014D9A37C04221343A3747A1E9201114B3F
S1132770D218434639000D48104CA04772E7414631
S11327802800094B98476B1A9BB2E8E762689219D4
S113279039000648094CA04764E7C046E925000013
S11327A0FF1F0000A54F0000D14D00008408002049
S11327B0D9370000C40700208D5000002D380000D8
S11327C010B50522054B1A70054C80212000054BDD
S11327D0984700212000044B984710BDCA060020EA
S11327E0840800202D3700005337000070B5134BC8
S11327F01B8B9B061BD41149D0221201CB681340BA
S11328009342FBD10E4C022120000E4B9847042129
S113281020000D4DA8470D4A062120000C4B984777
S113282006212000A84703200A4B984770BD03499E
S113283080225200CB681342FCD0E3E7000C004036
S1132840840800206D3200004D320000852800000D
S1132850293200002D25000010B5064C042120006B
S1132860054B984702212000044B98470120044B54
S1132870984710BD840800206D3200004D320000DE
S11328802D25000070B50E000E4C062120000E4DC3
S1132890A84704212000A847022120000B4B984799
S11328A002200B4B98473368002B04D1094B9847FF
S11328B0094B984770BD094B98473368002BF7D1F3
S11328C0F4E7C046840800206D3200004D32000059
S11328D02D250000C7420000C5420000C942000087
S11328E030B583B004001E4B98478023226893724E
S11328F001AD28001B4B984703236B70290020006F
S1132900194B984719492000194B9847194B022233
S113291000212000184DA847184B00220021200058
S1132920A847174B012200212000A84702220021BA
S11329302000144DA847002200212000A8470122AE
S113294000212000A84721680B890F4A1A408023E0
S1132950DB0013430B8100220C4B1A7003B030BD13
S1132960D90C00007934000089340000040A0020E6
S11329707D380000C92A000089320000BD2D000006
S1132980CD290000D9320000FFF3FFFFCA06002062
S113299010B50322074B1A70074C08492000084B56
S11329A09847084B9A68002300212000064CA04752
S11329B010BDC046CA06002084080020040A002076
S11329C07D380000EC090020D937000010B5897962
S11329D04BB2002B06DB0E4B1B78022B0FD0032BC4
S11329E011D010BD0A4B1B78012B05D0042BF8D154
S11329F00848094B9847F4E7084B9847F1E7042245
S1132A00034B1A70EDE70348034B9847E9E7C046C8
S1132A10CA060020840800202D37000091290000F8
S1132A2070B5204B1B88204A9489E41AA4B2002C68
S1132A3018D11E4A11885B189BB213801A4AD28897
S1132A409A4223D01A4B1B78002B1FD1164B5B697B
S1132A50002B23D09847002820D00022114B1A8045
S1132A60114B9C893F2C19D90022114B1A70402418
S1132A700C4D2B880C4A9268D218230000210D4873
S1132A800D4EB0472B88E4182C8070BD04220B4BEC
S1132A901A700B4907480B4B9847F6E70122044B81
S1132AA01A70E5E7C6060020EC090020C8060020DD
S1132AB0C406002084080020D9370000CA0600207C
S1132AC0040A00207D38000010B50C002C4B1B7844
S1132AD0002B07D02B4B1B69002B00D098470022FA
S1132AE0274B1A702388082B02D0274B984710BD18
S1132AF0244A264B1978117059785170D8780002FD
S1132B009978091851805879000219790918918027
S1132B10D97909029B795B18D3801D4B984700280B
S1132B2016D0184B1B787F2B15D8164BDB88002B3F
S1132B3022D00023174A1380174A13800122104B16
S1132B401A704023114A00211448154CA047CEE7BF
S1132B500D4B9847CBE700230E4A13800E4A13808F
S1132B600222074B1A704023084A00210B480C4CE0
S1132B70A0470C4B9847BAE70B4B9847B7E7C046BA
S1132B80CA060020EC090020C1270000040A002026
S1132B90690D0000C8060020C60600208408002035
S1132BA02D380000212A00009129000010B5014BA6
S1132BB0984710BD250D000010B5040001000A4817
S1132BC00A4B984720000A4B9847837CDB070AD5B9
S1132BD0837C0122934383740368002B03D0C16870
S1132BE022000120984710BD84080020CD36000043
S1132BF0E925000000207047024B1B68188A8004F6
S1132C00400D704784080020024B1B68188A80B26C
S1132C107047C0468408002070B582B0040001AD3E
S1132C2028000D4B984720000C4B98472C7000232C
S1132C30EB700B4E290030000A4B98470F212140BE
S1132C4000223000084B9847002221003000074B37
S1132C50984702B070BDC04679340000B92B00001B
S1132C608408002089340000B1320000A933000038
S1132C70F0B583B005000F00140001AE3000364BF0
S1132C8098473570082C13D8002201AB5A702800DD
S1132C90324B9847048203213940012938D0022954
S1132CA043D0002303293DD1042201ABDA7032E082
S1132CB0102C03D8012201AB5A70E8E7202C03D86A
S1132CC0022201AB5A70E2E7402C03D8032201AB85
S1132CD05A70DCE7802C03D8042201AB5A70D6E783
S1132CE080235B009C4203D8052201AB5A70CEE7D7
S1132CF080239B009C4203D8062201AB5A70C6E78E
S1132D00174A002394420DD8072201AB5A70BEE73C
S1132D10022201ABDA7001A91248134B9847002331
S1132D20002806D0180003B0F0BD032201ABDA700E
S1132D30F1E70F2129400B4C0C4B002220000C4ED4
S1132D40B0470022290020000A4EB0470122290082
S1132D502000B0470123E5E779340000E9250000AD
S1132D60FF03000084080020893400000D260000C1
S1132D7089320000D932000010B501000148024B2D
S1132D80984710BD840800200337000010B50400E4
S1132D900F2303400020032B00D910BD2100044859
S1132DA0044B98472000044B98470120F5E7C046A0
S1132DB0840800202D370000B92B000070B5344B77
S1132DC01B78012B0AD0022B5FD0324B1B69002BDE
S1132DD000D0984700222E4B1A7070BD0D882D4BE1
S1132DE09B892D4A14886219934201DA1D1BADB2E6
S1132DF0284B986800192A002849294B98476419D8
S1132E00A4B2254B1C80402D0AD0224B9C815B69C7
S1132E10002B02D09847002814D0224B9847DCE7B7
S1132E201C4BDA88204B1B881B199A42EDDD194B89
S1132E309B89A3420CD04023184A00211B481C4CF8
S1132E40A047CAE70522124B1A701A4B9847C4E7E9
S1132E50104B5B69002B0BD0984700280FD0124908
S1132E600D4A0B8810881B180B8000231380E2E79F
S1132E700522074B1A7000200E4B9847ADE7052238
S1132E80034B1A700B4B9847A7E70B4B9847A4E7E3
S1132E90CA060020EC090020C6060020040A00200F
S1132EA08D50000091290000C806002084080020ED
S1132EB02D3800008D2D0000212A000070B504007B
S1132EC00F2303400020032B00D970BD2000094BC1
S1132ED09847050021000848084B9847AB7C01201F
S1132EE0DB07F2D5AB7C01229343AB742B68984784
S1132EF00120EAE7E9250000840800205337000098
S1132F00F0B587B005000391029201930F260640A5
S1132F100024032E02D9200007B0F0BD644B98476B
S1132F20041E00D0BDE02800624B98470700EFF371
S1132F3010835A425341059372B6BFF35F8F002248
S1132F405D4B1A70059A837CDB0708D5002AE2D012
S1132F500122594B1A70BFF35F8F62B6DBE7837CA3
S1132F6001210B438374002A05D00122524B1A70AD
S1132F70BFF35F8F62B6029B7B60019BBB60002343
S1132F80FB600C9B3B600123039A13405A00BB7CFB
S1132F9002218B43134304229343BB746BB2002B73
S1132FA020DB019B002B6FD09CB2444B9C425AD92E
S1132FB0398A1C001800424B9847631A9AB23B8A1C
S1132FC09A4257D2BA7C04210A43BA74721E9201FF
S1132FD03C49521831003C483C4CA04744424441CF
S1132FE0E4B298E7019B002B27D09DB2334B9D425E
S1132FF006D9398A1D001800314B98476B1A9DB2C7
S1133000BB7C9B0707D5398A2800314B984789B286
S11330104C424C41E4B2012020404000BC7C0223DD
S11330209C430443BC742B00029A31002648294C6B
S1133030A04744424441E4B26DE7BB7C9B0705D5FD
S1133040BB7C02229343BB740025ECE7BB7C0122CA
S11330509343BB740C9B002B25D02A000021002035
S11330609847012457E7398A2000194B9847631A77
S11330709AB2A4E71300029A31001348134CA047F4
S113308044424441E4B246E7BB7C01229343BB740F
S11330900C9B002B09D02A00002100209847012412
S11330A039E7002437E7012435E7012433E7C04634
S11330B0792D0000E925000012010020FF1F000007
S11330C0A54F0000C4070020840800202D3800000C
S11330D0D14D0000D9370000024B1B6880221043F9
S11330E09872704784080020024B1B68987A400647
S11330F0400E704784080020014B98609981704706
S1133100EC09002070B50320164B9847164C226832
S1133110138901218B431381144A03312000144E77
S1133120B047144A00212000B047134A012120006F
S1133130B047124A02212000B04704212000104D5C
S1133140A84700212000A84701212000A847022108
S11331502000A8470B4A06212000B0470621200082
S1133160A84770BD2D2500008408002059280000C0
S113317029320000AD2B0000E1280000ED270000FB
S11331804D3200008528000070B582B0EFF3108343
S11331905A425341009372B6BFF35F8F00221A4B19
S11331A01A70009C01AD2800184B98470323AB709C
S11331B0174E2A008221C9053000164B984730006B
S11331C0154B9847154B1B8B9B0615D41349D022DE
S11331D01201CB6813409342FBD10120104B984756
S11331E0104B9847002C05D00122074B1A70BFF3EF
S11331F05F8F62B602B070BD084980225200CB686E
S11332001342FCD0E9E7C04612010020A13F0000B0
S113321084080020B13F0000AD380000000C0040DD
S11332202D2500000531000010B50B002E339B0046
S11332301A50AA2252004900835A034C095B0B43DB
S11332408352002010BDC046485100004900064B7F
S1133250CB5A02689383AB214900425A1A43425223
S11332600268138300207047485100004900054B51
S1133270CA5AAB214900435A9343435203689A8282
S1133280002070474851000010B58C00A418343455
S1133290A4000419636040185930FF3003780349CF
S11332A08A5C13430370002010BDC04658510000CF
S11332B010B58B009B1834339B00C31800245C604A
S11332C040185930FF30034B9A5C037893430370E2
S11332D0002010BD5851000070B50F230B40C418D6
S11332E06134FF3425782F4EB65C35432570002AAF
S11332F029D1002B12D103250A24FF340668355541
S1133300032A09D149B2002944DB02685B01D318BE
S11333100A33FF3320221A70002070BD4CB2002CF7
S113332008DB5C010568AC4664440A34FF340125BB
S11333302570E5E75C010568AC4664440A34FF3453
S113334002252570DCE7012A1AD1002B05D1026879
S11333500C210A23FF33D154DEE749B2002907DBED
S113336002685B01D3180A33FF3304221A70D3E7CF
S113337002685B01D3180A33FF3308221A70CBE7C3
S1133380022ABDD102685B01D3180A33FF3310222D
S11333901A70C1E702685B01D3180A33FF33402275
S11333A01A70B9E75851000070B50F230B40C418C8
S11333B06134FF342F4DAE5C2578B5432570002A67
S11333C029D1002B12D103258424640006683555C5
S11333D0032A09D149B2002944DB02685B01D318EE
S11333E00933FF3320221A70002070BD4CB2002C28
S11333F008DB5C010568AC4664440934FF340125EC
S11334002570E5E75C010568AC4664440934FF3483
S113341002252570DCE7012A1AD1002B05D10268A8
S11334200C210933FF33D154DEE749B2002907DB0D
S113343002685B01D3180933FF3304221A70D3E7FF
S113344002685B01D3180933FF3308221A70CBE7F3
S1133450022ABDD102685B01D3180933FF3310225D
S11334601A70C1E702685B01D3180933FF334022A5
S11334701A70B9E758510000002303704370837039
S11334800133C37070470000F0B50C780F2323405C
S113349064B2CA78042A70D89200894DAA58974613
S11334A0026808335B0100219954002282E05C0128
S11334B002689446644480225200A55CE43A6D0795
S11334C078D1E432A65C7025E43A2E4272D15F3D95
S11334D0E432A5541A00083252010468A4182F35A6
S11334E0657100688218802010718A78002A1FD0C4
S11334F05801744A1218546880200006044354602A
S113350054692043506107254C785A016D4B9B1830
S113351058682C4024076C4E30402043586049784A
S11335205A692940090732400A435A61002241E09E
S11335305801644A121850684000400850605069AD
S1133540400040085061DEE7002C35DB5D01026875
S11335509446654480225200AE5CE43A760729D151
S113356080267600AA5D02273A43AA55026818000D
S113357008304001121840205071E20F4F785D006E
S1133580AD182D014F4E7519686807243C40240777
S11335904D4E3040204368608978002900D088E08F
S11335A05B009B181B01474AD3185A685200520803
S11335B05A6000221000F0BD5D0102689446654423
S11335C080225200AF5C7026E43A3742F2D1903642
S11335D0AA5D20273A43AA55026818000830400122
S11335E0121880201071C8E7002C17DB5D010268F7
S11335F09446654480225200AE5CE43A7607D9D101
S113360080267600AA5D03273A43AA55026818006B
S113361008304001121840205071AEE75D01026885
S11336209446654480225200AF5C7026E43A3742E7
S1133630C0D19036AA5D30273A43AA5502681800D3
S11336400830400112188020107196E7002C17DB17
S11336505D0102689446654480225200AE5CE43AFF
S11336607607A7D180267600AA5D04273A43AA5597
S113367002681800083040011218402050717CE79D
S11336805D0102689446654480225200AF5C702656
S1133690E43A374200D08DE79036AA5D40273A439A
S11336A0AA550268180008304001121880201071D1
S11336B063E7696880231B060B436B60002279E78C
S11336C034510000440A0020FFFFFF8F0F230B40FA
S11336D049B200290ADB08335B010268D218402191
S11336E051710268D3180122DA71704708335B0103
S11336F00268D218802111710268D3180222DA718B
S1133700F3E70F230B4049B2002907DB02680833B3
S11337105B01D3189879C006C00F7047026808335C
S11337205B01D31898798006C00FF6E70F230B408E
S113373049B2002906DB026808335B01D318102262
S11337405A717047026808335B01D31820225A71FA
S1133750F7E730B50F230B4049B200291DDB5901AF
S11337600268521883246400145DE40614D51025FD
S1133770822464001555026852180821FF31515CF7
S1133780890609D5E43C0821FF3154540268083302
S11337905B01D31801221A7130BD59010268521815
S11337A083246400145DA406F6D5202582246400D5
S11337B01555026852180821FF31515C4906EBD5B2
S11337C0C43C0821FF315454026808335B01D31808
S11337D002221A71E0E7000030B50C0008346401DD
S11337E00568645D6406640F1C25002C01D1280063
S11337F030BD4C010B4D2D192C002A616A690A4D0C
S11338002A40626162699B049B0C920B92031343EE
S11338106361036808314901591880234B710025FD
S1133820E5E7C046440A0020FF3F00F030B50C0035
S1133830083464010568645D64071C25002C01D10B
S1133840280030BD0B4C4D012A51621954689B0469
S11338501B09094D2C402343536053689B0B9B0366
S11338605360036808314901591840230B7100253E
S1133870E6E7C046440A0020FF3F00F0094B196008
S11338805A6809491140802292020A435A605A68D0
S1133890920B92035A600268402182235B00D15448
S11338A000207047440A0020FF3F00F002681378AC
S11338B002210B43137002689378022BFCD07047EB
S11338C0F0B5DE4657464E464546E0B583B0C44B98
S11338D01F683D682B78DB0914D12E8CB6B2002EFC
S11338E000D02DE2AE8BB6B2AB235B00FB5AAA220A
S11338F05200BD5A1D4035400024BA4FB84B99467A
S1133900984608E22B8C9BB2002B00D13DE1288C19
S113391080B2B54B984704001F2800D935E1030055
S113392008335B01ED18ED79EDB2AB0741D0AF4A36
S113393001238340116899431160030008335B013C
S11339403A68944663440322DA713B18AE331B7819
S1133950DB072ED5A64B18703A68030008335B01C9
S11339609B5C9B079B0F012B00D194E04201A14B70
S11339709B185A681201920C90B29D494A805A6869
S11339809204920C8A805A689B490A405A60002823
S113399007D16201974B9B185B689B049B0C944A6C
S11339A053808F4B1868A31C1B01C3185B68904994
S11339B098476B071FD58A4B1868026823000833A1
S11339C05B019B5C9B065B0F022B75D023000833C5
S11339D05B019B5C9B065B0F032B00D19EE06201A5
S11339E0844B9B1800229A72036822000832520109
S11339F09B180422DA712B0715D57C4A0123A340B6
S1133A00116899431160764B1868230008335B01F1
S1133A100268944663440822DA710319AE331B78B2
S1133A209B0700D594E0EB0615D5704A0123A3400B
S1133A301168994311606A4B1868230008335B01CD
S1133A400268944663441022DA710319AE331B787A
S1133A505B0700D58AE0AB0600D42FE1634A01235B
S1133A60A3401168994311605D4B18682300083323
S1133A705B010268944663442022DA710319AE3371
S1133A801B781B0700D419E159490C70240104194F
S1133A90236B984712E14201564B9B185A689204D3
S1133AA0920C53494A805A681201920C8A805A68CF
S1133AB0920B92035A6074E7230008335B019B5C0A
S1133AC09B079B0F012B81D161014A4B5B18083383
S1133AD09B78DB0700D479E7444A0123A3401168AB
S1133AE0994311606201434B9B1800229A72230090
S1133AF008335B010268944663440422DA710319B3
S1133B00AE331B789B0700D475E739490C7010233A
S1133B104B702301C3189B6A98476CE72300083352
S1133B205B019B5C9B079B0F012B00D057E7620155
S1133B30304B9B1800229A72230008335B01026801
S1133B40D2180421D1710268D31810225A7152E795
S1133B5027490C706201274B9B18DB891F221340F5
S1133B604B702301C3189B6A98475CE720490C708B
S1133B706201204B9B185B681B019B0C4B8023014B
S1133B80C318DB6A0021984765E7AC8BA4B26307CE
S1133B9038D50423AB83154B1D680123012010265F
S1133BA002E00133082B29D002009A401542F8D0D4
S1133BB039681A0008325201525C9206520F032AE5
S1133BC0EFD11A0008325201525C9207920F012A77
S1133BD0E7D11A000832520189180E71E1E7C04694
S1133BE04807002048510000B14F0000580700204A
S1133BF05C070020440A0020FF3F00F09D33FB5C7B
S1133C00DB0762D423070BD50022AF4B1A60AF4BFE
S1133C1018680823026893839D33C35C9B0758D4B8
S1133C20630608D5A94B186840230268938365335B
S1133C30C35CDB0650D4A30608D5A44B1868202324
S1133C40026893838533C35C1B0748D4E30608D515
S1133C509E4B18681023026893839533C35C5B07FB
S1133C6040D423060BD50022974B1A60974B186853
S1133C708023026893832533C35C9B0635D4E30514
S1133C800CD50022904B1A60904B186880235B007F
S1133C90026893835B3BC35C5B0629D4A3050DD503
S1133CA00022894B1A60894B186880239B000268A4
S1133CB093835C3BFF3BC35C7F2B1CD803B03CBCB1
S1133CC090469946A246AB46F0BD7B6838009847BB
S1133CD098E783689847A3E743699847ABE7036984
S1133CE09847B3E7C3689847BBE783699847C6E733
S1133CF0C3699847D2E7036A9847DFE723002E3366
S1133D009B00424612689B58714942461068984786
S1133D100134072CD2D06300DB5B334203D04A4624
S1133D201268126893832B42F2D0062CE6D1694BB9
S1133D301B891B09802252001340654A1360DDE78A
S1133D403C005934FF340023012294465F329146EB
S1133D50503A92460D3A9346B8462F00C3E02A00E3
S1133D603D00474690465B01ED180823FF33EB5CAA
S1133D705B0615D540220823FF33EA54883BFF3BFA
S1133D8042461343544A937160230B4296D0019BDD
S1133D901B01FB18E0331B684F49380098478DE737
S1133DA00823FF33EB5C9B06EED520220823FF3368
S1133DB0EA54494B42469A71E6E73D004746019A68
S1133DC0130008335B01ED181023EB71BB1861334A
S1133DD0FF331B78DB0600D470E7100052013D4B23
S1133DE09B185B689B049B0C3B490B800301FB18ED
S1133DF0DC331B684046984760E72A003D0047468D
S1133E0090465B01ED180823FF33EB5C9B071ED53E
S1133E1002220823FF33EA542F48883BFF3B4246E3
S1133E2013438371019B5A012A4B9B1810335B681F
S1133E309B049B0C43808B0700D13FE7019B0D3310
S1133E401B01FB185B6824493800984736E70823B0
S1133E50FF33EB5CDB07EED501220823FF33EA5482
S1133E601D4843468371019B5B011A4AD21853686B
S1133E709B049B0C038053681B019B0C8380DAE733
S1133E800822FF329A5C520779D504200822FF32B7
S1133E909854019842010F4B9B189B7A9B0705D5B8
S1133EA00C4B9B189A7A022082439A720A4B424620
S1133EB09A71019B08335B013A6894466344DB7949
S1133EC0DB075CD5FAE6C046580700204807002007
S1133ED04C070020440A002050070020013301341D
S1133EE0082B00D1EAE6DDB2019332001A416146A3
S1133EF01142F3D01A0008325201BA18D279D2B260
S1133F00217A1140207801404846104200D026E72B
S1133F105046104200D050E75846104200D06CE79B
S1133F200C201042DAD02A003D00474690465B013F
S1133F30EB180822FF329A5C1207A1D50438082234
S1133F40FF32985401984201134B9B189B7E9B07A8
S1133F5005D5114B9B189A7E022082439A768023C2
S1133F605B42424613430D4A9371019B08335B0144
S1133F703A6894466344DB799B0700D59EE60C239C
S1133F800B4200D19AE6019B1B01FB18D8331B6836
S1133F9002493800984791E6440A0020500700205F
S1133FA0002303700133437003228270C37070478F
S1133FB0F0B5CE46474680B583B004000D00160028
S1133FC00023674A1360674A10602160664882696B
S1133FD001210A43826101AF7B70B970FB70063323
S1133FE099463B7039001820604B984698474B46D9
S1133FF03B7039001920C047B3786A46137069468C
S113400004205B4B984704205A4B98472B78012295
S113401013432B70AB78DB07FCD4574B1B689B0313
S1134020DB0E1F2B00D18FE02A8D9B0153490A40E0
S113403013432B85504B1B685B02DB0E1F2B00D1F7
S113404084E02A8D1F218A4313432B854A4B1B6826
S11340509B015B0F072B00D17AE02A8D1B03484993
S11340600A4013432B8532782978D2017F230B40F1
S113407013432B7071782B7801220A40920004219B
S11340808B4313432B703F4B6B62F378012B61D04E
S1134090002B06D1226813890C218B4304210B4386
S11340A013818022520000213648374B9847231D44
S11340B021002431002204C38B42FCD12100A4310D
S11340C000221A605A609A60DA6010338B42F8D189
S11340D00023A422A3540132A3542300A6332100B5
S11340E0AE3100221A701A7201339942FAD12300B8
S11340F0B8332100D431002204C38B42FCD1210007
S11341005531FF3100221A605A609A60DA60103328
S11341108B42F8D10023AA225200A3520232A352A6
S113412023005933FF336134FF3400221A701A72AA
S11341300133A342FAD14022144B1A60002003B089
S11341400CBC90469946F0BD1A3B6DE7023B78E7FC
S1134150043B82E72268138908318B431381A0E76B
S1134160580700204807002000040040CD24000028
S1134170D1230000612300001C6080003FF8FFFF92
S1134180FF8FFFFF440A00209F50000000E100E081
S1134190FEE7000010B51A4A1A4B9A4211D01A00D1
S11341A0194B9A420DD2194A03339B1A9B080133C7
S11341B09B000022134812498C58845004329A42BE
S11341C0FAD1134A134B9A420AD2D34311495B18CA
S11341D003218B4304339B18002102C29342FCD178
S11341E00D4AFF210D4B8B4393600D4A53687F3971
S11341F00B4353600B4B98470B4B9847FEE7C04665
S1134200E4510000000000201401002004000020FC
S113421014010020EC0C002000ED00E00000000080
S113422000400041455000002D42000030B583B0ED
S11342301A4B1A68531C17D0194B802189005960F6
S1134240062449201C5499611B6A9B05DB0F6946AF
S1134250CB71CB79002B07D0C023DB01196881F324
S1134260088810498B6010470F4B98470F4B9847AD
S11342700F4B98470F4D104C2B78002B08D1A047BB
S11342800028F9D001200D4B98470D4CA047FDE7BD
S113429000200A4B98470A4CA047FDE70460000041
S11342A08028004000ED00E001250000CD0C000056
S11342B06947000062070020E9480000F14200005D
S11342C0C943000070477047704700000122024B49
S11342D01A7001207047C046620700200022014B7B
S11342E01A707047620700207047704770470000DB
S11342F0012805D0002802D1034A044B1A607047F4
S1134300034A024B1A60FAE7A85100009C0B0020F4
S11343108C510000F0B585B01F4B1B78002B36D0B4
S113432004291BD0022922D000784D0004AB5A196D
S11343300B3A002D17D101A8302303704833437082
S1134340013149006E3B435445190333EB7002318C
S1134350124B1B68DB68984705B0F0BD00684D0040
S113436004AB5A190B3A00240F26302708E00088C2
S1134370F5E7373313700009013A0134AC42DAD25D
S113438033000340092BF4D83B431370F3E7034B8A
S11343901B68DB689847DFE7630700209C0B00205D
S11343A072B6BFF35F8F0022054B1A70EFF30883D8
S11343B0044A1360036883F3088843681847704706
S11343C012010020A00B0020F8B5DE4657464E46E9
S11343D04546E0B50022CC4B1A607A32CB4B1A70BA
S11343E0CB4B9A46CB4B9B46CB4CC84B98465B4633
S11343F01B681B69402150469847C84B1860C64B40
S113440052461A600022C64B1A600028EFD0C24DF3
S1134410D8E0C44B1B78002B72D1BC4B1B78532BB8
S113442075D0522B00D1E7E04F2B00D1EDE0482BA3
S113443000D1F0E0572B00D1F3E06F2B00D1F6E070
S1134440682B00D1F9E0772B00D1FFE0472B00D196
S113445005E1542B00D111E14E2B00D118E1562B6C
S113446000D098E0AB4B99461B68DB680121AE484D
S113447098474B461B68DB680421AC4898474B4679
S11344801B68DB680121AA4898470022A44B1A60E4
S1134490A84AA14B1A60A2481A000368591C01607B
S11344A013685E1C16601B78002BF6D1994B994655
S11344B01B68DB68A04898474B461B68DB680121F2
S11344C09B4898470022964B1A609C4A924B1A606C
S11344D093481A000368591C016013685E1C166037
S11344E01B78002BF6D18B4B99461B68DB689448EC
S11344F098474B461B68DB680221924898474AE07C
S1134500844B1B68DB6802218E48984785E7834B00
S11345101B68834A126893422ED97F48016801318F
S1134520016001327E490A60874909689B1A8B42FF
S113453000D90B00854A13600021854A1170002BB5
S11345401AD07149744A764F8148804B9C4613684F
S11345501B780E6833700B6801330B6013680133EA
S113456013603B6801333B6003780133DBB20370B3
S113457066463668B342EAD3694A1368013B13605E
S1134580654A1368013B1360714B1B786E4A1168CE
S11345908B4229D3C0467A225C4B1A7000226A4BA4
S11345A01A60604B1B78002B00D080E02368013335
S11345B023605B4A136801331360584A12689A42B5
S11345C000D814E72B681B78FF2BF2D0232B00D1E3
S11345D01FE71A00303A092A70D85B490A681201A9
S11345E0303B13430B60E1E7C91A474B1868494B4A
S11345F01B689B699847CDE7534B1968424B186871
S1134600444B1B685B699847C5E73F4B1B684E4AA0
S113461012681A70BFE73C4B1B684B4A12681A8039
S1134620B9E7394B1B68484A12681A60B3E7364B3E
S113463018680121474B9847ADE74348324B1B6844
S11346401B8803600221434B9847A4E72E4B1B6849
S11346501B683D48036004213E4B98479BE73A4B57
S113466018683D4B98473D4B1B6883F3088801222B
S11346703B4B1A70BFF35F8F62B68CE70122294B64
S11346801A70244B1B68DB6802212E48984782E786
S1134690244B1B78002B03D00022224B1A707AE79C
S11346A01C4B1B68DB68022126489847F4E7194B2A
S11346B01B68DB6801212B48984777E71A00413AC9
S11346C0052A06D820490A681201373B13430B60B8
S11346D06CE71A00613A052A06D81B490A681201D8
S11346E0573B13430B6061E72C2B05D042461370F4
S11346F00022154B1A6059E7134B034A19681160DD
S113470000221A6052E7C046980B0020500B00208C
S1134710580B00209C0B00204C0B0020480B002061
S1134720540B002063070020685100005C51000016
S11347306C51000071510000705100007D51000067
S11347407C51000064510000A40B0020A80B002041
S1134750440B002015430000A1430000A00B0020DF
S1134760120100208851000030B591B08023DB0590
S1134770009300230193FF2269460A8100228B7271
S1134780CB72012124206C4621540130215425315F
S11347906354013163540A93053163540131635402
S11347A005932382E3762276227762761323A37617
S11347B06277E1235B02089390235B030393284B06
S11347C00C93284B0D93284B0E93284B0F93284D95
S11347D0284C6A468421C9052800A0470028F8D13E
S11347E0234D2C682000244B98471F2318401E3B60
S11347F08340224A13602A68D369002BFCD12368C2
S11348000222134323601A4B1B68DA69002AFCD185
S11348105968802252020A435A600121144AD17114
S1134820DA69002AFCD1DA69002AFCD159688022AD
S113483092020A435A6001210D4A9171DA69002AF1
S1134840FCD100230E4A13700E4A13700E4A1370E3
S11348500E4A13700E4A13700E4A137011B030BD15
S1134860020008000200090002000A0002000B0016
S1134870B40B002031170000A116000000E100E095
S1134880AC0B00206A0C0020AD0B0020B00B002004
S11348906B0C0020680C002010B581B20248034B59
S11348A09847012010BDC046B40B0020951A0000A3
S11348B08423DB05187E4007C00F704710B582B013
S11348C0064CA0470028FCD06B469C1D21000448E0
S11348D0044B9847208802B010BDC046B148000080
S11348E0B40B0020BB1A000010B5064B98470023F8
S11348F0002801D1180010BD034B984723384342C8
S11349004341F7E7B1480000BD480000F8B50F1E69
S113491007D046180400044D2078A8470134A64265
S1134920FAD13800F8BDC0469948000010B504001B
S1134930024B98472070012010BDC046BD480000BE
S1134940000248400823084906E04000484080B27D
S1134950013B9BB2002B05D002B2002AF5DB4000DC
S113496080B2F5E77047C04621100000F0B5DE467E
S113497057464E46C0B582B007000E1E2AD000240A
S113498000230193194B9A46194B9946194B9B46A0
S113499008E07B1C3D701F00802E16D00134A4B2A9
S11349A0A6421BD0D047C5B24B461B78002B13D16F
S11349B001992800D84701900F4B1B88002BE8D1A0
S11349C00E4B1B78002BE9D0E3E70B490A88013A28
S11349D00A80E3E7019101E001230193019802B009
S11349E01CBC91469A46A346F0BDC046BD48000093
S11349F0680C002041490000AE0B0020690C002027
S1134A00F0B585B005000191022103A8174CA04719
S1134A1080212800A0470500154B1F78002F03D0E4
S1134A200027380005B0F0BD124EB047000284B232
S1134A30B0472418A4B20E4B1B78012BF1D0A54229
S1134A4004D103AB1B78019A934203D018200A4B7C
S1134A509847E6E7DB4303AA5278DBB29A42F5D1E2
S1134A600620054B98470127DBE7C0466D49000047
S1134A70680C0020BD48000099480000F0B5DE46EF
S1134A8057464E464546E0B585B0050089460022A6
S1134A904A4B1A70002928D10132494B1A70494FE8
S1134AA0464E3400B8473378002B2CD1C0B243288B
S1134AB003D0712879D01528F4D1039501230293EA
S1134AC0414B9B46414B98461C003D4B9A46012066
S1134AD0D847029D2800D847E843C0B2D847039D71
S1134AE08027002301932E002EE0384B19800022EA
S1134AF0334B1A700B005B06D1D00B0080337F322E
S1134B0093439946CBE7002323702E4B9847C0B2BA
S1134B102378002BCBD00022284B1A70002045E0CC
S1134B200022264B1A70002040E03578013B238098
S1134B3001362800244B984701992800244B9847B4
S1134B400190013F002F08D043461B88002BECD175
S1134B5052461578002DECD0E7E70500000AC0B2F4
S1134B60194EB047E8B2B047164B9847134B1B7821
S1134B70002BD5D1FF231840062809D1029B01330D
S1134B80DBB202934B46803B9946039B80330393ED
S1134B904B46002B9BD104200B4B9847094B98475D
S1134BA00022074B1A70012000E0002005B03CBC35
S1134BB090469946A246AB46F0BDC046680C00201C
S1134BC0690C0020BD48000099480000AE0B00208D
S1134BD041490000F0B5C64600B582B001900C0012
S1134BE006202F4B98470A212E4B9847009000220D
S1134BF02D4B1A70002C06D101322C4B1A706425EF
S1134C002B4E2C4F0EE02C4B1C800022274B1A708D
S1134C10F5E7013CB847002808D1002CF9D1013D43
S1134C20002D3BD04320B047009CF3E7002CF6D086
S1134C30019E0124214F1C4D214B984612E0002275
S1134C40194B1A70002002B004BC9046F0BD21003C
S1134C503000C047144B1B78002B12D1012815D00B
S1134C60002809D0B8472B78002BE8D1FF2318403F
S1134C700128ECD004280DD000220C4B1A7001201E
S1134C80E1E70022084B1A700020DCE70134E4B2AB
S1134C908036E7E70620064B9847EDE70020D2E789
S1134CA0B91C0000C54C0000680C0020690C0020F1
S1134CB099480000B1480000AE0B0020BD48000038
S1134CC0014A0000002243088B4274D303098B423B
S1134CD05FD3030A8B4244D3030B8B4228D3030CC8
S1134CE08B420DD3FF22090212BA030C8B4202D36A
S1134CF01212090265D0030B8B4219D300E0090A92
S1134D00C30B8B4201D3CB03C01A5241830B8B429A
S1134D1001D38B03C01A5241430B8B4201D34B0383
S1134D20C01A5241030B8B4201D30B03C01A5241E8
S1134D30C30A8B4201D3CB02C01A5241830A8B426D
S1134D4001D38B02C01A5241430A8B4201D34B0256
S1134D50C01A5241030A8B4201D30B02C01A5241BA
S1134D60CDD2C3098B4201D3CB01C01A524183096E
S1134D708B4201D38B01C01A524143098B4201D3A8
S1134D804B01C01A524103098B4201D30B01C01AD3
S1134D905241C3088B4201D3CB00C01A524183084D
S1134DA08B4201D38B00C01A524143088B4201D37A
S1134DB04B00C01A5241411A00D2014652411046DA
S1134DC07047FFE701B5002000F0F0F802BDC046CF
S1134DD00029F7D076E7704703460B437FD40022BF
S1134DE043088B4274D303098B425FD3030A8B427B
S1134DF044D3030B8B4228D3030C8B420DD3FF22E5
S1134E00090212BA030C8B4202D31212090265D0B2
S1134E10030B8B4219D300E0090AC30B8B4201D365
S1134E20CB03C01A5241830B8B4201D38B03C01AAC
S1134E305241430B8B4201D34B03C01A5241030B23
S1134E408B4201D30B03C01A5241C30A8B4201D3D4
S1134E50CB02C01A5241830A8B4201D38B02C01A7F
S1134E605241430A8B4201D34B02C01A5241030AF6
S1134E708B4201D30B02C01A5241CDD2C3098B42DB
S1134E8001D3CB01C01A524183098B4201D38B0158
S1134E90C01A524143098B4201D34B01C01A5241FB
S1134EA003098B4201D30B01C01A5241C3088B4240
S1134EB001D3CB00C01A524183088B4201D38B002B
S1134EC0C01A524143088B4201D34B00C01A5241CD
S1134ED0411A00D201465241104670475DE0CA0FA4
S1134EE000D04942031000D34042534000229C4664
S1134EF003098B422DD3030A8B4212D3FC2289016E
S1134F0012BA030A8B420CD3890192118B4208D343
S1134F10890192118B4204D389013AD0921100E0A5
S1134F208909C3098B4201D3CB01C01A52418309B9
S1134F308B4201D38B01C01A524143098B4201D3E6
S1134F404B01C01A524103098B4201D30B01C01A11
S1134F505241C3088B4201D3CB00C01A524183088B
S1134F608B4201D38B00C01A5241D9D243088B42E1
S1134F7001D34B00C01A5241411A00D20146634684
S1134F8052415B10104601D34042002B00D54942E8
S1134F90704763465B1000D3404201B5002000F027
S1134FA005F802BD0029F8D016E770477047C046DF
S1134FB0414208401C2101231B04984201D3000CE8
S1134FC010391B0A984201D3000A08391B09984278
S1134FD001D30009043902A2105C401A7047C0468C
S1134FE01B1C1D1D1E1E1E1E1F1F1F1F1F1F1F1FDC
S1134FF0F0B5CE46474615042D0C2E0080B50704A7
S1135000140C3F0C9946030C7E435D436743634392
S11350107F19340CE4199C46A54203D980235B0212
S11350209846C4444B46514343433604360C250C3E
S113503024046544A4195918491920000CBC90464D
S11350409946F0BD70B500260C4D0D4C641BA410A0
S1135050A64209D1002600F0B5F80A4D0A4C641B9B
S1135060A410A64205D170BDB300EB589847013691
S1135070EEE7B300EB5898470136F2E7D051000051
S1135080D0510000D0510000D4510000002310B5CD
S11350909A4200D110BDCC5CC4540133F8E703003C
S11350A08218934200D1704719700133F9E7000068
S11350B0000000420004004200080042000C0042CC
S11350C00010004200040043CA1C0000C61C00007B
S11350D0C61C0000301D0000301D0000E01C000054
S11350E0D01C0000E61C00001E1D0000B41E0000C1
S11350F0941E0000941E0000401F0000A61E000025
S1135100C21E0000981E0000D01E0000241F0000D4
S11351107C1F0000BE1F0000BE1F0000BE1F000059
S11351206E1F00008A1F0000601F0000981F00000F
S1135130AE1F0000A0340000AE340000483500006B
S1135140E83500004C3600000400080070008000C0
S11351500100000100020000030C1060322E313601
S1135160000000000A0D000076000000200000008E
S11351704A616E20313120323032310031393A31D6
S1135180333A3135000000003E0000009948000029
S1135190BD480000B14800000D4900002D49000041
S11351A07D4A0000D54B00003D0A000019070000AD
S11351B0390600001D0B0000C50800001D0B00008F
S11351C0D9080000F8B5C046F8BC08BC9E46704734
S11351D0DD000000F8B5C046F8BC08BC9E46704728
S10751E0B500000012
S11351E441010000150100007D03000029010000B5
S11351F400000000410500005503000025010000E3
S11352042901000045030000800000203400002030
S1135214940000203C000020A00000200902430068
S1135224020100C032090400000102020100052445
S113523400100104240202052406000105240103CC
S1135244010705830340001009040100020A000059
S11352540007058102400000070502024000000027
S11352641201010202000040EB0324610001010267
S113527400010000050F0C000107100202000000E9
S113528400000020140000200003000000000000BF
S11352940000000000000000000000000000000006
S11352A400000000000000000000000000000000F6
S11352B400000000000000000000000000000000E6
S11352C4000000000403090441544D454C2041539B
S11352D446000000415453414D2055534220746FFD
S11352E42053657269616C20436F6E7665727465D0
S10752F4720001003F
S9030000FC
