:10000000D86C0020AD55000041560000415600005C
:1000100000000000000000000000000000000000E0
:100020000000000000000000000000004156000039
:100030000000000000000000415600004156000092
:1000400041560000895500001D300100D9290100EA
:100050004156000041560000AD4F000041560000DF
:10006000E1410100F9410100114201002942010072
:100070004142010059420100415600004156000032
:1000800041560000194801002D4801000000000001
:1000900000000000414801004156000041560000A8
:1000A00041560000415600004156000041560000F4
:1000B0000000000010B5064C2378002B07D1054B3B
:1000C000002B02D0044800E000BF0123237010BDC4
:1000D0001804002000000000DCBB0200084B10B533
:1000E000002B03D00749084800E000BF0748036819
:1000F000002B00D110BD064B002BFBD09847F9E731
:10010000000000001C040020DCBB0200DCBB02007D
:100110000000000080B500AFC046BD4680BD0000B5
:1001200080B582B000AF224B00221A70214B002212
:100130001A70214B01221A70204B01221A70204B99
:10014000984703001A001F4B1A701E4B1B78002B98
:1001500001D1002328E01B4B1B78013BDAB2194B7D
:100160001A70194B984703001A0001235340DBB261
:10017000002B01D0002317E0FB1D00221A700AE0BB
:10018000FB1D1B7800211800104B9847FB1D1A78A7
:10019000FB1D01321A700B4B1B78FA1D12789A4224
:1001A000EED90B4B984701231800BD4602B080BD25
:1001B0006B0400206A04002021000020220000209F
:1001C000C12401005404002059300200912501008F
:1001D0004D03000080B500AF064B00221A70064B9D
:1001E00001221A70054B01221A70054B9847C04630
:1001F000BD4680BD6B0400202100002022000020AD
:100200007130020080B500AF294B1B785BB2002B28
:100210001EDA274B1B781A0060231340202B17D1BE
:10022000234B5B78FE2B13D1214BDB88012B01D0B4
:1002300000233AE01E4B5B88002B01D0002334E002
:100240001B4B1C4A9A601A4B01229A8101232CE015
:10025000174B1B785BB2002B26DB154B1B781A0063
:1002600060231340202B1FD1114B5B78FF2B1BD138
:100270000F4BDB88002B01D0002316E00C4B5B8872
:10028000002B01D0002310E00B4B00221A700B4B07
:1002900000221A7002200A4B98478120084B984789
:1002A000084B9847012300E000231800BD4680BD9D
:1002B000E4080020540400206A0400206B0400209D
:1002C000312300004D03000080B500AF002318006B
:1002D000BD4680BD80B500AF094B1B78012253405D
:1002E000DBB2002B08D10220064B9847064B1900C1
:1002F0000220064B984700E0C046BD4680BDC04680
:100300006A04002001260000D5020000D12600006A
:1003100080B500AF094B1B7801225340DBB2002BA4
:1003200008D18120064B9847064B19008120064BC7
:10033000984700E0C046BD4680BDC0466A04002024
:100340000126000011030000D126000090B583B003
:1003500002AF0C4A0C4B00931F23012102200B4CCF
:10036000A04703001A0001235340DBB2002B04D046
:10037000074B19000220074B9847C046BD4601B005
:1003800090BDC0463404002099030000A927000056
:100390004D030000D126000080B582B000AF396067
:1003A0001100FB1D021C1A70BB1D0A1C1A70FB1DDC
:1003B0001B78002B5BD13B681F2B04D12E4B1B6895
:1003C0002E4A934207D02E4B01221A702D4B98478C
:1003D0002D4B98474CE0284B5B7B0F221340DAB241
:1003E000254B5A73244B5A7B284B1B789A4204D9CD
:1003F000274B9847274B98473AE01F4B9A68264B64
:100400009A601D4BDB7B5A2B2BD89A00234BD318B9
:100410001B689F46224B98472AE0224B984727E0CB
:100420000020214B984723E001201F4B98471FE0F5
:100430001E4B98471CE01E4B984719E01D4B9847F0
:1004400016E01D4B984713E01C4B9847114B9847FB
:100450000EE001201A4B98470AE00020184B9847FD
:1004600006E0184B98470B4B9847C04600E0C04643
:10047000BD4602B080BDC0463404002055534243FF
:100480006A040020D502000011030000540400207B
:10049000A1070000B105000014000020F493020041
:1004A000D907000039080000CD090000A5090000A7
:1004B000F10B00007D0B0000410B0000190700004C
:1004C000910C0000BD07000080B582B000AF7860DD
:1004D0000A00FB1C1A700C4B1A7BFB1C1B78534048
:1004E000DBB25BB2002B04DB084B9A687B689A4254
:1004F00005D2074B9847074B9847002300E001239C
:100500001800BD4602B080BD340400201400002055
:10051000A1070000B105000090B585B002AF78607A
:100520000A00FB1C1A70FB1C19787A680A4B0093AE
:100530000B0001218120094CA04703001A00012370
:100540005340DBB2002B03D0054B9847054B98472F
:10055000C046BD4603B090BD69050000A927000054
:100560006D070000B105000080B582B000AF3960B2
:100570001100FB1D021C1A70BB1D0A1C1A70FB1D0A
:100580001B78002B0AD1074B9847074B9A683B68AA
:10059000D21A054B9A60054B984700E0C046BD460D
:1005A00002B080BD1907000014000020B105000052
:1005B00080B500AF0E4B9B68002B0BD00D4B1B7B07
:1005C0005BB2002B03DA81200B4B984702E002203C
:1005D000094B9847074B5A68054B5A60044B9A6879
:1005E000034B9A60054B9847C046BD4680BDC04648
:1005F0001400002034040020012600000106000041
:1006000090B583B002AF0C4A0C4B00930D23002130
:1006100081200B4CA04703001A0001235340DBB29A
:10062000002B04D0074B19008120074B9847C04688
:10063000BD4601B090BDC046140000204D0600002C
:10064000A927000001060000D126000080B582B075
:1006500000AF39601100FB1D021C1A70BB1D0A1C83
:100660001A70034B9847C046BD4602B080BDC046D5
:100670004D03000080B500AF074B12220021180087
:10068000064B9847044BF0221A70034B0A22DA718A
:10069000C046BD4680BDC04658040020478B0200BE
:1006A00080B582B000AF3A60FB1D021C1A703B1D82
:1006B0000A1C1A80154B9847154B01221A73154BCB
:1006C000FA1D12789A703B681B0EDAB2114BDA7081
:1006D0003B681B0CDAB20F4B1A713B681B0ADAB28B
:1006E0000C4B5A713B68DAB20A4B9A713B1D1B885E
:1006F0001B0A9BB2DAB2074B1A733B1D1B88DAB296
:10070000044B5A73C046BD4602B080BD750600005A
:10071000140000205804002080B500AF034B984718
:10072000034B00221A73C046BD4680BD750600000B
:100730001400002080B500AFE8239B0100221900BF
:100740000220024B9847C046BD4680BDA10600006E
:1007500080B500AFA0239B01002219000620024BA8
:100760009847C046BD4680BDA106000080B500AFD9
:10077000002200210420024B9847C046BD4680BDA0
:10078000A106000080B500AF9C239B010022190048
:100790000720024B9847C046BD4680BDA106000019
:1007A00080B500AF90239B01002219000520024B69
:1007B0009847C046BD4680BDA106000080B500AF89
:1007C00080239B01002219000520024B9847C04658
:1007D000BD4680BDA106000080B582B000AFFB1D04
:1007E000114AD27C1A70FB1D1B78122B02D9FB1DFB
:1007F00012221A70FB1D1B78802118000B4B9847A2
:1008000003001A0001235340DBB2002B07D1FB1D6C
:100810001A78074B11001800064B984700E0C046B5
:10082000BD4602B080BDC04634040020C9040000AB
:10083000580400201905000080B582B000AFFB1DF0
:100840003B4AD27C1A70FB1D1B78242B02D9FB1D5E
:1008500024221A70FB1D1B7880211800354B984705
:1008600003001A0001235340DBB2002B5BD1304B55
:100870001B7C1A000323134003D12D4B5B7C002B00
:1008800004D02D4B98472D4B98474DE0284B5B7B70
:1008900018002B4B9847031E01D0802200E0002255
:1008A000284B5A70224B5B7B1800274B984703005C
:1008B0005A1C244B1033110010221800234B984768
:1008C000BB1D00221A7012E0BB1D1B781D4AD318F5
:1008D0001B7C002B1BD0BB1D1B781A4AD3181B7C1A
:1008E000222B14D0BB1D1A78BB1D01321A70BB1D00
:1008F0001B78102BE8D10AE0BB1D1B78114AD318D6
:1009000020221A74BB1D1A78BB1D01321A70BB1D40
:100910001B78102BF0D1FB1D1A780A4B1100180020
:100920000B4B984700E0C046BD4602B080BDC046B4
:1009300034040020C9040000A1070000B105000034
:100940006926010024000020B5260100358B020035
:100950001905000080B500AF0D4B5B7B18000D4BF7
:1009600098470300022B08D0032B03D0002B07D19C
:10097000012309E0084B984705E0084B984702E03F
:10098000074B9847C04600231800BD4680BDC046AF
:1009900034040020CD240100510700003507000079
:1009A0006D07000080B500AF054B9847031E01D0CE
:1009B000044B9847044B9847C046BD4680BDC0468F
:1009C0005509000019070000B105000080B586B088
:1009D00000AF0200FB1D1A70514B142200211800B9
:1009E000504B9847FB1D1B78002B0BD01623FB1890
:1009F0004D4AD27D1A704D4B3B611723FB180822DC
:100A00001A700AE01623FB18474AD27C1A70484B2A
:100A10003B611723FB1804221A70434B5A7C0F23A7
:100A2000FB183F210A401A700F23FB181B781C2B60
:100A300004D00F23FB181B783F2B0FD13B691C22DE
:100A40001A703B690A225A703B690522DA70172333
:100A5000FB181722BA1812780C321A701623FA18DB
:100A60001723FB1812781B789A4205D91623FB1816
:100A70001722BA1812781A701623FB181B788021D7
:100A800018002C4B984703001A0001235340DBB297
:100A9000002B41D1244B5B7B1800274B9847031E4A
:100AA00001D0802200E000220E23FB181A70FB1DEB
:100AB0001B78002B1BD01723FB181B789BB2023B23
:100AC0009BB21B0A9BB21AB21723FB181B789BB26E
:100AD000023B9BB21B021BB213431BB29AB2104BD8
:100AE0001A800F4B0E22BA181278DA700BE0172317
:100AF000FB181B78013BDAB2094B1A70084B0E2227
:100B0000BA1812789A701623FB181A78044B110041
:100B100018000A4B984700E0C046BD4606B080BDAD
:100B200078040020478B0200340400208004002059
:100B30007C040020C90400001D26010019050000E6
:100B400080B582B000AFFB1D084AD27C1A70FB1D35
:100B50001B78002B02D1064B984701E0054B9847C4
:100B6000054B9847C046BD4602B080BD3404002006
:100B700019070000A1070000B105000080B582B090
:100B800000AF174BDB7C1A0001231A40FB1D511EDE
:100B90008A411A70124BDB7C1A0002231A40BB1DDB
:100BA000511E8A411A70BB1D1B78002B10D00C4BB4
:100BB000587BFB1D1B785A1E9341DBB20122534028
:100BC000DBB21A1C01231340DBB21900054B984716
:100BD000054B9847054B9847C046BD4602B080BDBF
:100BE000340400209125010019070000B105000020
:100BF00080B500AF802108201C4B984703001A00E5
:100C000001235340DBB2002B2DD1194B5B7B194ADA
:100C100011001800184B98470300022B09D0032B32
:100C200002D0002B0FD009E0144B9847144B984783
:100C30001AE0144B9847124B984715E0124B98470F
:100C40000F4B984710E0C0460A4B802292025A6030
:100C5000084B1B681ABA074B1A60064B082118008C
:100C60000A4B984700E0C046BD4680BDC90400005D
:100C7000340400208C0400201525010051070000D9
:100C8000B1050000350700006D07000019050000E0
:100C900080B584B000AF0200FB1D1A70FB1D1B78ED
:100CA00001225340DBB2002B0BD0244B5B7B18009E
:100CB000234B9847031E04D0224B9847224B98475A
:100CC00039E0224B1D4A527C1A70214B1B4A927C00
:100CD0001A70204B194AD27C1A701F4B174A127D8A
:100CE0001A701E4B154A927D1A701D4B134AD27D05
:100CF0001A701B4B1B885B02FB60FB1D1B78002BD3
:100D000001D0802300E00023FA6819001000154B81
:100D1000984703001A0001235340DBB2002B09D18E
:100D2000114BFA1D12781A70104B01221A70104BD9
:100D3000984700E0C046BD4604B080BD34040020A2
:100D40001D26010085070000B10500007304002086
:100D5000720400207104002070040020750400203B
:100D600074040020C90400006C0400206B040020FF
:100D70004530020090B583B000AF284B1B780122AC
:100D80005340DBB2002B01D0002343E0234B002271
:100D90001A70234B00221A70224B1B78002B0CD0A8
:100DA000214B587B214B1968214B1B88FC1D1A00D5
:100DB000204B9847030023700BE01B4B587B1B4BC9
:100DC00019681B4B1B88FC1D1A001B4B984703001E
:100DD0002370134B1B78DBB2002B04D0104B002286
:100DE0001A70012316E0FB1D1B78022B09D0032B80
:100DF00004D0002B08D1114B984708E0104B9847BE
:100E000005E0104B984702E00F4B9847C0460F4B48
:100E1000984701231800BD4603B090BD6B04002025
:100E2000220000206C040020340400207004002004
:100E300074040020DD260100392701001907000095
:100E400051070000350700006D070000B1050000E4
:100E500080B582B000AF39601100FB1D021C1A7012
:100E6000BB1D0A1C1A70FB1D1B785A1E9341DAB277
:100E7000044B1A70044B01221A70C046BD4602B0E2
:100E800080BDC046F80600202100002090B587B044
:100E900002AFB9607A603B600F23FB18021C1A7026
:100EA0002F4B1B78DBB201225340DBB2002B01D069
:100EB000002351E02A4B00221A700F23FB181B78E5
:100EC000002B01D0812000E002203B68002B01D0E4
:100ED0003B6800E0234B7968BA6800930B0000215F
:100EE000214CA04703001A0001235340DBB2002B22
:100EF00004D01B4B01221A7000232DE03B68002B0D
:100F000023D1C046164B1B78DBB201225340DBB223
:100F1000002BF7D1154B1B78DBB2002B01D000233F
:100F20001AE0134B9A687B68D21A114B9A600F4BE8
:100F30001B78DBB25A1E9341DBB201225340DBB275
:100F40001A1C01231340DBB206E0094B9A687B6848
:100F5000D21A074B9A6001231800BD4605B090BD18
:100F600021000020510E0000A9270000F8060020F3
:100F70001400002080B500AF014B1800BD4680BDB5
:100F80006095020080B500AF074B1B681A68064BDE
:100F90001B681B689978DB781B020B439BB2D31844
:100FA0001800BD4680BDC046A004002080B584B0B6
:100FB00000AF78600A00FB1C1A70144B98470300BE
:100FC000FB607B681B781A007B689B187B6011E0D4
:100FD0007B685B78042B12D07B685B78FA1C1278F4
:100FE0009A4201D17B680CE07B681B781A007B6811
:100FF0009B187B60FA687B689A42E9D800E0C0469B
:1010000000231800BD4604B080BDC046850F000017
:1010100080B584B000AF0200FB1D1A70BB1D0A1C16
:101020001A70204B1B78002B01D1002336E01E4B99
:101030001B681B681B79FA1D12789A4201D30023A2
:101040002CE0194B1B681A68184B1A60184B98470C
:101050000300FB601CE0154B1B685B78042B0FD171
:10106000124B1B689B78FA1D12789A4208D10F4BDD
:101070001B68DB78BA1D12789A4201D101230DE07A
:101080000A4B1A68094B1B681B78D218074B1A6069
:10109000064B1B68FA689A42DDD800231800BD464B
:1010A00004B080BD9C040020A0040020A404002003
:1010B000850F000080B584B000AF0200FB1D1A70E0
:1010C000FB1D1B7800211800214B984703001A00D4
:1010D00001235340DBB2002B01D0002334E01D4B31
:1010E0001B685A68FB1D1B789B00D3181B68BB60EC
:1010F000BB68DB68984703001A00FB1D1B781100D2
:101100001800134B984703001A0001235340DBB229
:10111000002B01D0002317E00F4B1B68FB60FB681E
:10112000052118000D4B98470300FB60FB68002B5E
:1011300005D0FB689B781800094B9847EFE7C0463D
:10114000BB685B68984701231800BD4604B080BDAA
:1011500011100000A0040020A4040020AD0F000026
:10116000A123000080B584B000AF0200FB1D1A70FF
:10117000BB1D0A1C1A70BB1D1A78FB1D1B781100C1
:1011800018001F4B984703001A0001235340DBB29D
:10119000002B01D000232EE01A4B1B68FB60FB687C
:1011A00005211800184B98470300FB60FB68002BD3
:1011B00015D0FB689878FB68D978FB681A795B7959
:1011C0001B0213439BB21A00104B984703001A00EE
:1011D00001235340DBB2002BE1D000230BE0C046DB
:1011E0000B4B1B685A68FB1D1B789B00D3181B68B0
:1011F0001B68984703001800BD4604B080BDC04678
:1012000011100000A4040020AD0F00002D240000E8
:10121000A004002080B500AF024B9847C046BD46F1
:1012200080BDC046C932000080B500AF034B98476F
:10123000034B9847C046BD4680BDC0463D330000C5
:101240004512000080B582B000AF124B1B78002B16
:1012500015D0FB1D00221A7009E0FB1D1B78180039
:101260000D4B9847FB1D1A78FB1D01321A700B4B72
:101270001B681B681B79FA1D12789A42EDD3054B47
:1012800000221A70064B01221A80C046BD4602B0E9
:1012900080BDC0469C040020B5100000A0040020C2
:1012A0009404002080B582B000AF174B1B78002B50
:1012B00025D0FB1D00221A7019E0144B1B685A68D8
:1012C000FB1D1B789B00D3181B681B69002B09D0E2
:1012D0000E4B1B685A68FB1D1B789B00D3181B68BC
:1012E0001B699847FB1D1A78FB1D01321A70074BCA
:1012F0001B681B681B79FA1D12789A42DDD3C04621
:10130000BD4602B080BDC0469C040020A004002061
:1013100080B500AF074BDB88022B01D0002305E02E
:10132000054B02211800054B984701231800BD46C4
:1013300080BDC046E408002094040020D92A0000A3
:1013400080B500AF0C4BDB88022B01D000230FE0EF
:10135000094B9B88DBB21800084B984703009AB2F0
:10136000074B1A80064B02211800064B98470123B1
:101370001800BD4680BDC046E4080020D525000009
:10138000A8040020D92A000080B500AF0B4BDB88F1
:10139000002B01D000230DE0084B5B88012B08D106
:1013A000074B1B88022293439AB2054B1A800123F4
:1013B00000E000231800BD4680BDC046E4080020C0
:1013C0009404002080B500AF0A4BDB88002B01D0CD
:1013D00000230CE0074B5B88002B07D1054B9B8853
:1013E000DBB21800044B9847030000E0002318000C
:1013F000BD4680BDE40800205926000080B500AF3E
:10140000084BDB88002B01D0002307E0054B5B88ED
:10141000012B02D0C046002300E000231800BD4687
:1014200080BDC046E408002080B500AF0D4BDB88CE
:10143000002B01D0002312E00A4B5B88002B0DD15A
:10144000084B9B88DBB21800074B9847054B9B88DD
:10145000DBB21800054B9847030000E0002318009A
:10146000BD4680BDE40800203123000001260000B5
:1014700080B500AF054B5B88DBB27F221340DBB247
:101480001800034B9847C046BD4680BDE4080020C5
:10149000912A000080B500AF064BDB88002B01D0FD
:1014A000002303E0034B044A1A6101231800BD46E0
:1014B00080BDC046E40800207114000080B584B0EF
:1014C00000AFFB1D00221A70334B5B881A00FF230C
:1014D0001340012B0ED002DC002B05D01EE0022BA6
:1014E0000ED0032B12D019E02C4B042118002C4BEA
:1014F000984715E0FB1D09221A702A4BBB600FE0CC
:10150000FB1D05221A70284BBB6009E0FB1D0C2255
:101510001A70264B98470300BB6001E0002337E0B8
:10152000FB1D1B78002B32D00F23FB1800221A70F2
:1015300016E00F23FB181B780F22BA181278B9682F
:101540008A18127891B21A4A5B00D31802330A1C27
:101550001A800F23FB181A780F23FB1801321A7018
:101560000F23FA18FB1D12781B789A42E1D3FB1D5A
:101570001B780133DBB2DB18DAB20D4B1A700C4B5F
:101580001B789AB20A4B11001800054B98470123AB
:101590001800BD4604B080BDE4080020940000207F
:1015A000D92A000098000020A4000020750F000038
:1015B000AC00002080B582B000AF394B5A88FB1DCB
:1015C0001A70374B5B881B0A9BB2DBB2022B13D01D
:1015D00002DC012B05D051E0032B44D00F2B2FD080
:1015E0004CE0304B1A682F4B1B681B789BB21900DC
:1015F00010002D4B984744E02A4B1B685B7CFA1D7A
:1016000012789A4201D3002346E0264B5A68FB1D0C
:101610001B78DB00D3181868224B5A68FB1D1B7817
:10162000DB00D3181B689A78DB781B0213439BB24C
:1016300019001D4B98471A4B9B6802225A7020E0F4
:10164000184B9B68002B01D1002325E0154B9868AF
:10165000144B9B689A78DB781B0213439BB21900EA
:10166000114B98470DE0114B984703001A000123D6
:101670005340DBB2002B03D000230DE000230BE02E
:10168000C046074BDA88064B9B899A4203D2044B2B
:10169000DA88034B9A8101231800BD4602B080BD51
:1016A000E408002088000020D92A0000BD140000B2
:1016B00080B500AF074BDB88012B01D0002305E08C
:1016C000054B01211800054B984701231800BD4622
:1016D00080BDC046E40800209C040020D92A0000F8
:1016E00080B582B000AF2A4BDB88002B01D00023ED
:1016F0004AE0284B9847031E01D1002344E0244BC5
:101700005B881A00FF231A40234B1B685B7C9A42BC
:1017100001DD002338E0214B98471D4B5B88DAB28E
:101720001F4B1A701E4B1B78002B01D101232BE09D
:10173000194B5A681A4B1B781A498C466344DB00D4
:10174000D218194B1A60FB1D00221A7013E0FB1D02
:101750001B7800211800154B984703001A0001233D
:101760005340DBB2002B01D000230DE0FB1D1A78A3
:10177000FB1D01321A700C4B1B681B681B79FA1D8C
:1017800012789A42E3D301231800BD4602B080BD0F
:10179000E4080020BD2A0000880000204512000057
:1017A0009C040020FFFFFF1FA00400206511000023
:1017B00080B582B000AF214BDB88012B01D0002324
:1017C00038E01F4B1B78002B01D1002332E01B4B6C
:1017D0009A88FB1D1A701B4B1B681B681B79FA1D2E
:1017E00012789A4201D3002324E0FB1D1B780021CC
:1017F0001800154B984703001A0001235340DBB231
:10180000002B01D0002315E00E4B1B685A68FB1D0E
:101810001B789B00D3181B683B603B68DB689847CC
:1018200003001A00094B1A70084B01211800084BDD
:10183000984701231800BD4602B080BDE40800208F
:101840009C040020A0040020111000009804002037
:10185000D92A000080B582B000AF174BDB88002B7F
:1018600001D0002324E0154B1B78002B01D100236D
:101870001EE0114B9A88FB1D1A700F4B5A88BB1D36
:101880001A70FB1D1B7818000D4B984703001A00B7
:1018900001235340DBB2002B01D0002308E0BB1D25
:1018A0001A78FB1D1B7811001800064B984703009F
:1018B0001800BD4602B080BDE40800209C04002052
:1018C000B51000006511000080B500AF474B1B78D4
:1018D0005BB2002B40DA454BDB88002B01D10023A3
:1018E00081E0424B1B781A001F23134014D13F4B59
:1018F0005B78062B08D0082B0AD0002B00D00BE019
:101900003B4B984703006EE03A4B984703006AE070
:10191000394B9847030066E0344B1B781A001F23AD
:101920001340012B08D1314B5B780A2B00D003E028
:10193000324B9847030056E02C4B1B781A001F23AC
:101940001340022B4ED1294B5B78002B00D049E08D
:101950002B4B9847030046E0244B1B781A001F23AB
:10196000134019D1214B5B78092B14D89A00254BD1
:10197000D3181B689F46244B9847030033E0234B42
:10198000984703002FE0224B984703002BE0214BA0
:101990009847030027E0C046144B1B781A001F230A
:1019A0001340012B08D1114B5B780B2B00D003E0C7
:1019B000194B9847030016E00C4B1B781A001F23A5
:1019C0001340022B0ED1094B5B78012B02D0032B65
:1019D00004D007E0114B9847030004E0104B9847F0
:1019E000030000E000231800BD4680BDE40800208D
:1019F00011130000B5150000B1160000B11700006A
:101A00004113000070950200951400008913000036
:101A1000FD130000E116000055180000C51300007A
:101A20002914000080B582B000AF244B1B78002B36
:101A300001D100233DE0224B9A88FB1D1A70214BF7
:101A40001B681B681B79FA1D12789A4201D3002388
:101A50002FE0FB1D1B78002118001B4B984703004B
:101A60001A0001235340DBB2002B01D0002320E0F9
:101A7000144B1B685A68FB1D1B789B00D3181B680E
:101A80003B603B68DB68984703001A00FB1D1B782E
:101A9000110018000C4B984703001A000123534013
:101AA000DBB2002B01D0002303E03B689B68984722
:101AB00003001800BD4602B080BDC0469C04002053
:101AC000E4080020A00400201110000080B582B0BE
:101AD00000AF224B1B78002B01D1002339E0204BB3
:101AE0009A88FB1D1A70FB1D00221A7028E01D4BFE
:101AF0001B685A68FB1D1B789B00D3181B683B6052
:101B00003B68DB68984703001A00FB1D1B78110037
:101B10001800154B984703001A0001235340DBB20D
:101B2000002B01D0002314E03B689B689847031EFC
:101B300001D001230DE0FB1D1A78FB1D01321A7044
:101B4000084B1B681B681B79FA1D12789A42CED38A
:101B500000231800BD4602B080BDC0469C04002092
:101B6000E4080020A00400201110000080B500AFA0
:101B70001E4B00229A811D4B00221A611B4B002232
:101B80005A611A4B1B785BB2002B05DA174BDB88C6
:101B9000002B01D1002326E0144B1B781A00602390
:101BA000134005D1124B9847031E01D001231AE0C0
:101BB0000E4B1B781A001F231340012B05D10D4B30
:101BC0009847031E01D001230DE0084B1B781A0033
:101BD0001F231340022B05D1074B9847031E01D04A
:101BE000012300E000231800BD4680BDE40800206A
:101BF000C9180000251A0000CD1A000080B582B077
:101C000000AF104B1B68002B12D1EFF310837B60E9
:101C10007B68002B09D172B6BFF35F8F0A4B00229D
:101C20001A700A4B01221A7002E0084B00221A7047
:101C3000044B1B685A1C034B1A60C046BD4602B0D9
:101C400080BDC046AC040020C6000020B0040020C7
:101C500080B500AF0B4B1B685A1E0A4B1A60094B2C
:101C60001B68002B0AD1084B1B78DBB2002B05D078
:101C7000064B01221A70BFF35F8F62B6C046BD46A5
:101C800080BDC046AC040020B0040020C600002087
:101C900080B582B000AFEFF310837B607B685A425F
:101CA0005341DBB23B6072B6BFF35F8F034B002240
:101CB0001A703B681800BD4602B080BDC600002007
:101CC00080B582B000AF78607B685A1E9341DBB26A
:101CD0001800BD4602B080BD80B582B000AF78600C
:101CE0007B681800064B9847031E05D0054B012260
:101CF0001A70BFF35F8F62B6C046BD4602B080BDAA
:101D0000C11C0000C600002080B582B000AF786022
:101D10007B681A687B681B681B899BB201218B4317
:101D20009BB21381C046BD4602B080BD80B582B073
:101D300000AF78607B681A687B681B681B899BB260
:101D400001210B439BB21381C046BD4602B080BD4A
:101D500080B582B000AF78607B681B689B7A5B06B9
:101D60005B0EDBB21800BD4602B080BD80B582B00C
:101D700000AF78600A00FB1C1A707B681B68FA1CB5
:101D80001278802149420A43D2B29A72C046BD46B7
:101D900002B080BD80B582B000AF78600A00FB1C45
:101DA0001A707B681A68FB1C1B7803210B40D9B2A0
:101DB0001389081C03210140880205490B40191CA6
:101DC000031C0B431381C046BD4602B080BDC04614
:101DD000FFF3FFFF80B584B000AF0200FB1D1A7057
:101DE000FB1D1B780C4AD35CFF2B00D1FEE70B4B8D
:101DF00098470300FB60FB1D1B78074AD25C013249
:101E0000D1B2054AD154FB681800054B9847C0462B
:101E1000BD4604B080BDC0469C0A0020911C000055
:101E2000D91C000080B584B000AF0200FB1D1A7001
:101E3000FB1D1B780C4AD35C002B00D1FEE70B4B3B
:101E400098470300FB60FB1D1B78074AD25C013AF0
:101E5000D1B2054AD154FB681800054B9847C046DB
:101E6000BD4604B080BDC0469C0A0020911C000005
:101E7000D91C000080B500AF0F4B1B8B9BB21A0022
:101E8000202313400AD1C0460B4BDA68D0231B0134
:101E90001A40D0231B019A42F6D109E0C046064BF6
:101EA000DA6880235B001A4080235B009A42F6D1F7
:101EB000C046BD4680BDC046000C004080B584B021
:101EC00000AF0200FB1D1A700C23FB18154A1268A4
:101ED0001A60154B1B78FA1D12789A421DD0FB1D13
:101EE0001B78002B07D0FB1D1B780C22BA18D35C83
:101EF00018000E4B98470C4B1B78002B08D00A4B50
:101F00001B781A000C23FB189B5C1800084B9847A1
:101F1000054BFA1D12781A7000E0C046BD4604B0A9
:101F200080BDC0469895020008050020D51D000020
:101F3000251E000080B582B000AF0200FB1D1A70A4
:101F4000FB1D1B78002B03D0FB1D1B78802B01D1C0
:101F5000002312E0FB1D1B780F2213405B00FA1DCB
:101F6000127852B2D2B2D209D2B29B189A1E130082
:101F70009B009B189B00034A9B181800BD4602B0AB
:101F800080BDC046B804002090B589B000AF78602D
:101F90007B68BB611723FB18BA6992791A70172303
:101FA000FB181B781800544B984703003B610F2324
:101FB000FB181722BA1812780F210A401A700C2346
:101FC000FB183A69128A1A800A23FB18BA695288E8
:101FD0001A803B69DA680A23FB181B88D2183B6910
:101FE000DA603B69DA683B699B689A4254D03B6986
:101FF0009B6899B23B69DB689AB21E23FB188A1A68
:102000001A801E23FB181B883C4A93420DD90C23CF
:10201000FB181A8839483A4B110098470B009AB2BE
:102020001E23FB1835498A1A1A803B699B7C0222C1
:102030001340DBB2002B0ED01E23FA180C23FB1822
:10204000128819882F4B100098470B009BB2002B69
:1020500001D1012300E00023DBB21A1C012313404D
:10206000DAB23B6901210A4090189A7C02218A4326
:10207000111C021C0A439A743B695A683B69DB686D
:10208000D2181E23FB181C880F23FB1819781E4832
:1020900023001E4CA0472BE03B699B7C022213408F
:1020A000DBB2002B11D03B699A7C02218A439A74DF
:1020B0003B695A683B69DB68D2180F23FB18197813
:1020C00011480023114CA04712E03B699A7C012182
:1020D0008A439A743B691B68002B09D03B691C68D2
:1020E0003B69D9681723FB181B781A000020A0470A
:1020F000BD4609B090BDC046351F0000FF1F00005F
:10210000B95D0200E55B02007C0700204D4800003D
:10211000B0B588B000AF78607B68BB611723FB184F
:10212000BA6992791A701723FB181B781800664B4E
:10213000984703003B610F23FB181722BA18127847
:102140000F210A401A700C23FB183A69128A1A8070
:102150000A23FB18BA6912881A803B699B7C042207
:102160001340DBB2002B19D03B695A683B69DB682E
:10217000D4180F23FB181B78013B9A01534BD51839
:102180003B699A680C23FB181988514B100098473B
:102190000B001A00290020004E4B98473B69DA6873
:1021A0000A23FB181B88D2183B69DA603B69DA689E
:1021B0003B699B689A4203D93B699A683B69DA603C
:1021C000BB699B880A22BA1812889A4265D13B697A
:1021D000DA683B699B689A425FD03B699B6899B219
:1021E0003B69DB689AB21E23FB188A1A1A801E23E9
:1021F000FB181B88384A93420ED90C23FB181A8807
:102200003548364B110098470B009AB21E23FB1835
:1022100031498A1A1A8011E01E23FA180C23FB1880
:10222000128819882A4B100098470B009AB21E2377
:10223000FB181E21791809888A1A1A801E23FA1899
:102240000C23FB1812881B889A4216D23B699A7C91
:1022500004210A439A740F23FB181B78013B9A014F
:102260001A4BD2180C23FB181C880F23FB18197863
:102270001B4823001B4CA04722E03B695A683B697E
:10228000DB68D2181E23FB181C880F23FB18197853
:1022900013482300134CA04712E03B699A7C0121AC
:1022A0008A439A743B691B68002B09D03B691C6800
:1022B0003B69D9681723FB181B781A000020A04738
:1022C000BD4608B0B0BDC046351F0000FC0600206A
:1022D000E55B0200358B0200FF1F0000B95D0200C4
:1022E0007C0700200149000080B584B000AF786011
:1022F00039603B68FB600B23FB18FA6892791A700F
:102300000B23FB181B785BB2002B04DA3B68180028
:10231000054B984703E03B681800044B9847C046BC
:10232000BD4604B080BDC046891F000011210000D9
:1023300090B585B000AF0200FB1D1A70FB1D1A7826
:10234000144B11001800144B9847FB1D1B78180004
:10235000124B98470300FB60FB689B7C01221340F3
:10236000DBB2002B12D0FB689A7C01218A439A745D
:10237000FB681B68002B0AD0FB681C68FB68D968E7
:10238000FB1D1B781A000120A04700E0C046BD4697
:1023900005B090BD7C070020C9450000351F000036
:1023A00080B584B000AF0200FB1D1A700823FB1833
:1023B0001800184B98470F23FB18FA1D12780F21AD
:1023C0000A401A70FB1D1B781800134B984708230E
:1023D000FB18FA1D12781A700823FB180022DA7015
:1023E0000823FA180D4B110018000D4B98470F23C6
:1023F000FB181978094B002218000A4B9847FB1D5F
:102400001978064B00221800074B9847C046BD4676
:1024100004B080BD35400000312300007C0700205F
:102420005D4000007D3C0000913E000090B587B00B
:1024300000AF040008001100FB1D221C1A70BB1D18
:10244000021C1A703B1D0A1C1A800C23FB18180072
:10245000584B98470C23FB18FA1D12781A703B1D35
:102460001B88082B04D80C23FB1800225A7045E067
:102470003B1D1B88102B04D80C23FB1801225A701B
:102480003CE03B1D1B88202B04D80C23FB180222A8
:102490005A7033E03B1D1B88402B04D80C23FB18DB
:1024A00003225A702AE03B1D1B88802B04D80C2382
:1024B000FB1804225A7021E03B1D1A8880235B0020
:1024C0009A4204D80C23FB1805225A7016E03B1DD3
:1024D0001A8880239B009A4204D80C23FB180622FA
:1024E0005A700BE03B1D1B88334A934204D80C23DF
:1024F000FB1807225A7001E0002357E0FB1D1B78F0
:1025000018002E4B984703007B617B693A1D1288A7
:102510001A82BB1DBA1D127803210A401A70BB1D16
:102520001B78012B04D10C23FB180222DA7013E074
:10253000BB1D1B78022B04D10C23FB180322DA707D
:102540000AE0BB1D1B78032B04D10C23FB180422CB
:10255000DA7001E0002329E01323FB18FA1D12783A
:102560000F210A401A700C23FA18154B110018009D
:10257000144B9847031E01D0002317E0124A13237F
:10258000FB1819780E4813000022104CA047FB1DC1
:1025900019780B4B002218000D4B9847FB1D19783A
:1025A000074B012218000A4B984701231800BD462B
:1025B00007B090BD35400000FF030000351F00004C
:1025C0007C0700205D400000E9220000FD3B000088
:1025D000F53C000080B582B000AF0200FB1D1A7010
:1025E000FB1D1A78044B11001800044B9847030098
:1025F0001800BD4602B080BD7C0700205146000097
:1026000080B584B000AF0200FB1D1A700F23FB18C9
:10261000FA1D12780F210A401A700F23FB181B783D
:10262000022B01D900230CE0FB1D1A78074B110087
:102630001800074B9847FB1D1B781800054B98475F
:1026400001231800BD4604B080BDC0467C070020B1
:10265000C54600003123000080B584B000AF020001
:10266000FB1D1A700F23FB18FA1D12780F210A4068
:102670001A700F23FB181B78022B01D900231DE0D1
:10268000FB1D1B7818000F4B98470300BB60FB1D18
:102690001A780D4B110018000C4B9847BB689B7CB7
:1026A00001221340DBB2002B07D0BB689A7C0121CA
:1026B0008A439A74BB681B68984701231800BD467B
:1026C00004B080BD351F00007C07002021470000BA
:1026D00080B584B000AF02003960FB1D1A700F2373
:1026E000FB18FA1D12780F210A401A700F23FB18ED
:1026F0001B78022B01D9002330E0FB1D1B7818004A
:10270000184B98470300BB60BB689B7C01221340B9
:10271000DBB2002B01D0002320E0FB1D1A78124B06
:1027200011001800114B9847031E09D0BB689A7C12
:1027300001210A439A74BB683A681A6001230DE0CC
:10274000FB1D1A78084B11001800094B9847031E0F
:1027500003D03B689847012300E000231800BD46E2
:1027600004B080BD351F00007C07002051460000EA
:102770005545000080B500AF074B05221A70074B86
:1027800080211800064B9847044B00211800054B88
:102790009847C046BD4680BDB10400207C0700209C
:1027A000C54600002147000090B589B000AFBA606F
:1027B0007B600F23FB18021C1A700E23FB180A1CE7
:1027C0001A701D23FB180F22BA1812780F210A4025
:1027D0001A701D23FB181B78022B07D80F23FB1838
:1027E0001B7818009F4B9847031E01D0002334E14B
:1027F0000F23FB181B7818009B4B98470300BB6105
:102800009A4B984703007B61BB699B7C0122134074
:10281000DBB2002B05D07B691800954B984700234D
:102820001BE1BB699A7C01210A439A747B691800F9
:102830008F4B9847BB69BA685A60BB697A689A60DF
:10284000BB690022DA60BB693A6B1A60BB690E2271
:10285000BA18127801210A4090189A7C02218A4302
:10286000111C021C0A439A74BB699A7C04218A4396
:102870009A740F23FB181B785BB2002B00DB78E007
:10288000BB699B68002B3FD0BB699A681E23FB186D
:102890001A801E23FB181B88764A93420DD9BB6908
:1028A0001B8A1900734A744B100098470B009AB2A8
:1028B0001E23FB186F498A1A1A80BB699B7C02226F
:1028C0001340DBB2002B0DD0BB69198A1E23FB1805
:1028D0001A886A4B100098470B009BB2002B01D15D
:1028E000012300E00023DBB21A1C01231340DAB2FB
:1028F000BB6901210A4090189A7C02218A43111C6D
:10290000021C0A439A7423E0BB699B7C0222134099
:10291000DBB2002B09D0BB699A7C02218A439A74EE
:102920001E23FB1800221A8012E0BB699A7C012149
:102930008A439A74BB691B68002B07D0BB691B686C
:102940000F22BA181278002100209847012384E052
:10295000BB695A681E23FB181C881D23FB181978B5
:1029600047482300474CA04703005A425341DBB27B
:1029700073E0BB699B68002B5DD0BB699A681E231E
:10298000FB181A801E23FB181B883A4A93420ED963
:10299000BB691B8A1900374A374B100098470B0058
:1029A0009AB21E23FB1833498A1A1A8010E0BB69B9
:1029B000198A1E23FB181A88304B100098470B0009
:1029C0009AB21E23FB181E21791809888A1A1A80C8
:1029D000BB691B8A1E22BA1812889A421AD2BB6996
:1029E0009A7C04210A439A741D23FB181B78013B2F
:1029F0009A01254BD218BB691B8A1C001D23FB18AA
:102A000019781F482300214CA04703005A42534124
:102A1000DBB222E0BB695A681E23FB181C881D2309
:102A2000FB18197816482300184CA04703005A4297
:102A30005341DBB211E0BB699A7C01218A439A744D
:102A4000BB691B68002B07D0BB691B680F22BA1833
:102A5000127800210020984701231800BD4609B0D4
:102A600090BDC046D5250000351F0000911C000018
:102A7000D91C0000FF1F0000B95D0200E55B0200E9
:102A80007C0700204D480000FC06002001490000A2
:102A900080B582B000AF0200FB1D1A70FB1D1A78D2
:102AA000044B11001800044B9847C046BD4602B0C5
:102AB00080BDC0467C0700206D1D000080B500AFC2
:102AC000034B1800034B984703001800BD4680BD18
:102AD0007C070020511D000080B582B000AF7860F7
:102AE0000A00BB1C1A80054B7A689A60034BBA1C1B
:102AF00012889A81C046BD4602B080BDE40800201D
:102B000080B500AF174B1A78174B1A70154B5A78CF
:102B1000154B5A70134BDB789BB21B029AB2114BC8
:102B20009B789BB2D3189AB20F4B5A800D4B5B79AE
:102B30009BB21B029AB20B4B1B799BB2D3189AB271
:102B4000094B9A80074BDB799BB21B029AB2054B6B
:102B50009B799BB2D3189AB2034BDA80C046BD462C
:102B600080BDC046FC080020E4080020B0B500AFDE
:102B7000094B03221A70094A094B11001800094B2E
:102B80009847094B9A68064800230021074CA04744
:102B9000C046BD46B0BDC046B1040020FC080020C0
:102BA0007C070020B1490000E40800204D480000E7
:102BB00090B583B000AF304B9989304B1A88BB1D5C
:102BC0008A1A1A80BB1D1B88002B30D12C4B1A8807
:102BD0002A4B1B88D3189AB2294B1A80264BDA88C5
:102BE000274B1B889A4203D0264B1B78002B09D019
:102BF000254B04221A70254A254B11001800254B3D
:102C0000984735E01C4B5B69002B10D01A4B5B6971
:102C1000984703001A0001235340DBB2002B06D172
:102C2000164B00221A80BB1D134A92891A80BB1DC5
:102C30001B883F2B06D9BB1D40221A80114B002256
:102C40001A7002E00F4B01221A700B4B9B680B4A63
:102C500012889A18BB1D1B880D4800210E4CA047F6
:102C6000064B1A88BB1D1B88D3189AB2034B1A80D7
:102C7000BD4603B090BDC046E4080020B404002067
:102C8000B204002009050020B1040020FC08002047
:102C90007C070020B14900004D48000090B585B088
:102CA00000AF78607B68BB600E23FB18BA6812889F
:102CB0001A80454B9B891A00444B1B8819000E2330
:102CC000FB181B88CB189A4207DA3F4B99893F4B78
:102CD0001A880E23FB188A1A1A803B4B9B683B4AC2
:102CE000128898180E23FB181A88394B1900394B93
:102CF0009847364B1A880E23FB181B88D3189AB2B4
:102D0000324B1A800E23FB181B88402B0AD12E4B06
:102D1000DB881A00304B1B8819002C4B1B88CB1802
:102D20009A421BDC294B1A88274B9A81264B5B69F8
:102D3000002B10D0244B5B69984703001A00012335
:102D40005340DBB2002B06D0244B05221A70002022
:102D5000234B984735E0234B984732E01A4B9A892A
:102D60001A4B1B889A4226D1174B5B69002B06D160
:102D70001A4B05221A700020194B984721E0124B7C
:102D80005B69984703001A0001235340DBB2002B14
:102D900006D0124B05221A700020114B984710E004
:102DA0000D4B1A88094B1B88D3189AB20A4B1A800C
:102DB000064B00221A80064A0B48402300210B4C88
:102DC000A047BD4605B090BDE4080020B404002033
:102DD000FC080020358B0200B2040020B104002062
:102DE000012600006D2B00007C0700200149000037
:102DF00090B585B000AF786039603B68FB60294BC7
:102E00001B78002B09D0284B1B69002B02D0264BC6
:102E10001B699847234B00221A70FB681B88082BFC
:102E200002D0224B98473AE0214B9847214B9847D4
:102E300003001A0001235340DBB2002B02D01B4BCE
:102E400098472CE0184B1B785BB2002B11DA1A4B19
:102E500000221A80194B00221A80124B02221A708B
:102E6000174A184840230021174CA047174B984792
:102E700015E00D4BDB88002B02D1154B98470EE077
:102E80000D4B00221A800D4B00221A80054B0122A7
:102E90001A700B4A0B48402300210B4CA047BD463B
:102EA00005B090BDB1040020E408002075270000A3
:102EB000012B00006D1B0000B2040020B4040020B0
:102EC000FC0800207C07002001490000B12B000015
:102ED0006D2B000080B584B000AF78607B68FB602C
:102EE0000A4B1B78012B02D1094B98470AE0074B8C
:102EF0001B78042B06D1FB689A79064B1100180049
:102F0000054B9847C046BD4604B080BDB1040020C3
:102F10006D2B00007C070020C546000080B584B002
:102F200000AF78607B68FB600B4B1B78022B03D1F2
:102F3000094B04221A700AE0074B1B78032B06D1B9
:102F4000FB689A79054B11001800054B9847C0465D
:102F5000BD4604B080BDC046B10400207C070020FF
:102F6000C546000080B584B000AF786039603B682A
:102F7000FB60FB689B795BB2002B04DA3B681800AE
:102F8000054B984703E03B681800044B9847C04640
:102F9000BD4604B080BDC046D52E00001D2F0000E8
:102FA00080B582B000AF786039600F4B1B78012B81
:102FB00004D13B6818000D4B984710E00A4B1B7872
:102FC000022B02D10A4B984709E00A4B1B69002BE0
:102FD00002D0084B1B699847034B00221A70C04669
:102FE000BD4602B080BDC046B10400209D2C00004B
:102FF000B12B0000E408002090B585B000AF7860E8
:103000000C23FB181800214B98470C23FB180322B4
:103010005A700C23FA187B68110018001C4B984753
:103020001C4A7B68110018001B4B98471B4B7868A3
:10303000022200211A4CA0471A4B78680022002176
:10304000174CA047184B786801220021144CA04768
:103050007B68022200211800144B98477B680022ED
:1030600000211800114B98477B68012200211800AD
:103070000E4B98477B68012118000D4B98470D4B6C
:1030800000221A70C046BD4605B090BD3540000014
:103090005D400000FC080020B1490000F12D000057
:1030A000FD3B0000A12F0000652F0000F53C000053
:1030B000951D0000B104002080B582B000AF78609B
:1030C0003960084B04211800074B9847054B022133
:1030D0001800064B98470120054B9847C046BD464F
:1030E00002B080BD7C070020A93B00004D3B0000E2
:1030F000BD1E000080B584B000AF786039603B68C9
:10310000FB600B4B062118000A4B9847084B042123
:103110001800084B9847064B02211800064B9847A9
:103120000220064B9847C046BD4604B080BDC0464D
:103130007C070020A93B00004D3B0000BD1E0000A5
:1031400080B582B000AF78603960034B9847C046C5
:10315000BD4602B080BDC046A512000080B582B059
:1031600000AF78603960074B98477B6800211800F2
:10317000054B98477B681800044B9847C046BD46EE
:1031800002B080BD451200006D1D0000F92F000047
:1031900080B582B000AF786039600F4B98470F4B15
:1031A000022118000E4B98470C4B042118000D4BC0
:1031B00098470D4A094B062118000C4B9847074BBE
:1031C00006211800074B98470320094B9847C04633
:1031D000BD4602B080BDC046751E00007C070020C1
:1031E000A93B00004D3B0000F5300000FD3A000017
:1031F000BD1E000080B500AF044B1800044B98477B
:103200000120044B9847C046BD4680BD7C07002086
:103210002D1D0000BD1E000080B500AF0320204B17
:103220009847204B1800204B9847204A1D4B0421FB
:1032300018001F4B98471F4A1A4B002118001C4BBF
:1032400098471D4A174B01211800194B98471B4AF4
:10325000144B02211800164B9847124B04211800FA
:10326000174B98470F4B00211800154B98470D4BF3
:1032700001211800124B98470A4B02211800104BED
:103280009847104A074B06211800094B9847054BF1
:10329000062118000A4B9847C046BD4680BDC0466F
:1032A000BD1E00007C070020091D0000B930000091
:1032B000FD3A0000413100005D3100009131000015
:1032C0004D3B0000F530000080B582B000AF124BDE
:1032D000984703007B603B001800104B98473B0069
:1032E00003229A703A008223D9050D4B18000D4B2A
:1032F00098470B4B18000C4B98470C4B98470120F4
:103300000B4B98470B4B98477B6818000A4B984724
:10331000C046BD4602B080BD911C0000E14F0000D8
:103320007C07002009500000794F0000751E000046
:10333000BD1E000019320000D91C000080B582B00B
:1033400000AF084B9847084B984703007B60074B3A
:1033500098477B681800064B9847C046BD4602B0A8
:1033600080BDC046F5310000911C0000753300009F
:10337000D91C000080B500AF064B1B7801225340DA
:10338000DBB2002B03D1034B00221A7000E0C046D1
:10339000BD4680BD0A05002080B582B000AF7860D0
:1033A0007B6800221A70C046BD4602B080BD000096
:1033B00080B582B000AF02003960FB1D1A70FB1DA2
:1033C0001B78042B27D89A00164BD3181B689F46EE
:1033D000154B154A51693A680A435A611DE0124B70
:1033E000114A91693A680A439A6116E00E4B0E4AF7
:1033F000D1693A680A43DA610FE00B4B0A4A116A55
:103400003A680A431A6208E0074B074A516A3A6869
:103410000A435A6201E0172300E000231800BD466A
:1034200002B080BD9C9502000004004080B582B0CF
:1034300000AF78607B6880221A707B6800225A7027
:103440007B6801229A707B680022DA70C046BD4614
:1034500002B080BD80B582B000AF0200FB1D1A70C3
:10346000064BFA1D127811001F220A4001219140DB
:103470000A001A60C046BD4602B080BD00E100E00F
:1034800080B582B000AFA44B1B681B681B8C9BB23D
:10349000002B0AD0A04B1B681B681B8C9BB21A0028
:1034A0009E4B10009847030000E020237B607B6860
:1034B0001F2B00D904E2984B1B681A687B680833FD
:1034C0005B01D31807331B78DBB23B603B680322F8
:1034D000134000D188E001227B689A401300DB434F
:1034E0001A008F4B1B681A408D4B1A608A4B1B6861
:1034F0001A687B6808335B01D318073303221A70FC
:10350000854B1A68AE217B68D3185B181B781A00AC
:103510000123134068D07B68DAB2824B1A707E4B6D
:103520001B681B687A6808325201D35C9B079B0FAB
:10353000DBB2012B1ED17C4A7B685B01D3185B6830
:103540009B049B0C9BB21A00764B5A80764A7B6890
:103550005B01D3185B681B019B0C9BB21A00714B7B
:103560009A80714A7B685B01D3185A68920B920368
:103570005A602CE06C4A7B685B01D3185B681B01C6
:103580009B0C9BB21A00674B5A80674A7B685B01B1
:10359000D3185B689B049B0C9BB21A00614B9A800A
:1035A000614A7B685B01D3185A6860490A405A60D7
:1035B0005C4B5B88002B0AD15B4A7B685B01D318AC
:1035C0005B689B049B0C9BB21A00564B5A80524B73
:1035D0001A687B6802331B01D31804331A684E4BF8
:1035E0001B685049180090473B680422134000D1E3
:1035F000AFE0494B1B681B687A6808325201D35C04
:103600009B065B0FDBB2022B51D1434B1B681B683F
:103610007A6808325201D35C9B079B0FDBB2012B07
:1036200045D1414A7B685B01D31808339B78DB079F
:10363000DB0FDBB2002B3AD001227B689A401300EB
:10364000DB431A00364B1B681A40354B1A60364A6A
:103650007B685B01D3180A3300221A702E4B1B685B
:103660001A687B6808335B01D318073304221A7089
:10367000294B1A68AE217B68D3185B181B781A0097
:103680000223134065D07B68DAB2264B1A70254BB3
:1036900010225A70204B1A687B681B01D3182833FC
:1036A0001A681D4B1B681F491800904751E01A4BC0
:1036B0001B681B687A6808325201D35C9B065B0F5B
:1036C000DBB2032B34D1144B1B681B687A680832B9
:1036D0005201D35C9B079B0FDBB2012B28D1124A0E
:1036E0007B685B01D3180A3300221A700A4B1B68EF
:1036F0001A687B6808335B01D318073304221A70F9
:10370000054B1B681A687B6808335B01D3180533C7
:1037100010221A701DE0C0460C050020F15E020068
:1037200024050020100500203C090020FF3F00F088
:10373000834A7B685B01D3180A3300221A70814BDD
:103740001B681A687B6808335B01D31807330422AF
:103750001A703B68082213403CD001227B689A40D3
:103760001300DB431A00784B1B681A40764B1A6033
:10377000744B1B681A687B6808335B01D3180733E6
:1037800008221A706F4B1A68AE217B68D3185B1839
:103790001B781A00022313401CD07B68DAB26B4BF3
:1037A0001A70674A7B685B01D3180E331B889BB283
:1037B000DBB21F221340DAB2644B5A70614B1A68B5
:1037C0007B681B01D31828331A685E4B1B685F495E
:1037D000180090473B68102213403AD001227B68C2
:1037E0009A401300DB431A00574B1B681A40564B94
:1037F0001A60544B1B681A687B6808335B01D31846
:10380000073310221A704F4B1A68AE217B68D31809
:103810005B181B781A00042313401AD07B68DAB2B5
:103820004A4B1A70464A7B685B01D3185B681B01E0
:103830009B0C9BB21A00454B5A80424B1A687B681E
:103840001B01D3182C331A683E4B1B68002118004B
:1038500090473B682022134000D146E101227B685B
:103860009A401300DB431A00374B1B681A40364B53
:103870001A60344B1B681A687B6808335B01D318E5
:10388000073320221A702F4B1A68AE217B68D31899
:103890005B181B781A000823134000D125E17B68D0
:1038A000DAB22A4B1A70274B1A687B681B01D318AF
:1038B00030331A68234B1B6824491800904714E1E1
:1038C000204B1B681B689B8B9BB23B603B680422B0
:1038D000134053D01B4B1B681B6804229A8301239F
:1038E0007B6039E001227B689A4013001A00164B76
:1038F0001B68134022D0134B1B681B687A68083280
:103900005201D35C9B065B0FDBB2032B20D10D4B26
:103910001B681B687A6808325201D35C9B079B0FB7
:10392000DBB2012B14D1074B1B681A687B68083384
:103930005B01D318043310221A700AE0C04608E075
:103940003C0900200C050020240500201005002063
:10395000C0467B6801337B607B68072BC2D9654B0F
:103960001B68A5229B5C1A000123134006D0614B03
:103970001B685A685F4B1B68180090473B68082219
:10398000134016D05C4B00221A605A4B1B681B6810
:1039900008229A83574B1B68A5229B5C1A000223BE
:1039A000134006D0534B1B689A68524B1B68180093
:1039B00090473B684022134013D04E4B1B681B6856
:1039C00040229A834B4B1B68A5229B5C1A00102354
:1039D000134006D0474B1B685A69464B1B681800BA
:1039E00090473B682022134013D0424B1B681B6852
:1039F00020229A833F4B1B68A5229B5C1A00082358
:103A0000134006D03B4B1B681A693A4B1B681800E1
:103A100090473B681022134013D0364B1B681B683D
:103A200010229A83334B1B68A5229B5C1A00042347
:103A3000134006D02F4B1B68DA682E4B1B6818000A
:103A400090473B688022134016D02B4B00221A600F
:103A5000284B1B681B6880229A83264B1B68A52273
:103A60009B5C1A002023134006D0224B1B689A69E6
:103A7000204B1B68180090473A6880235B00134076
:103A800017D01D4B00221A601A4B1B681B6880223E
:103A900052009A83174B1B68A5229B5C1A00402397
:103AA000134006D0134B1B68DA69124B1B681800D1
:103AB00090473A6880239B00134016D00E4B00229B
:103AC0001A600C4B1B681B68802292009A83094B7A
:103AD0001B68A5229B5C5BB2002B06DA054B1B68BA
:103AE0001A6A044B1B6818009047C046BD4602B0D6
:103AF00080BDC0460C0500202405002080B584B0A0
:103B000000AFF8607A600B23FB180A1C1A700B23B5
:103B1000FB181A78FB682E3292007968D150FA6847
:103B2000AA235B00D25A0B23FB181978064B4900D5
:103B3000CB5A134399B2FA68AA235B00D1520023EF
:103B40001800BD4604B080BDB095020080B582B0BB
:103B500000AF78600A00FB1C1A707B681B68FA1CB7
:103B60001178104A49008A5A9A837A68AB235B001D
:103B7000D25AFB1C19780B4B4900CB5A134399B20C
:103B80007A68AB235B00D1527B681B68FA1C117802
:103B9000044A49008A5A1A8300231800BD4602B01D
:103BA00080BDC046B095020080B582B000AF78609D
:103BB0000A00FB1C1A707A68AB235B00D35A1BB255
:103BC000FA1C11780C4A49008A5A12B2D24312B236
:103BD00013401BB299B27A68AB235B00D1527B6869
:103BE0001B68FA1C1178044A49008A5A9A820023F9
:103BF0001800BD4602B080BDB095020080B584B00B
:103C000000AFF860080011007B600B23FB18021C5A
:103C10001A700A23FB180A1C1A700B23FB18197858
:103C20000A23FB181B78FA688900CB1834339B00F1
:103C3000D31804337A681A600B23FB181A780B2305
:103C4000FB181978F868AC235B004118CB18197879
:103C50000A23FB181B780848C35C0B43D8B2F968E9
:103C6000AC235B008A18D318021C1A7000231800BA
:103C7000BD4604B080BDC046C095020080B582B08C
:103C800000AF786008001100FB1C021C1A70BB1CFE
:103C90000A1C1A70FB1C1978BB1C1B787A688900F7
:103CA000CB1834339B00D318043300221A60FB1C5A
:103CB0001A78FB1C19787868AC235B004118CB1884
:103CC0001B785BB2B91C09780948415C49B2C94309
:103CD00049B20B405BB2D8B27968AC235B008A185A
:103CE000D318021C1A7000231800BD4602B080BD14
:103CF000C095020080B584B000AF78600800110064
:103D0000FB1C021C1A70BB1C0A1C1A700F23FB1828
:103D1000FA1C12780F210A401A700F23FB181A7828
:103D20000F23FB1819787868B0235B004118CB1873
:103D30001978BB1C1B785548C35C0B43D8B2796813
:103D4000B0235B008A18D318021C1A70BB1C1B78A6
:103D5000002B2FD10F23FB181B78002B0CD17B6875
:103D600019680F23FB181A780A23FF3352018A18A7
:103D7000D31803221A701DE0FB1C1B785BB2002BCA
:103D80000CDA7B6819680F23FB181A780A23FF33B3
:103D900052018A18D31802221A700BE07B68196846
:103DA0000F23FB181A780A23FF3352018A18D318FD
:103DB00001221A70BB1C1B78012B2FD10F23FB187B
:103DC0001B78002B0CD17B6819680F23FB181A781D
:103DD0000A23FF3352018A18D3180C221A701DE0EF
:103DE000FB1C1B785BB2002B0CDA7B6819680F2375
:103DF000FB181A780A23FF3352018A18D3180822B5
:103E00001A700BE07B6819680F23FB181A780A23D5
:103E1000FF3352018A18D31804221A70BB1C1B7876
:103E2000022B0BD17B6819680F23FB181A780A2321
:103E3000FF3352018A18D31810221A70BB1C1B784A
:103E4000032B1DD1FB1C1B785BB2002B0CDA7B68AB
:103E500019680F23FB181A780A23FF3352018A18B6
:103E6000D31840221A700BE07B6819680F23FB18E7
:103E70001A780A23FF3352018A18D31820221A70A5
:103E800000231800BD4604B080BDC046C0950200A6
:103E900080B584B000AF786008001100FB1C021CE4
:103EA0001A70BB1C0A1C1A700F23FB18FA1C12781C
:103EB0000F210A401A700F23FB181A780F23FB18E2
:103EC00019787868B0235B004118CB181B785BB277
:103ED000B91C09785648415C49B2C94349B20B4004
:103EE0005BB2D8B27968B0235B008A18D318021C81
:103EF0001A70BB1C1B78002B2FD10F23FB181B78CB
:103F0000002B0CD17B6819680F23FB181A788423C7
:103F10005B0052018A18D31803221A701DE0FB1CA3
:103F20001B785BB2002B0CDA7B6819680F23FB1837
:103F30001A7884235B0052018A18D31802221A705F
:103F40000BE07B6819680F23FB181A7884235B0049
:103F500052018A18D31801221A70BB1C1B78012B3E
:103F60002FD10F23FB181B78002B0CD17B6819680D
:103F70000F23FB181A7884235B0052018A18D31888
:103F80000C221A701DE0FB1C1B785BB2002B0CDAB4
:103F90007B6819680F23FB181A7884235B00520191
:103FA0008A18D31808221A700BE07B6819680F234F
:103FB000FB181A7884235B0052018A18D318042254
:103FC0001A70BB1C1B78022B0BD17B6819680F235E
:103FD000FB181A7884235B0052018A18D318102228
:103FE0001A70BB1C1B78032B1DD1FB1C1B785BB20A
:103FF000002B0CDA7B6819680F23FB181A788423CE
:104000005B0052018A18D31840221A700BE07B68BB
:1040100019680F23FB181A7884235B0052018A1851
:10402000D31820221A7000231800BD4604B080BDAA
:10403000C095020080B582B000AF78607B68002236
:104040001A707B6800225A707B6800229A707B6825
:104050000122DA70C046BD4602B080BD90B585B081
:1040600000AF786039603B681A780F23FB180F2186
:104070000A401A703B681B785BB2DBB2DB09DAB22C
:104080000E23FB181A703B68DB78042B00D900E282
:104090009A00E44BD3181B689F467B681B680F226D
:1040A000BA181278083252010021D154002349E293
:1040B0007B681B680F22BA18127808325201D35C51
:1040C000DBB21A000723134030D17B681B680F2234
:1040D000BA18127808325201D35CDBB21A0070238E
:1040E000134023D17B681B680F22BA18127808325C
:1040F00052011121D1547B681A680F23FB181B78D9
:1041000008335B01D318053340221A707B681A68A4
:104110000F23FB181B7808335B01D318043380226C
:104120001A703B689B78002B02D128E01C2309E21F
:104130000F23FB1818780F23FB181B78BA4A5B0172
:10414000D31804331B68802212061A43B649430170
:10415000CB1804331A600F23FB1818780F23FB18B1
:104160001B78B14A5B01D31814331B6880221206F6
:104170001A43AD494301CB1814331A6023E00F23CF
:10418000FB1818780F23FB181B78A74A5B01D3187C
:1041900004331B685B005A08A3494301CB1804335E
:1041A0001A600F23FB1818780F23FB181B789E4A00
:1041B0005B01D31814331B685B005A089A4943010A
:1041C000CB1814331A600F23FB181B783A68527807
:1041D000111C07220A40D1B2934A5B01D3185A68D6
:1041E000072001400907914802400A435A600F2303
:1041F000FB181B783A685278111C07220A40D1B28A
:10420000894A5B01D31810335A6807200140090717
:10421000864802400A435A60002393E10E23FB18AC
:104220001B78002B30D07B681B680F22BA181278DD
:1042300008325201D35CDBB21A007023134021D143
:104240007B681A680F23FB1819787B681B680F209E
:104250003818007808304001C35CDBB220200343EB
:10426000D8B20B0008335B01011C99547B681A68B3
:104270000F23FB181B7808335B01D318043380220B
:104280001A7007E11C235DE17B681B680F22BA18D6
:10429000127808325201D35CDBB21A0007231340B4
:1042A00021D17B681A680F23FB1819787B681B687B
:1042B0000F203818007808304001C35CDBB20220C0
:1042C0000343D8B20B0008335B01011C99547B688F
:1042D0001A680F23FB181B7808335B01D3180533CA
:1042E00040221A70D6E01C232CE10E23FB181B7809
:1042F000002B30D07B681B680F22BA181278083266
:104300005201D35CDBB21A007023134021D17B68C9
:104310001A680F23FB1819787B681B680F20381860
:10432000007808304001C35CDBB230200343D8B2D0
:104330000B0008335B01011C99547B681A680F233A
:10434000FB181B7808335B01D318043380221A70E2
:10435000A0E01C23F6E07B681B680F22BA181278D5
:1043600008325201D35CDBB21A000723134021D17B
:104370007B681A680F23FB1819787B681B680F206D
:104380003818007808304001C35CDBB203200343D7
:10439000D8B20B0008335B01011C99547B681A6882
:1043A0000F23FB181B7808335B01D3180533402219
:1043B0001A706FE01C23C5E00E23FB181B78002B3E
:1043C00036D07B681B680F22BA1812780832520167
:1043D000D35CDBB21A007023134021D17B681A68CA
:1043E0000F23FB1819787B681B680F20381800789A
:1043F00008304001C35CDBB240200343D8B20B005D
:1044000008335B01011C99547B681A680F23FB1861
:104410001B7808335B01D318043380221A7039E00B
:104420001C238FE0C49502003C090020FFFFFF8F92
:104430007B681B680F22BA18127808325201D35CCD
:10444000DBB21A000723134021D17B681A680F23BF
:10445000FB1819787B681B680F2038180078083023
:104460004001C35CDBB204200343D8B20B00083325
:104470005B01011C99547B681A680F23FB181B7899
:1044800008335B01D318053340221A7002E01C2365
:1044900058E0C0460F23FB1818780E23FB181B7832
:1044A0003A685278111C07220A40D1B2274A4000CC
:1044B000C3181B01D3185A68072001400907244874
:1044C00002400A435A603B689B78002B1DD00F23A3
:1044D000FB181C780E23FB1818780F23FB1819788B
:1044E0000E23FB181B78194A4900CB181B01D3185F
:1044F00004331B68802212061A43144963001B18F8
:104500001B01CB1804331A601BE00F23FB181C7827
:104510000E23FB1818780F23FB1819780E23FB18AD
:104520001B780A4A4900CB181B01D31804331B68B7
:104530005B005A08054963001B181B01CB180433A4
:104540001A6000231800BD4605B090BD3C0900204C
:10455000FFFFFF8F80B584B000AF78600A00FB1CBE
:104560001A700E23FB18FA1C12780F210A401A70D9
:10457000FB1C1B785BB2002B0EDA7B681B680E22DB
:10458000BA18127808325201D35C5B065B0FDAB2BC
:104590000F23FB181A700DE07B681B680E22BA18F7
:1045A000127808325201D35C5B075B0FDAB20F233B
:1045B000FB181A700F23FB181B785A1E9341DBB2AD
:1045C0001800BD4604B080BD80B584B000AF7860EF
:1045D0000A00FB1C1A700F23FB18FA1C12780F211B
:1045E0000A401A70FB1C1B785BB2002B16DA7B6842
:1045F0001A680F23FB181B7808335B01D3180433A8
:1046000080221A707B681A680F23FB181B78083306
:104610005B01D318073302221A7015E07B681A6811
:104620000F23FB181B7808335B01D3180533402296
:104630001A707B681A680F23FB181B7808335B011C
:10464000D318073301221A70C046BD4604B080BD9E
:1046500080B584B000AF78600A00FB1C1A700F238D
:10466000FB18FA1C12780F210A401A70FB1C1B78E9
:104670005BB2002B11DA7B681A680F23FB181B78DA
:1046800008335B01D31806331B78DBB21A002023F2
:1046900013405A1E9341DBB210E07B681A680F2367
:1046A000FB181B7808335B01D31806331B78DBB289
:1046B0001A00102313405A1E9341DBB21800BD4666
:1046C00004B080BD80B584B000AF78600A00FB1CE8
:1046D0001A700F23FB18FA1C12780F210A401A7067
:1046E000FB1C1B785BB2002B0BDA7B681A680F236C
:1046F000FB181B7808335B01D318053320221A708E
:104700000AE07B681A680F23FB181B7808335B01EB
:10471000D318053310221A70C046BD4604B080BDC0
:1047200080B584B000AF78600A00FB1C1A700F23BC
:10473000FB18FA1C12780F210A401A70FB1C1B7818
:104740005BB2002B3FDA7B681A680F23FB181B78DB
:1047500008335B01D31806331B78DBB21A00202321
:1047600013406FD07B681A680F23FB181B7808333F
:104770005B01D318043320221A707B681A680F2358
:10478000FB181B7808335B01D31807331B78DBB2A7
:104790001A004023134055D07B681A680F23FB187A
:1047A0001B7808335B01D318073340221A707B68EB
:1047B0001A680F23FB181B7808335B01D3180433E6
:1047C00002221A703EE07B681A680F23FB181B78E0
:1047D00008335B01D31806331B78DBB21A001023B1
:1047E00013402FD07B681A680F23FB181B780833FF
:1047F0005B01D318043310221A707B681A680F23E8
:10480000FB181B7808335B01D31807331B78DBB226
:104810001A002023134015D07B681A680F23FB1859
:104820001B7808335B01D318073320221A707B688A
:104830001A680F23FB181B7808335B01D318043365
:1048400001221A70C046BD4604B080BD80B586B056
:1048500000AFF8607A603B600B23FB180A1C1A70EB
:10486000FB681B680B22BA18127808325201D35C1D
:104870005B065B0FDAB21723FB181A701723FB18BD
:104880001B78002B01D11C2332E00B23FB181B7873
:104890007A6819495B01CB1810331A600B23FB1897
:1048A0001B78154A5B01D31810335A6813490A4024
:1048B0005A600B23FB181B783A6892B29204920C50
:1048C00091B20D4A5B01D31810335A688904890CE0
:1048D000920B92030A435A60FB681A680B23FB1879
:1048E0001B7808335B01D318053380221A7000232C
:1048F0001800BD4606B080BD3C090020FF3F00F017
:1049000080B586B000AFF8607A603B600B23FB187F
:104910000A1C1A70FB681B680B22BA18127808323E
:104920005201D35C5B075B0FDAB21723FB181A70D6
:104930001723FB181B78002B01D11C232FE00B231E
:10494000FB181A787968184B5201D1500B23FB18C9
:104950001B783A6892B29204920C91B2124A5B01AF
:10496000D3185A688904890C8903104802400A4305
:104970005A600B23FB181B780B4A5B01D3185A684B
:10498000920B92035A60FB681A680B23FB181B7882
:1049900008335B01D318043340221A700023180037
:1049A000BD4606B080BDC0463C090020FF3F00F078
:1049B00080B582B000AF786039603A680C4B1A60FD
:1049C0000B4B5A680B490A40802189020A435A60FE
:1049D000074B5A68920B92035A607B681A688223CD
:1049E0005B004021D15400231800BD4602B080BDB9
:1049F0003C090020FF3F00F080B584B000AFBD4B04
:104A00001B681A680823FB18128C1A800823FB18ED
:104A10001B88002B55D1B74B1B681A68BB1D928BA6
:104A20001A80B44B1A68AB235B00D35ABA1D1288A4
:104A300013409AB2AF4B1968AA235B00C95A3B1DB9
:104A40000A401A800023FB6037E0AB4BFA68520043
:104A5000D35ABA1D128813409BB2002B07D0A54B26
:104A60001B681B68A44AF96849008A5A9A83A24BBA
:104A7000FA685200D35A3A1D128813409BB2002B99
:104A800018D0FB68062B0AD19C4B1B895B045B0D7D
:104A90009BB21A0080235B001A40994B1A60954B19
:104AA0001B68FA682E329200D258924B1B689449C8
:104AB00018009047FB680133FB60FB68062BC4DDE0
:104AC00050E20B23FB1800221A703BE20823FB186C
:104AD0001A880B23FB181B781A411300012213407C
:104AE00000D128E2834B1B681A680B23FB181B7844
:104AF00008335B01D31807331B78DAB2BB1D1A8069
:104B00007C4B19680B23FB181A78B0235B008A18BA
:104B1000D3181B789BB2BA1D128813409BB21AB2ED
:104B2000744B18680B23FB181978AC235B004118F1
:104B3000CB181B781BB213401AB23B1D1A80BB1D49
:104B40001B88602213405CD06A4B1B681A680B23D9
:104B5000FB181B7808335B01D31807331B78DBB2D3
:104B60001A004023134015D0624B1B681A680B23B0
:104B7000FB181B7808335B01D318073340221A70E7
:104B80000B23FB181B78802252421343DAB25D4B91
:104B90009A7120E0574B1B681A680B23FB181B788F
:104BA00008335B01D31807331B78DBB21A002023CC
:104BB000134010D04F4B1B681A680B23FB181B784F
:104BC00008335B01D318073320221A704D4B0B2298
:104BD000BA1812789A713B1D1B886022134000D1CD
:104BE000B7E1444B1A680B23FB181B78E0211B012B
:104BF000D3185B181A683F4B1B684249180090474E
:104C0000A7E1BB1D1B881022134038D0394B1B680D
:104C10001A680B23FB181B7808335B01D318073382
:104C200010221A70334B19680B23FB181A78B02323
:104C30005B008A18D3181B7810221340DBB2002BBC
:104C400000D188E10B23FB181B782C4A5B01D31899
:104C50005B689B049B0C9BB21A002A4B1A80254B65
:104C60001A680B23FB181B78DC211B01D3185B1877
:104C70001A68204B1B682349180090476BE1BB1D45
:104C80001B880322134000D18FE01A4B1B681A685F
:104C90000B23FB181B7808335B01D31807331B78F1
:104CA000DBB21A00022313402ED0124B1B681A6885
:104CB0000B23FB181B7808335B01D3180733022240
:104CC0001A700B23FB181B78802252421343DAB26E
:104CD0000C4B9A710B23FB181B78084A5B01D31805
:104CE00010335B689B049B0C9BB21A00054B5A80E7
:104CF00045E0C0460C050020B09502003C090020AC
:104D0000180500201C050020984B1B681A680B230F
:104D1000FB181B7808335B01D31807331B78DBB211
:104D20001A00012313402AD0904B1B681A680B23EA
:104D3000FB181B7808335B01D318073301221A7064
:104D40008B4B0B22BA1812789A710B23FB181B7825
:104D5000884A5B01D3185B689B049B0C9BB21A00CA
:104D6000834B1A800B23FB181B78824A5B01D318F4
:104D70005B681B019B0C9BB21A007D4B9A803B1D0C
:104D80001B880322134000D1E7E0784B1A680B23FD
:104D9000FB181B780D331B01D31804331A68734BAF
:104DA0001B68734918009047D7E0BB1D1B880C2275
:104DB000134000D1BFE06D4B1B681A680B23FB1832
:104DC0001B7808335B01D31807331B78DBB21A005A
:104DD0000823134047D0654B1B681A680B23FB1848
:104DE0001B7808335B01D318073308221A700B2392
:104DF000FB181B785F4A5B01D3181A331B78DBB2B0
:104E00001A000223134014D00B23FB181B780B222B
:104E1000BA181278574952018A181A321278D2B247
:104E200002218A43D1B2534A5B01D3181A330A1CB8
:104E30001A700B23FB181B78802252421343DAB2FC
:104E40004B4B9A71494B1B681A680B23FB181B7854
:104E500008335B01D31807331B78DBB21A00022337
:104E6000134053D07EE0414B1B681A680B23FB189C
:104E70001B7808335B01D31807331B78DBB21A00A9
:104E80000423134042D0394B1B681A680B23FB18CC
:104E90001B7808335B01D318073304221A700B23E5
:104EA000FB181B78334A5B01D3180A331B78DBB23B
:104EB0001A000223134014D00B23FB181B780B227B
:104EC000BA1812782B4952018A180A321278D2B2D3
:104ED00002218A43D1B2274A5B01D3180A330A1C44
:104EE0001A70234B0B22BA1812789A711F4B1B6849
:104EF0001A680B23FB181B7808335B01D3180733A0
:104F00001B78DBB21A000123134028D13B1D1B88FC
:104F10000C22134025D0154B1A680B23FB181B7865
:104F2000D8211B01D3185B181A68104B1B68104955
:104F30001800904715E00B23FB181A780B23FB1879
:104F400001321A700B23FB181B78072B00D8BDE524
:104F500008E0C04606E0C04604E0C04602E0C046A5
:104F600000E0C046BD4604B080BDC0460C05002030
:104F70001C0500203C09002080B582B000AF78609D
:104F80007B681A687B681B681B78DBB202210B43C5
:104F9000DBB21370C0467B681B689B78DBB2022BC8
:104FA000F9D0C046BD4602B080BD000080B500AF5C
:104FB000084B1B681B681B781B06DB0FDBB2002B42
:104FC00002D0054B984701E0044B9847C046BD46C8
:104FD00080BDC0460C05002081340000F949000066
:104FE00080B582B000AF78607B6800221A707B6861
:104FF00001225A707B6803229A707B680122DA7062
:10500000C046BD4602B080BD80B58CB000AFF86030
:10501000B9607A60BC4B00221A60BC4BFA681A6017
:10502000FB68BA681A6001210120B94B9847182320
:10503000FB181800B74B98471823FB1806221A7064
:105040001823FB1819001820B34B98471823FB1896
:1050500006221A701823FB1819001920AE4B984726
:105060001423FB181800AD4B98477B689A781423DB
:10507000FB181A701423FB1819000420A84B98473A
:105080000420A84B9847BA68137801210B4313708A
:10509000C046BB689B78DB07DB0FDBB2002BF8D187
:1050A000A14B1B685B0B1F2213407B627B6A1F2B8B
:1050B00001D105237B627B6ADBB21A1C1F231340DC
:1050C000D9B2BA68138D081C1F2101408801974985
:1050D0000B40191C031C0B431385934B1B689B0C43
:1050E0001F2213403B623B6A1F2B01D11D233B62F1
:1050F0003B6ADBB21A1C1F231340D9B2BA68138D66
:10510000081C1F2108401F218B43191C031C0B4343
:105110001385854B1B68DB0D07221340FB61FB6980
:10512000072B01D10323FB61FB69DBB21A1C0723A8
:105130001340D9B2BA68138D081C07210140080337
:105140007B490B40191C031C0B4313857B681978A2
:10515000BA681378C8017F210B40191C031C0B434C
:1051600013707B685978BA68137801200140880071
:1051700004218B43191C031C0B4313706D4ABB683D
:105180005A627B68DB78012B06D1FB681A681389A9
:105190000C218B4313810CE07B68DB78002B08D15A
:1051A000FB681A6813890C218B43191C04230B43D9
:1051B000138180235A005F4B002118005E4B9847F3
:1051C0000023FB6209E0FA68FB6A9B00D3180433F2
:1051D00000221A60FB6A0133FB62FB6A072BF2D9DB
:1051E0000023FB6216E00023BB620DE0FA68FB6A55
:1051F0009900BB6ACB1808339B00D31804330022F4
:105200001A60BB6A0133BB62BB6A032BEED9FB6A2F
:105210000133FB62FB6A072BE5D9FB68A42200215E
:105220009954FB68A522002199540023FB6210E0E9
:10523000FA68A621FB6AD3185B1800221A70FA6874
:10524000AE21FB6AD3185B1800221A70FB6A013387
:10525000FB62FB6A072BEBD90023FB6208E0FB68CB
:10526000FA6A2E3292000021D150FB6A0133FB62B0
:10527000FB6A062BF3D90023FB6216E00023BB6216
:105280000DE0FA68FB6A9900BB6ACB1834339B00C7
:10529000D318043300221A60BB6A0133BB62BB6AB5
:1052A000032BEED9FB6A0133FB62FB6A072BE5D9BE
:1052B000FA68AA235B000021D152FA68AB235B0095
:1052C0000021D1520023BB6212E0F968AC235B00DD
:1052D000BA6A8A18D31800221A70F968B0235B00E2
:1052E000BA6A8A18D31800221A70BB6A0133BB62EB
:1052F000BB6A072BE9D90620104B984700231800FA
:10530000BD460CB080BDC046240500200C05002021
:10531000B13300002D34000035E401009933000062
:1053200081E10100C1E101001C6080003FF8FFFF46
:10533000FF8FFFFF3C090020478B0200553400001F
:1053400080B582B000AF02003960FB1D1A70FB1DF2
:105350001B78042B27D89A00164BD3181B689F463E
:10536000154B154A51693A680A435A611DE0124BC0
:10537000114A91693A680A439A6116E00E4B0E4A47
:10538000D1693A680A43DA610FE00B4B0A4A116AA5
:105390003A680A431A6208E0074B074A516A3A68BA
:1053A0000A435A6201E0172300E000231800BD46BB
:1053B00002B080BDD89502000004004080B582B0E4
:1053C00000AF064B7B607B689B68002B01D00123FC
:1053D00000E000231800BD4602B080BD001C004064
:1053E00080B582B000AF074B7B607B681B78DBB277
:1053F0001A00802313405A1E9341DBB21800BD46A9
:1054000002B080BD001C004080B584B000AF786061
:10541000474BBB6080210020464B9847464B98473E
:10542000031E01D010237EE07B689B78002B01D106
:10543000172378E07B689A787B68DB789A4205D3FB
:105440007B689A787B681B799A4201D217236AE0BD
:10545000BB681B78DBB202229343DAB2BB681A70D6
:10546000C046364B9847031EFBD17B685B78012210
:105470005340DBB2002B01D0002354E00023FB603B
:105480007B689B78013B1A00FB681343FB607B68D9
:10549000DB78002B10D0BB681B78DBB204221343EF
:1054A000DAB2BB681A707B68DB78013B1B011A001B
:1054B000FB681343FB6007E0BB681B78DBB2042288
:1054C0009343DAB2BB681A70C0461C4B9847031E60
:1054D000FBD1FB68DAB2BB685A707B681B79002B82
:1054E00005D07B681B79013BDAB2BB689A707B6898
:1054F0001B78002B09D0BB681B78DBB2802252429C
:105500001343DAB2BB681A7007E0BB681B78DBB2E2
:1055100002221343DAB2BB681A70C046074B9847A1
:10552000031EFBD100231800BD4604B080BDC04659
:10553000001C004041530000E1530000BD53000037
:1055400080B582B000AF074B7B607B68A5221A73E1
:10555000C046054B9847031EFBD1C046BD4602B06E
:1055600080BDC046001C0040BD53000080B582B025
:1055700000AF044B7B607B6801229A71C046BD4638
:1055800002B080BD001C004080B500AF054B9847BD
:10559000054B1B68002B02D0034B1B689847C04685
:1055A000BD4680BD6D5500003C0A002080B582B02C
:1055B00000AF194B7B60194B3B607A683B689A429D
:1055C0000CD007E03B681A1D3A607A68111D7960BB
:1055D00012681A603A68124B9A42F3D3114B3B603F
:1055E00004E03B681A1D3A6000221A603A680E4BCC
:1055F0009A42F6D30D4B7B600D4B7A68FF218A43AC
:105600009A600C4A536880210B4353600A4B9847B9
:105610000A4B9847FEE7C046DCBB020000000020B2
:105620001804002018040020D84C002000000000BE
:1056300000ED00E000400041ED8A020029EA01008F
:1056400080B500AFFEE7000080B584B000AF7860A1
:105650000A4B1B68002B02D1084B094A1A60074B02
:105660001B68FB60054B1A687B68D218034B1A60F5
:10567000FB681800BD4604B080BDC0462805002068
:10568000D86C002090B585B000AF0200FB1D1A70E9
:10569000FB1D1B78012B01D9012329E00023FB60AE
:1056A00010E00B23FC18FB1D1B781800124B9847C9
:1056B000030023700B23FB181B78032B06D1FB6818
:1056C0000133FB60FB68012BEBDD00E0C0460B23E0
:1056D000FB181B78002B01D0012309E0FB1D1B7870
:1056E0001800064B9847031E01D0042300E0002356
:1056F0001800BD4605B090BDCD2401001D26010057
:1057000080B582B000AF0200FB1D1A70FB1D1B7834
:105710001800084B9847031E02D0022B02D003E06A
:10572000002302E0032300E001231800BD4602B07D
:1057300080BDC046CD24010090B589B000AFB960EE
:105740007A6019000F23FB18021C1A700E23FB1835
:105750000A1C1A701B23FC180F23FB181B78180057
:10576000284B9847030023701B23FB181B78002B42
:1057700001D1012342E01423FA180F23FB181B78F0
:1057800011001800204B98470E23FB181B781B2292
:10579000BA18127853431A007B68D2187B69013318
:1057A0001B21791809784B439A4201D9042325E03B
:1057B0000023FB611BE01B23FB181B78FA695A438B
:1057C0007B68D1181B23FB181B78FA6953435B02D3
:1057D000BA68D2180F23FB181B7818000B4B984798
:1057E000031E01D0012309E0FB690133FB610E2395
:1057F000FB181A78FB699A42DDD800231800BD46D1
:1058000009B090BD6525010015250100952701000F
:1058100090B589B000AFB9607A6019000F23FB180A
:10582000021C1A700E23FB180A1C1A701B23FC188A
:105830000F23FB181B781800284B98470300237090
:105840001B23FB181B78002B01D1012342E01423FA
:10585000FA180F23FB181B7811001800204B9847EB
:105860000E23FB181B781B22BA18127853431A0018
:105870007B68D2187B6901331B21791809784B4367
:105880009A4201D9042325E00023FB611BE01B237E
:10589000FB181B78FA695A437B68D1181B23FB1845
:1058A0001B78FA6953435B02BA68D2180F23FB18BE
:1058B0001B7818000B4B9847031E01D0012309E009
:1058C000FB690133FB610E23FB181A78FB699A42CE
:1058D000DDD800231800BD4609B090BD6525010044
:1058E00015250100F127010090B585B000AF3A60A1
:1058F000FB1D021C1A70BB1D0A1C1A700F23FB181B
:1059000004221A70BB1D1B78012B0FD002DC002B68
:1059100044D054E0022B1AD0032B50D13B68012213
:105920001A600F23FB1800221A704CE00823FA18A3
:10593000FB1D1B7811001800264B9847BB685A1CAA
:105940003B681A600F23FB1800221A703BE00E23FD
:10595000FC18FB1D1B7818001F4B98470300237091
:105960000E23FB181B78012B10D00E23FB181B787D
:10597000022B0BD00E23FB181B78042B06D00E2312
:10598000FB181B78082B01D001231FE03B68002285
:105990001A700F23FB1800221A7014E0FB1D1B78ED
:1059A00018000E4B9847031E04D10F23FB1800224A
:1059B0001A7008E00F23FB1803221A7003E00F236C
:1059C000FB1804221A700F23FB181B781800BD4621
:1059D00005B090BD1525010065250100CD2401000D
:1059E00090B583B000AF1B4B9B7918001A4B9847BA
:1059F000030014335C06174B5B791800164B98476D
:105A000003005B051C43134B1B791800124B98478E
:105A100003001B041C430F4B9B7818000E4B984748
:105A20000300DB021C430B4B5B7818000A4B9847C2
:105A300003005B011C43074B1B781800064B98477B
:105A400003005B0823437B607B681800BD4603B0FE
:105A500090BDC0461C1E002069A4000080B586B021
:105A600000AFF860B9607A60FB687B61BB683B613E
:105A700007E07B695A1C7A613A69511C39611278D6
:105A80001A707B685A1E7A60002BF2D1C046BD4660
:105A900006B080BD80B586B000AFF860B9607A60AE
:105AA000FB687B6105E07B695A1C7A61BA68D2B2F7
:105AB0001A707B685A1E7A60002BF4D1C046BD462E
:105AC00006B080BD80B588B000AFF860B9607A607C
:105AD000FB68FB61BB68BB6100237B61C0467B68E0
