:10000000B8330020A5280000A1280000A128000086
:1000100000000000000000000000000000000000E0
:10002000000000000000000000000000A128000007
:100030000000000000000000A1280000A12800002E
:10004000A1280000A1280000191200009110000052
:10005000A1280000A1280000D9230000A128000049
:10006000191B0000291B0000391B0000491B000060
:10007000591B0000691B0000A1280000A1280000F6
:10008000A1280000592000006920000000000000A5
:100090000000000079200000A1280000A128000035
:1000A000A1280000A1280000A1280000A12800002C
:1000B0000000000010B5064C2378002B07D1054B3B
:1000C000002B02D0044800E000BF0123237010BDC4
:1000D0006002002000000000C4D90000084B10B5E9
:1000E000002B03D00749084800E000BF0748036819
:1000F000002B00D110BD064B002BFBD09847F9E731
:100100000000000064020020C4D90000C4D900002F
:1001100000000000704770B507258C1A0734E117FE
:1001200029400919C9104018411E2A400978D618DB
:100130001141082E0DDD841E24780135AD1AAC4026
:100140002143102E05DD102403380078A21A9040B8
:100150000143012098400138084070BD10B5064B9E
:100160000648196800788B7F054C5A1E93414A7BDC
:10017000DBB20968A04710BD7C020020A402002069
:10018000A90B000070B5FF26084D00210848094B57
:100190009847041E02D10024200070BD064B9847EA
:1001A0003042F9D0013D002DEFD1F4E7410D0300BD
:1001B0000D1B0000B50D0000C90D000010B5034B6C
:1001C0001878002801D1024B984710BDA4020020E6
:1001D000FD0B000010B50423002817D10C4CA37AA6
:1001E000033B012B06D80223A3720A4BA07723609E
:1001F000012363730022084B1A70084B1C60084BE4
:100200009847A37A023B58424341DBB2180010BD25
:1002100080020020801A0600A40200207C02002038
:100220005D01000073B501240B4D10222B680B48B3
:1002300019890B4E090400942300B047002801D10E
:10024000002076BD286821000E30064B9847002814
:10025000F6D0054B9847F4E77C020020091108000E
:10026000590C0000450E0000AD0E0000042210B530
:10027000034B9A72034BFB321A70034B984710BD25
:1002800080020020A4020020B50A0000F0B5C84B8F
:1002900089B098470290012804D0C64B984702982D
:1002A00009B0F0BD6A460025C34C127A2368C349E1
:1002B000DA721D732A001D81C14FC248B8470298E7
:1002C000C14EB047C14B98470298B047BB49029A0C
:1002D000BC48B8470298B047882029004001BC4D6F
:1002E000A847002812D0D52676003100B948A84783
:1002F000002800D1A9E1B84B9847431C00D1A4E1E4
:100300000005000D029BB04200D19FE10324AA4BDF
:100310001B689C72A74B98470294C0E7AF48A84758
:10032000002800D1ADE1B847430004D50823226876
:10033000D17A0B43D3720021A948A8470028E5D001
:100340002368DB7ADB0700D426E1A64B9847002818
:10035000DCD0276808233E000E3660228021300062
:10036000A14DA847072342061840A04B8000C15862
:10037000FA239B004B43120F9D49920052583000C4
:10038000534380213B607E220223A847002800D1EE
:10039000E8E01623302280213000A84701304002D7
:1003A0007860398993480904894B98470028ADD073
:1003B0000125082200952B0000218F488F4CA04773
:1003C0000028A3D0290006A88D4B984700289DD06F
:1003D0008C4B9847002899D004233822402106A846
:1003E000814EB047744CA84200D1D2E0002802D020
:1003F000022800D116E123681022CCE07748A847F4
:10040000002883D0B847C023DB0518408023DB05D4
:10041000984204D108232268D17A0B43D372002179
:100420006F48A847002800D170E76E4B9847002816
:1004300000D16BE72468042325000E357A22802141
:100440002800694EB04701381223032804D809F068
:10045000EDF802838587142323736022082380210B
:10046000614F2800B8470723420618405F4B8000C1
:10047000C158FA239B004B43120F63499200525814
:1004800028005343802123603E220C23B8475F4B52
:10049000060098420FD003232F2280212800B8475E
:1004A0000136023086400423502280212800B847BC
:1004B0008640B60A6660237B3F2B39D90021802213
:1004C00000910123920052484C4CA047002800D1D3
:1004D0001CE7322405A84F4DA847002800D115E796
:1004E000013CA4B2002CF5D1334E0C2330683E4CB5
:1004F0000E303E228021A047444B322498420ED138
:100500002E3C06A8A847002800D1FFE6013CA4B273
:10051000002CF6D1069B32685B085360363406A87F
:10052000A847002800D1F1E60134A4B2802CF6D10E
:10053000802139488900264B9847002800D1E5E6FC
:10054000364B9847002800D1E0E6354B984700220B
:10055000194B1B689A72A0E622237DE730237BE7C4
:10056000402379E70C233E2280213000A847032353
:1005700004002F2280213000A8470134023084403B
:100580000423502280213000A8478440A40A7C60C4
:1005900007E71A2223681A730922074C2368DB7ABB
:1005A0001340012B49D02368DB7ADB07C8D4CCE7A2
:1005B000D5010000BD0100007C0200207C0300206A
:1005C000E55C000094030020A1640000250C0000FD
:1005D000B50D000008550000C90D00003A050000E7
:1005E0003B110000250200001701000050CE000062
:1005F0006CCE00003711000033110800590C0000C8
:10060000450E0000AD0E000010CE0000FF0F0000F0
:1006100008110800D50D0000101100008501000030
:100620005D0100002B002F22402106A8B04723685F
:1006300030220128AFD02022ADE780211E4889005A
:100640001E4B98470028AED160E600232268D27A7C
:10065000D20700D474E69B07194E03930021194872
:10066000A84700280DD003991748A847002808D0AC
:10067000164FB8470121014000D14FE6013E002E40
:10068000ECD10223882022680021D3724001A847C0
:10069000002800D13AE60A4E00210D48A84700285C
:1006A00000D133E6094FB8470121014000D1A5E64A
:1006B000013E002EF0D129E610110000B50D00001A
:1006C000EF1B00003711000029110000C90D0000C8
:1006D00001110000064B10B598470023984204D141
:1006E000044B9847044B1B68DB7A180010BDC046CA
:1006F000D5010000BD0100007C020020064B10B5B2
:1007000098470023984204D1044B9847044B1B6838
:100710005B68180010BDC046D5010000BD01000097
:100720007C0200200020704773B5144B0E001400AB
:100730009847051E06D1124B9847002804D1114B4B
:1007400098470525280076BD012C15D80E480F4B7B
:100750001B68DB7A1B0700D47602012380220093FA
:100760003100230092000A4EB0470028E7D0094B21
:100770001C80094B1C80E5E70848E8E7D50100002C
:1007800085010000BD010000111108007C0200205D
:10079000590C0000A0020020A2020020121110003B
:1007A00010B5074B0C009847064B002802D1188063
:1007B000053010BD19880020091B1980F9E7C046D3
:1007C000450E0000A002002010B5114B0400984710
:1007D0000523002810D00F4B002C09D000221A80CE
:1007E0000D4B1B88012B09D10C4B9847002303E0CC
:1007F0001A882300002AF3D0180010BD00210848F1
:10080000084CA047011EEFD10548A047ECE7C046C1
:10081000AD0E0000A0020020A2020020BD010000D9
:100820000C310000B50D000073B5124B0E00140022
:100830009847051E15D1012C15D80F480F4B1B6882
:10084000DB7A1B0700D4760201238022009331005B
:10085000230092000A4EB047002806D1094B984762
:100860000525280076BD0848E8E7084B1C80084BA2
:100870001C80F6E7D5010000189108007C020020DA
:10088000590C0000BD01000019911000A0020020C9
:10089000A202002010B5074B0C009847064B002819
:1008A00002D11880053010BD19880020091B19805D
:1008B000F9E7C046B10E0000A002002010B50A4BB7
:1008C00004009847052300280CD0084B002C05D0C5
:1008D00000221A80064B9847002303E01A88230061
:1008E000002AF7D0180010BD250F0000A00200203C
:1008F000BD01000037B56B46991DFF23094D01224C
:100900002800094C0B70A0476A46084BD11D1B8874
:10091000012B05D1FD33280001220B70A04737BD04
:10092000FC23F8E7940300207D5D0000AC0200206A
:10093000F7B56B46FF240F4EDD1D01222300290071
:100940000D4F30002C70B8472300012229003000E1
:10095000B8470A4CFF23012229003000064F013C12
:10096000B847002C04D02B78FF2BF3D10120FEBD1B
:100970002000FCE794030020F15B0000410D030020
:10098000F7B56B46DD1D00230F26114C2B70013C83
:10099000002C04D1042220000E4B1A70FEBD01224F
:1009A000FF2329000C480D4FB84728780200B243B6
:1009B00009D10721074B084002D019701000EDE75C
:1009C0000B221A70EAE7FE28E1D1FD38E6E7C046BF
:1009D00021A10700AB02002094030020F15B00007E
:1009E00037B56B46991D0123124D5B420B800222E5
:1009F0002800114B98476B465C1D2800FF230122FD
:100A000021000E4DA847112023781840012804D05A
:100A100001220B4B1A7000203EBD1E221340042BF6
:100A2000FAD0074A0A2B02D1023B1370F3E70A23DC
:100A3000FBE7C046940300207D5D0000F15B0000F1
:100A4000AB020020F7B5134B1D882C00012D1FD0E1
:100A5000114B01241988114B1868114B9847854296
:100A600016D86B46DD1DFF230E4F220029000E4EC7
:100A700038002B70B047FD232200290038002B706E
:100A8000B0470A4B9847041E02D10522084B1A7042
:100A90002000FEBDAC020020A6020020B40200200F
:100AA00041960000940300207D5D000031090000A4
:100AB000AB020020F0B500252B4B01261D700D2345
:100AC00091B06B4402ACDD7729000C22274B08A8BB
:100AD00026700395049525746574A674E6742575CF
:100AE000984780235B02E360214B224FA362224B95
:100AF00022002363214B22496363224B3800A36108
:100B0000214BE56298473D68204B280098471F23FA
:100B1000184086401E4B1E603B68DC69002CFCD1EF
:100B200002232A681B4E13432B6001251A4A1B4BD4
:100B3000107801A95C709C7018703070184B74703C
:100B4000B4704D708C700D70984732785309D1098C
:100B500008D11F310A409540124ADB019B189D6164
:100B600011B0F0BDA461FFDEAB02002097C500000C
:100B7000030028009403002003002A0003002B0038
:100B800000100042801A0600DD590000ED1A000036
:100B900000E100E0A802002000000020B8020020D0
:100BA000CD6400000028004000220E4B70B51A7082
:100BB0000D4B06000C00994200D91C000B4D210082
:100BC00028000B4B9847172808D003214E430949AA
:100BD000280089190122084B984770BDE308E41AE0
:100BE000ECE7C046AB02002000093D009403002062
:100BF00051590000A8020020E55C000003210022FA
:100C000010B54843034B04491A700918034B0448B4
:100C1000984710BDAB020020A8020020E55C000050
:100C20009403002037B56B46DD1DFF2300220A2404
:100C30002B70064B1A70013C012229000448054B19
:100C4000E4B29847002CF6D137BDC046AB02002075
:100C5000940300207D5D0000F0B589B00292FF2270
:100C6000039304AB9A7100223F24494B01901A7000
:100C7000019B06A81C404023234303700B0E4370C6
:100C80000B0C83700B0AC37008261300092701712F
:100C90003100845C5B00DBB21D0065402D0600D591
:100CA0007B4001396400C9B2E4B20029F2D10132BB
:100CB000052AEDD101245B00364F234306AE737144
:100CC00004AB991D2200344D3800A847310006229C
:100CD0003800A84704ABD91DFF23220038002F4C51
:100CE0000B70A047072404ABDE1D0122FF23310057
:100CF00028482A4DA84733785AB2002A09DA013C1D
:100D0000E4B2002CEFD102220020214B1A7009B06E
:100D1000F0BD0824224E1C40336001D00622F3E7C8
:100D2000042009221840EFD10122934302D0184B2E
:100D30001A70ECE7019B9B0405D51A4B98470028D5
:100D400001D10322F3E7019B9B0507D50023012274
:100D500033603100FF330F48104CA047019B5B0507
:100D600009D50F4CFF230422210038000B4DA84762
:100D700023681BBA23606A460B4B128901201A8034
:100D80006A460A4B92891A800022094B1A60BEE714
:100D9000AB020020940300207D5D0000F15B0000A9
:100DA000B002002031090000A6020020AC020020A1
:100DB000B4020020002213B513000092014CA0479A
:100DC00016BDC046590C0000014B18687047C0465C
:100DD000B00200200022F0B5134B144C144E85B025
:100DE00001901A703188134F2068B84700290ED03F
:100DF000FF2301A904221048104DA8472368318819
:100E0000181D2060B847002907D0012003E00C4BD3
:100E100098470028ECD105B0F0BDFF23022203A9BA
:100E2000064C0548A047F0E7AB020020B4020020C2
:100E3000A60200204D97000094030020F15B000003
:100E400081090000F0B500240D00124B85B001901F
:100E50001C70002D02D1012005B0F0BD0E4B98474B
:100E6000013DADB20028F7D00C4F019B3A8819190B
:100E70000B4EFF230B48B0470B4A3B881168E41820
:100E8000CB18136003A9FF230222054E0548B04783
:100E9000DFE7C046AB02002081090000A602002067
:100EA000F15B000094030020B40200200120704791
:100EB000F7B50024134D01902C704F1EBFB20029CE
:100EC00001D101201AE0104B9847104E019B328847
:100ED00019190F480F4B98470F4A33881168E418C7
:100EE000CB1813600D4B9847002807D0002F06D071
:100EF0000B4B9847002802D105232B70FEBD39000B
:100F0000DBE7C046AB020020F5080000A602002087
:100F1000940300207D5D0000B4020020E109000080
:100F20003109000010B5054B9847002803D1052270
:100F3000034B1A7010BD034B9847FBE731090000C3
:100F4000AB020020450A00000300012010B58342D7
:100F500003D8024A5B019B58984710BDACCE0000F5
:100F60000300012010B5834205D8034A5B01D31862
:100F70005B680800984710BDACCE0000012200233A
:100F800082425B41D8B270470300012010B5834212
:100F900004D803485B01C318DB68984710BDC046FE
:100FA000ACCE00000300012070B50D00834206D8CE
:100FB000034C5B01E3185B6911002800984770BD82
:100FC000ACCE00000300012070B50D00834206D8AE
:100FD000034C5B01E3189B6911002800984770BD22
:100FE000ACCE0000094B196800290BD1EFF310803B
:100FF000074A002805D172B6BFF35F8F0549087014
:10100000012111701A6801321A607047BC02002079
:10101000C002002001000020084B1A68013A1A6043
:101020001B68002B09D1064B1B78002B05D0012231
:10103000044B1A70BFF35F8F62B67047BC0200208A
:10104000C00200200100002010B51723002A06D19D
:10105000064B8900CC58002C03D1C850230018003F
:1010600010BD13008442FAD01D23F8E7400400208D
:101070001723002906D11F2806D8163B8340034AB0
:1010800013610B00180070470961FFDE0024004067
:10109000002370B501250B4C237023780F2B00D94A
:1010A00070BD29009940084A5069084206D0516134
:1010B000064A9B009B58002B00D0984723780133A9
:1010C0002370EAE73D040020002400404004002093
:1010D0000123044A18005168890700D45068184059
:1010E0007047C04600240040022310B5044A11781E
:1010F0000B431370034B98470028FBD110BDC0462B
:1011000000240040D1100000022110B5044A1378D9
:101110008B431370034B98470028FBD110BDC0468A
:1011200000240040D1100000802310B50E4A9B001F
:1011300051690E4C0B435361012221780A432270FE
:101140000B4B98470028FBD1102322781343020051
:101150002370084B1A5004304028FBD10822064B5C
:101160001A60064B984710BD000400400024004060
:10117000D11000004004002000E100E0E910000070
:101180000122002302729218036043608372C272CC
:1011900043727047F7B50C0000261B4B05009847BB
:1011A000237901A94E70CE700B70237A20788B7052
:1011B000164B984731001F2D00D815490722A37AF6
:1011C0002A409200E67A002B01D008231E430F2705
:1011D000964097403200EB089B00CB18D869B84383
:1011E0000243DA61627A0123002A06D0AB408A69A1
:1011F00013438B61074B9847F7BDAB40DB438869CE
:101200009BB20340F5E7C04609110000BD6A00002B
:1012100000240040E9100000F7B5214B1C68E38E64
:10122000A28E26681A400092B38975891D402BB2A0
:10123000002B07DA13005B0501D5236B9847194B88
:10124000B381F7BDEBB2002B15D000270123BB40C3
:1012500001932B4208D0009B01223B41134203D053
:10126000BB1C9B001B5998476B469B880137B38179
:10127000082FEBD1E5E780277F003D4206D0009B99
:101280003B4201D0A36A9847B781DAE78027BF00C5
:101290003D42D6D0009B3B42F6D0E36AF3E7C0461E
:1012A000800400200080FFFF07230168CA691A42FA
:1012B000FCD17047F0B507008BB0396008009F4B38
:1012C00014000E0098479E4A052800D126E101230C
:1012D00083400500D16912350B43D361237B08AAF3
:1012E000EDB2137011002800964B98472800964BDA
:1012F0009847964B207B0021984733681C209B071A
:1013000000D509E10123356817381D4000D003E1FD
:101310008A4B386898478E498E4B04909847049BB7
:101320003D769A008C4B7D76D750BB1D7D83BD8367
:10133000DD7714233D6233603B6809AE04931800E7
:101340007E4B984780230090E06933707F3B757037
:10135000F570B370256A002803D101007F4B049813
:10136000984702233070000C7370C0B231007C4B80
:101370009847002D04D101210498784B9847050027
:10138000022335702D0C7370E8B2754B310098470D
:10139000A38AFB80E38A3B81227E8023002A06D138
:1013A000704B02329B7813405F1EBB41DB01A26889
:1013B000276917431F43631DDB7F002B02D0802367
:1013C000DB051F43A36A1F4323002C331B78002B2C
:1013D00003D180239B049A4202D180231B051F4323
:1013E00023002D331B78002B02D080231B041F43C6
:1013F00023002E331B78002B02D08023DB031F43F6
:10140000049B00981B68FA251F43049B049A1F60E5
:10141000802312305B005360C0B2534B984723685F
:10142000AD005D43636807000593504B98474F4BF1
:101430000090019168009847029003914B4B208ED9
:1014400098474B4E0690079100980199494A4A4B9C
:10145000B04702000B0006980799B047474E00229C
:10146000474BB047414B0690079128009847404DA5
:1014700002000B0006980799A847424D02000B0096
:1014800000980199A847029A039BB04700223E4B5F
:10149000A847029A039B3D4EB0473D4B9847802397
:1014A0000290A2689B049A4244D1FA23059C9B00B7
:1014B0005C43009A019B314E10001900B0472B4B42
:1014C00000900191200098470022324B284EB047EF
:1014D0002E4E02000B0000980199B04700222A4BC3
:1014E000A8472B4B98472C4B061E1DD021003800D7
:1014F00098470238831B029A4020FF2A0CD8FF2B02
:101500000AD8FF20150000041B0403400020360603
:1015100035431D43049BDD600BB0F0BD0223116A0F
:1015200018250B431362D9E66100481EC01998477D
:10153000431EE0E700263300DDE7C04605640000F7
:1015400000040040E5690000856900006962000050
:1015500025190000B51A000084040020AD620000C7
:10156000BD6A000000200041096A000009C30000B4
:1015700035B7000095D626E80B2E113EADA8000029
:101580000000244035BC00000000F03FCDAE00005C
:10159000A1C200000000084041960000022203683A
:1015A000197E114206D01A765B8B412013420AD174
:1015B000002008E05A8B5207FAD5C022182059683B
:1015C00092020A435A60704770B500220126022435
:1015D00001680B7E334002D10D7E254201D00020F0
:1015E00005E00132038992B29342F2D8122070BD15
:1015F000802310B50468DB02626813436360616294
:10160000024B98470123237610BDC046C915000040
:10161000F0B5046885B0236801901B01DB0F4D888D
:1016200003934B7A0E00002B02D0897A474B9847E0
:101630006368474F3B406360727A3388317A920324
:101640005B0013430122002919D0802212021343A8
:10165000636201983F4B984763683B406360002892
:1016600063D101983C4B984700285ED1782332889B
:10167000717A120A1343012289035B000A43134360
:1016800063620198334B9847039B0200002B17D0ED
:101690007388012B14D180236168DB020B436360E4
:1016A000002A42D101982C4B984700283DD1013D9A
:1016B000AFB20500294B9F4206D10295002520E0DC
:1016C00063681F406760EBE72022638B13423AD0C8
:1016D000019BDB7A002B04D0039B002B27D1002F2A
:1016E00027D001981E4B98476B1C9BB20293230096
:1016F00028331B78726801985355164B9847051E7E
:101700001DD0019B164F9B7A002B06D00198B8473D
:10171000C02362689B02134363600198B8472800A6
:1017200028342278736802995A5405B0F0BD012F0D
:10173000D7D180226368D202134363600295013FD0
:10174000BFB2029DB6E74120EFE7C046F1150000A9
:10175000FFFFFBFFC91500009D150000FFFF000003
:10176000A9120000F7B50F004B88050001932A4B22
:10177000046898477B7A002B03D0B97A2800274B5E
:1017800098476368264A134063607A7A3B88397ABF
:101790005B0092031343002902D0802212021343FC
:1017A000636228001F4B9847061E15D128001E4B68
:1017B0009847061E10D10090009B019A93420DD1CC
:1017C0000026AB7A002B07D0134B28009847C02384
:1017D00062689B02134363603000FEBD2022638B6E
:1017E000134216D028000C4B98477B68009A2800BB
:1017F0009A5C230028331A700A4B9847061EE0D1E2
:10180000009A638B0132009204221342D4D01E2628
:10181000D7E74126E0E7C046A9120000F115000015
:10182000FFFFFBFFC91500009D15000010B5828B5E
:1018300003000520002A05D101329A72DA721800DD
:10184000014B984710BDC0461116000010B5828BA1
:1018500003000520002A05D101329A72DA721800BD
:10186000014B984710BDC04665170000072301686B
:10187000CA691A42FCD17047F8B5056804002A68A5
:10188000468B838BF61A838BB6B2013B9BB2838364
:10189000C37A12010AD5002B0DD0838B012B0AD1FC
:1018A00080236A68DB0213436B6004E0002B02D0E4
:1018B000838B002BF4D0A38B0A4F002B09D1A37A82
:1018C000002B06D02000B847C0236A689B02134350
:1018D0006B602000B847236A28359E192B78DBB24D
:1018E0003370F8BD6D18000070B506680400738B86
:1018F0005B0703D51E230634E37770BD458B838BCE
:101900002836ED1A838BADB2013B9BB28383044B27
:101910009847236A5D192B78DBB23370EDE7C04638
:101920006D180000F8B55E4B8000C4582568A61DF0
:101930002B68627E277E1B011740628BDB0F002A1B
:101940002ED1A28B002A2BD001232A7E1A4206D048
:1019500002222B766B8B134010D04123F377A38B9D
:101960009BB26383F37F052B3CD1631DDB7F20009B
:10197000002B00D08AE04B4B984733E06A8B52072C
:10198000EDD51822F277A383A37A002BE7D0464B3C
:1019900020009847C0236A689B0213436B60DEE710
:1019A000628B002A5FD0A28B002A5CD1F27F052ACD
:1019B00059D1621DD27FD2B2002A54D103232B7594
:1019C0006283F277A37A002B4AD0374B20009847E6
:1019D000C0236A689B0213436B60FB0702D5E36870
:1019E00020009847638B002B1BD0A38B002B18D1B2
:1019F000F37F052B15D1631DDA7F012A11D1297ED2
:101A00000132114200D02A7603222A750022628315
:101A1000F277BA073CD5DA7F012A39D12369200051
:101A20009847F37F052B1AD0F37F002B17D00323A1
:101A30002B7500236383A383F37F412B0AD0A37A02
:101A4000002B07D0184B20009847E0236A68DB0280
:101A500013436B607B0702D5636920009847F8BD8C
:101A600001232B76B9E7628B002ABBD0A28B002A18
:101A7000B8D06A8B920600D577E7002B03D0A38BF2
:101A8000012B00D171E74123F377ABE7074B73E7F5
:101A9000FA07C6D5DB7F002BC3D1E368BFE7C0469A
:101AA00084040020E91800006D1800007918000077
:101AB00070470000F0B5094C094A2378002B09D182
:101AC0001E00084F084DD750EE500433182BFAD1A2
:101AD000173B237080001150F0BDC046C1020020AA
:101AE000C4020020B11A00008404002007B50823B6
:101AF0006A46137001335370013393700133D3700E
:101B00000133137101335371024B98476B461856DA
:101B10000EBDC0460564000010B5024B00201B68D6
:101B2000984710BDC402002010B5024B01205B682D
:101B3000984710BDC402002010B5024B02209B68DC
:101B4000984710BDC402002010B5024B0320DB688B
:101B5000984710BDC402002010B5024B04201B6939
:101B6000984710BDC402002010B5024B05205B69E8
:101B7000984710BDC4020020F8B57C4B8000C458C3
:101B8000230022003733363225681B7816781E4032
:101B90002B7EAF7D1F40FB0739D562791300012AE8
:101BA00033D1637A002B0DD1714B1B88AB62638EEE
:101BB000013B9BB26386638E002B00D12A7563794B
:101BC000012B22D1637A002B21D0E16A2268481CC4
:101BD0000B78E062A079DBB2012800D174E09BB2FF
:101BE000DB05DB0D9362A38E013B9BB2A386A38E24
:101BF000002B0CD101332B75637A012B07D1E379CC
:101C0000002B04D10233AB7501E0002BDAD00421A4
:101C10000F4215D06B8B0B425CD0637A012B0CD03A
:101C200023001E2238331A700323637202332B758C
:101C3000330702D52000A3699847AB6A04236B835E
:101C40000222174227D06379002B0ED10721297574
:101C50002A760132627222003832A38623861370FC
:101C6000F30602D52000E36998476379012B12D16E
:101C7000637ADBB2012B0ED1E279002A0BD102216B
:101C8000297501316172210038310A701E4202D07B
:101C90002000E368984708231F4209D06279002A90
:101CA00006D12B752B76B30602D52000236A984700
:101CB0007FB2002F07DA80232B752B76730602D5AF
:101CC000636A20009847F8BD487802310002034358
:101CD000E16285E7627A2368D2B29B6A012A13D156
:101CE000638E013B9BB26386638E9BB2002BA7D1B0
:101CF0002975210038310B700333637216429FD06F
:101D00002000E36898479BE7DB05A16ADB0DDAB2A8
:101D10000A70A26A511CA162A179012904D11B0A8F
:101D20005370A36A0133A362238E013B9BB22386C7
:101D3000238E9BB2002B00D082E722003832137032
:101D400004332B75627A022A05D11E4200D177E74F
:101D500020006369D6E7637A002B00D070E7B307F1
:101D600000D46DE720002369CCE7C046840400203E
:101D70009C040020F7B5050003680E0001930B4B8F
:101D800017009847EC8D0A4BA4B2002C02D098475C
:101D90000520FEBDEF8598470523AE62019A3335D5
:101DA0002B70043B93752000F3E7C046E50F00005D
:101DB00019100000F8B50400104B17000E0005685C
:101DC0009847A28D0E4B002A02D098470520F8BDF7
:101DD000A785984723000522323366621A700423D0
:101DE000AB75237A002B01D02023AB750020637ADA
:101DF0008342ECD00823AB75E9E7C046E50F00004D
:101E000019100000931C9B00C318596001239340D4
:101E10001A003030037813430370704710B5012265
:101E2000014B984710BDC046B51D000010B51723E3
:101E3000002A06D0C4790533002C02D0024B984703
:101E40000300180010BDC046751D0000036800297E
:101E500002D0012904D0704704221A768185FAE75E
:101E600002221A760023C385F5E70000F8B5584B27
:101E70008000C4582568EB69002BFCD12B7EAF7D18
:101E80001F40230030331A785E78012316401F422A
:101E900019D0E28D002A00D172E0A26A511C137899
:101EA000A1626179DBB2012964D09BB2DB05DB0D55
:101EB0002B85E38D013B9BB2E385002B03D10133DE
:101EC0002B750133AB7502231F4209D02B752300FC
:101ED000002233331A70F30702D52000E3689847D5
:101EE00004231F4227D0A28D002A00D16DE06B8B06
:101EF000DBB21A0746D43F22134045D002221A21F2
:101F000013420FD104221E2113420BD101221321AF
:101F1000134207D110224221134203D1202213423F
:101F200004D041212300323319706A83730702D52C
:101F300020006369984710231F4206D02B752B762B
:101F40001E4202D02000E369984720231F4206D09A
:101F50002B752B76330702D52000A36998470823F9
:101F60001F4206D02B752B76B30602D5236A2000BC
:101F70009847F8BD5178023209020B43A26295E7F7
:101F80002B75A0E73722B7E72B8D616ADB05DB0DE8
:101F9000DAB20A70626A511C61626179012904D166
:101FA0001B0A5370636A01336362A38D013B9BB2CA
:101FB000A385002BBFD104222A7522003232137070
:101FC000B307B8D520002369B4E72B75B3E7C04643
:101FD00084040020931C9B001950037E022A04D124
:101FE0000E321343037600207047032A01D11D32BD
:101FF000F7E7012191400B43F4E7000070B501269B
:10200000144B8000C4582368227E657E9B7A15405D
:102010001D40354204D0A3682000984723689E7273
:102020000226354204D0E3682000984723689E7258
:102030001026354204D023692000984723689E72F9
:102040002026354204D063692000984723689E7299
:1020500070BDC046A004002010B50020014B984779
:1020600010BDC046FD1F000010B50120014B984770
:1020700010BDC046FD1F000010B50220014B98475F
:1020800010BDC046FD1F000000B51723042809D865
:102090000D4B07F0CBFA03090D1115005A691143D6
:1020A00059610023180000BD9A6911439961F8E74E
:1020B000DA691143D961F4E71A6A11431962F0E74A
:1020C0005A6A11435962ECE7000400407FB50C4B9B
:1020D0000100180001AA70C870C2019A91420AD08A
:1020E0005A68914209D09B6800208B4201D102308E
:1020F000C0B204B070BD0020FAE70120F8E7C04686
:1021000018CF0000F0B5924B05008DB008000E000E
:10211000140098471B2302AA13725372023393725E
:102120008C4B01900C3306AA83CB83C283CB83C232
:102130000023AB60EB602B616B612B766B76019BB0
:102140009A00854BD55023002E6034331B78AB7634
:10215000E378082B04D1019A1720D20700D5E3E0D9
:1021600001222B7133680520134200D0DCE00221EC
:10217000F37A17300B4200D0D6E033680B4000D022
:10218000D2E0217C002908D005A9CB70237E207DD8
:102190000B70724B8A704A709847237F002B0ED0C9
:1021A0000022012305A9CA7024328B70A2184B703B
:1021B0001F33E31812781878684B0A70984710207C
:1021C000019A02A9D200091888581021019B02AA7D
:1021D0005F007B1C9B005218D158C0B2604B9847DF
:1021E000E378082B10D1019B012B0DDC1021FB1C87
:1021F00002AA02375218BF00D05902AA9B005218F7
:10220000D158C0B2564B98470820237803A9019AA9
:102210000B7002AB1B189F5C524B38009847524B17
:1022200038009847E279E3781343A2881343627A2F
:10223000002A02D0802252021343A27A002A02D03E
:10224000802292021343E27A002A02D080225203B3
:102250001343227B002A02D0802292031343627828
:10226000A1789201C9010A43296813430A69002A27
:10227000FCD133602A681369002BFCD1A379337336
:10228000637B5A1E9341A27B9B00002A01D001224E
:10229000134329680A69002AFCD1FF323271002BEE
:1022A00004D029680A69002AFCD17371237A7373F8
:1022B0002B681A69002AFCD12A79042A16D0082A28
:1022C00034D01720002A2FD11A69002AFCD1238D7F
:1022D000B3822A681369002BFCD1638DB3832B680A
:1022E00018690028FCD1A38DF3831DE01A69002A28
:1022F000FCD1230028331B7833752A681369002B1F
:10230000FCD1230029331B78F3762A681369002B4C
:10231000FCD123002A331B7833772B6818690028F7
:10232000FCD12B34237873770DB0F0BD1A69002AE5
:10233000FCD1A36A73612A681369002BFCD1E36A9C
:10234000F3612B6818690028FCD1236B3362EBE73B
:10235000CD20000018CF0000A0040020BD6A0000BE
:1023600089200000E569000085690000020003681B
:1023700018690028FCD11279042A08D0082A09D04B
:102380001720002A05D189B29982100001E0C9B254
:10239000197570475961FCE703681A69002AFCD176
:1023A0001A7101680A69002AFCD180325A710268E8
:1023B0001369002BFCD10179042907D0082908D022
:1023C0001800002904D1908A80B201E0107DC0B2CB
:1023D00070475069FCE70000F0B5C54C85B0276830
:1023E0003E683378DB0900D1CEE0338C002B00D17E
:1023F000D7E1308CBF4B80B2984703000500032023
:1024000008335B01F618F679F6B2064231D0BA4AC3
:10241000944601226146AA40096891430A00614638
:102420000A6001213A68D218D0717A19AE32127856
:102430000A421ED0B14A680115703968595CB04B28
:102440008907890F1B18012900D085E05968890484
:10245000890C518059680901890C91805A68920B46
:1024600092035A60AB1C1B01FB185B68A349380040
:10247000984704210E420DD00123AB409E4A1068BC
:10248000984310602A009A4B08321B6852011B685F
:102490009B18D971082216421DD00123AB409649E2
:1024A0000868984308602068AB1801685B01CB1886
:1024B000DA714319AE331B789B070CD5904B6A0138
:1024C0009B181F22DB898D4913404B702B01C318C9
:1024D0000D709B6A9847102216421FD00123AB4013
:1024E0008549086898432B00086020680833016814
:1024F0005B01CB18DA714319AE331B785B070DD53E
:102500007E4A7F4B69015B1815705B6800211B01D7
:102510009B0C53802B01C318DB6A9847202216427C
:1025200000D1B5E10123AB407349086898432B0003
:1025300008602068083301685B01CB18DA71431921
:10254000AE331B781B0700D4A2E16C490D702D013E
:1025500045192B6B98479BE159680901890C88B292
:102560000190518059688904890C9180596808004C
:102570006449084058600199002900D072E75B68FF
:102580009B049B0C53806DE7358CAAB20192002A04
:102590002AD1AB235B00FA5A023BFB5A8027B68B49
:1025A0001340B6B23340019D02937F00564B6A0040
:1025B000D35A334202D0226812689383029A13429C
:1025C0000ED05249062D04D14D4B1B891B093B40AF
:1025D0000B602B0022682E339B009B5810009847FD
:1025E0000135072DE2D153E13D005935FF35019A00
:1025F00001211A41DCB20A4200D1CCE01A000832B3
:1026000051017118C81D0390C879297A0292C0B28D
:102610002A7801401140602210421AD05A01B6189F
:102620004022FF36307A10420DD03272C03A144345
:10263000374A94716022114200D129E11B01FB1835
:10264000E0331B683FE02022307A1042F2D0327231
:10265000EEE71022104218D01021039A11701021B9
:10266000FA186132FF3212780A4200D110E1244A8E
:102670005901521852681B01FB1892042449DC339B
:10268000920C1B680A80380064E70322104241D094
:1026900002205A01B618FF36357A054215D080253A
:1026A00030726D421A482C438471154CA2181032B6
:1026B00052689204920C42808A0700D1E8E00D3300
:1026C0001B01FB185B681249DDE70125307A2842BF
:1026D000F2D00F4835728471094CA41862689204D4
:1026E000920C028062681201920C8280E4E7C0467C
:1026F000DC020020719A0000EC020020F0020020B1
:10270000AC040020FF3F00F03CCF0000E0020020BE
:10271000E40200200C2210423DD008205D01761911
:10272000FF36327A02421ED03072022659484019D2
:10273000857E354202D0857EB54385768020404235
:1027400004435548029A8471386852018218D2793C
:10275000920700D59CE00C22114200D198E01B01A9
:10276000FB18D8336DE70420327A0242F3D030727E
:10277000022648484019857A354202D0857AB54309
:1027800085724548029A8471386852018218D2795C
:10279000D207E0D57CE001330135082B00D026E7D5
:1027A00076E00423B58BADB21D4208D0B3833B0065
:1027B000A5331B78DB0702D57B68380098470823D0
:1027C0001D420CD00021354A2068116002689383B5
:1027D0000300A5331B789B0701D5836898474023E6
:1027E0001D4209D02068026893830300A5331B783B
:1027F000DB0601D54369984720231D4209D0206894
:10280000026893830300A5331B781B0701D5036976
:10281000984710231D4209D0206802689383030063
:10282000A5331B785B0701D5C368984780231D42F9
:102830000CD00021194A20681160026893830300BC
:10284000A5331B789B0601D58369984780235B00DD
:102850001D420CD00021114A206811600268938348
:102860000300A5331B785B0601D5C3699847802315
:102870009B001D420CD00021084A206811600268AC
:1028800093830300A5331B787F2B01D9036A9847F4
:1028900005B0F0BDAC040020E4020020EC020020F2
:1028A000FEE700001148124970B5884204D00023A9
:1028B000104CCA18A24213D300210F4B0F4A934267
:1028C00012D3FF210E4B0F4A8B43936080230E4A95
:1028D00051680B4353600D4B98470D4B9847FEE7EB
:1028E000C55804331560E4E702C3E8E7C4D9000023
:1028F000000000206002002060020020B8130020C9
:102900000000000000ED00E0004000413DC5000077
:10291000318D0000054B02001968002901D10449DE
:102920001960186882181A607047C046F8020020C3
:10293000B83300200122014B1A707047FE030020BB
:1029400010B50A4A0A491378DBB2CB5CA82B03D135
:102950000122084B1A7010BD137807480133DBB20F
:1029600013701378C918054B9847F4E793030020B8
:102970007F030020FF030020480300201D1E0000ED
:10298000024B1A68D369002BFCD170474803002022
:1029900070B50B4D0B4B2C68200098471F23184037
:1029A0001E3B8340084AD3672A68D369002BFCD1B9
:1029B00002228F332375237623689343236070BDEF
:1029C00094030020ED1A000004E100E073B5060056
:1029D00001240025087830704B7873708B7801A93A
:1029E000B3700A4B4C708D700C7098473278530955
:1029F000D109A94207D11F210A409440044ADB01B2
:102A00009B189C6173BDAD61FFDEC046CD640000C4
:102A10000028004070B50A4D0A4B2C6820009847EA
:102A20001F2318401E3B8340074A13602A68D3695E
:102A3000002BFCD1226802331343236070BDC046D3
:102A400094030020ED1A000000E100E0F8B5144EF8
:102A5000144F3468144D2000B8471F2318401E3B04
:102A60008340EB6707233168CA691A42FCD183238C
:102A70000226237523762368B34323600B4B9847C4
:102A80000B4B1C682000B8471F2318401E3B834097
:102A9000EB67084B98472368B3432360F8BDC046F3
:102AA000D0030020ED1A000004E100E091290000AD
:102AB0004803002081290000F7B50126254B002599
:102AC0001E70172301AC244F210024486570A570A7
:102AD0002370B8471223210021482370B8471323DD
:102AE000210020482370B847152321001E48237079
:102AF000B847142321001D482370B8470F23210035
:102B00001B482370B8471B4C2900631DDD770C223E
:102B1000194B1A482670656025746574A674E674AE
:102B200025759847164B2200A361C0239B05A3601F
:102B300080235B02E360134B1349A362134B1448D9
:102B40002363144BE5626363134B9847134B984719
:102B5000F7BDC04601100042CD2900003F03002010
:102B6000F803002042030020FB0300203C03002068
:102B70007C0300200004002097C5000018040020FA
:102B8000A0860100030028000010004203002A0074
:102B90009403002003002B00DD590000152A0000DB
:102BA00010B5064B04009847054B0022002C00D1BD
:102BB00030221A70034B984710BDC046912900007F
:102BC00003100042152A0000094A13680422197EE6
:102BD000114203D10122074B1A707047197E11422E
:102BE000F5D0598B114200D05A83996AEFE7C0465D
:102BF000940300201A10004210B590B06946FF22DD
:102C000080230A819622DB0592010093002308921B
:102C100001228B72CB720531CA7769460631CA77B9
:102C20006A460732D37702AAD3770BAA13702D22F4
:102C30006A44137069466A4601931382D376137609
:102C4000137753760A9305934B7780235B030393A3
:102C5000114B13220C93114B8A760D9301235B4287
:102C60000E930F930E4C6A460E4920000E4B984768
:102C70000028F7D124680D4B200098471F231840E7
:102C80001E3B83400A4A13600A4B9847022322687E
:102C90001343236010B010BD0200100002001100A9
:102CA000480300200004004291550000ED1A000086
:102CB00000E100E08129000070B5084C084D2000BB
:102CC00000220849A847200001220749A8470323FA
:102CD000313422781343237070BDC046480300206E
:102CE000051E00003529000041290000F8B5002329
:102CF0001E000D4AD6540133142BFBD10B4C0C4B48
:102D000027680C4D1E70A8477B680B4A13407B60F8
:102D1000A6712668A847802372689B0213437360DC
:102D20000123A371A847F8BD7F03002048030020BA
:102D30009303002081290000FFFFFDFF8021642311
:102D400070B58EB001AA89031161012101931F4B57
:102D500049425360002391820A316944CB770CA920
:102D60000B70312169440B703221694493601373F5
:102D7000137693620B70D7331386154B154ED3829F
:102D8000154B1649D361164B30001362154B98470B
:102D900007223568EC691440FCD102232A681343EA
:102DA0002B603068104B98471F2318401E3B834010
:102DB0000E4A13601022F088698B114203D101344E
:102DC0008442F9D36A830EB070BDC046480D00003E
:102DD00010270000D003002002000C000008004271
:102DE00002000D00B5120000ED1A000000E100E045
:102DF000F0B50E0087B003AC0092019305001C4BA8
:102E00000C22002120009847009B26806360194E09
:102E1000194F002D1ED1012365356380210030003C
:102E2000B847002803D0013DADB2002DF6D1009B7C
:102E30006525013363606B469B8863802100300009
:102E40000E4B9847002803D0013DADB2002DF5D1BF
:102E500007B0F0BD6B4665259B886380210030007C
:102E6000B8470028F4D0013DADB2002DF6D1EFE710
:102E700097C50000D00300204D1800002D18000059
:102E800073B501AC150021700B4E002809D1022347
:102E900022003621B047A37862781B029B182B8052
:102EA00073BD1388362163701B0AA37022000223AE
:102EB0000120B047F4E7C046F12D000070B50E4B7D
:102EC000050098470324012813D0002807D0023CAE
:102ED00002280ED10022094B04005A5509E0074B85
:102EE0005C5D002C04D1064B28009847830700D175
:102EF0000224200070BDC0468D020000FC020020AC
:102F0000D506000010B50020014B984710BDC04603
:102F1000BD2E000010B50120014B984710BDC046E2
:102F2000BD2E000070B5054B0D0004009847400011
:102F300001382860024B2000984770BDFD06000054
:102F4000BD2E000010B50100014B0020984710BDB8
:102F5000252F000010B50100014B0120984710BD3E
:102F6000252F0000014B187001207047FC02002043
:102F7000014B587001207047FC02002010B5002062
:102F8000014B984710BDC0462507000010B5012031
:102F9000014B984710BDC04625070000012070472F
:102FA0000120704710B50C4B1400012298470028EF
:102FB00005D00238434243410133180010BD074B8E
:102FC00001212000984701230028F6D1044B98479F
:102FD000431E9841C3B2F0E729070000A107000093
:102FE000C907000010B50A00024B010000209847F5
:102FF00010BDC046A52F000010B50A00024B01000D
:103000000120984710BDC046A52F000010B50C4BFD
:10301000140001229847002805D00238434243415A
:103020000133180010BD074B0121200098470123F0
:103030000028F6D1044B9847431E9841C3B2F0E7ED
:103040002908000095080000BD08000010B50A001E
:10305000024B01000020984710BDC0460D30000013
:1030600010B50A00024B01000120984710BDC04670
:103070000D30000003780F211A000A400A2A03D1FC
:103080008B431033037070470F2AFCD193430933ED
:10309000F8E70000002030B587B001AC22006821BD
:1030A0001323184D2070A8477F226378164D2B708C
:1030B000A3786B70E378AB7063792B71A3791340BD
:1030C0006B71E379AB71E37BEB71237C2B72A37C97
:1030D000E07C1B02C01800B20C4B9847EE210C4B51
:1030E000890598470B4BE86098470B4C0B4A0C4BF3
:1030F000A04700220B4B0C4CA0470C4B9847286173
:1031000007B030BDF12D0000AC05002081A7000004
:1031100009A2000079C3000035B70000CDCCCCCCAB
:10312000CCCCFC3F00004040ADA800001DC4000016
:10313000002310B586B001AA13700B4B012019783B
:103140000A4C5170597891709978D170D978117171
:1031500019795171597991719B796821D37108233B
:10316000A04706B010BDC046C0050020F12D0000EC
:103170000E2313B501AA13700A3B5370002807D021
:1031800004339370032368210120024CA04713BD30
:103190009070F7E7F12D00000A23020953430F2234
:1031A00010401818C0B27047F0B5204D85B0060029
:1031B0000078A84701907078A8470290B078A84797
:1031C0000390B079A84704003079A84707007079C8
:1031D000A847174B01388000C058013F3818270016
:1031E0001F37BF08C7192000C8219030114D490072
:1031F000FF30A8473F18200064216330A8473C23D4
:103200000D49381A8C460D4F029A4743E12053432B
:10321000019A000162449B18039A643450431B18BE
:10322000074860431818381805B0F0BD9931000000
:10323000040000204196000000EB6B7C80510100EF
:103240008033E10170B50400022801D9012070BD6E
:10325000074DA847032801D12000A8470028F5D131
:10326000044B20009847431E98418000EFE7C0467A
:10327000490F0000890F0000054B10B59847031E49
:1032800003D00323022800D0023B180010BDC04623
:10329000490F0000F0B587B00293174B07000C00F0
:1032A00016009847051E02D1012007B0F0BD134B50
:1032B00005A938009847029A059B6A4301336B437E
:1032C000921904209A42F0D86B02039300230193D1
:1032D000019B029A934201D30020E6E722003100CD
:1032E000074B38009847039B7619E4180028DBD178
:1032F000019B0133EBE7C0467D0F0000610F00002A
:10330000A50F0000F0B587B00293174B07000C0023
:1033100016009847051E02D1012007B0F0BD134BDF
:1033200005A938009847029A059B6A4301336B430D
:10333000921904209A42F0D86B0203930023019360
:10334000019B029A934201D30020E6E7220031005C
:10335000074B38009847039B7619E4180028DBD107
:10336000019B0133EBE7C0467D0F0000610F0000B9
:10337000C50F000037B5042305001400032907D842
:10338000080006F053F91D070E02012323600023F5
:1033900018003EBD0E4B01A928009847019B013340
:1033A000F4E70C4B28009847431EDBB2012B04D9ED
:1033B000FB22043801231042EAD100232370E7E7FF
:1033C000054B28009847031EE2D00323E0E7C046E0
:1033D000610F00007D0F0000490F0000F8B50E4F8F
:1033E0000E4EB879B04704007879B04705003879B7
:1033F000B0476D0500040543B878B047C0020543E7
:103400007878B047400105433878B0471434400815
:10341000284364062043F8BDAC0500209931000024
:10342000C37882781B02134342781B02134300784F
:103430001B02184370470B0A017043700B0C090EF6
:103440008370C170704730B500230500013AEC5C11
:10345000C85C201A9A4202D001330028F7D030BD50
:1034600082690239023A03000020914203D258894E
:103470004143D86A08187047010000230B315A08ED
:10348000DB011343027801309B18DBB28842F6D18E
:103490001800704710B50268002A0AD01300197886
:1034A0005C1C1F290CD923003A29F8D1911C8C42AD
:1034B00002D00120404204E01278302AF9D10360A2
:1034C000002010BD70B505000C00002803D10920B4
:1034D0000023236070BD0368002BF8D01A78002AFF
:1034E000F5D08188DA889142F1D15878034B98471A
:1034F00001231840EBD12B68EBE7C046793200007E
:10350000002310B5CC5CC45401339A42FAD110BDEB
:10351000CA7E10B50400887E12021043032C05D128
:103520004A7D0B7D120213431B04184310BD130A7E
:103530008A76CB760378032B03D1120C0A75120A14
:103540004A757047F8B50700040034374078012306
:10355000226B39000B4EB047012500280FD1226B9A
:10356000636AE169E070D31A05008B4207D2A37841
:10357000022B04D152186078013B3900B047280073
:10358000F8BDC04605330000F7B5C37804000D0050
:10359000002B1ED12900174B2000984723008D22B5
:1035A000060000213433920020630093A2181970A2
:1035B00001339342FBD13500AB1B01936389AA1BF6
:1035C0009A420DD36389019A9B1A581E8341DBB23C
:1035D00004E0094B984701230028DBD01800FEBD0A
:1035E0002A00607801230099044FB847013500286C
:1035F000E2D0E7E761340000453500000533000004
:1036000070B50400236B0D0000208B4217D0E378C7
:1036100083420FD12100012360782A003431084E03
:10362000B04703000020834202D0012501306D42E3
:10363000256304E02000034B98470028EAD070BDC2
:103640009532000045350000002370B5C370013B82
:103650000363174B040098470423002826D1154B19
:10366000154AE35CA25C1B021A43144912B20323FD
:103670008A421BD1230034331B78EB2B04D0183340
:10368000DAB20223012A11D8200003220C496A3041
:103690000C4DA8470023984208D020000522863010
:1036A0000949A8470300581E83415B00180070BDFC
:1036B00001360000330200003202000055AAFFFF6D
:1036C000D7CF000047340000DBCF00000023F0B567
:1036D0000B6089B0A94B0D00170098470B23061EFD
:1036E00016DBA74B8200D4580C23002C10D02C6082
:1036F00001252378AF43002B0DD06078A14B98476C
:10370000054008D12B00002F02D0420700D50A2324
:10371000180009B0F0BD0023F0B2237060709A4B1E
:1037200098470323C207F3D4002F01D04307EED4F8
:1037300000212000954FB847022825D126000025FA
:10374000FB36FF360020331F1B78834202D0300047
:103750008F4B984704ABE85004351036102DF1D14B
:103760000025032604AB5B5930000093002B04D0E6
:1037700019002000B84701280FD90435102DF1D1C8
:103780000123042805D1C3E701230428C0D09842AF
:1037900001D90D23BCE700230093230040331A789E
:1037A000013B1B781202134380221BB2920093420A
:1037B000EFD123004B331A78013B1B7812021343DD
:1037C00063D00293029BE361230044331E78731E8F
:1037D000A670012BDDD8230041331D78ABB2638185
:1037E000002BD6D06B1E1D42D3D1230022004633BE
:1037F0001B78453212781B021A436B4601929B8854
:10380000238113001B07C4D1230048331878013BE0
:103810001B780002184303D120005D4B54309847B9
:10382000230043331F78013B1B783F021F43B0D076
:10383000029B73430393019B1E09039BF619F61821
:10384000B042A6D3534B801B29009847524B421ECF
:103850009A429ED8009A514B851CD71996199842C6
:1038600027D84F4BA561984215D8019B2262676209
:10387000E662002B8DD0039B0126DF1903236B43E7
:1038800035405B08A7625D192CE02000404B5830A2
:103890009847029096E7009B67622362019BE6626D
:1038A000002B00D175E7039B6D00FF18A76202266D
:1038B00018E0009BA561236223006762E6625F3324
:1038C0001A78013B1B781202134300D061E7019B79
:1038D000002B00D05DE720002D4B60309847032679
:1038E000A062AD002F4BED18029B6D0AAB4200D2D7
:1038F0004FE701235B426361236181332371032E10
:1039000032D1230065331A78013B1B78120213432E
:10391000012B29D1009920000131234B9847002821
:1039200022D1224B2071E25C214B1202E35C134353
:10393000204A1BB2934217D12000154D3430A847BE
:103940001D4B984210D186239B00E018A8471B4BC3
:10395000984209D187239B00E018A84788239B0041
:103960006061E018A8472061154A2670138801336A
:103970009BB21380E3800023CAE6C0469534000062
:103980000003002079320000453200004936000073
:103990002134000041960000F4FFFF0FF5FF000006
:1039A000F50F0000FF0100000136000033020000A7
:1039B0003202000055AAFFFF52526141727241610A
:1039C00004030020F0B5050085B00C0017000226A6
:1039D000012945D98369994242D203780093B342C1
:1039E00048D0032B58D0012B3AD14B085B180193D8
:1039F000590A436AC918354B9847061E30D12B0027
:103A000034330293019B029A01330393019BDB053C
:103A1000DB0DD318009A1440FAB2002C08D00F2105
:103A2000FF201A7800010A40390101400A43D2B24E
:103A30001A700123EB70039B2800590A6B6AC9189E
:103A4000224B9847061E0BD1039B029ADB05DB0D28
:103A5000D318002C07D03F09F9B219700123EB707D
:103A6000300005B0F0BD0F2019783A0A81430240BA
:103A70001143F2E7436A090AC918144B9847061E16
:103A8000EED1FF222B0064005200343314401C1985
:103A900027703F0A6770E1E7436AC909C9180B4BF1
:103AA0009847061EDCD1FE222B005200A4001440D1
:103AB00034331C192000064B98473901000F0007CA
:103AC00009090143034B20009847C7E7013600006E
:103AD0002134000037340000F7B5012604000D0042
:103AE000B14214D98369994211D20378022B2ED0A6
:103AF000032B3ED0B3420AD14F08436A7F18790A9C
:103B0000C918254B9847002803D00126764230007B
:103B1000FEBD7B1CFF05590A0193FF0D636AE7197F
:103B20003437C91820001C4B3F7898470028ECD147
:103B3000019BD805C00D24183434207800020743B7
:103B4000354201D03E09E2E73F053E0DDFE7436A1B
:103B5000090AC918104B98470028D6D1FF30FF300A
:103B60006D000540343464196678207836020643C7
:103B7000CDE7436AC909C918074B98470028C4D143
:103B80002000FE24AD006400343025404019034B72
:103B9000984706013609BAE70136000021340000D3
:103BA000234BF7B506000C00994201D90220FEBD57
:103BB000CB06FBD1056831618768002F19D12B78BE
:103BC000022B02D9AB6A002B14D12A8963099342D4
:103BD000ECD2AB6AB361B2697761002AE6D0630ABE
:103BE000E4053435E40D9B182C19B361F461002011
:103BF000DDE73B001F006A8952020192019B3900F8
:103C00009C4204D228000B4B9847B061E3E7306830
:103C1000094B98470700431C07D00128C6D9AB6958
:103C20009842C3D2019BE41AE8E70120BFE7C046EF
:103C3000FFFF1F0061340000D93A0000F7B50F1EE6
:103C40000190056807D12E69002E02D0AB699E4213
:103C500011D301260FE02800334B984704000128B8
:103C60005DD9431C03D1012464422000FEBDAB6931
:103C70003E009842F9D36B69002B01D10024F4E790
:103C8000BE4215D1AB69741C9C4200D30224019B37
:103C900021001868244B9847012840D0431CE2D0EB
:103CA00000281BD02B69012B02D9AA6993422CD37F
:103CB0003400AB6901349C4202D3012EDED90224C8
:103CC000019B21001868184B9847002808D001284C
:103CD00025D0431CC7D0B442EBD1CFE7002CE7D0AE
:103CE0000122210052422800104EB047002814D172
:103CF000002F0CD1AA696B69023A2C61934210D94A
:103D000001232A7913432B71AFE71E00D0E722006D
:103D100039002800B0470028ECD00128A3D00124A6
:103D2000A3E7013B6B61EBE7D93A0000C53900001E
:103D3000F8B50D0007001100012D01D80220F8BDD3
:103D40000468A3699D42F9D2002A06D0012220000E
:103D50005242144B98470028F1D129003868124B81
:103D60009847061E01D10020E9E70128E6D0431C50
:103D700015D00022290020000A4B98470028DED1E8
:103D8000A2696369911E8B4205D2012101336361EF
:103D900023790B43237135009642DED3E3E70120FC
:103DA000CDE7C046C5390000D93A0000F7B507692C
:103DB000294B20370400019105689F4201D9002357
:103DC0008361A3690420002B0FD0FA05D20D009265
:103DD0003BD161690133A361002907D12A897B099D
:103DE000934232D300230420A361FEBD6B897A0A7B
:103DF000013B1A4229D12800184B98470600012898
:103E000001D80220F1E7431C01D10120EDE7AB69A5
:103E1000984214D3019B002BE4D061692000104B21
:103E2000984706000720002EDFD0012EE9D0731C32
:103E3000EBD0310028000B4B98470028E5D1666194
:103E400031002800084B9847A061009B3435ED18DD
:103E50002761E5610020C8E7FFFF1F00D93A000095
:103E60003D3C00008935000061340000F0B5036876
:103E700089B003930021554B04009847071E00D0DA
:103E800099E0FF22012316005B42E3620192059351
:103E9000A16903984E4B9847071E00D08BE0E56957
:103EA0002B780093002B00D18AE03F23EA7A009917
:103EB0001340A371E52903D0120704D50F2B04D0BA
:103EC000059BE36260E00F2B60D1230040222B337F
:103ED0001B78134248D1009B13424CD000996B7B56
:103EE000914322690091E2626A7B01929A4265D114
:103EF000EA7EAB7E120213431FB2FF26002F33D19E
:103F0000039B2A78DB68F23E04933F231A40013A70
:103F1000564301222F4BFB5CEB1859781B780902A2
:103F20000B430293002A2BD0FE2E2DD818002A4BCB
:103F30009847731C0793049B76000690F05A264B13
:103F40009847069B83421FD1029A079E01370D2F87
:103F5000E0D12B785B0635D5002A33D0049A730064
:103F60009B5AFF26002B2DD0002120001B4B984789
:103F7000071E8DD01FE0009B9E4205D1019BB3E739
:103F8000174B02999942E1D0FF26EDE7002E05D1AB
:103F9000144B28009847019B83420CD023002B33FD
:103FA0001B78DB078CD421000B22203128000E4B1C
:103FB0009847002884D1380009B0F0BD0193E3E7A9
:103FC0000427F8E7009E013EF6B2CDE7A13B0000D2
:103FD00001360000CACF0000C54C0000AD3D000016
:103FE000FFFF00007934000047340000F0B50B00FB
:103FF0000600026889B007921A782F2A10D05C2A2E
:104000000ED00021B1601A781F2A00D9DDE03300FC
:1040100080222B331A703000A94B984709B0F0BDAD
:104020000133E9E7FF2C00D1F5E0039A6300D05299
:104030000134059BCDE0059B01330593059B1B785F
:104040002F2BF8D05C2BF6D000241F238342644131
:10405000A4007A00002F3DD1002303998B529F4288
:1040600000D1D8E003995A008A5A202A3BD0002B6D
:1040700001D12E2A02D103221443E4B27A0003991B
:10408000023A8A5A2E2A02D0013F002FF6D132007E
:104090003100202020322B31107001329142FBD1AF
:1040A000082202920022150001925A1C0492039ADF
:1040B0005B00985A002800D1BDE0202805D02E28AA
:1040C00013D1049BBB4200D1A7E003231C43E4B2FD
:1040D000049BEAE70399931ECB5A202B01D02E2B89
:1040E000BAD1013FB5E70133BCE7019B029A934285
:1040F00000D397E0049BBB4215D1029B0B2B0AD146
:1041000094E0049BBB4206D003231C43049BE4B20F
:10411000BB4200D98FE00B23AD000293EDB20497B0
:10412000033B0193D4E706947F280FD90223B621DD
:104130002343DBB20693FF31624B9847030615D544
:104140007F231840604B185C002808D000235F498B
:10415000CA5C002A00D1A1E001339042F8D10322C9
:10416000069B5F201343DBB2069313E0FF28EBD9D5
:10417000029B019A013B9A4204D303231C43E4B2FD
:10418000029BCEE7019B020AF3180133DA77019B09
:1041900001330193019B069CF3180133D877019BEF
:1041A0000133019394E75B0700D537E7B379DB066A
:1041B00072D533690799DB05DB0D3431C918079BCC
:1041C0001878434B9847059BB06000243268D2684A
:1041D000039218785A1C27000592002800D12DE779
:1041E000B6213C4BFF319847002814D01F2800D837
:1041F00024E72F2800D121E75C2800D11EE77F2883
:1042000000D90FE700233449CA5C002A00D109E72E
:1042100001339042F8D1062000E7019B029A9342B5
:1042200000D26AE7029B0B2B00D06AE703231C43F2
:104230000833E4B20293731CDA7FE52A01D1E03A35
:10424000DA77029B082B01D1AD00EDB20C232B4095
:104250000C2B03D003232B40032B02D102231C433E
:10426000E4B2A30709D4EB0702D510231C43E4B240
:104270006B0702D508231C43E4B235002B35174BDE
:104280002C70300098472B7800288CD0042800D060
:10429000C4E6034200D0C1E60520BFE60300413B6F
:1042A0009BB2192B01D802231D430300613B9BB233
:1042B000192B00D96EE7012320381D4380B269E72E
:1042C000A13B00005D4C00004ACF0000EACF000097
:1042D000113500009D4C0000E1CF00006D3E000054
:1042E000F8B5C3780400002B48D12378032B3CD1C8
:1042F0002379012B39D125008D2234352B0000265E
:104300009200A2181E7001339342FBD155221E4B1E
:104310004121E2541D4B9218E2542200E23BFF3B44
:1043200035322B70137023006122363386201A70C9
:1043300059707223800023541548164F2354164B8E
:10434000E154164BE2540133E0186169B847882301
:104350009B00E0182169B847236A29005A1C226390
:10436000607801230E4DA847267100220D4B60781E
:1043700011009847431E9841C0B203E00A4B98478A
:104380000028B2D0F8BDC04632020000330200005F
:1043900019020000373400001A0200001B0200005E
:1043A0000533000075330000453500000300F0B50B
:1043B0002B331F785F238BB006009F430624002F0A
:1043C00050D10368DA6800937B00D35A002B4CD19C
:1043D00033000125203307AC019319000C22874BD1
:1043E00020009847E37A2B4200D16CE03300402252
:1043F0002B331A70009B0B22DC6807A97F4B0198B6
:1044000098472B00052D47D80F2107228C4605A879
:1044100064461C4021003031392900D90731013A66
:10442000841861701B09F3D17E2181549A4237D0E0
:104430000199C95C202931D120218C4605AC614607
:10444000072A01D8A15C01320198C1540133072B1E
:10445000F5D930006A4B9847041E2DD10135642DE3
:10446000C8D1072420000BB0F0BD0137ACE7102005
:10447000023201240C40A44680245B0063446402A1
:104480004908234201D05F4C634001380028F0D135
:1044900011880029EBD1B7E72200F9E70133C5E71E
:1044A0001300C9E7070001213000574B9847041E4D
:1044B0001DD0042CD5D0D5E70428D3D107ABDA7AA8
:1044C00033002B331A7007ABDB7A01259B0705D528
:1044D00038000D210C304D4B9847451933680021A9
:1044E000029330004A4B9847041EE2D10700B1699D
:1044F0000298484B9847041EDBD1F3691B78E52BE3
:1045000001D0002BCED10137BD42CCD1013D002DD1
:1045100056D033696901591A30003D4B9847041E43
:10452000A0D101983C4B98470390B1690098394B52
:104530009847041E00D095E7009BF269DB680D21C7
:104540009C46EBB202936B461B7B107353730F2395
:10455000D372FF232B40013B4B4301009076D07672
:104560002E4CA04203D064465800005B01332C4C13
:104570000C5D141927002070040A7C70002800D1FB
:10458000264801310D29EBD12449884204D06146E7
:104590005B005B5A002B03D140230299194302911F
:1045A0006B461B7A002113700123009A3000D370F0
:1045B000154B9847041E00D054E7013D002DB4D19F
:1045C000B1690098134B9847041E00D04AE7F3697D
:1045D00021001A002032197001339A42FBD10B22BC
:1045E0000199F069054B98471821F2692B36337809
:1045F0000B4013730123009AD37033E70135000099
:104600006D3E000021100100AD3D0000419600000C
:10461000A13B00000136000079340000FFFF0000DC
:10462000CACF00001FB5114B019003A800911400E0
:104630000391984703000B20002B15DB0C4A9800D0
:104640008358002B01D000211970019B002B01D051
:1046500000211970019B13500020844204D00200F5
:1046600001A96846034B984704B010BD953400007B
:1046700000030020CD3600000923F0B5714C160070
:10468000A5440391041E019300D1D0E03F251540BD
:104690002A0005A903A86C4B9847019000281FD158
:1046A000059B12AA0693DA60039906A8674B984700
:1046B000002806D13B2302AA9B181B787F2B00D928
:1046C00006301C231E4200D17EE000280CD00428B6
:1046D00002D106A85E4B984708231D4300280BD043
:1046E000002301902360A2E002AB9A7D11231A42BD
:1046F00074D1730700D59FE02B0733D50D9E059B22
:1047000031001878534B9847534B070098470100E6
:104710003000524B0E3098470D9B05980293202392
:10472000029AD3720D9900224D4B984700220D9B9F
:1047300005991A775A779A77DA770123CB709742DF
:1047400010D0059B39001E6B06A8464B98470028E1
:10475000C6D1454B310005989847059B013F1F6125
:104760000028BDD12B0701D540231D43059E0D9F79
:10477000336B6762236230783900364B9847A0600C
:1047800038003A4B1C3098472700E0602660F388D9
:104790008A21A380283700233A0089002574637496
:1047A000E36163616118137001329142FBD1AB0682
:1047B0003DD5E568002D3AD065617689A16876021D
:1047C000AE420DD3002019E0002889D102AB9B7DB9
:1047D000DA0633D4B207C5D5DB07C3D507207FE798
:1047E0002068234B984701000220012903D9481C67
:1047F00042424241D0B2AD1B0028E1D0A161002865
:1048000000D06DE7EB0512D0059E1A4B300098479B
:1048100002000220002A00D162E76D0AAA18E261B4
:10482000707801233900144DA847002808D1019859
:1048300093239B009D44F0BD082051E704204FE7DF
:1048400001204DE7B4FDFFFFCD360000ED3F000035
:10485000AD43000011350000DD33000037340000A7
:104860002F350000313D00000136000021340000EA
:10487000D93A00006134000095320000F0B589B0EB
:10488000059300231700059A0D00136007A9604BDC
:1048900004009847019000282FD1637C0193002BDE
:1048A0002BD1237C9B0700D4B0E06369DA199342D3
:1048B00000D9DF430295002F1BD06369DA0500D0D1
:1048C0008DE0079A590A5289013A11400E1E20D1F3
:1048D000002B08D1A068011E06D0012810D10223A8
:1048E0006374019309E0A16920004A4B98470028AE
:1048F000F3D14023227C13432374019809B0F0BD07
:10490000431C01D10123EBE7A368A061002B00D178
:10491000A060237C7F2B0DD92100079BE26958788A
:10492000283101233C4DA8470028EBD17F22237C6E
:1049300013402374079BA16904931800374B9847D1
:104940000028CCD0331803937D0A34D0049B72190D
:104950005B899A4200D99D1B049AEBB25078029968
:10496000039A2D4EB0470028CCD1E369039A9E1AD2
:10497000B5420CD980222000029B76029919920040
:10498000274B283098477F22237C134023746D02E5
:10499000059B059A1B687F1B03935B191360029BA1
:1049A0005B1902936369ED18E3686561AB4200D25D
:1049B0002B00E3607FE7E369039A9A420DD06369B5
:1049C000E268934209D22100049B039A5878283167
:1049D0000123144DA847002894D1039BE361636928
:1049E0003D00D8058023C00D9B001B1A9F4200D9B3
:1049F0001D002300283318182A00094B02999847F4
:104A00008022237C524213432374C1E7072368E7C3
:104A1000C53400003D3C0000053300006134000057
:104A20000135000095320000F0B585B003A9234B95
:104A300004009847051E3DD1237C5A063AD55BB247
:104A4000002B0EDA2100039B1D4D5878E2690123EB
:104A50002831A847012500282CD17F22237C134030
:104A60002374184B9847216A0190174B0398984775
:104A7000051E1FD12023666AF27A31001343F372B8
:104A8000A268124B206898473000E1681C30104F34
:104A9000B847300001991630B8470123039AB5741E
:104AA000F574D37003980B4B984740220500237C84
:104AB00093432374280005B0F0BDC046C534000000
:104AC00005330000DD330000013600002F35000003
:104AD00037340000E142000013B5064B040098474C
:104AE000002806D101A92000034B9847002800D1D7
:104AF000206016BD294A0000C5340000F0B585B01D
:104B00000F004F4B03A904009847051E71D1657C27
:104B1000002D6ED1E368BB4203D2227C920700D401
:104B20001F0000226369626197422DD13E0009E0B7
:104B300000266769E3689F4204D94023227CE7602E
:104B400013432374FF0554D0E269B24251D02700C9
:104B5000237C283700977F2B0BD9039B390058788B
:104B6000384F0123B847002848D17F22237C1340C7
:104B70002374039B3200587800990123324FB847C1
:104B800000283BD1E66134E0039A56897602002B77
:104B900024D0013B009331002C4B781E98472B4BBF
:104BA0000190310000989847019B834216D3009AE8
:104BB00073421A40A1696261BF1A0029B8D0B74296
:104BC00021D86369DB196361FB05B1D00398204BE1
:104BD000984700280BD07E0A3618AAE7A16800295A
:104BE0000FD120001B4B98470100012804D102255A
:104BF0006574280005B0F0BD431C01D10125F7E71D
:104C0000A060A161D9E702226369BF1B9B196361A0
:104C1000237C134206D020000E4B9847011E05D17D
:104C20000700CEE720680C4B984701004B1CE5D0ED
:104C30000129DCD9039B9B699942D8D2A161BEE7C7
:104C4000C534000005330000953200004196000095
:104C5000613400003D3C0000D93A000010B583B239
:104C60007F2814D90B4A0023904210D8B622FF3275
:104C700091420CD1084C5900095B9AB2884203D08A
:104C80000133802BF7D11A0013008033DBB21800F8
:104C900010BDC046FFFF0000A0D200007F280AD947
:104CA000B623FF33994207D1FF2805D8034BC0181C
:104CB000034B4000C05A70470020FCE780FFFF7F95
:104CC000A0D20000204BF0B5010098421FD81F4A27
:104CD00083B21F4E904200D91E4EFF273288002A11
:104CE00014D0934212D37488351D200A3C40A61874
:104CF000B14223DA082809D804F098FC050B1113F7
:104D00001517191B1D008A1A5200535B1900080061
:104D1000F0BD01219A1A0A409B1A9BB2F6E7103B9C
:104D2000FBE7203BF9E7303BF7E71A3BF5E70833B1
:104D3000F3E7503BF1E7084A9B18EEE72E00002806
:104D4000CCD164002E19C9E7FFFF0000FF0F00005F
:104D5000F2CF0000E4D10000A0E3FFFF8022012198
:104D600010B50A4B12045A61094A1268147E0C42AB
:104D7000FCD0147E0C4200D090620221107E0842CA
:104D8000FCD0802212049A6110BDC0460028004069
:104D90009403002070B58024054D064E24046C61F8
:104DA00001207461044B9847B461AC6170BDC0468A
:104DB0000028004080280040A1640000104B8020A3
:104DC00010B51C00022100049860573422780A4371
:104DD0002270802212059A6022790A432271094AC0
:104DE0009060773214782143117007499861074821
:104DF000074B9847074CA047A047074B984710BD63
:104E00000028004080280040D4050020D80500205C
:104E1000C14E0000954D00002D52000070B544B207
:104E2000002C00DA7F2054B2002C00DA7F220D1C07
:104E30003F2900D93F25EDB2191C3F2B00D93F2156
:104E4000CBB20B490C682678864200D920700868DE
:104E50008478944200D282700A685078A84200D9BF
:104E600055700A68D178994200D2D37070BDC0469F
:104E7000DC0900207F22064B19680A70002219689D
:104E80008A703F21186841701B68DA707047C0460D
:104E9000DC090020802210B5064BD20018680021E2
:104EA000054B984700213F237F220800034CA04771
:104EB00010BDC046D809002097C500001D4E000057
:104EC000024B1860024B19607047C046D809002099
:104ED000DC09002043B270B5002B12DB3F2910D84B
:104EE000CB08DB010B4C1B18002A0BD00725012235
:104EF0000D40AA40E55C2A43E2540B000200064C38
:104F0000A04770BD072201250A409540E25CAA43F4
:104F1000F2E7C046D80500201D4E0000F0B517008E
:104F200089B001930EAB1B7804000693019B0D0022
:104F30005B1ADA179B18534003933B1ADA179B1836
:104F400053400493049A039B934204DD3B000C00FE
:104F50000500019F0193BC4205D92B00019D0193DF
:104F600023003C001F00019B3A001D4E2900200039
:104F7000B0473B1BDBB20593019B5B1BDA179B1809
:104F80005340DBB20793059B019A5B080293002311
:104F900095425B415E4201231E43BC4201D909B0E8
:104FA000F0BD039A04990F4B8A4214DD21002800BA
:104FB000069A9847029B079A9B1ADBB25AB2029252
:104FC000002A05DA059AAD19D3185BB2EDB2029347
:104FD0000134E4B2E1E7069A29002000E9E7C0467F
:104FE0001D4E0000D54E0000F0B51F0001239B1A96
:104FF00089B05BB2039353005B425BB2069353B23A
:105000000493831A8E1A1518DBB200935218F6B265
:10501000EDB2D3B2019002912A00310000983F4CCA
:105020000593A0473E4C3A0005990198A0473A00E5
:1050300031000198A0473A0002992800A0473A00A1
:1050400002990098A04701230093009B049A013B1A
:105050005BB29A4201DC09B0F0BD039B002B0CDB74
:10506000049B013B5BB20493069B0233DBB25AB252
:105070000692039A9B185BB20393009B039A5B0012
:1050800001339B185BB2009A0393019B244D9B183C
:10509000DBB207936B461B7C07980593059A029B2E
:1050A0009E18F6B231003A00A847019B009A3100E1
:1050B0009C1AE4B220003A00A847029B059A079880
:1050C0009E1AF6B231003A00A847310020003A009B
:1050D000A847059A019B9B18DBB20793009A029B95
:1050E00007989E18F6B231003A00A847019B059A2E
:1050F00031009C1AE4B23A002000A847029B009AB3
:1051000007989E1AF6B23A003100A8473A003100DB
:105110002000A847009B0133DBB295E71D4E00003D
:10512000D54E0000802210B5024B12055A61024B89
:10513000984710BD002800405D4D0000802210B54A
:10514000024B12059A61024B984710BD002800409F
:105150005D4D000070B50500044C8120A0473F2044
:105160003F2D00D82800A04770BDC0462551000043
:105170000F2310B51840A1331843014B984710BDB9
:10518000255100000309102010B51843014B984722
:1051900010BDC046255100000F2310B51840014B2B
:1051A000984710BD2551000010B50400024B9847E8
:1051B0002000024B984710BD855100009951000016
:1051C000F8B50024134E671C3268E0B25178FB003A
:1051D000994205DB3C00102FF4D10F4B9847F8BDE6
:1051E000D278083B9A42F8DB0C4B98473368E401CD
:1051F00018780B4B984733681D7833689B78AB421F
:10520000E8D3084B1B681B19585D074B01359847BD
:10521000EDB2F2E7DC090020754E0000715100008C
:10522000A9510000D80900203D51000010B5A02070
:10523000084CA047AE20A047C820A047A220A04706
:105240002F20A0472620A047034B14209847AF20CB
:10525000A04710BD2551000055510000F0B5794B15
:1052600089B00090019198791400904202D8DA79BF
:10527000A24200D22E241A7A009D002A44D0012A8C
:1052800000D080E05979CA08D5B20295490701D00B
:10529000013202921A790299241A4A430132D2B297
:1052A00054431A68009D12191678039273190693D5
:1052B000069BAB422FD0019B0027009359E09379C6
:1052C000E31A5E431368DB199B5D019E0293019B09
:1052D00008330393009BDB197F2B00DDAFE0019BBC
:1052E000F31A3F2E00DDAAE0029AF1B21A4101231F
:1052F0001A4000D01A00544B28009847039B0136EF
:10530000B342E7D10135EDB2009B4E4AEF1A167950
:10531000FFB2B742D3D3300009B0F0BD039B0024E5
:10532000DB195B780493FB0007936B461B780593AE
:105330007F2D00DD83E0009B1B193F2B7FDC414A62
:10534000079B5279E31893420CDA049A0123224115
:105350001A40059BE8B21919C9B2002A00D00122EF
:10536000394B98470134082CE2D1009B01370833B0
:105370000093029AFBB29A42D0D89446039B01351F
:105380006344039394E7022A59D15A79241AD20824
:10539000511C03911979501C0E004843C0B244437C
:1053A0001B68481E1B1902938B1BDBB2C31A5343A5
:1053B000029CDBB2E35C002B03D1013EF6B2002E6F
:1053C000F2D10027FB0006936B461B79009C0593E6
:1053D000009BF318079326E000251A4B009A1B79CF
:1053E00002997B43A21ACB189B5C04937F2C26DC8A
:1053F000019BEB183F2B22DC124B5A79069B5B1961
:105400009A420CDD049A01232A411A40059BE0B21E
:105410005919C9B2002A00D001220B4B9847013517
:10542000082DE3D10134079B9C42D5D1019B013764
:105430000833039A0193FBB29A42C3D86BE7002664
:1054400069E7C046E0090020D54E000070B50B4B5F
:1054500014005A793F2306000D009B1A994208DD7B
:1054600070BD30002900064B984701303618F6B25F
:1054700001342278002AF4D1F2E7C046E009002086
:105480005D52000030B503AC2578044CA3710023B5
:10549000E571206021716271237230BDE009002046
:1054A000F7B51F4C0191677906001500072F26D824
:1054B000A379934202D8E379934200D22E25013793
:1054C000184B390040209847019B834217DA227914
:1054D000B2187F2A13DC0199FFB201337B434F439B
:1054E000DBB2F9B23000D2B20F4FB847019BD801FE
:1054F0003300991B2279C9B29446914200D3F7BD7B
:105500006746A279AA1A57433A0027687918895C36
:10551000064A1268D21801331154DBB2E9E7C046DB
:10552000E0090020559700001D4E0000D80900201A
:10553000F8B5114F05007B790C001600072B16D922
:10554000F8BD28000D4B210098473B7901365A1CC5
:10555000AD18EDB2EB187F2B02DD00250134E4B26B
:10556000797940200131064B98478442E8DA327855
:10557000002AE6D1E4E7C046E0090020A15400007B
:10558000559700000268D369002BFCD170470000DA
:10559000F0B5070093B0A74B3960080016000491DE
:1055A000984701230200052851D00400010012345D
:1055B000049800688446654605201D4200D015E128
:1055C00004980068844665461C20AD0700D50DE1AF
:1055D00099488B40052A3DD1026A13430362330088
:1055E0002D331D001B780CA9E4B20B702000934BE7
:1055F000984720000024924B984728780021914B2F
:105600009847F37A08257B71731DDB7FBB71B31D4F
:10561000DB7FFB71F37E3B72337F7B723B680393CE
:105620001800844B98470EAB1C80338A12300293CB
:105630008023029ADB019A421BD00FD880231025C9
:105640009B019A4200D1D4E01025002411E01824D7
:105650001900ADE7C2691343C361C0E7C023029AD2
:10566000DB019A4200D1C3E0802303251B029A424A
:10567000EAD133680693F368079373690893337E1E
:105680000993F31DDB7F0A93736805933300059A32
:105690000833002A00D1AEE08022059952059142DC
:1056A0000ED1DB7F002B0BD1674BC0B2346A984719
:1056B0000EAA0100654B20009847002800D095E015
:1056C000737E002B02D0B37E039A9373604B380035
:1056D00098470AAB1B8A039A069C9381079B1C433D
:1056E000089B1C43059B1C43029B1C43099B1B02FC
:1056F0001C430A9B5B071C4333000833DB7F002BF2
:1057000001D104331C43757E337FAD025B021D4320
:10571000737FF27A1B021D43731DDB7F5B041D4305
:10572000B31DDB7F1B042B43B57A15431D4333891F
:10573000FF2B00D175E08022520414431D43330037
:105740002C331B78002B03D1424B9B789B0701D550
:1057500080231C4338003E4B9847039B38005D6014
:105760003B4B9847039B00251C6080230DAC2370A6
:10577000336B65700E93736BE5700F93B36BA5700D
:105780001093F36B0293119310200AAAAB00121826
:10579000D058E9B2002802D104982F4B9847431CF7
:1057A00005D02070000CC0B221002C4B9847013569
:1057B000042DE9D13B0000243033FC85FC603C61C2
:1057C0007C61BC61FC613C62BC627C62BC859C709B
:1057D0001C705C70DC703868164B98470500204BD5
:1057E000204998472000204BAD00EF5013B0F0BD8A
:1057F000082501243DE7DB7F002B07D02300B16A99
:10580000306A00950EAA194CA04756E7336AC0B219
:105810000B930D4B98470095010023000EAA0B989F
:10582000F1E7F37E002B00D189E78023DB041C43E2
:1058300085E7C0460564000000040040E5690000FB
:105840008569000069620000096A0000A961000022
:105850008555000000200041AD620000BD6A0000D7
:10586000B51A00006D1E000084040020D161000004
:10587000002210B54309C409944202D1DA01064B53
:10588000D2181F2318401E3B8340002901D093618A
:1058900010BD5361FCE7C046002800400368187E35
:1058A0008007C00F70470368187E012318407047B7
:1058B0000368187E4007C00F7047000070B5064BA4
:1058C0000C00056898470523002803D00023E40551
:1058D000E40DAC62180070BDA758000070B50D4B08
:1058E00006000C0005689847102200280DD00423FC
:1058F000698B0022194201D06B831E32B379012BD0
:1059000005D1AB6ADB05DB0D2380100070BDAB6AEF
:10591000DBB2F9E7B158000070B5046805000A4B26
:10592000200098471F2318401E3B8340074AD36737
:105930002A68D369002BFCD102228F33237523768A
:1059400023689343236070BDED1A000004E100E07A
:10595000F7B56B469D1D002304002B80194B06688C
:105960000F0098472068C369002BFCD1164B98475D
:105970001230164BC0B298472A000100144B380071
:105980009847071E1CD12B7833732568EB69002BD1
:10599000FCD1104B280098471F2318401E3B834022
:1059A0000D4A13602268D369002BFCD12A680233A8
:1059B00013432B602268D369002BFCD13800FEBD55
:1059C0001727FBE71959000005640000096A000069
:1059D000A9610000ED1A000000E100E0F0B505004B
:1059E00029600E0014000A68022187B01C230A42B5
:1059F00000D0D3E001273268173B3A4200D0CDE017
:105A00006E4B300098476E4B052800D1C9E08740A7
:105A10000200D96912320F43DF616946631DDB7FE3
:105A2000D7B20B703800674B98473800664B9847E1
:105A3000631DD87F0021654B98472378012B03D144
:105A400032680B33134333602378002B03D1326861
:105A50000833134333602B002A0000260C3328320E
:105A600040C39A42FCD12B003633AE86EE622E86BE
:105A7000AE621E705E709E70032328686B724F4B7F
:105A80002E7198470700524B52499847524BBF001E
:105A90006A46FD50802313710123937123782F6888
:105AA0005671D671002B00D196710026A36A02931D
:105AB000E36A0393236B0493636B0593B30002AA19
:105AC0009858F1B2002802D13800444B9847431C43
:105AD00006D06B461871000CC0B201A9404B984724
