:1060000088730020499C0000459C0000459C0000CE
:106010000000000000000000000000000000000080
:10602000000000000000000000000000459C00008F
:106030000000000000000000459C0000459C00009E
:10604000459C0000299C0000459C0000FD83010048
:10605000459C0000459C000071910000459C00009B
:10606000258D0100358D0100458D0100558D010004
:10607000658D0100758D0100459C0000459C000068
:10608000459C0000FD8F01005D90010000000000B4
:1060900000000000BD900100459C0000459C0000F0
:1060A000459C0000459C0000459C0000459C00006C
:1060B0000000000010B5064C2378002B07D1054BDB
:1060C000002B02D0044800E000BF0123237010BD64
:1060D000900B0020000000006CFF0200084B10B580
:1060E000002B03D00749084800E000BF07480368B9
:1060F000002B00D110BD064B002BFBD09847F9E7D1
:1061000000000000940B00206CFF02006CFF0200F6
:10611000000000007047C04600207047431E9841B1
:106120000122034BC0B21870024B1A707047C04670
:10613000F80E0020140000200022054B10B51A7044
:106140000123044A1370044A1370044B984710BD8E
:10615000C60B00201400002015000020DD2E0200D8
:1061600010B5084B82B00093074A1F23012102207B
:10617000064CA047002803D105490230054B98473B
:1061800002B010BD25670000D00B0020098600007A
:10619000616100007D85000010B5084B82B000935E
:1061A000074A0D2300218120064CA047002803D177
:1061B00005498130054B984702B010BDC56200000B
:1061C0001800002009860000996100007D8500000C
:1061D00070B50A4C0D000600122200212000084B69
:1061E0009847F02301222370E63BE371054BA6702C
:1061F0001A732B0A6573237370BDC046F80B002019
:106200001D8A02001800002010B5064B1B78002BD9
:1062100006D0054B0220984704490220044B9847BA
:1062200010BDC046C40B0020B1840000096200000C
:106230007D85000010B5064B1B78002B06D0054B62
:106240008120984704498120044B984710BDC046DF
:10625000C40B0020B1840000356200007D85000081
:1062600030B5114C83B0A368104D002B05D02B7BAB
:106270007F2B14D802200E4B98476B682200636076
:106280000C4B0021009381200D230B4CA0470028CC
:1062900003D10A4981300A4B984703B030BD044B03
:1062A00081209847E9E7C04618000020D00B002065
:1062B000B1840000C56200000986000099610000F9
:1062C0007D85000010B5084B82B00093074A1F235C
:1062D00001210220064CA047002803D105490230C5
:1062E000054B984702B010BD25670000D00B002079
:1062F00009860000616100007D85000000231A4AC4
:10630000F0B51370194A83B01370194A0133137032
:10631000184A1370184B9847002804D1174B18706F
:10632000002003B0F0BD154D0138154B287098477B
:10633000071EF5D00024134E20000021B047013481
:106340002B78E4B2A342F7D20F4B104A00930121FD
:106350001F2302200E4CA0470028E2D10D49023035
:106360000D4B98473800DCE7C60B0020C40B00201B
:106370001400002015000020AD820100F40B002065
:10638000CD2E0200E582010025670000D00B002021
:1063900009860000616100007D85000010B521497B
:1063A00082B00A7853B2002B28DB60230020134010
:1063B000202B01D002B010BD4B78FF2BFAD1CB8837
:1063C000002BF7D14B88002BF4D1174B174C1870CA
:1063D000174B18700230A0478120A047154B164A72
:1063E000009301211F230220144CA0470028E1D173
:1063F00013490230134B98470120DBE7602300204C
:106400001340202BD6D14B78FE2BD3D1CB88012B38
:10641000D0D14A88002ACDD10B4A8B818A600130C5
:10642000C8E7C046E4100020C40B002055810000DE
:10643000C60B002025670000D00B00200986000055
:10644000616100007D850000F40B002070B5040040
:1064500082B00E00002801D002B070BD154D164B61
:106460002800122200219847F0232B70E63BEB71A5
:10647000124DAB682C739E1BAE60114C05D0237B74
:106480007F2B13D802200F4B984763682A006B605C
:106490000D4B0021009381200D230C4CA0470028B8
:1064A000DAD10B490B4B81309847D5E7054B81205A
:1064B0009847EAE7F80B00201D8A02001800002028
:1064C000D00B0020B1840000C562000009860000E6
:1064D000996100007D85000070B50B001C4982B0F9
:1064E00002000091812001211A4CA047002801D010
:1064F00002B070BD184E194B30001222002198478F
:10650000F023174D3370E63BF371093B2B730333D4
:10651000B370AB68134E002B05D0337B7F2B12D8A2
:106520000220114B984773682A006B600F4B0021C3
:10653000009381200D23A0470028D9D10C490D4B91
:1065400081309847D4E7084B81209847EBE7C04655
:106550004D64000009860000F80B00201D8A02002F
:1065600018000020D00B0020B1840000C56200009C
:10657000996100007D850000F0B55746DE464E4625
:1065800045468246E0B55B4F5B4B85B01422002147
:106590003800994698475346584C002B6AD039002A
:1065A0003F23607CE27D14260831082503401C2B24
:1065B00069D03F2B67D02B1C954200D9131CDBB24E
:1065C0000393237B4E4E9846803B1B0623D4B3682F
:1065D0009B46039B5B4520D84A4B607B9847431EF4
:1065E00098415346C001002B00D176E0023D2D02B8
:1065F0003D80F870444B3A0000930121039B8120B9
:10660000424DA847002846D005B03CBC904699466C
:10661000A246AB46F0BDB3689B463D4D1222002119
:106620002800C847F0232B70E63BEB71093B33731E
:106630000433AB701F332B735B46002B09D04346EA
:106640006A461373137B5BB2002B4ADB0220314B8B
:1066500098476368320073602F4B002100938120BC
:106660000D232A4CA0470028CED12C492C4B812049
:106670009847C9E73F23607CE27C1026391D04253A
:1066800003401C2B95D11C230B70123B4B70053B18
:10669000CB7035008FE71E4F122200213800C8470B
:1066A000F0233B70E63BFB71093B33730333BB7054
:1066B000B368002B05D0237B7F2B16D80220154B07
:1066C0009847636832007360134B00210093812068
:1066D0000D23A847002897D1C7E7013D3D70B8704A
:1066E00088E70C4B81209847B3E70A4B81209847F5
:1066F000E7E7C046AC0B00201D8A0200D00B00204B
:1067000018000020FD8201004D6400000986000091
:10671000F80B0020B1840000C56200009961000000
:106720007D850000F0B5CE46474680B585B000288F
:106730000ED11F2911D00123D14C0220D14E23703C
:10674000B047D1490220D14DA8472378002B1DD155
:1067500005B00CBC90469946F0BDCD4CCD4B22689F
:106760009A42E8D10F23607B1840CB4B60731B78B3
:10677000834200D237E1A668C84DAE60E37B5A2B56
:1067800000D91FE1C64A9B00D3589F468120B047DD
:10679000C4498120A847DBE7E37C9A0704D501219F
:1067A0009943C14B9847AE68C04FC14B122200219C
:1067B00038009847F0233B70E63BFB7100232B73B6
:1067C000002E06D0237B7F2B00D9E2E00220AD4BC8
:1067D000984763682A006B60B64B002100938120C4
:1067E0000D23B54CA0470028B2D1B449A74B812056
:1067F0009847ADE7B24B9847002800D086E1627C0D
:10680000B04BDA70A27C9A70E27C5A70227D1A70CA
:10681000A27DAD4B5A70E27D1A701B88227B5B0211
:106820007F2A00D90BE2AE68B34200D820E19F4F27
:106830009F4B1222002138009847F0233B70E63B23
:10684000FB71093B2B730433BB701F333B73002E6A
:10685000BCD1BEE7627C9B4BDA70A27C9A70E27C72
:106860005A70227D1A70A27D974B5A70E27D1A7081
:10687000227B1B889046803A5B02120600D5C8E056
:106880009E4200D2C5E00123904A1370904A1370D3
:10689000904B98475CE7237B9846803B1B0600D5CE
:1068A000B7E0072E00D8B4E08B4C8C4B2100984702
:1068B000022800D1EBE1032800D1E0E1002800D15B
:1068C000D2E100210420864B9847864B98473FE74A
:1068D000E77C002F00D1B1E0744F754B12220021EC
:1068E00038009847F0233B70E63BFB71093B2B7364
:1068F0000433BB701F333B73002E00D062E768E7A0
:10690000794B98470600022800D1F9E0032800D10E
:10691000F0E0002800D19FE000210420704B984750
:10692000AB68002B00D04DE753E701206F4B984731
:106930000EE7E37C1F1C242B00D92427237BFFB206
:106940009946803B1B0609D4BE4207D3237C9B0794
:1069500004D1637C9846002B00D1EAE0534F544B9E
:106960001222002138009847F0233B70E63BFB7170
:10697000093B2B730433BB701F333B734B46002E14
:1069800000D126E76A46D373D37B5BB2002B00DBD2
:106990001CE73C4B812098471BE7E37C191C122B1A
:1069A00000D91221237BC9B29846803B1B0630D404
:1069B0008E422ED33D484E4B9847C9E600204B4BA4
:1069C0009847C5E6394F3A4B1222002138009847C4
:1069D000F0233B70E63BFB71093B2B730433BB7028
:1069E0001B333B7388E7314E314B122200213000BC
:1069F0009847F023294D3370E63BF371093B2B7325
:106A00000433B3701F333373AB68002B00D0D9E667
:106A1000DFE6264F264B1222002138009847F0234C
:106A20003B70E63BFB71093B2B730433BB701F3398
:106A30003B73002E00D1CCE64346A3E71B4B12224A
:106A40009846180000211A4B9847F02342461370CD
:106A5000E63BD3712F734FE7144F154B12220021E1
:106A600038009847F0233B70E63BFB712E7357E7E5
:106A70000122164B1870164B1A70164B984767E692
:106A8000C40B0020B1840000096200007D85000075
:106A9000D00B002055534243F40B00201800002077
:106AA000A4D2020035620000E5820100F80B00204C
:106AB0001D8A0200C562000009860000996100007D
:106AC000FD820100C00B0020F00B0020C50B002050
:106AD000C60B0020C12E0200C80B0020C582010099
:106AE000D161000061620000B1820100796500009F
:106AF000D9640000A02106208901C24B98470FE706
:106B0000E82102208901BF4B984709E7BE4C1222B9
:106B100000212000BD4B9847F0232370E63BE37132
:106B2000093B2B730633A37020332373B84B98476C
:106B30000EE6B84B98470300581E8341B64DDB0163
:106B40006B70607BB54B984701002800B44B103048
:106B50000131102298472B7C002B00D1A0E0222B82
:106B600000D106E16B7C002B00D107E1222B00D184
:106B700001E1AB7C002B00D10AE1222B00D104E122
:106B8000EB7C002B00D1FEE0222B00D1F8E02B7D26
:106B9000002B00D110E1222B00D10AE16B7D002BEC
:106BA00000D104E1222B00D1FEE0AB7D002B00D10F
:106BB000F8E0222B00D1F2E0EB7D002B00D1ECE0DD
:106BC000222B00D1E6E02B7E002B00D117E1222BF7
:106BD00000D111E16B7E002B00D10BE1222B00D103
:106BE00005E1AB7E002B00D1FFE0222B00D1F9E0C4
:106BF000EB7E002B00D1F3E0222B00D1B7E02B7FFE
:106C0000002B00D1EAE0222B00D1E4E06B7F002BC7
:106C100000D1DEE0222B00D1D8E0AB7F002B3ED0AC
:106C2000222B00D1CFE0EB7F002B00D1C9E0222B3B
:106C300000D1C3E0390028007A4B984788E5724EAE
:106C4000724B1222002130009847F0233370E63B4C
:106C5000F371093B2B730433B3701F333373AB6889
:106C6000002B00D095E6B4E580239B026360236887
:106C700008211BBA236020006A4B984768E5A021D1
:106C8000062089015F4B9847614B984760E5E821F2
:106C9000022089015B4B98475D4B984758E50E23CE
:106CA0002022E9180A74591CC9B21029C2D06918E7
:106CB0000A74991CC9B21029BCD069180A74D91C6D
:106CC000C9B21029B6D069180A74191DC9B21029A1
:106CD000B0D069180A74591DC9B21029AAD0691810
:106CE0000A74991DC9B21029A4D069180A74D91D53
:106CF000C9B210299ED069180A7419000831C9B2A6
:106D0000102997D069180A7419000931C9B21029DD
:106D100090D069180A741A000A32D2B2102A89D0A7
:106D2000A91820220A7419000B31C9B2102981D088
:106D300069180A7419000C31C9B2102900D179E719
:106D400069180A7419000D31C9B2102900D171E710
:106D500069180A7419000E31C9B2102900D169E707
:106D600069180A74012B00D164E7EA7762E70B2304
:106D70009846434694E701239846FAE701238FE7B4
:106D800003239846F5E703238AE702239846F0E7B2
:106D9000022385E707239846EBE7072380E70623CE
:106DA0009846E6E706237BE705239846E1E70523B7
:106DB00076E704239846DCE7042371E70F2398461F
:106DC000D7E70F236CE70E239846D2E70D239846AA
:106DD000CFE70D2364E70C239846CAE70C235FE74F
:106DE0000B235DE70A239846C3E70A2358E70923E4
:106DF0009846BEE7092353E708239846B9E70823D6
:106E00004EE7C046D1610000F80B00201D8A020049
:106E10006162000011830100280000202583010029
:106E200099890200D9640000F0B5C64600B54B4B05
:106E300082B01C78002C3FD000221A70484B494D7C
:106E40001B782A70002B3CD1474B484E1A88484B80
:106E5000707B1968474B98472B780700DBB2002BF3
:106E60003CD1022F62D0032F3CD0002F51D0424F93
:106E7000424B1222002138009847F023404D3B70CE
:106E8000E63BFB71093B2B730333BB70AB68002BF4
:106E900005D0337B7F2B5CD802203A4B9847736830
:106EA0002A006B60384B0021009381200D23374D61
:106EB000A847002828D00400200002B004BC904657
:106EC000F0BD294B294E1A88294B707B1968304B2D
:106ED00098472B780700DBB2002BC2D000221C00A1
:106EE0002A70E9E7244F254B1222002138009847E9
:106EF000F023234D3B70E63BFB71093B2B730533BD
:106F0000BB7022333B73C1E72249234B8130984742
:106F1000D2E7194D194B2800122200219847F0237F
:106F20002B70E63BEB71164D2F73AFE7124B12221D
:106F3000984618000021114B98474246F023104D07
:106F40001370E63BD371093B2B733A23977013738D
:106F50009CE70C4B81209847A1E7C046C60B002058
:106F6000C50B002015000020F00B0020D00B0020E6
:106F7000C00B002051830100F80B00201D8A020085
:106F800018000020B1840000C562000009860000DE
:106F900035830100996100007D85000070B51D4CAE
:106FA0001500227882B0002A16D000220226227014
:106FB000002814D1002B14D000930A0030002B00BD
:106FC0000021154EB047002804D0144B9A68551B79
:106FD0009D6002E001232370002002B070BD7F3667
:106FE000E8E70F4B0A00009330002B0000210A4E07
:106FF000B0470028EED02378002BFCD0094B1A783C
:10700000002AE9D118780123044A584091684D1BA1
:107010009560E2E7140000200986000018000020B7
:107020001D610000F80E00207F2010B5024B5B8828
:107030001840024B984710BDE4100020358800002E
:1070400070B5144B1B681B681A7982421DD9124E09
:107050003360DC789A78240214431C19A34214D2BA
:10706000002504E01A7801259B189C420CD95A7817
:10707000042AF7D19A788242F4D1DA788A42F1D19F
:10708000002D04D1012001E03360002070BD336089
:107090000120FBE7180C00201C0C0020F8B5274D40
:1070A00082002B6807005B68D658F3689847244B2A
:1070B0001B78002B01D10020F8BD2B681B681A79C2
:1070C000BA42F8D91F4A13609446DA789C781202C3
:1070D00022439A189342EED21C00002104E0237848
:1070E0000121E418A24219D96378042BF7D1A378BF
:1070F000BB42F4D1E3788342F1D100291BD1124F76
:1071000004E06378042B05D0052B0AD02378E4181B
:10711000A242F6D8736898470120CDE763461C6009
:10712000C9E7A078B8472B681B68DA78997812020B
:107130000A439A18EAE763461C60E0E7180C00204F
:10714000140C00201C0C0020DD82000010B5014B47
:10715000984710BD71890000F0B5C646264B00B5B2
:107160009847264D2A78002A35D0254E33681B686B
:10717000197900292FD0234800248046224F04E0AB
:107180000134E4B28C4226D22A78002AF8D0424652
:107190001360D9789A7809021143591800208B425C
:1071A00005D322E01A7801209B1899421BD95A78FE
:1071B000042AF7D19A78A242F4D1DA78002AF1D1E0
:1071C000002816D12000B847336801341B68E4B2A8
:1071D00019798C42D8D3002301222B700B4B1A80D3
:1071E00004BC9046F0BD4246136033681B681979B1
:1071F000C6E742461360E5E78D8A0000140C0020C4
:10720000180C00201C0C00209D7000000A0C0020AF
:10721000F0B5C64600B5254D2A78002A35D0244E53
:1072200033681B68197900292FD022480024804632
:10723000214F04E00134E4B28C4226D22A78002A9D
:10724000F8D042461360D9789A7809021143591848
:107250000020994205D822E01A7801209B18994213
:107260001BD95A78042AF7D19A78A242F4D1DA7855
:10727000002AF1D1002816D12000B8473368013424
:107280001B68E4B219798C42D8D3002301222B70F9
:107290000A4B1A8004BC9046F0BD42461360336826
:1072A0001B681979C6E742461360E5E7140C002015
:1072B000180C00201C0C00209D7000000A0C0020FF
:1072C00070B50D4B1B78002B14D00C4D2A68136839
:1072D000197900290ED000245068A3001B581B699F
:1072E000002B03D098472A68136819790134E4B257
:1072F0008C42F1D370BDC046140C0020180C002045
:10730000F0B5DE4657464E4645460023E0B5BA4C3A
:1073100083B0A3812361636123785AB2002A13DB0F
:1073200060221A4200D171E01F221340012B00D1CC
:107330008DE0022B23D00025280003B03CBC9046F2
:107340009946A246AB46F0BDE288002AF3D0602100
:107350001942E9D11F210B4000D0E3E06378062BEE
:1073600000D1A9E1082B00D19DE1002BE3D1022A35
:10737000E1D11D39A148A24B98470125DCE7A14F77
:107380003B78002BD7D0A04E33681A681279002AB8
:10739000D1D09E4A002490465B68A200D558EB6885
:1073A00098473B788446002BC5D033681B681A7910
:1073B000A242C0D942461360D9789A780902114393
:1073C00059188B42B7D2002004E01A7801209B188C
:1073D000994218D95A78042AF7D19A78A242F4D15E
:1073E000DA786245F1D1002800D0A9E2AB6898476D
:1073F000002800D082E0336801341A68E4B21279C0
:10740000A242C9D897E74246136094E71F252B4054
:1074100058D16378032B00D18DE771D9052B00D1AA
:10742000DEE0092B00D086E7E388002B00D082E75E
:10743000774B9847002806D0764DA2782B685B7C66
:107440009A4200DC8FE11F23227813406EE76D4FD4
:107450003B78002B00D16EE76B4E336825799C4654
:107460001B681A79AA4200D865E7684A1360D97880
:1074700090469A780902114359188B421ED2002077
:1074800005E01A7801209B18994200D8B0E05A789C
:10749000042AF6D19A78AA42F3D1DA78002AF0D1F8
:1074A000002800D049E263465B68AA00D358994699
:1074B000DB6898473B78002B00D028E11F23227817
:1074C000134036E7012B45D0022B00D033E7637819
:1074D000012B00D1B0E0032B00D050E7E388002B54
:1074E00000D04CE76388002B00D048E720794A4B56
:1074F00098472079494B98470028A4D001251BE7DD
:10750000012B00D017E7E388002B00D013E7638836
:10751000012B00D00FE70221384A012513888B4345
:10752000138009E7012B00D192E0022B00D002E783
:107530006378002B00D022E7022A00D01FE7384BE7
:1075400020799847374B0221188018002C4B984718
:107550000125F1E663780B2B00D074E7E388002B5C
:1075600000D074E7274B99461B78002B00D1E2E648
:1075700027792D4B002138006688984698470028C7
:1075800000D160E73800294B9847002800D1CCE1B2
:107590004B461B78002B00D155E7F1B23800C047AD
:1075A000002800D14FE7194B174E1D68204B984615
:1075B00030680368DA78997812020A439B1805E06C
:1075C0006A78042A06D0052A00D195E02A78AD18F9
:1075D000AB42F5D84368BF00FB581B6898478BE760
:1075E000E388002B00D0A6E6124B01252361A3E619
:1075F0004246136062E7C046E41000200A0C0020F7
:1076000055880000140C0020180C00201C0C0020D1
:10761000458800004C00002055810000B184000026
:107620009D8400000C0C0020417000009D70000043
:107630009183000029700000E388002B00D09EE6B3
:107640006388002B00D09AE62079C04B984753E717
:1076500063780A2B00D0F6E6012A00D0F7E6BC4F8B
:107660003B78002B00D166E62379BA4E9846336802
:1076700099461B681B79434500D8EEE60021404639
:10768000B54B9847051E00D1DDE64B465A68434688
:107690009B009B58DB689847B04B0121187018007D
:1076A000AF4B984748E6012A00D044E60121A8489C
:1076B000AB4B984701253FE663881D0A022D00D198
:1076C00018E100D8CBE0032D00D1D4E00F2D00D07D
:1076D00031E6A44B9868002800D12CE6C178837865
:1076E000090219439E4B9847E388A2899A4200D821
:1076F00004E7A38101251FE66A792B7912021A4358
:10770000E978A878C047002800D051E79BE63368A5
:107710001B681A79AA4200D8D0E642461360DA788C
:10772000997812020A439A18934200D3C6E60026BB
:1077300005E0197801265B189A4200D858E7597875
:107740000429F6D19978A942F3D1D9788142F0D1B0
:10775000002E00D0F7E04B469B689847002800D1E8
:10776000ACE60125E8E5804B9847A378784F3B705D
:10777000002B00D1C2E67D4A686894466344DB0072
:10778000C018744E036830601A79002A00D1B5E63B
:1077900000229146764A9046764A934632004E46FB
:1077A000B946170042461360D9789A780D021543FE
:1077B000AC469C449C4500D845E6002501930095C5
:1077C0009A461D0005E02B78ED1801230093AC4587
:1077D0004ED96B78042BF6D1AB78B342F3D1EB786A
:1077E000002BF0D10195009D5346002D04D0424658
:1077F000019911609A78D978019D09020A439A1873
:1078000004E06B78042B05D0052B19D02B78ED18EC
:10781000AA42F6D84368B200D3581B68984700289C
:1078200000D110E6386801360368F6B21A79B24220
:1078300000D863E64A461278002A00D103E6B1E791
:107840006A792B7912021A43E978A878D847002878
:1078500000D1F8E5386803689A78D978CDE7012D2A
:1078600000D068E53F4B18683D4B017898473BE7EF
:1078700043461D60E7E5FF221340012B4DD0002B4E
:1078800033D0022B54D0032B00D0DCE531231A2156
:107890001A250C2238484380384B5E7886809E78C3
:1078A000C680DE7806811E794681052A19D05E7968
:1078B0008681062A15D09E79C681072A11D0DE79E5
:1078C0000682082A0DD01E7A4682092A09D05E7ADD
:1078D00086820A2A05D09E7AC6820C2A01D1DB7ADA
:1078E00003831F4B05709847FEE6042124481C4B78
:1078F0009847F9E61B4ADBB21168497C994200D8E7
:1079000019E55268DB009858C17883780902194359
:10791000134B9847A3685D70E6E6142114250922ED
:10792000184B15481E784680B7E723782B40FDE4B6
:107930000C210C250522144BF3E742461360B2E5F7
:107940004246136052E54246136004E72185000079
:10795000140C0020180C002041700000100C0020B6
:10796000558800004C00002011720000FFFFFF1F2F
:107970001C0C0020918300009800002010D402000D
:10798000B4000020B8000020C40000200B4B1A688F
:10799000002A05D1EFF31081002905D008490A70AB
:1079A0001A6801321A60704772B6BFF35F8F054ADA
:1079B0001170034A01311170F2E7C046200C00201B
:1079C000240C0020CA000020084B1A68013A1A60F3
:1079D0001B68002B09D1064B1B78002B05D0012218
:1079E000044B1A70BFF35F8F62B67047200C002003
:1079F000240C0020CA000020F0B557464E46DE4653
:107A00004546E0B58E7983B073B28A46002B00DA22
:107A100071E0002E33D00F2333405C00023CA50000
:107A200099466F4F2B199B00FB181A8A01920A88FE
:107A300093469A7C520726D42B199B00FB18DA68D0
:107A40005A449046DA609A6890451AD853469B8803
:107A50005B452BD001202C19A40039198B7C834362
:107A60008B743B59002B03D0C96832000020984723
:107A700003B03CBC90469946A246AB46F0BD338A63
:107A8000FFDEDA60E6E7D9685A688C469868624497
:107A90000199544B904698474B460A00013B524986
:107AA0009B0159184046514B9847C5E79045D1D0A6
:107AB0004346D21A4E4B96B29A4601999E426CD9D1
:107AC00018004C4B984753465B1A9BB22C190199EE
:107AD000A4003F19994259D90422BB7C464C134358
:107AE000BB744B465A1E404B9201D21843480B00C0
:107AF0004946A047BCE7802E45D00F2333405C00A9
:107B00009946631E9C00E018354F800098463B184C
:107B1000198A1A008B4651464D88D96810328C4616
:107B200099686544DD608D423DD04E1B304BB6B246
:107B30009A469E4206D9180059462E4B98475346FE
:107B40005E1AB6B24346E3189B00FB189A7C0023EA
:107B5000920707D5234B59463000984789B24B42CC
:107B60004B41DBB202204444A4003F19BA7C5B00C5
:107B7000824313437A68BB74521933004946204C40
:107B80001E48A04774E700231B8AFFDE7A68494637
:107B90004244194C1948A0476AE7124B30009847F5
:107BA000731A9BB292E702219C7C21420CD10121E5
:107BB00093788B4393703B58002B00D158E73200E9
:107BC00029000020984753E790780D4C8843907027
:107BD0005A684946521900230848A04748E7C0465A
:107BE0002C0C0020495A0200FC0E0020998902004A
:107BF000FF1F00001D5C0200E59000007C0F0020CC
:107C00009990000030B5040083B01E4B9847802344
:107C1000226801AD937228001B4B9847032329006B
:107C20006B702000194B984719492000194B984751
:107C3000194D1A4B022200212000A847184B0022A0
:107C400000212000A847174B012200212000A8474F
:107C5000154D022200212000A8470022002120000B
:107C6000A847012200212000A84721680F4A0B895C
:107C70001A408023DB00134300220B810C4B1A7047
:107C800003B030BD117200008D8D00009D8D00008D
:107C9000FC1000202D910000DD8B0000A57E00006F
:107CA000A9810000B57C00002D8C0000FFF3FFFFD0
:107CB0002A0C002010B58979124A4BB2002B05DB43
:107CC0001378022B0BD0032B05D010BD1378012B9A
:107CD00008D0042BF9D10C480C4B9847F5E7023338
:107CE0001370F2E7084C0233137009492000094B66
:107CF0009847094B00219A6820000023074CA047B1
:107D0000E3E7C0462A0C00207C0F0020FD8F000016
:107D1000FC1000202D910000E4100020999000003C
:107D2000F8B51F4D1F4E2A88B489A41AA4B2002C9E
:107D300010D01D4F3F2C23D94023002140243970FF
:107D4000B1681A488A181A4E0021B0472B88E418E7
:107D50002C80F8BD17490B88D3189BB20B80F18893
:107D6000994210D0104F3B78002B0CD17369002B37
:107D700004D0984700280ED100232A880121DEE78D
:107D800023000121DBE704220B4B0C491A70074842
:107D90000B4B9847DDE72C80B4890022CAE7C04628
:107DA000260C0020E4100020250C00207C0F002071
:107DB00099900000280C00202A0C0020FC100020C4
:107DC0002D91000010B5014B984710BDC172000005
:107DD0000122034B1A70BFF35F8F62B67047C04633
:107DE000CA00002030B5274C85B006212000264D62
:107DF000A84704212000A8472000244B02219847CF
:107E0000234B244C01932378022B1ED0224B5A780B
:107E1000FF2A1CD0EFF3108251424A41029272B6FF
:107E2000BFF35F8F00221D490A705A780298013211
:107E30005A70002804D001220A70BFF35F8F62B627
:107E40002278002A04D10223237005B030BDFEE75A
:107E500001A8825C985C002812D0EFF310804542A4
:107E60006841039072B6BFF35F8F00200870995C81
:107E70000398013999540028E5D0094B9847E2E767
:107E8000FEE7C0467C0F0020C18B0000A18B0000E4
:107E9000000101017C0C0020A4120020CA00002077
:107EA000D17D000070B5334D0C002B78002B06D02F
:107EB000314B1B69002B00D0984700232B7023887F
:107EC000082B0BD005232D4C2B70802120002C4B30
:107ED0009847002120002B4B984770BD2A4C264E16
:107EE0002378337063787370E278A37812029B185A
:107EF00073806279237912029B18B380E279A379A7
:107F000012029B18F380214B98470028DAD033786F
:107F10007F2B1ED8F388002B0DD000231C4A002194
:107F200013801C4A1548138001332B7022003F3305
:107F3000194CA047D1E703332B70104D21002800C6
:107F4000164B9847B268002300212800144CA04724
:107F5000C3E700230E4A002113800E4A074813800E
:107F600002332B7022003E330B4CA0470D4B984739
:107F7000B3E7C0462A0C0020E41000207C0F00204C
:107F8000FD8F00001D900000FC1000200173000018
:107F9000280C0020260C0020E59000002D91000008
:107FA00099900000217D000030B5314B85B01A8BCF
:107FB00092063ED4D0210901DA680A408A42FBD1F8
:107FC0002C4C2D4B022120009847042120002B4DE2
:107FD000A8472B4B2B4A062120009847200006215A
:107FE000A847294B294C01932378032B1ED0284BFB
:107FF0005A78FF2A1CD0EFF3108251424A41029274
:1080000072B6BFF35F8F002222490A705A78029835
:1080100001325A70002804D001220A70BFF35F8F2A
:1080200062B62278002A0AD10323237005B030BD3E
:10803000FEE780214900DA680A42FCD0C0E701A8C7
:10804000825C985C002812D0EFF3108045426841B2
:10805000039072B6BFF35F8F00200870995C03989D
:10806000013999540028DFD00B4B9847DCE7FEE735
:10807000000C00407C0F0020C18B0000A18B000091
:108080007D8B0000E57D0000000101017C0C0020DB
:10809000A4120020CA000020D17D000030B5254C7C
:1080A00085B004212000244B98472000234B022157
:1080B0009847234B234C01932378012B1ED0224B4E
:1080C0005A78FF2A1CD0EFF3108251424A410292A3
:1080D00072B6BFF35F8F00221C490A705A7802986B
:1080E00001325A70002804D001220A70BFF35F8F5A
:1080F00062B62278002A04D10123237005B030BD76
:10810000FEE701A8825C985C002812D0EFF3108093
:1081100045426841039072B6BFF35F8F002008703C
:10812000995C0398013999540028E5D0084B984789
:10813000E2E7FEE77C0F0020C18B0000A18B00006E
:10814000000101017C0C0020A4120020CA000020C4
:10815000D17D000070B501000400104B1048984715
:108160007F23234017D00F2301202340E2095B0027
:108170009B18023B9A00D3180A499B00CA18957CA9
:10818000284207D05B5885439574002B02D0D168F4
:108190002200984770BD9B7CFFDEC046AD8F00007B
:1081A0007C0F00202C0C0020F8B5CE46474680B549
:1081B0003C4C2378012B0CD0022B36D03A4B1B6958
:1081C000002B00D09847002323700CBC90469946A2
:1081D000F8BD364A344E0F881088B389C5199046C9
:1081E000AB4225DBB3683A009C46314B6044190032
:1081F0009946304B98474346ADB21D80402F1BD067
:108200007369B581002B02D09847051E32D0032335
:108210002370294C49462000284B9847B268002318
:1082200000212000264CA047CFE7264B9847CCE7FB
:108230001F1ABFB2C519D5E7234FF2883B885B19D7
:108240009A42DDDDB389AB420DD17569002D11D0A5
:10825000A84700281BD042463B8812889B183B80C9
:1082600042460023138040234A460021174C1248FF
:10827000A047AAE7052323700F4C00212000144BD0
:10828000984700212000134B9847AB7CFFDE052365
:108290000021237008480E4B984700200E4B98474A
:1082A00093E7C0462A0C0020E4100020260C002092
:1082B000FC100020998902007C0F00202D91000005
:1082C00099900000217D0000280C0020E59000001E
:1082D000FD8F0000AD8F000055810000F0B5CE4647
:1082E0004746050080B583B001AC2000214B98477C
:1082F000214E224B290030000F2798477F232F4023
:108300002B4035D07A00E90953181D4A023B9146AB
:108310009A00D3184A4601209B00D218917C08424B
:1083200010D0102188469044414689788143080046
:108330004146887049465B58002B03D0D168012024
:108340002A00984700232100E37030000D4B257070
:1083500098473900002230000B4B98470022290033
:1083600030000A4B984703B00CBC90469946F0BDCC
:108370009B7CFFDE8D8D00007C0F0020AD8F000008
:108380002C0C00209D8D0000058C0000DD8C000071
:10839000F0B5C646050000B582B001AC2000374BF1
:1083A0000E00170098472570082F20D8002363700F
:1083B0007F232B4019D00F232B40EA0998465B00FE
:1083C0009B18023B9A00D3182D4A9B00D3181F829A
:1083D00003231E40012E30D0022E15D0032E12D0C2
:1083E000002002B004BC9046F0BD1B82FFDE102FBF
:1083F00002D801236370DBE7202F21D9402F22D838
:1084000003236370D4E70423E3701E4E2100300081
:108410001D4B98470028E3D11C4B002241461C4CC1
:108420003000A047002229001A4C3000A04701224A
:1084300029003000A0470120D3E7013BE370E4E7C7
:1084400002236370B4E7802F06D980235B009F422C
:1084500005D8FB3B6370ABE704236370A8E7802378
:108460009B009F4203D8FB3BFF3B6370A0E70A4B96
:108470009F42B5D8072363709AE7C0468D8D0000F0
:108480002C0C00207C0F00209D8D0000F97900004D
:10849000DD8B00002D8C0000FF03000010B50100F3
:1084A000014B0248984710BDDD8F00007C0F002073
:1084B00070B50F24050004400020022C00D970BDC7
:1084C000134E29003000134B9847134B29003000FE
:1084D00098477F232B4018D00121EB096400E41852
:1084E000023CA3001C190D4AA4001319987C0142F8
:1084F00009D0987CA45888439874002C03D0D9687C
:108500002A000120A0470120D9E79B7CFFDEC0465E
:108510007C0F0020FD8F0000AD8F00002C0C002090
:108520000F2370B501000340022B1FD87F240440A5
:1085300004D10F480F4B9847A37CFFDE5C00C309B2
:10854000E418023C0B4B0A489847A3001C190A4A3E
:10855000A4001319997C0125C90701D4280070BD16
:10856000997CA9439974A3589847F7E70025F5E744
:108570007C0F00201D9000002C0C0020F0B50F2374
:108580004646D6464F460500C0B503400E00022BB6
:1085900013D87F22024001D1937CFFDEC2095B0029
:1085A0009B18023B9C00E418134AA4009046A14685
:1085B000C1444B469B7CDB0706D5002738001CBC1A
:1085C00090469946A246F0BD0C4B01009A46180011
:1085D0000B4B9847071E07D04B4601219A7C0A4354
:1085E0009A744346E650E9E729005046054B984700
:1085F000071EE2D0B047E1E72C0C00207C0F0020E2
:10860000DD8F0000898F0000F0B5454657464E4685
:10861000DE460F24E0B5884687B0050091461F006E
:108620000440022C07D9002007B03CBC9046994674
:10863000A246AB46F0BD754B01009B461800744B3B
:1086400098470028EFD17F232B400CD1EFF3108205
:1086500051424A41059272B6BFF35F8F6D4A137063
:10866000059A9B7CFFDE6BB21A000393D20F630066
:108670009E18B11E0E000191EFF310835A42534130
:10868000059372B6BFF35F8F6349B4468A460121F2
:10869000604A1070059B0093B300029363449B00F3
:1086A00053449E7C314253D10126B4466646987CA1
:1086B00030439874009B002B60D1019A4946944640
:1086C0005246029B109863449B00D21851600021CF
:1086D000D1605146C850110010318E784346B046E3
:1086E00002260120B44603404646604686430420E5
:1086F0005B00334383438B70039B9760002B42DB0B
:10870000002F2ED0138A454DBFB298461900AF42B4
:108710006DD9434B280098476B1A9BB24A46434594
:108720000ED2029B04219C46019B63449E0056444A
:10873000B27C3C4B0A43B274621E9201D21843468B
:1087400021005846384CA04743425841C0B26BE71D
:10875000009B002B00D166E71170BFF35F8F62B6FC
:1087600062E701228B7893438B70109B002B03D020
:108770002A00002100209847012055E71170BFF31F
:108780005F8F62B699E7002F37D0244DBFB2AF425A
:1087900005D9118A2800224B98476F1ABFB2019A57
:1087A000029B944663449B005344997C00228907B2
:1087B00007D5198A38001D4B984789B24A424A4169
:1087C000D2B2019902208C46029B510063449B0067
:1087D00053449A7C82430A439A743B0021004A46E0
:1087E0005846134CA04743425841C0B21CE73800DA
:1087F0000E4B98477F1ABBB290E7937C62461A42B1
:10880000AFD08B7893438B700023E7E77C0F002079
:10881000DD8F0000CA0000202C0C0020FF1F00008C
:108820001D5C0200FC0E0020E5900000495A020089
:10883000999000008022024B10431B689872704789
:108840007C0F0020024B1B68987A4006400E704750
:108850007C0F0020014B986099817047E410002044
:1088600070B5364B364C84B001932378032B1ED061
:10887000344B5A78FF2A47D0EFF3108251424A41D5
:10888000029272B6BFF35F8F00222F490A705A78A6
:10889000029801325A70002804D001220A70BFF3F6
:1088A0005F8F62B62278002A2FD103232370012123
:1088B000264C274E2268200013898B4313810331F5
:1088C000244AB047244A00212000B047234A01210E
:1088D0002000B047224A02212000B047214D042148
:1088E0002000A84700212000A84701212000A84718
:1088F00002212000A8471C4A06212000B04706217B
:108900002000A84704B070BDFEE701A8825C985C17
:10891000002812D0EFF3108045426841039072B6F0
:10892000BFF35F8F00200870995C03980139995458
:108930000028BAD00D4B9847B7E7FEE700010101C8
:108940007C0C0020A4120020CA0000207C0F002014
:108950007D8B00009D800000C57D0000057C00002F
:10896000A97F0000A18B0000E57D0000D17D000003
:10897000F0B587B0EFF310835A425341029372B6B9
:10898000BFF35F8F0023364C01AE23703000354BB0
:10899000029D984703238221334F3200B370C905EB
:1089A000324B38009847324B38009847314B1A8B7E
:1089B000920635D4D0210901DA680A408A42FBD1F7
:1089C0002D4B2E4E03933378012B1DD02C4B5A7810
:1089D000FF2A24D0EFF3108251424A41049272B62A
:1089E000BFF35F8F002222705A78049901325A70C7
:1089F000002904D001222270BFF35F8F62B6327863
:108A0000002A13D1012333701E4B9847002D04D048
:108A100001232370BFF35F8F62B607B0F0BDFEE79E
:108A200080214900DA680A42FCD0C9E703A98A5CC0
:108A3000995C002912D0EFF3108148424141059121
:108A400072B6BFF35F8F00212170995C05980139E0
:108A500099540028D6D00C4B9847D3E7FEE7C04680
:108A6000CA000020D19800007C0F0020E19800008F
:108A70005D910000000C0040000101017C0C002011
:108A8000A412002061880000D17D0000012170B592
:108A900000262F4B2F4D1A6884B013890B439BB2CD
:108AA00013812B7801AA167051709170D170012B2F
:108AB0004BD0294B5878FF282ED0EFF3108044423A
:108AC0006041029072B6BFF35F8F244C26705878D5
:108AD000029E01305870002E03D02170BFF35F8FCB
:108AE00062B62978002918D101232B70EFF3108387
:108AF0005A425341019372B6BFF35F8F0023237034
:108B0000019D174B9847002D04D001232370BFF31C
:108B10005F8F62B604B070BDFEE7525C995C0029BD
:108B200012D0EFF3108148424141039172B6BFF376
:108B30005F8F00212170995C0398013999540028B6
:108B4000D2D0084B9847CFE7FEE7044CCEE7C046AB
:108B50007C0F00207C0C0020A4120020CA00002002
:108B6000698B0000D17D0000034B1A78002A01D0E8
:108B700000221A707047C0467D0C00200B002E3377
:108B80009B0010B51A50AA22044C52004900835A87
:108B9000095B0B438352002010BDC04634D4020051
:108BA000064B4900CB5AAB21026849009383425AD5
:108BB0001A434252026800201383704734D40200E3
:108BC000054B4900CA5AAB214900435A93434352CB
:108BD000036800209A82704734D4020010B58C00DC
:108BE000A4183434A40004194018593004496360AF
:108BF000FF3003788A5C13430370002010BDC04629
:108C000044D4020010B500248B009B1834339B0021
:108C1000C31840185C605930034BFF309A5C0378EE
:108C200093430370002010BD44D402000F2370B59D
:108C30000B40C4186134284EFF342578B65C3543A8
:108C40002570002A08D1002B15D10A2303210268C0
:108C5000FF33D154002070BD012A17D1002B1FD043
:108C600002685B01D3180A3349B2FF33002920DBC5
:108C700004221A70EEE702685B01D3180A3349B286
:108C8000FF33002912DB01221A70E3E7022A13D115
:108C900002685B01D31810220A33FF331A70D9E738
:108CA0000A230C210268FF33D154D3E702221A7041
:108CB000D0E708221A70CDE7032ACBD102685B0106
:108CC000D3180A3349B2FF33002902DB20221A707D
:108CD000C0E740221A70BDE744D402000F2370B5EC
:108CE0000B40C418284D6134FF34AE5C2578B54381
:108CF0002570002A08D1002B15D103210268093301
:108D0000FF33D154002070BD012A17D1002B1FD092
:108D100002685B01D318093349B2FF33002920DB15
:108D200004221A70EEE702685B01D318093349B2D6
:108D3000FF33002912DB01221A70E3E7022A13D164
:108D400002685B01D31810220933FF331A70D9E788
:108D50000C2102680933FF33D154D3E702221A7081
:108D6000D0E708221A70CDE7032ACBD102685B0155
:108D7000D318093349B2FF33002902DB20221A70CD
:108D8000C0E740221A70BDE744D4020000230370FC
:108D9000437083700133C3707047C046F0B5CE4650
:108DA00047460F2380B50C78CA782340060064B28A
:108DB000042A1AD8714D9200AA5897468020400084
:108DC0008046175C90388446654654383D4224D12D
:108DD00040462027105C45463843505518003268FD
:108DE000083040011218802010710720E20F5B004C
:108DF0009B18634A4C781B01D3185A682040614C79
:108E00000007224002435A608A78002A00D084E09A
:108E100000205A68520052085A600CBC904699468D
:108E2000F0BD00685A0184466244002C00DA8AE0F2
:108E300080256D00575D1C207F07EED1505D032714
:108E400061E000685A0184466244002C6CDB802596
:108E50006D00575D1C207F07DFD1505D042752E075
:108E60000021026808335B0199540020D5E70268AD
:108E700080205D0140005219175C8146E4387F076D
:108E8000CBD14C467027145D2742C6D14C460B38D7
:108E90001055326808335B01D2182F305071326898
:108EA000D31880221A718B78002B5BD08020344B32
:108EB00000065A19546804435460546920435061B1
:108EC00007224C785D1968682E4E14402407304004
:108ED0002043686049786B690A40120733401A439F
:108EE0006A61002099E700685A0184466244002CB8
:108EF00000DA63E780256D00575D1C207F0700D0F6
:108F00008BE70227505D384350551800326808300F
:108F1000400112184020507167E7802259681206FC
:108F20000A435A60002078E7802040008046175CA2
:108F300090388446654654383D4200D06DE740463F
:108F40004027105C47E7802040008046175C90383F
:108F50008446654654383D4200D05EE7404630279F
:108F6000105C38E7064B58194268520052084260BC
:108F70004269520052084261A2E7C04620D4020072
:108F80003C110020FFFFFF8F0F230B4002680833C6
:108F90005B0149B2985C002905DB4007400F431E86
:108FA0009841C0B270474006400FF8E70F230B40CE
:108FB000083302685B0149B2D218002906DB402160
:108FC00051710268D3180122DA7170478021117142
:108FD0000268D3180222DA71F7E7C0460F230B406C
:108FE000026808335B01D31849B29879002902DB83
:108FF000C006C00F70478006C00FFBE70F230B4071
:10900000026808335B0149B2D318002902DB102241
:109010005A71704720225A71FBE7C0460F230B405C
:1090200049B230B500291BDB832402685901640072
:109030005218155DF63C2C4211D082256D00545516
:109040000268103452180821FF31555C2C4206D0BA
:109050005454026808335B01D31801221A7130BDE1
:1090600083240268590164005218155DE63C2C42C5
:10907000F5D082256D00545502682034521808211D
:10908000FF31555C2C42EAD05454026808335B012E
:10909000D31802221A71E2E770B50D000468083592
:1090A0006D012C5D1C266406640F01D1300070BD7B
:1090B0000A4C490161180C000A614A6908499B047D
:1090C0000A40626162699B0C920B920313436361D5
:1090D000036800265D1980236B71E7E73C110020CF
:1090E000FF3F00F070B50C00056808346401655D51
:1090F0001C266D0701D1300070BD0A4D49014A514F
:1091000069184A68084D9B041B092A4013434B60A9
:109110004B6800269B0B9B034B6003681C19402384
:109120002371E8E73C110020FF3F00F0094B196074
:109130005A6809491140802292020A435A605A68CB
:109140004021920B92035A60822302685B00002048
:10915000D15470473C110020FF3F00F0022102680B
:1091600013780B43137002689378022BFCD070477E
:10917000F0B557464546DE464E46E0B5864C83B0D0
:1091800027683D682B78DB0900D06DE02E8CB6B2E5
:10919000002E36D1AB8BAA229BB29846AB2352004D
:1091A0005B00FB5ABE5A00251E4043461E407B4BC7
:1091B0007B4F9B4680235B009A467A4B994633004F
:1091C000464698466B00FB5A334202D0226812682A
:1091D0009383424613420AD04946062D00D164E3E8
:1091E0002B0022682E339B009B58100098470135B6
:1091F000072DE7D103B03CBC90469946A246AB464A
:10920000F0BD01223C0094465F329346503A002361
:109210009246B946A8465934FF34320061461A4195
:10922000DDB211421BD01F0008377A014244D11D24
:10923000D2790091217A2078D2B21140014058466B
:10924000104200D027E25046104200D04EE20320E8
:10925000104200D063E20C20104200D083E20133C0
:109260000134082BD9D1C5E72B8C002B00D1A1E00C
:10927000288C4D4B80B2984708239846804443463B
:1092800003225B01ED18ED790600EDB22A4214D0FD
:1092900046498C46012189468140604600688843E2
:1092A0000100604601603968C918CA714946BA1997
:1092B000AE321278114200D072E104232B4220D04A
:1092C00023681F689C4643465B019946DB5D9B060D
:1092D0005B0F0093022B00D1BFE13048720143467F
:1092E0005901CB5D82189B065B0F032B00D1BFE1B8
:1092F00000239372634642461B6852019B18042266
:10930000DA7108232B4212D00122B24027490868A3
:109310009043086020684246016852018C466244CE
:10932000D3718319AE331B789B0700D587E11023D7
:109330002B4212D00122B2401C49086890430860B9
:1093400020684246016852018C466244D3718319F9
:10935000AE331B785B0700D562E120222A4200D1A0
:1093600048E70123B3401149086898430860206822
:10937000434601685B018C466344DA718319AE335E
:109380001B781B0700D435E709490E703601861992
:10939000336B98472EE7C046800C00203C1100201C
:1093A00034D40200840C0020555D0200900C002093
:1093B000940C00200423AE8BB6B2334200D180E07F
:1093C000AB83C54B1B689A0711D5902039684000C4
:1093D0000A5C9206520F032A09D10A5C9207920F87
:1093E000012A04D111382432FF38FF3288545A0739
:1093F00011D5A020396840000A5C9206520F032A5A
:1094000009D10A5C9207920F012A04D13138443203
:10941000FF38FF3288541A0711D5B0203968400050
:109420000A5C9206520F032A09D10A5C9207920F36
:10943000012A04D151386432FF38FF328854102198
:1094400019420FD0C02538686D00425D9206520F58
:10945000032A07D1425D9207920F012A02D184327A
:10946000FF3281549A0611D5D020396840000A5C39
:109470009206520F032A09D10A5C9207920F012A21
:1094800004D19138A432FF38FF3288545A0611D5DE
:10949000E020396840000A5C9206520F032A09D185
:1094A0000A5C9207920F012A04D1B138C432FF3806
:1094B000FF3288541B0660D4A523FB5CDB0700D574
:1094C000AAE0082333420AD00021834A20681160B1
:1094D000026893839D33C35C9B0700D599E04023CA
:1094E000334207D02068026893836533C35CDB0690
:1094F00000D58BE02023334206D020680268938396
:109500008533C35C1B077ED41023334206D020680A
:10951000026893839533C35C5B0771D48023334225
:1095200009D000216C4A20681160026893832533BA
:10953000C35C9B0661D480235B001E4209D00021DE
:10954000654A20681160026893835B3BC35C5B06DD
:1095500050D480239B001E4200D14BE600215E4A7E
:1095600020681160026893835C3BFF3BC35C7F2BE8
:1095700000D83FE6036A98473CE6F0213A68490084
:10958000535C9B065B0F032B96D1535C9B079B0F91
:10959000012B91D1D139E433FF39FF33D1548BE71B
:1095A0004E494F480E703A689B5C72019B079B0FB7
:1095B0008218012B00D109E153681B019B0C4B80E1
:1095C00098B2536882469B049B0C8B8053689946E3
:1095D0004846444B184053465060002B03D1536813
:1095E0009B049B0C4B80B31C1B01FB185B68380071
:1095F000984762E6C3699847ABE7836998479AE75B
:10960000C36898478AE7036998477DE743699847A5
:1096100070E78368984762E77B683800984750E7AF
:109620002E4A2F4B710116705B185B6800211B01DD
:109630009B0C53803301C318DB6A98478DE6284B97
:1096400072019B18DA891F23244913404B703301A0
:10965000C3180E709B6A984769E64A46D25D204857
:109660009207920F9246012A00D1F3E0720136E68A
:10967000CB5D9B079B0F012B00D039E60023937233
:10968000634604221B685B18DA7163461B6859182D
:1096900010234B7135E62A00454690465A01AD1815
:1096A00008224020FF32AC5C4F46204200D19AE0B5
:1096B000A8544046883AFF3A02430B488271602220
:1096C0000A4200D196E51B01FB18E0331B680649EE
:1096D000380098478EE5C046900C0020940C00207E
:1096E0003C110020FF3F00F0880C00204F46009AFC
:1096F0001070FA186132FF321278104200D179E509
:109700006E4A5901521852681B016D49FB189204A8
:10971000920CDC330A801B68484698476AE52A00A9
:10972000454690460822022458012D18FF32AE5CAF
:109730004F46344261D0AC544546883A604CFF3ABB
:109740002A43A2715D4A101842699204920C628009
:109750008A0700D14EE50D331B01FB185B685849A1
:109760003800984746E53A0028004F46454691465E
:1097700008220824804658012D18FF32AE5C34427E
:109780004ED0AC544D4A10180222847E224202D0A0
:10979000847E944384768022404652420243484865
:1097A000827138684A46844652016244D2799207EF
:1097B00000D51FE50C220A4200D11BE51B01FB1856
:1097C000D8331B683E493800984713E553689B041B
:1097D0009B0C4B8053681B019B0C8B8053689B0B2D
:1097E0009B035360FFE62020AC5C204200D166E77B
:1097F000A8544046324A907161E7AC5CE407A7D5B3
:109800006446AC5442462E4CA2712C4A1018426851
:109810009204920C228042681201920CA28097E777
:109820000424AE5C3442C5D0AC54244A023C101827
:10983000827A144202D0827AA24382724046204A3F
:10984000907138684A46844652016244D279D20700
:10985000B0D5CFE4720181180B0008219B4601931B
:1098600059448978C90700D439E55246B2401548B1
:109870000168914300229A72634601601B684B4461
:109880001A000423D37163469A19AE321278009BF2
:10989000134200D135E510230B4960464B7033016C
:1098A00063440E709B6A98472BE55B4652461B89C2
:1098B00006491B0913400B6092E4C0463C1100208E
:1098C000880C0020900C0020940C0020840C0020B8
:1098D000002303220370013343708270C37070470A
:1098E000F0B50023CE46474604001600904A80B5E6
:1098F0000D001360216001218E4A83B010608E48F4
:1099000001AF82690A4382617B70FB70063399461E
:109910003B708A4BB97018203900984698474B46DF
:10992000390019203B70C0476A46B3786946137006
:109930000420834B9847834B0420984701222B78BF
:1099400013432B70AB78DB07FCD47F4B1B685B0B9E
:10995000DA43D20600D1E9E01F212A8D7B480B4073
:109960009B01024013432B85774B1B689B0C1940CE
:109970001F2900D1D8E01F212A8D0B408A431343B1
:109980002B85714B1968C90DCB435B0700D1C9E02A
:1099900007222B8D0A406E4912030B4013432B857F
:1099A0007F23297832780B40D201134301222B7098
:1099B00071782B780A40042192008B436548134349
:1099C0002B706862F378012B00D1A5E0002B06D143
:1099D0000C21226813898B4304210B4313818027B8
:1099E0007F005D4E3A000021B047201D202200215B
:1099F0000025B047802320006562A562E5622563EB
:109A00006563A563E56325646564A564E564256510
:109A10006565A565E56525666566A566E5662567F0
:109A20006567A567E567E5500433E5500433E55005
:109A30000433E5500433E5500433E5500433E55076
:109A40000433E5500433E5500433E5540133E55461
:109A500008220021A630B047200008220021AE30A5
:109A6000B04720001C220021B830B047D42320008A
:109A7000E5500433E5500433E5500433E550043336
:109A8000E5500433E5500433E5500433E550043326
:109A9000E5500433E5500433E5500833E551E55013
:109AA0000433E5500433E5500433E5500433E55006
:109AB0000433E5500433E5500433E5500433E550F6
:109AC0000433E5500433E5500433E5500433E550E6
:109AD0000433E5500433E5500433E5500433E550D6
:109AE0000433E5500433E55059300433E55008227F
:109AF00004330021FF30E550B047200061300822D8
:109B00000021FF30B04740220020144B1A6003B000
:109B10000CBC90469946F0BD2268083113898B43EE
:109B200013815CE7032133E71D2324E7052313E7B3
:109B3000900C0020800C00200004004011FD01006A
:109B400015FC010055FC01001C6080003FF8FFFF80
:109B5000FF8FFFFF3C1100201D8A020000E100E0A2
:109B6000802110B5294A53690B43294953610B7869
:109B700010225BB2002B03DB83780732002B01D16C
:109B8000100010BDC4789C42FAD804799C42F7D8E2
:109B90000B78153A93430B708B68002BFCD14378FC
:109BA000002B01D10022EBE78378C278013B002A29
:109BB00026D004220C7822430A70C278013A12019E
:109BC0001343134A91680029FCD1DBB25370037927
:109BD000002B02D0013BDBB2937003780C4A002BC0
:109BE00009D0802113780B431370094B9A68002A1F
:109BF000FCD10022C4E7022311780B431370F4E771
:109C000004240A78A2430A70DBE7C046000400403F
:109C1000001C0040A522034B1A739A68002AFCD14D
:109C20007047C046001C0040012210B5034B9A71DA
:109C3000034B1B68002B00D0984710BD001C004050
:109C40003C120020FEE7C0461449154810B5814279
:109C500009D0144B984206D2C243D218920801325E
:109C60009200114B98471148114B984207D2C243BA
:109C7000D21892080132920000210E4B9847FF2122
:109C80000D4B0E4A8B4393600D4A7F3953680B434B
:109C900053600C4B98470C4B9847FEE76CFF020053
:109CA00000000020900B002099890200900B0020FA
:109CB000845300201D8A02000060000000ED00E0D7
:109CC000004000415189020001290200044A136842
:109CD000002B03D01818106018007047014BF9E7EB
:109CE0009C0C00208873002070B50400012801D965
:109CF000012070BD074DA847032801D12000A847C7
:109D00000028F5D1044B20009847431E984180005D
:109D1000EFE7C046B1820100FD82010010B5064B9D
:109D20009847002806D00323022801D1180010BD4F
:109D3000023BFBE70023F9E7B1820100F0B545469D
:109D4000DE4657464E46E0B51F0083B0194B8046AD
:109D50000D0014009847061E07D1012003B03CBC3B
:109D600090469946A246AB46F0BD134B01A940462A
:109D700098473200019B7A43013373431219042040
:109D80009A42EBD8002F13D073029B467B1C994656
:109D90000A4B01279A4604E00137A4195D444F4558
:109DA00006D02A0021004046D0470028F4D0D4E74E
:109DB0000020D3E7DD820100C58201006D83010030
:109DC000F0B54546DE4657464E46E0B51F0083B027
:109DD000194B80460D0014009847061E07D101203C
:109DE00003B03CBC90469946A246AB46F0BD134B2F
:109DF00001A9404698473200019B7A4301337343DF
:109E0000121904209A42EBD8002F13D073029B46FC
:109E10007B1C99460A4B01279A4604E00137A41996
:109E20005D444F4506D02A0021004046D047002817
:109E3000F4D0D4E70020D3E7DD820100C582010021
:109E40008983010010B5140082B0012920D00029B7
:109E500018D0022907D00420032902D101230020B1
:109E6000136002B010BD0F4B9847431EDBB2012BAD
:109E700004D9FB22031F01201342F2D1002300204A
:109E80002370EEE7084B9847002809D00320E8E745
:109E9000064B01A99847019B002001332360E0E7AE
:109EA0000020DEE7DD820100B1820100C5820100F1
:109EB0000A4B9878DA784005120410431A79D202D6
:109EC00010435A79520110439A791B885208104363
:109ED000034A944663445B061843704728260020D3
:109EE00044F8FFFFF8B5CE4647460A0080B503693F
:109EF0000C000932002B7ED043691D7B290700D559
:109F0000AAE01978202944D0052900D139E122009E
:109F1000617259780A3220293BD0052900D134E1F9
:109F20002200A17299780B32202932D0052900D164
:109F30002DE12200E172D9780C32202929D005299F
:109F400000D126E12200217319790D32202920D079
:109F5000052900D127E12200617359790E322029A9
:109F600017D0052900D122E12200A17399790F327F
:109F700020290ED0052900D11DE12200E173D979F5
:109F80001032202905D0052900D11CE122002174BE
:109F90001132197A202917D02E21561C1170E9068A
:109FA00000D5D1E0197A202900D112E15170597AF7
:109FB000951C202900D10AE19170997AD51C20299D
:109FC00000D104E1D1700432D97A21725D7F197F0A
:109FD0002D020D43997F09040D43D97F09062943BA
:109FE00021605D7E197E2D022943A180D97D9B7D54
:109FF00009020B43E38000231370A769002F08D0E8
:10A00000E369002B05D00369002B06D1002500234E
:10A010007B550CBC90469946F8BD028C6E4B9A421B
:10A02000F4D0C369188898460028EFD06B4B3E00E7
:10A03000002599460BE0E369013BAB42E6D9424675
:10A04000013530706B00D05A01360028DFD0002176
:10A05000C8470028EFD1D9E71978202999D00529D8
:10A0600000D190E00A00413A192A01D82031C9B242
:10A070002200617259780A32202900D189E7052926
:10A0800000D188E00A00413A192A01D82031C9B22A
:10A090002200A17299780B32202900D179E7052995
:10A0A0007BD00A00413A192A01D82031C9B22200D6
:10A0B000E172D9780C32202900D16AE705296ED0E7
:10A0C0000A00413A192A01D82031C9B2220021736D
:10A0D00019790D32202900D15BE7052961D00A00EA
:10A0E000413A192A01D82031C9B222006173597945
:10A0F0000E32202900D14CE7052956D00A00413AFA
:10A10000192A01D82031C9B22200A17399790F32DE
:10A11000202900D13DE705294BD00A00413A192AF0
:10A1200001D82031C9B22200E173D9791032202937
:10A1300000D12EE7052948D00A00413A192A00D952
:10A1400024E72031C9B221E7197A202941D00D0036
:10A15000413D192D31D95170597A951C202936D09D
:10A160000D00413D192D2BD99170997AD51C2029CC
:10A170002DD00D00413D192D00D923E72031C9B262
:10A1800020E7E031C3E6E52172E7E031C8E6E031DF
:10A19000CFE6E031D6E6E5217AE7E52187E7E5215C
:10A1A00094E7E521A1E7E031D5E6E521ACE7E03130
:10A1B000DAE6E521B7E7E031DFE62031C9B2CAE7E8
:10A1C0002031C9B2D0E7E031E0E6E521DEE62A0041
:10A1D000FAE63200F8E6C046FFFF00009DE5000009
:10A1E000F8B54746CE4680B5056B04000F008D429A
:10A1F00004D00379002B11D1002F04D100200CBC16
:10A2000090469946F8BD2100607801233A00343128
:10A21000144DA847002823D12763F0E7342398463C
:10A22000114E8044333B40782A004146B146B04746
:10A23000002815D1236A626A20719A189542DBD2F0
:10A24000E678012E01D8D7E7236AED18013E607841
:10A2500001232A004146F6B2C847012EF4D1CBE7CC
:10A260000120CCE73D9D0000C19D0000F0B54E46A9
:10A270004546DE465746E0B5036883B01D781600B4
:10A28000303D092D02D85A783A2A20D0BB4B1D7890
:10A290000B20002D06D003B03CBC90469946A24648
:10A2A000AB46F0BDB64B1C680C60002C2CD023785C
:10A2B000002B0FD0B34B607898470300C20709D436
:10A2C0000020002EE7D05B0720D50A20E3E7023309
:10A2D0000360DDE70023002023706370AA4B9847DA
:10A2E00003000320DA07D6D4002E01D05B07ECD49C
:10A2F000260034366078012300223100A34DA847A0
:10A30000002805D00120C6E70C20C4E72800C2E7DA
:10A310009F4BA04A9846E35CA75C1B021F439E4BE1
:10A320003FB291469F4201D00D20B4E76A239C467C
:10A33000A44463461A8801935B881B041343974A1D
:10A340001B021B0A9246934200D1D7E086239B460C
:10A35000A344E25A5B465B881B0413431B021B0A9F
:10A36000534500D1CAE0FB235B00E35C002BDBD04C
:10A370002100FD23FB31FF314A785B00E35C1202D0
:10A3800013438A7812041A43CB7831001B06134317
:10A3900000931A0060780123A8470028B2D14346F1
:10A3A000E25C4B46E35C120213431BB2BB42BBD1DF
:10A3B000019B1A885B881B0413431B021B0A53452D
:10A3C00009D08623E25A5B465B881B0413431B02B9
:10A3D0001B0A5345A8D14023E25C013BE35C120217
:10A3E000134380221BB2920093429DD14B23E25C27
:10A3F000013BE35C1202134300D1A36D2362994633
:10A400004423E35C5A1EE370012A8DD84122A15CEB
:10A41000A170002900D187E74A1E114200D083E7CE
:10A4200046224520A25C205C1202104302008246B4
:10A430002081120700D077E748224720A25C205CE9
:10A440001202104300D1606D43224227A25CE75DF7
:10A450001202174300D167E74A465A4353469346D0
:10A460001B09DB195B449846984200D25CE7C01A8E
:10A470004B4B9847002800D156E74A4B984200D8EA
:10A480009CE0494B98425BD9009A023013009446F5
:10A490004344E36253466744E0616762002B00D0A7
:10A4A00042E7236E8000A362404BC3185B0A4B4512
:10A4B00000D939E701235B4223615346E3605346E9
:10A4C000637165236422E35CA25C1B021A43009B58
:10A4D00060789C466244012362613100A8470323EF
:10A4E00000280ED00020324A2370138820630133E5
:10A4F0009BB21380E3802071A061CCE6002300931F
:10A5000069E7234B234AE35CA25C1B021A432249FE
:10A5100012B203238A42E5D1264A616B9142E1D10E
:10A5200086239B00E158244A03239142DAD18822F2
:10A530009200A258E26087229200A2582261D1E7DD
:10A54000009A0230130094464344E3625346674442
:10A55000E0616762002B00D1E6E6144B40005F44E7
:10A56000C318A7625B0A994500D2DDE601235B426E
:10A5700023610023E3600233B4E7C046A00C00204F
:10A58000A40C00201D9D0000E99C00003D9D0000E2
:10A59000330200003202000055AAFFFF464154007A
:10A5A0003D590200F50F0000F5FF0000FF0100001B
:10A5B000A80C00205252614172724161009A02302F
:10A5C000130094464344E36253466744E061676284
:10A5D000002B00D1A8E601230A4902008C46FD3970
:10A5E000FF394843D8401A4062445F441218A762BA
:10A5F000520A914500D297E601225242226100227E
:10A60000E2606FE7FF010000F0B5C64600B5056BDC
:10A610000400002D02D00379002B0DD12378032BE9
:10A620002DD0344B6078002200219847431E98417A
:10A63000C0B204BC9046F0BD0700343701232E4E53
:10A6400040782A003900B047B04603000120002BB3
:10A65000EFD12371626A236A9A189542DED2E678B6
:10A66000012E01D8DAE7236AED18013E6078012354
:10A670002A003900F6B2C047012EF4D1CEE7637943
:10A68000002BCED0250000268022343592000021F8
:10A6900028001A4B266398475522194BE254194B50
:10A6A0005532E254184B194A636386239B00E250EB
:10A6B000872223699200A354154A190AA154154A06
:10A6C000190CA154144A1B0EA354E3680132A3547D
:10A6D000124A190AA154124A190CA154114A1B0E0C
:10A6E000A3542900607801236269034DA84766716D
:10A6F00097E7C046459E0000C19D00001D8A0200EC
:10A700003202000033020000525261417272416114
:10A710001D0200001E0200001F02000021020000B6
:10A720002202000023020000F0B557464546DE46EF
:10A730004E46E0B5037883B004000D001700022BED
:10A7400000D1B2E0032B00D17BE00220012B08D026
:10A750000123237103B03CBC90469946A246AB4608
:10A76000F0BD4E08731800935B0A9946626A236B2A
:10A770009144984699450AD02379002B00D03FE1B7
:10A780004B46002B00D06FE1236B626A9846012193
:10A79000009B0D40DB05DB0DA946002D00D1ADE08F
:10A7A0000F20E31834331D78054038012843187012
:10A7B000009B217101335D0AAD180093454500D11E
:10A7C0006CE134239C46A44463460193614660785F
:10A7D00001234246B34EB047002800D04DE1236A22
:10A7E000626A20719A1842451ED9E2789346012A7E
:10A7F0001AD9424631000098A846260082465C4697
:10A800001500BB460F0000E0336AED18013C70787C
:10A8100001232A000199E4B2B847012CF4D1534630
:10A82000454634005F460093002D00D02CE1009B8C
:10A83000DE054B46F60D002B6ED03F09FFB2A61980
:10A8400073E0436ACE099C46330063441A000093C8
:10A85000036B9846424512D00379002B69D1009BC7
:10A86000002B0CD021001A006078012334318E4E69
:10A870009146B047002800D0FFE04B462363FE23FB
:10A88000AD005B001D402A003432A218D378651950
:10A890001B091B071F433B0A34352F7053703B0CB9
:10A8A0003F0E9370D770002052E7436A0E0A9C4611
:10A8B000330063441A000093036B9846424512D05C
:10A8C0000379002B69D1009B002B0CD021001A00CA
:10A8D000607801233431744E9146B047002800D08F
:10A8E000CBE04B462363FF236D005B001D406519E1
:10A8F00034352F703F0A6F70002029E7E318343396
:10A900001F70009B217101335D0AAD18009345450E
:10A9100000D056E7DE05F60DA61933000F223433BA
:10A920001B783F0A934317401F433436377000208B
:10A930000EE734239B465B4E8344333B40784246CC
:10A940005946B246B047002800D096E0236A626AB2
:10A9500020719A18904582D2E2789146012A00D857
:10A960007DE7009A2900454690463A0026005F465A
:10A970004C469346894600E0336AED18013C7078F6
:10A9800001232A003900E4B2D047012CF4D1434618
:10A99000340000934D465F4661E734239B46414EA9
:10A9A0008344333B407842465946B246B04700287C
:10A9B00063D1236A626A20719A18904583D2E27843
:10A9C0009146012A00D87EE7009A29004546904624
:10A9D0003A0026005F464C469346894600E0336ABB
:10A9E000ED18013C707801232A003900E4B2D04709
:10A9F000012CF4D14346340000934D465F4662E794
:10AA000034239C46A4446346019361466078012345
:10AA10004246244EB04700282FD1236A626A207133
:10AA20009A18904500D3ABE6E2789346012A00D805
:10AA3000A6E632000099AA46260045465C468846AE
:10AA4000BB46170000E0336AED18013C7078012323
:10AA50002A000199E4B2B847012CF4D143463400EE
:10AA6000009355465F468BE62100607801234A46F5
:10AA700034310D4EB047002801D0012068E64B4626
:10AA8000626A2363C84682E6607801232A0001993E
:10AA9000054EB0470028F0D12563C8E6009BDE05CF
:10AAA000F60DCAE6C19D00003D9D0000F0B5574679
:10AAB0004E46DE4645460400E0B5C74B85B09A4693
:10AAC000E3690E009E4200D387E0012E6FD9237800
:10AAD000022B00D183E0032B40D0012B07D00120B3
:10AAE00005B03CBC90469946A246AB46F0BD750801
:10AAF000AD196B0A9846626A236B90441F00984513
:10AB00000AD02379002B00D002E14346002B00D06D
:10AB100088E0236B626A1F00EB05DB0DE31834331A
:10AB20001B78013598466B0A99469144B94507D080
:10AB30002379002B00D02CE14B46002B00D01BE1E9
:10AB40004246ED05ED0D651934352B781B02134394
:10AB50001D09F20724D41D052D0D21E0636AF509B6
:10AB60009C46236B65449B469D4204D02379002B71
:10AB700073D1002D65D1FE22B300520013401A009C
:10AB80003432A218D5789178E31834331B782D0627
:10AB900009040D431D4353781B021D432D012D094C
:10ABA000002D1AD0012D02D0E3699E4201D302206C
:10ABB00096E7002231002000884B9847002800D0FB
:10ABC0008EE723695A1C03D001332361012363718B
:10ABD000E3692E009E4200D277E7002080E7636A97
:10ABE000350A9C46276B6544BD4204D02379002B6F
:10ABF00062D1002D0AD1FF22730052001340E318E6
:10AC000034335D781B782D021D43C9E7210060783D
:10AC100001232A003431724FB847002800D05EE784
:10AC20002563E8E7210060780123424634316C4F08
:10AC3000B847002800D052E74346626A236347467C
:10AC40006AE72100607801232A003431644FB84755
:10AC5000002800D043E725638DE734239946A144BB
:10AC60006078333B5A4649465B4FB847002800D0CE
:10AC700035E7236A626A20719A18934500D378E712
:10AC8000E278012A00D874E72100A8465C46170044
:10AC9000CB460D00B14600E02B6AE418013F68780E
:10ACA0000123220059464C4EFFB2B047012FF3D189
:10ACB0002C004E4645465CE734239946A144607813
:10ACC000333B3A004946D047002800D007E7236AC3
:10ACD000626A20719A1897428BD2E278012A88D949
:10ACE00021003C0017003200A8464E460D00914658
:10ACF00000E02B6AE418013F68780123220031004C
:10AD0000FFB2D047012FF4D12C004E46454670E7E4
:10AD100034239B46B946A3443A002F4F6078333B17
:10AD200059460197B847002800D0D8E62071484618
:10AD3000236A626A9A18904200D3E6E6E278012A12
:10AD400000D8E2E6210004005846A94617000D008D
:10AD50000290B346010001E02B6A0299E418013F1A
:10AD6000687801232200019EFFB2B047012FF3D182
:10AD70002C005E464D46C8E62100607801234A4615
:10AD80003431174FB847002800D0A8E64B4623635C
:10AD9000D6E634239C46A4446146BB463A000E4F97
:10ADA0006078012302910197B847002800D096E609
:10ADB000236A626A20719A1858465A4500D8BBE641
:10ADC000E2789346012A00D8B6E622005F460400E6
:10ADD000AB460396150006E0C19D000029A70000C0
:10ADE0003D9D00002B6AE418013F68780123220092
:10ADF0000299019EFFB2B047012FF3D12C00039EB0
:10AE00005D4699E6F0B54546DE4657464E46E0B506
:10AE1000037885B004000D00022B00D174E0032BF1
:10AE200044D0012B08D00120404205B03CBC9046E4
:10AE30009946A246AB46F0BD4E08731801935B0AD3
:10AE40009A46426A076B9244BA4509D00379002BAF
:10AE500000D0AAE05346002B00D008E1626A276BBD
:10AE60000199CB05DB0DE31834331B789A460B00B0
:10AE7000013301935B0A99469144B94507D0237980
:10AE8000002B00D00FE14B46002B00D0FEE05246D5
:10AE9000019BDE05F60DA419343423781B021343FD
:10AEA0001809EA07C1D41805000DBEE7436ACE09A8
:10AEB0009C46036B66449B469E420FD00379002B51
:10AEC00000D0A4E0002E09D02100607801233200D8
:10AED0003431904FB8470028A5D12663FE23AD003A
:10AEE0005B001D402B003433E318D8789A7864193E
:10AEF00012040006343410435B7822781B0210439E
:10AF000018430001000990E7436A0E0A9C46036B50
:10AF100066449B469E420FD00379002B17D1002E2A
:10AF20000AD021006078012332003431794FB847CC
:10AF3000002800D077E72663FF236D005B001D40EB
:10AF400064193434637820781B0218436DE7342386
:10AF50009A46714F8244333B40785A465146B84630
:10AF6000B847002800D05EE7236A626A20719A1809
:10AF70009345D4D2E2789146012AD0D92A004F468F
:10AF80002500B1465C465646924600E02B6AE4181E
:10AF9000013F6878012322003100FFB2C047012F32
:10AFA000F4D12C004E465546B9E734239B465A4E01
:10AFB0008344333B40783A005946B046B0470028B6
:10AFC00000D030E7236A626A20719A18974200D352
:10AFD00040E7E2789146012A00D83BE72A00019930
:10AFE00025005E463C0093464F46894600E02B6AAA
:10AFF000E418013F6878012322003100FFB2C04706
:10B00000012FF4D14B462C0001935D4622E73423F7
:10B010009A46414F8244333B40785A465146B8469F
:10B02000B847002800D0FEE6236A626A20719A18A9
:10B03000934500D346E7E2789146012A00D841E7DC
:10B040002A004F462500B1465C465646924600E02F
:10B050002B6AE418013F6878012322003100FFB217
:10B06000C047012FF4D12C004E4655462AE7210057
:10B070006078012352463431264FB847002800D06B
:10B08000D1E65346626A23635746E9E621006078B9
:10B0900001234A4634311F4FB847002800D0C2E68A
:10B0A0004B462363F3E634239C46A44461461A4E80
:10B0B000607801233A000291B046B047002800D0E2
:10B0C000B1E6236A626A20719A18BA4200D8DAE6B9
:10B0D000E2789346012A00D8D5E652460392019AB7
:10B0E000029E92462A0025003C005F46934600E0FF
:10B0F0002B6AE418013F6878012322003100FFB277
:10B10000C047012FF4D153460193039B2C009A466C
:10B110005D46B8E63D9D0000C19D0000F8B5050004
:10B12000E9800C008168012903D00068C369994255
:10B1300001D30220F8BD002918D10278032A12D0C9
:10B140000023EB600389A342F3D9826A2309944662
:10B150009BB263442B610F231C40343064010019FF
:10B1600068610020E6E7816A0029E9D08678360127
:10B17000B44217D3A41BA4B2134F0EE0B84701008A
:10B18000431C1FD00128D4D92868C3698B42D0D969
:10B19000A21B92B2A64205D814000129C9D999422E
:10B1A000C7D2EBE7E960C3690239023B002299424A
:10B1B00003D283785943C36ACA18210989B289180E
:10B1C0002961C8E70120B5E705AE0000F0B5574694
:10B1D0004546DE464E46E0B58A4685B00500002964
:10B1E0001DD1C3689B46002B28D101229346C36919
:10B1F0005C465F46D34601349C4225D3012F00D8DC
:10B2000076E1022B11D92B780224022B21D0032BBB
:10B2100000D17FE0012B42D00124644206E00129E5
:10B2200003D9C369994200D264E10124200005B02A
:10B230003CBC90469946A246AB46F0BDC3699B45CF
:10B24000D6D301229346D3E7012CEED92B78022BDB
:10B25000DDD16B6A260A9C46330063441A000093D2
:10B260002B6B9846424506D02B79002B00D00BE182
:10B27000009B002B75D1FF2362005B001A40AA18C7
:10B2800034325178137809020B43002B00D178E156
:10B29000012BCAD0A74200D12AE1EB69ABE76608CF
:10B2A000331900935B0A99466A6A2B6B914498465E
:10B2B000994509D02B79002B00D0AFE04B46002BED
:10B2C0006BD12B6B6A6A98460099CB05DB0DEB18A6
:10B2D00034331B789A460B00013300935B0A99467E
:10B2E0009144C14507D02B79002B00D01BE14B4680
:10B2F000002B00D00AE1009BDE055346F60DAE1987
:10B300003436327812021A431309E107BDD413050B
:10B310001B0DBAE76B6AE6099C46330063441A00CA
:10B3200000932B6B9846424505D02B79002B43D1D7
:10B33000009B002B23D1FE23A2005B001A401100CA
:10B3400034316918CB788878AA18343212781B0601
:10B350000004034313434A78120213431B011B09E1
:10B3600093E729001A006878012334319A4E9046F9
:10B37000B047002800D04FE743462B637BE7290006
:10B380001A00687801233431934E9146B047002863
:10B3900000D041E74B462B63CDE7290068780123B5
:10B3A0004A4634318C4EB047002800D034E74B4633
:10B3B0006A6A2B63C84687E734239A46AA446878AA
:10B3C000333B42465146854EB047002800D023E724
:10B3D0002B6A6A6A28719A189045A9D2EA78914630
:10B3E000012AA5D952460192009A2E00A24645464E
:10B3F0004C46B846914600E0336AED18013C70783F
:10B4000001232A000199754FE4B2B847012CF3D10A
:10B410004B46474654463500009389E734239C4603
:10B42000AC4463466D4E0293687861460123424600
:10B430000196B047002800D0EEE62B6A6A6A2871B0
:10B440009A18904500D339E7EA789246012A00D845
:10B4500034E72200009954462E0003974546924651
:10B46000884600E0336AED18013C707801232A0019
:10B470000299019FE4B2B847012CF3D14346039FE0
:10B4800054463500009319E734239A46AA44687855
:10B49000333B42465146514EB047002800D0BBE6F0
:10B4A0002B6A6A6A28719A18904500D3E0E6EA7818
:10B4B0009146012A00D8DBE652460192009A2E00FE
:10B4C000A24645464C46B846914600E0336AED1820
:10B4D000013C707801232A000199404FE4B2B8473B
:10B4E000012CF3D14B464746544635000093BFE646
:10B4F00000249BE63A4B98470400012800D894E6C4
:10B50000EB69D346834200D872E68FE6290068785B
:10B5100001234A463431304EB047002800D07BE644
:10B520004B462B63E7E634239C46AC4461462B4EE6
:10B5300068780123424602910196B047002800D066
:10B540006AE62B6A6A6A28719A18424500D8CEE6E4
:10B55000EA78012A00D8CAE6039717002200444679
:10B56000904600E02B6AE418013F6878012322002E
:10B570000299019EFFB2B047012FF3D1039F4446C9
:10B58000B5E6EB69A34200D84FE6164A2100280031
:10B59000154EB04700281AD15B46002B0DD05B46F4
:10B5A000012B00D841E6EB699B4500D33DE6220024
:10B5B00059462800B047002809D12B69EC605A1C75
:10B5C00000D133E6013B2B6101236B712EE601288C
:10B5D00000D121E629E6C0463D9D0000C19D000046
:10B5E00005AE0000FFFFFF0F29A7000070B5C4885B
:10B5F00005000134A4B2002C01D1042070BD036900
:10B60000002BFAD00F26264007D00368343376018A
:10B610009E19EC806E610020F0E7C1680133036180
:10B62000036800290BD09A782009013A1042EDD125
:10B63000012902D9DA69914205D30220DEE71A898D
:10B64000A242DAD9E2E718000C4B98470128F4D956
:10B65000431C10D02B68DA699042CED2E860DA69D8
:10B660000238023A0021904203D29A785043DA6AB3
:10B6700081182961CAE70120C0E7C04605AE000075
:10B68000F0B557464E464546DE46E0B50669FF230F
:10B690000500370085B0046802930193236B1A00FC
:10B6A000BB4210D02379002B00D0C8E0002F0AD075
:10B6B0002100607801233A003431C04EB0470028A1
:10B6C00000D0EAE027636C692378002B10D03F227A
:10B6D000E17A0A40E52B04D0090722D50F2A00D1D0
:10B6E000DDE0FF230193EE880136B6B2002E07D1CC
:10B6F000042005B03CBC90469946A246AB46F0BD3E
:10B700002F69002FF4D00F233340984600D10EE16B
:10B710002C6843465A01230034339B18EE806B613A
:10B72000BCE70F2A00D1BAE0019A002A46D15A0894
:10B73000DB01134362789B18DAB25208DB011A432B
:10B74000A378D2B2D218D3B25B08D2011343E27805
:10B75000DBB29B18DAB25208DB011A432379D2B26A
:10B76000D218D3B25B08D20113436279DBB29B18C3
:10B77000DAB25208DB011A43A379D2B2D218D3B29B
:10B780005B08D2011343E279DBB29B18DAB25208AC
:10B79000DB011A43237AD2B2D218D3B25B08D201AA
:10B7A0001343627ADBB29B18DAB25208DB0113430F
:10B7B000A27A9B18029ADBB293423ED001235B42ED
:10B7C0002B84AB69DA7AD20700D58AE721781A7818
:10B7D000914200D085E761785A78914200D080E7A5
:10B7E0009978A278914200D07BE7E178DA789142AB
:10B7F00000D076E721791A79914200D071E761791A
:10B800005A79914200D06CE7A1799A79914200D09F
:10B8100067E7E179DA79914200D062E7217A1A7A12
:10B82000914200D05DE7617A5A7A914200D058E7A0
:10B83000A27A9B7A9A4200D053E7002059E734233A
:10B840009A465F4EA2446078333B51469046B346D9
:10B85000B047002821D120714046236A626A9A18B5
:10B86000904200D322E7E278012A00D81EE7A946D9
:10B87000B846250016000400574600E02B6AE4187D
:10B88000013E6878012322003900F6B2D847012E24
:10B89000F4D12C0047464D4608E7012029E7EE6920
:10B8A000002E00D11FE740221A423BD0617B934318
:10B8B00002910193EB882B84637B029A934200D020
:10B8C0000FE740222378AB469343013B5A00D2183E
:10B8D0009200D3183B4A012092463B4A00279146EA
:10B8E000B0461D0004E04B4564D101370D2F36D022
:10B8F0005346DA5DA3185B78A25C1B021343002851
:10B90000F1D01800314B98470390FE2D52D8434692
:10B910006E1C6D00E85A2D4B9847039B834249D11A
:10B920003500E2E7019A934200D0DAE6C4E7E9681D
:10B9300001372F612C68002904D12389B34200D834
:10B94000D6E6E6E6A3783209013B1A4200D0E0E6EB
:10B95000012902D9E369994213D30220C9E6237869
:10B96000290046465D465A0606D5002804D04B00FD
:10B970009B5B002B00D0B4E6019F013FFBB201931B
:10B98000B1E62000124B98470128E6D9431C84D029
:10B990002C68E369984200D3AAE6E860E3690238BC
:10B9A000023B0027984203D2A3785843E36AC718A2
:10B9B0002F61AEE6FF235D46019394E63D9D0000B6
:10B9C000C19D000048D40200FFFF0000DDE500003B
:10B9D00005AE0000F0B5DE46454657464E46E0B59A
:10B9E0000B7883B083460D002F2B00D192E15C2BA6
:10B9F00000D18FE15A4603689B6993602B781F2B17
:10BA000000D88FE1BD4B9A4628782F2801D05C28BA
:10BA100001D10135F8E75B46DB6980B298461F2803
:10BA20002CD92F282AD05C2828D01F008023012160
:10BA30005B006E1C01249946D04700281ED07F2849
:10BA400009D822281AD02A23AD4A984216D00132AA
:10BA50001378002BF9D138803078631C1F2800D868
:10BA6000DEE02F2812D05C2810D0023701364B457B
:10BA700004D001211C00D0470028E0D1062003B0EB
:10BA80003CBC90469946A246AB46F0BDED18002757
:10BA90002023012C00D1C9E0022C00D10CE1994BEC
:10BAA000E3185B0043441A88202A01D02E2A04D1CF
:10BAB000013C023B002CF6D1E0E700234146620046
:10BAC0008B525B4620219B69002619705970997032
:10BAD000D970197159719971D97119725972997214
