S010000042524943345F76312E73726563BA
S214000000C86D002015710000A9710000A9710000DC
S21400001000000000000000000000000000000000DB
S214000020000000000000000000000000A9710000B1
S2140000300000000000000000A9710000A971000087
S214000040A97100005112000001520000BD4B0000D3
S214000050A9710000A9710000D50F0000A971000069
S214000060C5630000DD630000F56300000D6400005A
S214000070256400003D640000A9710000A97100001D
S214000080A9710000FD690000116A00000000000070
S21400009000000000256A0000A9710000A971000098
S2140000A0A9710000A9710000A9710000A9710000E3
S2140000B00000000010B5064C2378002B07D1054B36
S2140000C0002B02D0044800E000BF0123237010BDBF
S2140000D0780C002000000000EC720200084B10B5FF
S2140000E0002B03D00749084800E000BF0748036814
S2140000F0002B00D110BD064B002BFBD09847F9E72C
S214000100000000007C0C0020EC720200EC72020082
S2140001100000000080B584B000AF78607B681B6884
S214000120BB607B68DB6A1B78DAB20E23FB181A808A
S2140001307B68DB6A5A1C7B68DA627B689B79012BDA
S21400014013D17B68DB6A1B78DBB21B021AB20E2364
S214000150FB1800215B5E13431AB20E23FB181A80AD
S2140001607B68DB6A5A1C7B68DA620E23FB181B88E6
S214000170DB05DA0DBB689A627B689B8E9BB2013BFF
S2140001809AB27B689A86C046BD4604B080BD000021
S21400019080B584B000AF78607B681B68FB60084B56
S2140001A01B881A00FB689A627B685B8E9BB2013BD9
S2140001B09AB27B685A86C046BD4604B080BDC0462B
S2140001C0480E002080B584B000AF78607B681B685E
S2140001D0FB600A23FB1800221A80FB689A6A0A232F
S2140001E0FB181A807B685B8E9BB2013B9AB27B68D9
S2140001F05A86C046BD4604B080BD80B584B000AF08
S21400020078607B681B68FB60FB689B6A9AB20A236F
S214000210FB18D205D20D1A807B689B6A0A22BA1890
S2140002201288D2B21A707B689B6A5A1C7B689A62E4
S2140002307B689B79012B0DD17B689B6A0A22BA18D2
S2140002401288120A92B2D2B21A707B689B6A5A1C43
S2140002507B689A627B681B8E9BB2013B9AB27B6876
S2140002601A86C046BD4604B080BD000080B586B084
S21400027000AF0200FB1D1A70FB1D1A78B94B9200E6
S214000280D3587B617B691B683B617B6937229A5C2C
S2140002907B693621595C0F23FB180A401A703B69AC
S2140002A01B7EDAB20C23FB181A803B699B7DDBB2FF
S2140002B09AB20C23FB180C21791809880A401A8078
S2140002C00C23FB181B880122134041D07B695B7905
S2140002D0012B10D17B695B7ADBB2002B0BD17B69DB
S2140002E01800A14B98477B695B8E9BB2002B02D10E
S2140002F03B6901221A757B695B79012B04D17B6906
S2140003005B7ADBB2002B08D17B695B79002B1FD1AF
S2140003107B695B7ADBB2002B1AD07B691800934BA3
S21400032098477B699B8E9BB2002B11D13B690122BB
S2140003301A757B695B7ADBB2012B09D17B69DB79A5
S21400034001225340DBB2002B02D03B6902229A7591
S2140003500C23FB181B880422134000D17EE03B6967
S2140003605B8B9BB21A000423134022D07B695B7A16
S214000370DBB2012B14D07B6938221E2199547B698D
S21400038003225A723B6905221A750F23FB181B7845
S2140003900822134004D07B699B697A69100098474D
S2140003A03B699A6A0A23FB181A803B6904225A831F
S2140003B054E07B695B7ADBB2012B1ED17B691800A7
S2140003C06B4B98477B695B8E9BB2002B46D13B6993
S2140003D004221A757B693822002199547B6903220E
S2140003E05A720F23FB181B780122134036D07B6904
S2140003F0DB687A691000984730E07B6918005D4B2F
S21400040098477B691B8E9BB2002B27D17B693822CD
S214000410002199543B6904221A757B695B7ADBB22A
S214000420022B0BD10F23FB181B780422134015D088
S2140004307B695B697A69100098470FE07B695B7A95
S214000440DBB2002B0AD10F23FB181B7802221340C5
S21400045004D07B691B697A69100098470C23FB1847
S2140004601B880222134046D07B695B79002B1DD186
S2140004703B6907221A753B6902221A767B690322BA
S2140004805A727B6900229A867B6900221A867B69EB
S2140004903822002199540F23FB181B781022134092
S2140004A004D07B69DB697A69100098477B695B79C1
S2140004B0012B20D17B695B7ADBB2012B1BD17B69D8
S2140004C0DB7901225340DBB2002B14D03B690222B9
S2140004D01A757B6903225A727B6938220021995467
S2140004E00F23FB181B780122134004D07B69DB68BE
S2140004F07A69100098470C23FB181B8808221340C3
S21400050014D07B695B79002B10D13B6908221A75E1
S2140005103B6908221A760F23FB181B78202213400B
S21400052004D07B691B6A7A69100098470C23FB1875
S2140005301B888022134010D03B6980221A753B69C5
S21400054080221A760F23FB181B784022134004D013
S2140005507B695B6A7A6910009847C046BD4606B05C
S21400056080BDC04624120020910100001501000045
S214000570C5010000FB01000080B582B000AFC04B93
S2140005801B681B681B8C9BB2002B0AD0BC4B1B68DD
S2140005901B681B8C9BB21A00BA4B100098470300CE
S2140005A000E020237B607B681F2B00D974E1B44BEE
S2140005B01B681A687B6808335B01D31807331B78FF
S2140005C0DBB23B603B680322134000D188E0012287
S2140005D07B689A401300DB431A00AB4B1B681A403B
S2140005E0A94B1A60A64B1B681A687B6808335B0128
S2140005F0D318073303221A70A14B1A68AE217B6802
S214000600D3185B181B781A000123134068D07B6848
S214000610DAB29E4B1A709A4B1B681B687A680832CF
S2140006205201D35C9B079B0FDBB2012B1ED1984A6D
S2140006307B685B01D3185B689B049B0C9BB21A001B
S214000640924B5A80924A7B685B01D3185B681B0109
S2140006509B0C9BB21A008D4B9A808D4A7B685B017F
S214000660D3185A68920B92035A602CE0884A7B682B
S2140006705B01D3185B681B019B0C9BB21A00834B73
S2140006805A80834A7B685B01D3185B689B049B0C8B
S2140006909BB21A007D4B9A807D4A7B685B01D3181B
S2140006A05A687C490A405A60784B5B88002B0AD10E
S2140006B0774A7B685B01D3185B689B049B0C9BB2F4
S2140006C01A00724B5A806E4B1A687B6802331B0105
S2140006D0D31804331A686A4B1B686C491800904795
S2140006E03B680422134014D001227B689A40130012
S2140006F0DB431A00644B1B681A40634B1A60604B5E
S2140007001B681A687B6808335B01D318073304221A
S2140007101A703B68082213403CD001227B689A403E
S2140007201300DB431A00584B1B681A40564B1A60DE
S214000730534B1B681A687B6808335B01D318073372
S21400074008221A704E4B1A68AE217B68D3185B18C5
S2140007501B781A00022313401CD07B68DAB24B4B7E
S2140007601A704B4A7B685B01D3180E331B889BB20A
S214000770DBB21F221340DAB2444B5A70404B1A6861
S2140007807B681B01D31828331A683D4B1B683F490A
S214000790180090473B68102213403AD001227B682D
S2140007A09A401300DB431A00374B1B681A40364B3F
S2140007B01A60334B1B681A687B6808335B01D318D2
S2140007C0073310221A702E4B1A68AE217B68D31896
S2140007D05B181B781A00042313401AD07B68DAB221
S2140007E02A4B1A702A4A7B685B01D3185B681B0188
S2140007F09B0C9BB21A00254B5A80214B1A687B68CB
S2140008001B01D3182C331A681D4B1B6800211800D7
S21400081090473B682022134000D112E101227B68FA
S2140008209A401300DB431A00174B1B681A40164BFE
S2140008301A60134B1B681A687B6808335B01D31871
S214000840073320221A700E4B1A68AE217B68D31825
S2140008505B181B781A000823134000D1F1E07B6870
S214000860DAB20A4B1A70064B1A687B681B01D3185B
S21400087030331A68024B1B68044918009047E0E0C2
S214000880940C002061E30100AC0C0020980C0020C2
S2140008904C0E0020FF3F00F06C4B1B681B689B8BC8
S2140008A09BB23B603B680422134013D0674B1B6827
S2140008B01B6804229A83654B1B68A5229B5C1A0062
S2140008C00123134006D0614B1B685A685F4B1B68B8
S2140008D0180090473B680822134016D05C4B002255
S2140008E01A605A4B1B681B6808229A83574B1B6872
S2140008F0A5229B5C1A000223134006D0534B1B68AC
S2140009009A68524B1B68180090473B684022134079
S21400091013D04E4B1B681B6840229A834B4B1B68B8
S214000920A5229B5C1A001023134006D0474B1B6879
S2140009305A69464B1B68180090473B6820221340B4
S21400094013D0424B1B681B6820229A833F4B1B68C0
S214000950A5229B5C1A000823134006D03B4B1B685D
S2140009601A693A4B1B68180090473B6810221340E0
S21400097013D0364B1B681B6810229A83334B1B68B8
S214000980A5229B5C1A000423134006D02F4B1B683D
S214000990DA682E4B1B68180090473B68802213408D
S2140009A016D02B4B00221A60284B1B681B6880222F
S2140009B09A83264B1B68A5229B5C1A0020231340B3
S2140009C006D0224B1B689A69204B1B68180090477C
S2140009D03A6880235B00134017D01D4B00221A6034
S2140009E01A4B1B681B68802252009A83174B1B68A1
S2140009F0A5229B5C1A004023134006D0134B1B68AD
S214000A00DA69124B1B68180090473A6880239B00EF
S214000A10134016D00E4B00221A600C4B1B681B6846
S214000A20802292009A83094B1B68A5229B5C5BB2CE
S214000A30002B06DA054B1B681A6A044B1B68180065
S214000A409047C046BD4602B080BDC046940C00200C
S214000A50AC0C002080B584B000AFBD4B1B681A6894
S214000A600823FB18128C1A800823FB181B88002BFF
S214000A7055D1B74B1B681A68BB1D928B1A80B44BB6
S214000A801A68AB235B00D35ABA1D128813409AB279
S214000A90AF4B1968AA235B00C95A3B1D0A401A804F
S214000AA00023FB6037E0AB4BFA685200D35ABA1DFE
S214000AB0128813409BB2002B07D0A54B1B681B68FF
S214000AC0A44AF96849008A5A9A83A24BFA685200E7
S214000AD0D35A3A1D128813409BB2002B18D0FB68DD
S214000AE0062B0AD19C4B1B895B045B0D9BB21A003C
S214000AF080235B001A40994B1A60954B1B68FA6876
S214000B002E329200D258924B1B6894491800904798
S214000B10FB680133FB60FB68062BC4DD50E20B2349
S214000B20FB1800221A703BE20823FB181A880B23D6
S214000B30FB181B781A4113000122134000D128E24B
S214000B40834B1B681A680B23FB181B7808335B0162
S214000B50D31807331B78DAB2BB1D1A807C4B196892
S214000B600B23FB181A78B0235B008A18D3181B785F
S214000B709BB2BA1D128813409BB21AB2744B186807
S214000B800B23FB181978AC235B004118CB181B7895
S214000B901BB213401AB23B1D1A80BB1D1B88602275
S214000BA013405CD06A4B1B681A680B23FB181B7833
S214000BB008335B01D31807331B78DBB21A004023D7
S214000BC0134015D0624B1B681A680B23FB181B7862
S214000BD008335B01D318073340221A700B23FB1827
S214000BE01B78802252421343DAB25D4B9A7120E0A2
S214000BF0574B1B681A680B23FB181B7808335B01DE
S214000C00D31807331B78DBB21A002023134010D00A
S214000C104F4B1B681A680B23FB181B7808335B01C5
S214000C20D318073320221A704D4B0B22BA181278AD
S214000C309A713B1D1B886022134000D1B7E1444BDC
S214000C401A680B23FB181B78E0211B01D3185B18CE
S214000C501A683F4B1B68424918009047A7E1BB1D26
S214000C601B881022134038D0394B1B681A680B2398
S214000C70FB181B7808335B01D318073310221A7051
S214000C80334B19680B23FB181A78B0235B008A18BD
S214000C90D3181B7810221340DBB2002B00D188E15A
S214000CA00B23FB181B782C4A5B01D3185B689B044C
S214000CB09B0C9BB21A002A4B1A80254B1A680B23F2
S214000CC0FB181B78DC211B01D3185B181A68204B15
S214000CD01B682349180090476BE1BB1D1B88032245
S214000CE0134000D18FE01A4B1B681A680B23FB18C1
S214000CF01B7808335B01D31807331B78DBB21A0066
S214000D00022313402ED0124B1B681A680B23FB18C5
S214000D101B7808335B01D318073302221A700B23A3
S214000D20FB181B78802252421343DAB20C4B9A719E
S214000D300B23FB181B78084A5B01D31810335B683B
S214000D409B049B0C9BB21A00054B5A8045E0C0469C
S214000D50940C0020E45002004C0E0020A00C002052
S214000D60A40C0020984B1B681A680B23FB181B78F2
S214000D7008335B01D31807331B78DBB21A00012354
S214000D8013402AD0904B1B681A680B23FB181B785D
S214000D9008335B01D318073301221A708B4B0B22E2
S214000DA0BA1812789A710B23FB181B78884A5B01D5
S214000DB0D3185B689B049B0C9BB21A00834B1A806B
S214000DC00B23FB181B78824A5B01D3185B681B0158
S214000DD09B0C9BB21A007D4B9A803B1D1B880322FE
S214000DE0134000D1E7E0784B1A680B23FB181B78FA
S214000DF00D331B01D31804331A68734B1B687349F1
S214000E0018009047D7E0BB1D1B880C22134000D16A
S214000E10BFE06D4B1B681A680B23FB181B78083362
S214000E205B01D31807331B78DBB21A000823134084
S214000E3047D0654B1B681A680B23FB181B780833D2
S214000E405B01D318073308221A700B23FB181B7894
S214000E505F4A5B01D3181A331B78DBB21A000223F1
S214000E60134014D00B23FB181B780B22BA181278E9
S214000E70574952018A181A321278D2B202218A438E
S214000E80D1B2534A5B01D3181A330A1C1A700B23CB
S214000E90FB181B78802252421343DAB24B4B9A71EE
S214000EA0494B1B681A680B23FB181B7808335B0139
S214000EB0D31807331B78DBB21A000223134053D033
S214000EC07EE0414B1B681A680B23FB181B7808331F
S214000ED05B01D31807331B78DBB21A0004231340D8
S214000EE042D0394B1B681A680B23FB181B78083353
S214000EF05B01D318073304221A700B23FB181B78E8
S214000F00334A5B01D3180A331B78DBB21A0002237C
S214000F10134014D00B23FB181B780B22BA18127838
S214000F202B4952018A180A321278D2B202218A4319
S214000F30D1B2274A5B01D3180A330A1C1A70234B16
S214000F400B22BA1812789A711F4B1B681A680B236B
S214000F50FB181B7808335B01D31807331B78DBB20A
S214000F601A000123134028D13B1D1B880C22134076
S214000F7025D0154B1A680B23FB181B78D8211B01AC
S214000F80D3185B181A68104B1B6810491800904756
S214000F9015E00B23FB181A780B23FB1801321A7086
S214000FA00B23FB181B78072B00D8BDE508E0C046CE
S214000FB006E0C04604E0C04602E0C04600E0C04688
S214000FC0BD4604B080BDC046940C0020A40C002092
S214000FD04C0E002080B500AF084B1B681B681B78C2
S214000FE01B06DB0FDBB2002B02D0054B984701E057
S214000FF0044B9847C046BD4680BDC046940C0020B2
S21400100079050000550A000080B582B000AF0200E6
S2140010103960FB1D1A70FB1D1B78042B27D89A001D
S214001020164BD3181B689F46154B154A51693A68EC
S2140010300A435A611DE0124B114A91693A680A4305
S2140010409A6116E00E4B0E4AD1693A680A43DA6195
S2140010500FE00B4B0A4A116A3A680A431A6208E024
S214001060074B074A516A3A680A435A6201E0172357
S21400107000E000231800BD4602B080BDF450020018
S2140010800004004080B582B000AF064B7B607B68F2
S2140010909B68002B01D0012300E000231800BD460A
S2140010A002B080BD001C004080B582B000AF074B88
S2140010B07B607B681B78DBB21A00802313405A1EC5
S2140010C09341DBB21800BD4602B080BD001C004054
S2140010D080B584B000AF7860474BBB6080210020AD
S2140010E0464B9847464B9847031E01D010237EE098
S2140010F07B689B78002B01D1172378E07B689A7871
S2140011007B68DB789A4205D37B689A787B681B7984
S2140011109A4201D217236AE0BB681B78DBB2022230
S2140011209343DAB2BB681A70C046364B9847031E24
S214001130FBD17B685B7801225340DBB2002B01D0E9
S214001140002354E00023FB607B689B78013B1A0079
S214001150FB681343FB607B68DB78002B10D0BB6812
S2140011601B78DBB204221343DAB2BB681A707B68C2
S214001170DB78013B1B011A00FB681343FB6007E0AA
S214001180BB681B78DBB204229343DAB2BB681A70E2
S214001190C0461C4B9847031EFBD1FB68DAB2BB68FF
S2140011A05A707B681B79002B05D07B681B79013B46
S2140011B0DAB2BB689A707B681B78002B09D0BB68D4
S2140011C01B78DBB2802252421343DAB2BB681A7035
S2140011D007E0BB681B78DBB202221343DAB2BB68B7
S2140011E01A70C046074B9847031EFBD10023180011
S2140011F0BD4604B080BDC046001C0040091000007B
S214001200A91000008510000080B582B000AF074B23
S2140012107B607B68A5221A73C046054B9847031E61
S214001220FBD1C046BD4602B080BDC046001C004093
S2140012308510000080B582B000AF044B7B607B68F1
S21400124001229A71C046BD4602B080BD001C004017
S21400125080B500AF054B9847054B1B68002B02D0A6
S214001260034B1B689847C046BD4680BD351200003C
S2140012704C0F002080B584B000AF0200FB1D1A7032
S214001280BB1D0A1C1A70FB1D1B78622B0FD002DCDC
S2140012904C2B1CD023E0672B11D0722B1FD1294B6F
S2140012A0FB600B23FB18284A127C1A701EE0274BA3
S2140012B0FB600B23FB18244A127C1A7016E0244BA2
S2140012C0FB600B23FB18204A127C1A700EE0214BA1
S2140012D0FB600B23FB181C4A527C1A7006E01D4B61
S2140012E0FB600B23FB18184A527C1A70BB1D1B7838
S2140012F05BB2002B0FDDFB681B780B22BA18127846
S2140013009A4218D9FB681A78BB1D1B78D318DAB234
S214001310FB681A700FE0BB1D1B787F2B0BD9FB6890
S2140013201B78002B07D0FB681A78BB1D1B78D318D8
S214001330DAB2FB681A70084B9847084B1800BD468F
S21400134004B080BD3C000020EC2E00203D000020B4
S2140013503E000020F82E0020411400003800002037
S21400136080B500AF084B9B7C0133DAB2064B9A740B
S214001370054B9B7C062B02D9034B01229A74034B28
S2140013809847C046BD4680BDEC2E002041140000A4
S21400139080B500AF084B1A7B074B5B7C9A4205D2A0
S2140013A0054B1B7B0133DAB2034B1A73034B98478A
S2140013B0C046BD4680BDC046EC2E0020411400004D
S2140013C080B500AF074B1B7B002B05D0054B1B7B66
S2140013D0013BDAB2034B1A73034B9847C046BD462F
S2140013E080BDC046EC2E00204114000080B500AF42
S2140013F0094B1B7B0133DAB2074B1A73064B1A7B79
S214001400054B5B7C9A4202D9034B00221A73034BAE
S2140014109847C046BD4680BDEC2E00204114000013
S21400142080B500AF044B9B7C1A00044B9200D35847
S2140014301B681800BD4680BDEC2E00207000002002
S21400144080B500AF034B1800034B9847C046BD4617
S21400145080BDC046F82E00205D140000F0B591B0A7
S21400146000AFF8616B46BB61FB699B791A00974B2E
S2140014709200D3581A79964B10009847031CBB630A
S214001480FB699B791A00914B9200D3589A79904B3E
S21400149010009847031C7B63FB699B791A008B4BF3
S2140014A09200D3585A798A4B10009847031C3B6326
S2140014B0884B796BB86B9847031C1A1C854B396BA5
S2140014C0101C9847031C1A1C834B111CFE20800519
S2140014D09847031CFB62FB691B781A007F4B1000C1
S2140014E09847021C7E4BF96A101C9847031C1C1C6C
S2140014F0FB695B791A00794B10009847021C764B03
S214001500111C201C9847031CFB62754BF96AB86BCC
S2140015109847031CBB63724BF96A386B9847031CE9
S2140015203B636F4BF96A786B9847031C7B636C4B85
S2140015306C49B86B9847031C1A1C26231821791887
S214001540CC18694B101C984703002370644B654900
S214001550386B9847031C1A1C272318217918CC18B7
S214001560614B101C9847030023705D4B5D49786BF8
S2140015709847031C1A1C132318217918CC185A4BA9
S214001580101C984703002370262318229446BC4458
S21400159063441B78E12B06D9262318229446BC44C4
S2140015A06344E1221A70272318229446BC446344FD
S2140015B01B78E12B06D9272318229446BC446344A3
S2140015C0E1221A70272318229446BC4463441B78F1
S2140015D0E12B06D9272318229446BC446344E12213
S2140015E01A70102318229446BC4463440A221A80B8
S2140015F0102318229446BC4463441B881A00013A00
S2140016007A62BB600022FA60B868F9680200520F7E
S2140016100C00E4007C617C6914437C610200D2000B
S2140016203A613B6000227A60386879680200520F9F
S2140016300C00E60016430200D5000733DB08DB008B
S2140016406A46D31A9D466B4600333B623B6A80224D
S2140016501A703B6A80225A703B6A08229A703B6A6C
S214001660272218218C46BC4462441278DA703B6A02
S214001670132218218C46BC44624412781A713B6AC5
S214001680262218218C46BC44624412785A713B6A62
S21400169000229A713B6A0022DA713B6A00221A72B3
S2140016A03B6A2A225A723A6A102318218C46BC4496
S2140016B063441B88DBB2622101200C4CA047BB6947
S2140016C09D46C046BD4611B0F0BDC0467000002025
S2140016D0BDF1010061E4010085E701001DF1010094
S2140016E065EB010000006143F5E301001DE4000026
S2140016F0F0B5C64600B58AB000AF684678600E20E2
S21400170018239C46BC4460440A239C4663460380D8
S2140017100E2318203818C0180088844601235B4220
S2140017209846C44463463B62386100237B613B694C
S2140017305B0F9C467B69DA0063461A433B69D90017
S2140017400500002216006A0FF300FB60FB681343D7
S214001750FB60EB00BB6003000733DB08DB006A4678
S214001760D31A9D466B460033FB61FB6980221A70D4
S214001770FB6980225A70FB6908229A70FB69002276
S214001780DA70FB6900221A71FB6900225A71FB6944
S21400179000229A71FB690022DA71FB6900221A7234
S2140017A0FB692A225A72FA690E2318218C46BC4419
S2140017B063441B88DBB262210120054CA0477B688E
S2140017C09D46C046BD460AB004BC9046F0BDC04625
S2140017D01DE4000080B582B000AFBB1D1A000021DA
S2140017E00020134B9847BB1D1B88022213409AB259
S2140017F0BB1D1A80BB1D1B88002B01D00D4B9847C4
S214001800BB1D1A0000210020094B9847BB1D1B88F2
S214001810022293439AB2BB1D1A80BB1D1A000021F8
S2140018200120034B9847C046BD4602B080BDC04667
S2140018305DE500003918000080B582B000AFBB1D22
S2140018401A003D2100204D4B984708E00A204C4BDB
S2140018509847BB1D1A003D210020484B9847BB1DEA
S2140018601B881A0001231340F0D1464B1A0018219A
S2140018700120424B9847434B1B885B099AB2BB1D1D
S2140018801A80BB1D1A00452101203C4B98473E4B51
S2140018901A001E210120394B98473C4B1A003A216A
S2140018A00120364B98473A4B1A00BA210020334B9A
S2140018B09847BB1D90221A80BB1D1A00602101208C
S2140018C02E4B9847BB1D00221A80BB1D1A00BA215A
S2140018D001202A4B9847BB1D00221A80BB1D1A0008
S2140018E060210120254B9847264B1B885B099AB23E
S2140018F0BB1D1A80BB1D1B88264A53439AB2BB1DCC
S2140019001A80BB1D1A881F4B1988234B1000984756
S21400191003009AB2BB1D1A80BB1D1A004621012087
S214001920164B9847BB1D1D4A1A80BB1D1A00D821AE
S2140019300120124B9847BB1D00221A800FE00A2098
S2140019400F4B9847BB1D1A00D82100200B4B984719
S214001950BB1D1B88DB0BDB039AB2BB1D1A80BB1DAD
S2140019601B88002BEBD00A4B1A00BA210120034B30
S2140019709847C046BD4602B080BDC0465DE5000043
S214001980455501008C0000208E00002090000020AD
S214001990CC1100206AACFFFF49DF01000080FFFF8A
S2140019A090B583B000AFBB1D1A0006210020154B72
S2140019B09847BB1D1B881B0A9AB2BB1D1A80BB1D0D
S2140019C01B881A00104B10009847104C104A114BF9
S2140019D0A04703000C00190022000F4B080011005E
S2140019E0984703009AB2BB1D1A80BB1D1B88642B48
S2140019F002D9BB1D64221A80BB1D1B881800BD4679
S214001A0003B090BD5DE50000A50C0200D100020009
S214001A107B14AE47E17AF03F25E4010080B582B042
S214001A2000AF0B4B5A68FA235B009A4203D1FB1DAA
S214001A3006221A7002E0FB1D00221A70FB1D1A0017
S214001A4002210120034B9847C046BD4602B080BD28
S214001A50EC2E00201DE6000090B583B000AFFC1D04
S214001A600B20084B984703002370FB1DFA1D1278C5
S214001A7007210A401A70FB1D1B781800BD4603B0EC
S214001A8090BDC046891A000080B584B000AF020041
S214001A90FB1D1A700F23FA18FB1D1B781900002077
S214001AA0044B98470F23FB181B781800BD4604B05C
S214001AB080BDC0461DE6000080B584B000AF0200C1
S214001AC03960FB1D1A700E23FB1880221A700F2334
S214001AD0FB1800221A7025E0FB1D0E22BA181B7890
S214001AE012781340DBB2002B07D00F23FB181B78AD
S214001AF03A68D31831221A7006E00F23FB181B78B9
S214001B003A68D31830221A700E23FB180E22BA1821
S214001B10127852081A700F23FB181A780F23FB1836
S214001B2001321A700F23FB181B78072BD4D93B6899
S214001B30083300221A70C046BD4604B080BD0000BF
S214001B4080B586B000AF3B1D18000C4B98470C497B
S214001B5081235B00142218000A4B9847084BDA7C56
S214001B603B1DDB7C9A4205D0054B1800034B98477B
S214001B70054B9847C046BD4606B080BDA5B40100DB
S214001B80EC2E0020311D00008D1B000080B500AF3C
S214001B90044981235B0014221800034B9847C04673
S214001BA0BD4680BDEC2E0020391E000080B598B0E2
S214001BB000AF3B001800294B98472949C0239B00DB
S214001BC060221800274B984727498023DB006022B5
S214001BD01800244B98472549A023DB0060221800F4
S214001BE0204B98472249C023DB00602218001D4B7B
S214001BF098472049E023DB0060221800194B9847DD
S214001C001D4980231B0154221800164B98471B4978
S214001C1090231B0154221800124B98473B001A7859
S214001C200F4B1B789A4215D00D4B18000B4B98475C
S214001C300D4B1800094B98470C4B1800074B98475C
S214001C400B4B1800054B98470A4B1800034B984758
S214001C500B4B9847C046BD4618B080BD19C1000062
S214001C607C490020311D000058450020782E0020B9
S214001C70F01D0020CC4200208C180020202F0020D1
S214001C80851C000080B582B000AFFB1D54221A7080
S214001C90BB1D60221A70BB1D1A781D49C0239B000D
S214001CA018001C4B9847BB1D1A781B498023DB0085
S214001CB01800184B9847BB1D1A781849A023DB005C
S214001CC01800144B9847BB1D1A781549C023DB0033
S214001CD01800104B9847BB1D1A781249E023DB000A
S214001CE018000C4B9847FB1D1A780F4980231B01E0
S214001CF01800084B9847FB1D1A780C4990231B01C7
S214001D001800044B9847C046BD4602B080BDC0468A
S214001D107C490020391E000058450020782E0020FF
S214001D20F01D0020CC4200208C180020202F002020
S214001D3080B588B000AF39601100BB1D021C1A8048
S214001D407B1D0A1C1A701C23FB1814221A801023F1
S214001D50FB1818000C231A000021334B9847102359
S214001D60FB1857221A801023FB183A685A60BB1DCE
S214001D701B881B0A9BB2DAB20C23FB181A70BB1D19
S214001D801B88DAB20C23FB185A701023FB180C229F
S214001D90BA185A601023FB1802225A801E23FB181A
S214001DA000221A800BE01E23FB181B881E22BA187E
S214001DB0591C11801C22BA1812889A4209D0102386
S214001DC0FA181A4B11001800194B9847031EEAD14F
S214001DD000E0C0461023FB183A685A607B1D1B784B
S214001DE09AB21023FB185A801E23FB1800221A8072
S214001DF00BE01E23FB181B881E22BA18591C1180E4
S214001E001C22BA1812889A4209D01023FA18074BD7
S214001E1011001800074B9847031EEAD100E0C046A1
S214001E20C046BD4608B080BD29100200E010002064
S214001E30DD5D0000255C000090B593B000AF396012
S214001E401100BB1D021C1A807B1D0A1C1A70402341
S214001E50FB18C8221A800C23FB181822BA185A60DE
S214001E600C23FB1800221A720C23FB1800225A724D
S214001E700C23FB1800229A720C23FB1857221A8098
S214001E807B1D1B785B09DBB21A00564B1000984787
S214001E9003000C0018002100534B9847534C0022B7
S214001EA0534BA04703000C00190022003F23FC18E8
S214001EB0504B080011009847030023704623FB1878
S214001EC000221A7081E07B1D1B78202B09D9452340
S214001ED0FB1820221A707B1D7A1D1278203A1A7081
S214001EE004E04523FB187A1D12781A704523FB1868
S214001EF01B789BB202339AB20C23FB185A804623F7
S214001F00FB181B789BB25B0199B23C23FB18BA1DE9
S214001F1012888A181A803C23FB181B881B0A9BB25F
S214001F20DAB21823FB181A703C23FB181B88DAB2A7
S214001F301823FB185A704723FB1800221A7019E062
S214001F404723FB181B7802334622BA181278510131
S214001F504722BA1812788A1811003A68521811786F
S214001F601822BA18D1544723FB181A784723FB18AF
S214001F7001321A704723FA184523FB1812781B788B
S214001F809A42DDD34223FB1800221A800BE042233C
S214001F90FB181B884222BA18591C11804022BA1816
S214001FA012889A4209D00C23FA18134B1100180015
S214001FB0124B9847031EEAD100E0C0464623FB18A2
S214001FC01A784623FB1801321A704623FA183F2364
S214001FD0FB1812781B789A4200D274E7C046BD46BA
S214001FE013B090BDA50C020081B5010049F20100B6
S214001FF00000F03F25E40100E0100020DD5D000059
S21400200080B582B000AF78607B685B091800BD467B
S21400201002B080BD80B582B000AF78607B68DB011F
S214002020034A944663441800BD4602B080BDC046CD
S2140020300028004080B582B000AF78607B6818004A
S214002040054B984703001800044B984703001800F8
S214002050BD4602B080BDC04601200000152000002D
S21400206080B582B000AF78607B681F2213400122E3
S2140020709A4013001800BD4602B080BD90B583B0EC
S21400208000AF78600A00FB1C1A70FB1C1B78002B44
S2140020900BD07B6818000C4B984704007B68180030
S2140020A00A4B98470300A3610AE07B681800064BBA
S2140020B0984704007B681800044B98470300636148
S2140020C0C046BD4603B090BD35200000612000002C
S2140020D080B582B000AF78600A00FB1C1A70FB1C4B
S2140020E01A787B6811001800024B9847C046BD4618
S2140020F002B080BD7D200000F0B585B000AF7860EE
S2140021007B681A68244B101C984700238024E4053B
S2140021101A002300214CA04705000E007B680433FC
S2140021201A681D4B101C984700238024E4051A00EB
S21400213023001A4CA04702000B00194C280031005F
S214002140A04703000C001D0026007B6808331A68B1
S214002150114B101C984700238024E4051A00230026
S2140021600E4CA04702000B000D4C28003100A04783
S21400217003000C00180021000A4B98470A000100D3
S214002180094B080011009847031CFB60FB68181CED
S214002190BD4605B0F0BDC046990D020049B7010026
S2140021A049F20100A1BA01003D0E020080B582B0DE
S2140021B000AF78600120164B98477B6820331A00E2
S2140021C0144B11001800144B98477B682C331A00E8
S2140021D0124B11001800104B98477B6838331A00D2
S2140021E00F4B110018000F4B98477B6844331A00BA
S2140021F00D4B110018000B4B98470020044B9847D6
S2140022007B681800094B9847C046BD4602B080BDA3
S2140022109DDF000024110020552B000050100020E8
S21400222028110020BD2D000018100020359E00004B
S214002230B0B590B000AF78600A00FB1C1A70A04BD7
S2140022409B7818009F4B98479F4B984764209F4B5E
S21400225098479F4B984701209E4B98473F23FB1873
S21400226000221A702AE03F23FB181A787B6808328F
S21400227092000021D1503F23FB181B787A680A335E
S2140022809B00D318043300221A603F23FB181A78E9
S2140022907B680E3292000021D1503F23FB181B783A
S2140022A07A6810339B00D318043300221A603F2349
S2140022B0FB181A783F23FB1801321A703F23FB18CD
S2140022C01B78022BCFD97B6800229A657B68002298
S2140022D01A65814B9847814B05211800804B98471B
S2140022E03023FA187F4B110018007F4B98472423A1
S2140022F0FA187E4B110018007B4B98471823FA18E3
S2140023007B4B110018007B4B98470C23FA187A4B2E
S21400231011001800774B98473F23FB1800221A70CD
S2140023207AE03F23FB181C783F23FB181A787B685B
S21400233008329200D0583F23FB181A783023FB1837
S2140023409200D2586D4B111C9847031C191C7B68D1
S214002350220008329200D1503F23FB181C783F23FE
S214002360FB181B787A680A339B00D3180433186866
S2140023703F23FB181A782423FB189200D2585F4B91
S214002380111C9847031C191C7A6823000A339B000B
S214002390D318043319603F23FB181C783F23FB181F
S2140023A01A787B680E329200D0583F23FB181A78B2
S2140023B01823FB189200D258504B111C9847031C48
S2140023C0191C7B6822000E329200D1503F23FB1866
S2140023D01C783F23FB181B787A6810339B00D318B1
S2140023E0043318683F23FB181A780C23FB18920056
S2140023F0D258424B111C9847031C191C7A682300BC
S21400240010339B00D318043319603F23FB181A7847
S2140024103F23FB1801321A703F23FB181B78022B50
S21400242000D87EE77B681B6D5A1C7B681A657B6844
S2140024301B6D642B10D8324B9847031E00D14FE714
S2140024403E23FC182F4B9847030023702D4B9847CC
S2140024500300442B02D043E7C04600E0C0467B683A
S2140024601800294B9847FB1C1B78002B0AD07B686A
S214002470DA69264B996D214B101C9847031C1A1CD1
S2140024807B68DA610E4B1B78002B0FD17B68DA690C
S2140024901F4B19681F4B101C9847031C1A1C7B689F
S2140024A0DA617B6854220021995403E07B68542249
S2140024B0012199543F23FB1800221A70A7E0C0465A
S2140024C0EC2E00200D270000652700004555010072
S2140024D0F11600009DDF000051E30000C000002060
S2140024E0E5E2000024110020552B000050100020CB
S2140024F028110020BD2D00001810002061E4010006
S2140025003DE3000079E30000A1270000CC42002054
S214002510BC5F020065EB01003F23FB181C783F23DD
S214002520FB181A787B6808329200D5587B681A6DBB
S214002530674B10009847021C664B111C281C9847D6
S214002540031C191C7B68220008329200D1503F23DE
S214002550FB181C783F23FB181B787A680A339B000D
S214002560D31804331D687B681A6D594B10009847C2
S214002570021C584B111C281C9847031C191C7A680F
S21400258023000A339B00D318043319603F23FB183B
S2140025901C783F23FB181A787B680E329200D558B9
S2140025A07B681A6D4A4B10009847021C494B111C59
S2140025B0281C9847031C191C7B6822000E329200C8
S2140025C0D1503F23FB181C783F23FB181B787A68F2
S2140025D010339B00D31804331D687B681A6D3C4B80
S2140025E010009847021C3B4B111C281C9847031CE4
S2140025F0191C7A68230010339B00D3180433196023
S2140026003F23FB181A783F23FB1801321A703F232A
S214002610FB181B78022B00D87EE7FB1C1B78002BD0
S21400262023D07B68203318007B6820332A4A1900A1
S2140026302A4B98477B682C3318007B682C33284A33
S2140026401900264B98477B68383318007B68383368
S214002650244A1900214B98477B68443318007B684E
S2140026604433214A19001D4B98477B6818001F4BBE
S2140026709847FB1C1B78002B03D07B6818001C4B6C
S21400268098471C4B98471C4B18001C4B9847020059
S2140026907B685A601A4B5B78042B08D1164BDA68B5
S2140026A07B689A607B6855220421995407E0124B98
S2140026B01A697B689A607B68552205219954114BEC
S2140026C098470020104B9847C046BD4610B0B0BD96
S2140026D0BDF1010085E701007C490020E9BF00004C
S2140026E058450020782E0020F01D0020359E000062
S2140026F0F9310000E5E600003C100020B9E80000D3
S214002700EC2E0020411400009DDF000080B584B050
S21400271000AF0200FB1D1A700F23FB1800221A7070
S2140027200F23FB1800221A700DE00C4B9847E1238C
S2140027309B0018000A4B98470F23FB181A780F23A4
S214002740FB1801321A700F23FA18FB1D12781B783B
S2140027509A42EAD3C046BD4604B080BD6527000055
S2140027604555010080B500AF094B9847094B062137
S2140027701800094B9847C046084B984703001A00B4
S21400278001235340DBB2002BF6D1C046BD4680BDC8
S21400279051E30000C8000020E5E200003DE3000031
S2140027A090B587B000AF78600D23FB180F221A7023
S2140027B00E23FB1800221A700F23FB1800221A7033
S2140027C015E00F23FB181B78A54AD35CDBB2AA2BB7
S2140027D006D10E23FB180F22BA1812781A700BE0D7
S2140027E00F23FB181A780F23FB1801321A700F23D9
S2140027F0FB181B78132BE4D90F23FB181B78142B1C
S21400280018D17B689B6D7A685C21D3185B180A2206
S2140028101A707B689B6D7A6818339B00D318043354
S21400282000221A607B6818008E4B98477B6800224F
S214002830DA6111E17B681B6D642B1ED97B689B6D8A
S2140028407A685C21D3185B180B221A707B689C6D23
S2140028507B681A6D844B10009847011C7A68230029
S21400286018339B00D318043319607B6818007D4B1F
S21400287098477B680022DA61EEE00E23FB181B788F
S2140028800233774AD35CDBB2442B23D07B689B6D44
S2140028907A685C21D3185B180D221A707B689C6DD1
S2140028A00E23FB181B7802336D4AD35CDAB26E4BEC
S2140028B010009847011C7A68230018339B00D31831
S2140028C0043319607B681800664B98477B680022C3
S2140028D0DA61C1E00E23FB181B780333604AD35C31
S2140028E0DBB2452B6ED100233B6164237B610F2353
S2140028F0FB1806221A7023E00E23FB181A780F2303
S214002900FB181B78D318564AD35CDBB20D22BA18D4
S21400291012781340DBB2BB60BB687A6953433A69EE
S214002920D3183B617A69514B0A211000984703007F
S2140029307B610F23FB181A780F23FB1801321A70DD
S2140029400F23FB181B78082BD6D93B69FF2B0ED01C
S21400295080225200934213D0CC2B1AD17B689B6DF9
S2140029607A685C21D3185B1807221A7019E07B6816
S2140029709B6D7A685C21D3185B1808221A7010E0E9
S2140029807B689B6D7A685C21D3185B1809221A70E5
S21400299007E07B689B6D7A685C21D3185B180C2275
S2140029A01A707B689B6D7A6818339B00D3180433C3
S2140029B000221A607B6818002A4B98477B68002222
S2140029C0DA6149E02A4B7B610023BB607B6800220A
S2140029D0DA610F23FB1803221A702EE00E23FB1871
S2140029E01A780F23FB181B78D3181D4AD35CDBB26A
S2140029F00D22BA1812781340DBB2BB607B68DC6924
S214002A00BB687A695A43184B10009847021C194B4A
S214002A10111C201C9847031C1A1C7B68DA617A6913
S214002A20124B0A211000984703007B610F23FB1806
S214002A301A780F23FB1801321A700F23FB181B7825
S214002A40082BCBD97B68DA690B4B0C49101C9847CE
S214002A50031C1A1C7B68DA61BD4607B090BDC046F1
S214002A602C110020B5310000BDF1010049DF010046
S214002A70A086010061E4010085E7010000007A44B9
S214002A8080B582B000AF0200FB1D1A70FB1D1B78DC
S214002A90002B07D001210220084B98476420084BE2
S214002AA0984703E000210220044B9847054B00227C
S214002AB01A70C046BD4602B080BDC046D120000098
S214002AC045550100EC1D002080B582B000AF020025
S214002AD0FB1D1A70FB1D1B78002B15D0174B05210C
S214002AE01800174B9847C046164B984703001A0025
S214002AF001235340DBB2002BF6D1134B01221A7090
S214002B000120124B984714E0114B052118000C4B7E
S214002B109847C0460B4B984703001A0001235340C2
S214002B20DBB2002BF6D1084B00221A700020074BB0
S214002B309847C046BD4602B080BDC046B0000020E3
S214002B40E5E2000029E30000EC1D0020A944000097
S214002B50B800002090B587B000AF7860396079681B
S214002B604E4B012218004E4B98474E4B98470C236D
S214002B70FA184D49494804234C4CA0477968474BFE
S214002B8000221800464B98477968444B01221800EB
S214002B90434B98470C23FA18454940480423434CB6
S214002BA0A04779683D4B002218003D4B98470C2300
S214002BB0FB1818003F4B9847021C3B681A60796860
S214002BC0364B01221800364B98470C23FA183A4920
S214002BD032480423354CA0477968304B0022180051
S214002BE02F4B98473B681C1D0C23FB181800314BD5
S214002BF09847031C23607968284B01221800284B4D
S214002C0098470C23FA182D4924480423274CA0473C
S214002C107968224B00221800214B98473B680833FE
S214002C201C000C23FB181800224B9847031C23603B
S214002C303B685B683B613B6804333A6812681A601D
S214002C403B69802212065A403B681A601723FB181D
S214002C5000221A7019E01723FB181B789B003A68AD
S214002C60D4181723FB181B789B003A68D3181A68E9
S214002C70134B1449101C9847031C23601723FB189A
S214002C801A781723FB1801321A701723FB181B78C3
S214002C90022BE0D9C046BD4607B090BDA410002068
S214002CA0B546010005E0000094000020C94A010076
S214002CB098000020C92C00009C000020A0000020E6
S214002CC085E7010000409C4580B584B000AF786081
S214002CD00023FB607B6801331A780A23FB181A80EE
S214002CE00A23FB1800229B5E1A020A23FB181A808E
S214002CF07B6802331B789AB20A23FB181B88D3180A
S214002D009AB20A23FB181A800A23FB1800229A5E3E
S214002D10044B10009847031CFB60FB68181CBD465C
S214002D2004B080BD1DF1010090B585B000AF78609D
S214002D3001201A4B98477968194B01221800194B45
S214002D409847194B98470C23FA1818491448042337
S214002D50174CA0477968124B00221800114B984771
S214002D600A20144B984779680D4B012218000D4B2A
S214002D7098470C23FA181049094804230C4CA0471E
S214002D807968074B00221800064B98470020034B33
S214002D909847C046BD4605B090BDC0469DDF0000C2
S214002DA0A4100020B546010005E00000A8000020A1
S214002DB0C94A010045550100A400002090B589B01D
S214002DC000AF786039607968694B01221800694B5A
S214002DD09847694B98471823FB1800221A70182347
S214002DE0FB1870225A701823F918614B022218003B
S214002DF0624B984779685E4B002218005D4B9847F7
S214002E0001205F4B98471F23FB1800221A701E23D1
S214002E10FB1800221A7038E07968554B012218001A
S214002E20544B98471823FB18B4221A701823FB1823
S214002E30FF225A700C23FA181823F9184C4802235C
S214002E40504CA0471F23FB180C22BA1852781A7051
S214002E501F23FB181F22BA1812787F218A431A7084
S214002E601E23FB181E22BA18127801321A707968CF
S214002E703F4B002218003F4B98470120404B984795
S214002E801E23FB181B78FF2B05D01F23FB181B786F
S214002E90002BC1D000E0C0467968354B01221800EF
S214002EA0344B98471823FB18A4221A701823F918D5
S214002EB02F4B01221800314B98470C23F9182C4849
S214002EC0FF230922304CA0477968294B00221800BE
S214002ED0284B984701202A4B98470C23FB181800CC
S214002EE02A4B9847021C3B681A603B681C1D0C2343
S214002EF0FB1803331800254B9847031C23603B68D8
S214002F0008331C000C23FB18063318001F4B984789
S214002F10021C80231B06534023601D23FB1800223F
S214002F201A7019E01D23FB181B789B003A68D4180A
S214002F301D23FB181B789B003A68D3181A68144B9D
S214002F401449101C9847031C23601D23FB181A788D
S214002F501D23FB1801321A701D23FB181B78022B49
S214002F60E0D91E23FB181B781800BD4609B090BD9B
S214002F70A4100020B546010005E00000A5470100AA
S214002F8015550100C94A0100F9440100992F0000B7
S214002F9085E7010000C0DA4580B584B000AF7860F0
S214002FA00023FB607B681B785BB2002B04DAFF23F0
S214002FB0FB60FB681B02FB607B681B781A00FB68E3
S214002FC09B18FB60FB681B02FB607B6801331B7869
S214002FD01A00FB689B18FB60FB681B02FB607B68A3
S214002FE002331B781A00FB689B18FB60044BF868DA
S214002FF09847031CBB60BB68181CBD4604B080BD68
S2140030001DF1010080B584B000AF786001204D4B03
S214003010984779684C4B012218004C4B98474C4B0C
S21400302098470823FB1804221A704A4B1A7808237C
S214003030FB185A70484B1A780823FB189A70454BB1
S2140030401A780823FB18DA70434B1A780823FB1803
S2140030501A71404B1A780823FB185A713E4B1A789F
S2140030600823FB189A710823F918374B0722180013
S2140030703A4B98477968344B00221800334B9847F0
S2140030800A20374B98470823FB1801221A7008239A
S214003090FB1800225A7079682B4B012218002B4B24
S2140030A098470823F918284B022218002B4B9847FC
S2140030B07968254B00221800244B98470120294B9D
S2140030C098470823FB1833221A700823FB1800229F
S2140030D05A7079681C4B012218001C4B984708232D
S2140030E0F918194B022218001C4B98477968164BA2
S2140030F000221800154B984701201A4B98470823C2
S214003100FB1835221A700823FB181B225A707968A0
S2140031100D4B012218000D4B98470823F9180A4B4F
S214003120022218000D4B98477968074B00221800BA
S214003130064B98470020034B9847C046BD4604B050
S21400314080BDC0469DDF0000A4100020B5460100EB
S21400315005E00000AC000020AD000020A5470100FF
S214003160455501001555010080B500AF0D4B9A6816
S2140031700D4BFA218905101C9847031C1A1C094B95
S2140031809A60084B9A68094B0949101C9847031E19
S21400319000D103E0034BFC2292059A60C046BD4670
S2140031A080BDC046EC2E002061E40100FDE2010077
S2140031B00000404080B584B000AF78600823BB6054
S2140031C07B689B6D5A1CBB689A4209D27B689B6DD4
S2140031D05A1C7B689A650F23FB1801221A7003E0BD
S2140031E00F23FB1800221A700F23FB181B781800F9
S2140031F0BD4604B080BD0000F0B599B002AF78605F
S214003200C94B9A69C84BD969C84B101C9847031E0E
S21400321007D0C54B9A69C64BC649101C9847031C75
S21400322006E0C14BDA69C24BC249101C9847031C22
S214003230BB64BD4B1A6ABC4B596ABC4B101C984702
S214003240031E07D0B84B1A6AB94BBA49101C9847E8
S214003250031C06E0B44B5A6AB54BB649101C984797
S214003260031C7B64FC239B05BB64FC239B057B64DF
S2140032707B6820331800B04B9847031C3B647B6880
S2140032802C331800AC4B9847031CFB637B68383321
S2140032901800A94B9847031CBB637B68443318008F
S2140032A0A54B9847031C7B63A44BFE218905386C0D
S2140032B09847031C5B005B083B63A04BFE21890517
S2140032C0386C9847031C5B005A08984BB96C101C66
S2140032D09847031E14D07B689B6D7A685C21D318D0
S2140032E05B1801221A707B689B6D7A6818339B0006
S2140032F0D31804333A6C1A607B681800904B9847D2
S2140033008E4BFE218905F86B9847031C5B005B0813
S2140033103B63864BB96C386B9847031E14D07B68AA
S2140033209B6D7A685C21D3185B1802221A707B6842
S2140033309B6D7A6818339B00D3180433FA6B1A60B7
S2140033407B6818007E4B98477C4BFE218905B86B3E
S2140033509847031C5B005B083B63744B796C386BC7
S2140033609847031E14D07B689B6D7A685C21D3183F
S2140033705B1803221A707B689B6D7A6818339B0073
S214003380D3180433BA6B1A607B6818006C4B9847E6
S2140033906A4BFE218905786B9847031C5B005B0827
S2140033A03B63624B796C386B9847031E14D07B687E
S2140033B09B6D7A685C21D3185B1804221A707B68B0
S2140033C09B6D7A6818339B00D31804337A6B1A60A7
S2140033D07B6818005A4B9847534B9A69524BD969E9
S2140033E0524B101C9847031E07D04F4B9A69504B00
S2140033F05049101C9847031C06E04B4BDA694C4BAF
S2140034004C49101C9847031CBB64474B1A6A464B32
S214003410596A464B101C9847031E07D0424B1A6A3F
S214003420434B4449101C9847031C06E03E4B5A6A1F
S2140034303F4B4049101C9847031C7B644F23FB18E6
S21400344000221A7066E04F23FB181A787B68083251
S2140034509200D2583B4B396C101C9847031C1C1C1E
S2140034604F23FB181B787A680A339B00D318043363
S2140034701A68344BF96B101C9847031C1A1C2F4B08
S214003480111C201C9847031C5B005B083B634F2302
S214003490FB181A78244B0A329200D258244B25493E
S2140034A0101C9847031CBB64FC239B05BB641F4B86
S2140034B0B96C386B9847031E25D07B689B6D7A687D
S2140034C05C21D3185B1805221A707B689B6D7A689E
S2140034D018339B00D31804333A6B1A607B689C6DD4
S2140034E04F23FB181B785A1C174B10009847011CDB
S2140034F07A68230020339B00D318043319607B6856
S21400350018000F4B98474F23FB181A784F23FB18C9
S21400351001321A704F23FB181B78022B93D94F23C6
S214003520FB1800221A707AE08C180020FDE20100D9
S21400353065EB010000004843F9200000A5ED0100FE
S214003540B531000085E701001DF101004F23FB188F
S2140035501A787B680E329200D258DB4BB96B101C7F
S2140035609847031C1C1C4F23FB181B787A681033E3
S2140035709B00D31804331A68D34B796B101C9847FA
S214003580031C1A1CD14B111C201C9847031C5B0003
S2140035905B083B634F23FB181B78CD4A0C339B001C
S2140035A0D31804331A68CB4BCB49101C9847031C1E
S2140035B07B64FC239B057B64C84B796C386B98470F
S2140035C0031E25D07B689B6D7A685C21D3185B1838
S2140035D006221A707B689B6D7A6818339B00D31896
S2140035E004333A6B1A607B689C6D4F23FB181B787C
S2140035F05A1CBB4B10009847011C7A6823002033E6
S2140036009B00D318043319607B681800B54B9847A5
S2140036104F23FB181A784F23FB1801321A704F23DA
S214003620FB181B78022B91D97B68203318007B6827
S214003630383319001023FC182023FA180823FB1827
S21400364001930C23FB1800932300A74CA0477B682C
S2140036502C3318007B68383319001023FB181C1D08
S2140036602023FB181A1D0823FB1801930C23FB18B4
S214003670009323009C4CA0477B68203318007B688F
S214003680443319001023FB1808331C002023FB18B2
S21400369008331A000823FB1801930C23FB18009329
S2140036A02300914CA0477B682C3318007B6844337A
S2140036B019001023FB180C331C002023FB180C33B6
S2140036C01A000823FB1801930C23FB180093230011
S2140036D0854CA0471023FB181B683B651023FB187E
S2140036E01B687B654F23FB1801221A7034E04F23BA
S2140036F0FB181A781023FB189200D258774B396DB6
S214003700101C9847031E01D03B6D06E04F23FB18A4
S2140037101A781023FB189200D3583B654F23FB18EA
S2140037201A781023FB189200D258704B796D101C33
S2140037309847031E01D07B6D06E04F23FB181A78CE
S2140037401023FB189200D3587B654F23FB181A787A
S2140037504F23FB1801321A704F23FB181B78032BDC
S214003760C5D95A4B396D786D9847031C3B63604B3F
S2140037709A685E4B396B101C9847031E14D07B6802
S2140037809B6D7A685C21D3185B180E221A707B68D2
S2140037909B6D7A6818339B00D31804333A6B1A6013
S2140037A07B6818004F4B98474E23FB1800221A7070
S2140037B04F23FB1800221A7017E04F23FB181A78C5
S2140037C02023FB189200D258484B4A49101C9847B1
S2140037D0031E03D04E23FB1801221A704F23FB183A
S2140037E01A784F23FB1801321A704F23FB181B78E8
S2140037F0032BE2D94E23FB181B78002B31D04F2326
S214003800FB1800221A7027E04F23FB181A78202393
S214003810FB189200D258314B3749101C9847031EAC
S21400382013D04F23FB181C784F23FB181A7820233D
S214003830FB189200D258254B3049101C9847031CA1
S214003840191C2023FB18A200D1504F23FB181A780E
S2140038504F23FB1801321A704F23FB181B78032BDB
S214003860D2D92023FB181B683B652023FB181B6856
S2140038707B654F23FB1801221A7050E04F23FB187C
S2140038801A782023FB189200D258144B396D101C5E
S2140038909847031E01D03B6D06E04F23FB181A78AD
S2140038A02023FB189200D3583B654F23FB181A7849
S2140038B02023FB189200D2580C4B796D101C9847A9
S2140038C0031E1DD07B6D22E085E70100A5ED0100FB
S2140038D08C18002065EB010000004843FDE2010063
S2140038E01DF10100B531000039A20000D5E201004B
S2140038F0EC2E00200000B442000087430000B443D2
S2140039004F23FB181A782023FB189200D3587B65A8
S2140039104F23FB181A784F23FB1801321A704F23D7
S214003920FB181B78032BA9D9274B396D786D984760
S214003930031C1A1C254B101C984705000E007B68BC
S2140039401A69234B1968234B101C9847031C1A1C32
S2140039501E4B101C984703000C00180021001E4B3D
S214003960984702000B001D4C28003100A0470300BA
S2140039700C00190022001A4B080011009847031C7F
S2140039803B63184B9A68184B396B101C9847031EFC
S21400399000D114E07B689B6D7A685C21D3185B18B5
S2140039A00F221A707B689B6D7A6818339B00D318B9
S2140039B004333A6B1A607B6818000C4B9847C04675
S2140039C0BD4617B0F0BDC046A5ED0100990D02003A
S2140039D0B85F020065EB0100F5B40100D1000200FB
S2140039E03D0E0200EC2E0020D5E20100B5310000AD
S2140039F0B0B58AB002AFF860B960FB1D1A70FB1D47
S214003A001B78BA6818339B00D31804331B68FB6115
S214003A10FB1D1B78BA6820339B00D31804331B6841
S214003A20BB611723FC188B4BB869984703002370BB
S214003A30FB1D1B78BA685C21D3185B181B780F2B0C
S214003A4000D9FAE09A00844BD3181B689F46834B34
S214003A50FE218905F8699847031E0BD0804BF8694C
S214003A60984703000C007F49F8681A0023007E4C34
S214003A70A047EAE07A4BF869984703000C007B49B8
S214003A80F8681A002300784CA047DEE0734BFE214E
S214003A908905F8699847031E0BD0714BF86998475B
S214003AA003000C007249F8681A0023006E4CA04709
S214003AB0CBE06B4BF869984703000C006D49F8683B
S214003AC01A002300684CA047BFE0644BFE2189051E
S214003AD0F8699847031E0BD0614BF86998470300B6
S214003AE00C006549F8681A0023005F4CA047ACE05C
S214003AF05B4BF869984703000C006049F8681A00A9
S214003B002300594CA047A0E0544BFE218905F869D4
S214003B109847031E0BD0524BF869984703000C00D9
S214003B205749F8681A0023004F4CA0478DE04C4BCD
S214003B30F869984703000C005249F8681A002300F9
S214003B40494CA04781E01723FB181D784E4B4F4980
S214003B50F8699847031C1A1C414B101C9847030031
S214003B600C004B49F868009301942A003E4B984796
S214003B706BE01723FB181D78434B4449F8699847B8
S214003B80031C1A1C364B101C984703000C004149B6
S214003B90F868009301942A00334B984755E0304B61
S214003BA0F869984703000C003B49F8681A002300A0
S214003BB02D4CA04749E02A4BF869984703000C00B3
S214003BC03649F8681A002300274CA0473DE0FA68FB
S214003BD0334B1000190011231A00324B984734E07B
S214003BE0FA68314B1000190012231A002D4B984723
S214003BF02BE0FA682D4B1000190014231A00294BED
S214003C00984722E0FA682A4B1000190013231A007E
S214003C10244B984719E0FA68264B10001900152324
S214003C201A00204B984710E0FA68234B1000190042
S214003C3014231A001B4B984707E0FA681F4B100026
S214003C40190013231A00174B9847C046BD4608B004
S214003C50B0BDC046F5E3010090520200FDE201004F
S214003C60990D020008510200BD1002001C5102000E
S214003C702C510200405102005051020064510200D3
S214003C80785102008C51020065EB01000000C8422A
S214003C90A0510200B8510200D0510200E8510200C3
S214003CA000520200A50F0200145202002852020021
S214003CB03C52020050520200685202007C5202003F
S214003CC080B582B000AF0200FB1D1A70064BFA1DCD
S214003CD0127811001F220A40012191400A001A6042
S214003CE0C046BD4602B080BD00E100E080B584B0AD
S214003CF000AF78607B681B68FB60FB681B695A1E18
S214003D009341DBB21800BD4604B080BD80B582B0DA
S214003D1000AF78607B6800221A707B680022DA7039
S214003D207B6800229A807B6800229A717B6800225A
S214003D30DA717B6800225A707B6800229A707B6872
S214003D4000221A727B6800225A727B6800229A72DE
S214003D507B680022DA727B6800221A737B68002276
S214003D609A737B6800225A737B6800221A747B68F9
S214003D7000225A617B6800229A617B6800221A77CB
S214003D807B6800221A627B6800225A627B680022E7
S214003D901A857B6800225A857B6800229A857B6894
S214003DA0342200219954C046BD4602B080BD0000B2
S214003DB080B584B000AF78607B681B68FB60C04647
S214003DC07B681800064B9847031EF9D1FB681B68F2
S214003DD002221A43FB681A60C046BD4604B080BD86
S214003DE0ED3C000080B584B000AF78607B681B684F
S214003DF0FB60C0467B6818000A4B9847031EF9D143
S214003E00FB6833221A72FB6833229A72FB681B68BF
S214003E10022293431A00FB681A60C046BD4604B0EF
S214003E2080BDC046ED3C000080B584B000AF786031
S214003E307B681B68FB60C0467B681800054B98478C
S214003E40031EF9D1FB6840225A71C046BD4604B035
S214003E5080BDC046ED3C000080B584B000AF786001
S214003E607B681B68FB60C0467B6818000A4B984757
S214003E70031EF9D1FB6800221A71C0467B68180041
S214003E80054B9847031EF9D1FB6820225A71C0469D
S214003E90BD4604B080BDC046ED3C000080B582B093
S214003EA000AF7860044A7B68D3181B785BB21800B2
S214003EB0BD4602B080BDC046D000002080B582B0AE
S214003EC000AF78600A00FB1C1A707B681B6818003D
S214003ED0224B984703001800214B98470300180010
S214003EE0204B9847FB1C1B78022B0BD17B685B7E14
S214003EF010221343DAB27B685A767B681B6810225E
S214003F005A7226E0FB1C1B78032B0BD17B685B7E6A
S214003F1020221343DAB27B685A767B681B6820221D
S214003F205A7216E07B685B7E5AB2FB1C1B78012136
S214003F3099400B005BB213435BB2DAB27B685A76E9
S214003F407B681B68FA1C1278012191400A00D2B2E5
S214003F505A72C046BD4602B080BDC046CD6B00005A
S214003F609D3E0000C13C000080B582B000AF786086
S214003F707B6800221A707B6801225A707B680C22CC
S214003F809A707B680022DA707B6800221A71C0463D
S214003F90BD4602B080BD000080B500AF064B1800DD
S214003FA0064B9847044B0C229A70034B1800044BA0
S214003FB09847C046BD4680BDD0110020693F00002E
S214003FC0D110000080B500AF064B1800064B98478E
S214003FD0044B00225A70034B1800044B9847C04607
S214003FE0BD4680BDD0110020693F0000D110000002
S214003FF080B500AF0D4B1B78DBB2072B05D10C4B01
S2140040001B685A1C0A4B1A6002E0094B00221A6011
S214004010074B1B683C2B05D9044B06221A70044B31
S21400402000221A60C046BD4680BDC046783B0020D0
S214004030B40C002080B582B000AF0200FB1D1A70E1
S214004040FB1D1B78042B09D0052B00D01EE0114B5E
S2140040509847114B9847114B984717E0104B18009C
S214004060104B9847104B00221A70104B18000D4B3F
S21400407098470F4B00221A700E4B1800094B9847B2
S2140040800D4B00221A700D4B9847C046C046BD46E1
S21400409002B080BDC1400000794100003D420000F2
S2140040A008110020E53D0000B00C00202010002084
S2140040B0B10C002078110020B20C0020054300004F
S2140040C080B58EB000AF3B001800204B98473B00F1
S2140040D00422DA703B00E022D2009A803B000222E3
S2140040E01A703B0000229A733B001022DA713B00E4
S2140040F029221F219954164B1B78002B06D0154BEE
S2140041001800154B9847124B00221A703A001349B4
S214004110104B1800124B98470E4B1800114B98473F
S2140041200B4B01221A700B4B18000F4B98470F4988
S214004130084B002218000E4B9847064B002118002B
S2140041400C4B9847C046BD460EB080BD0D3D0000E6
S214004150B10C002020100020E53D000000240042A5
S214004160156C0000B13D0000593E0000D54300002C
S21400417089690000BD3E000080B58EB000AF3B00F0
S2140041801800224B98473B000022DA703B00E022E2
S214004190D2009A803B0002221A703B0001229A73DA
S2140041A03B001022DA711A4B1B78002B06D0194BF5
S2140041B01800194B9847164B00221A703A001749F8
S2140041C0144B1800164B9847124B1800154B98477F
S2140041D00F4B01221A700F4B1800134B9847E12320
S2140041E09A000C4B11001800104B98471049094BC9
S2140041F0002218000F4B9847064B002118000E4B64
S2140042009847C046BD460EB080BDC0460D3D000076
S214004210B20C002078110020E53D000000080043A5
S214004220156C0000B13D0000293E0000B57000008E
S214004230F143000089690000BD3E000080B58EB0E5
S21400424000AF3B001800234B98473B000422DA706F
S2140042503B00E022D2009A803B0002221A703B000C
S21400426000229A733B001022DA713B00292260215B
S2140042709954194B1B78002B06D0184B1800184B76
S2140042809847154B00221A703A001649134B18002F
S214004290154B9847114B1800144B98470E4B0122AC
S2140042A01A700E4B1800124B98470C4B0021180042
S2140042B0104B98471049094B002218000F4B98479F
S2140042C0064B002118000E4B9847C046BD460EB060
S2140042D080BDC0460D3D0000B00C00200811002037
S2140042E0E53D000000200042156C0000B13D0000D6
S2140042F0293E0000B57000003944000089690000BE
S214004300BD3E000080B58EB000AF3B001800244BC9
S21400431098473B000422DA703B00E022D2009A80E5
S2140043203B0002221A703B0000229A733B001022C8
S214004330DA713B002922102199541A4B1B78002B66
S21400434006D0194B1800194B9847164B00221A70C6
S2140043503A001749144B1800164B9847124B180092
S214004360154B98470F4B01221A700F4B1800134B32
S21400437098470D4B00211800114B984711490A4BDE
S21400438000221800104B9847074B002118000F4BCF
S21400439098470F4B00221A70C046BD460EB080BD2F
S2140043A00D3D0000B10C002020100020E53D00006F
S2140043B000240042156C0000B13D0000293E0000BC
S2140043C0B57000007144000089690000BD3E000021
S2140043D0742F002080B582B000AF7860034B0722B0
S2140043E01A70C046BD4602B080BDC046783B00206D
S2140043F080B582B000AF78600A4B18000A4B984729
S214004400E1239A00074B11001800084B984700203C
S214004410074B9847074B16221A70C046BD4602B097
S21400442080BDC04678110020293E0000B57000000F
S214004430812A0000783B002080B582B000AF78600B
S214004440074B06221A70074B1800074B9847054B78
S21400445000211800054B9847C046BD4602B080BDF7
S214004460783B002008110020293E0000B5700000AF
S21400447080B582B000AF7860074B1800074B9847AE
S214004480054B00211800064B9847064B00221A7071
S214004490C046BD4602B080BD20100020293E000068
S2140044A0B5700000742F002080B582B000AF020007
S2140044B0FB1D1A70FB1D1B78002B0BD0E1239A0006
S2140044C00C4B110018000C4B98470A4B18000B4B6E
S2140044D098470AE0074B1800094B9847E1239A00D3
S2140044E0044B11001800044B9847C046BD4602B066
S2140044F080BDC04678110020B5700000593E00000F
S214004500293E000080B582B000AF0200FB1D1A7085
S214004510FB1D1B78002B09D00B4B002118000B4B02
S2140045209847094B18000A4B984708E0064B1800B6
S214004530084B9847044B00211800044B9847C04688
S214004540BD4602B080BDC04620100020B5700000F9
S214004550593E0000293E000080B500AFC046BD466B
S21400456080BD000080B582B000AFFB1D00221A702F
S2140045700CE0FB1D1B780C4A5B01D3180A3304229F
S2140045801A70FB1D1A78FB1D01321A70FB1D1B7872
S214004590002BEED0054BFF221A70054B9847C046FD
S2140045A0BD4602B080BDC046B80C0020D80C002026
S2140045B05948000080B584B000AF0200FB1D1A7099
S2140045C00F23FB18FA1D1278D2091A700E23FB1857
S2140045D0FA1D127852091A700D4BBB600F23FB1898
S2140045E01B78002B0FD10F23FB181B789B00102283
S2140045F09446BC446344083B1A680E23FB181B7899
S214004600DB01D31800E000231800BD4604B080BDCF
S2140046100028004080B582B000AF0200FB1D1A7073
S214004620FB1D1B781800034B984703001800BD4677
S21400463002B080BDB545000080B582B000AF78609E
S2140046407B6800221A707B6801225A707B68002201
S2140046509A70C046BD4602B080BD000080B584B0EA
S21400466000AF0200FB1D1A70BB1D0A1C1A70FB1D52
S2140046701B7818000D4B98470300FB60FB1D1B784A
S2140046801F22134001229A401300BB60BB1D1B78FB
S214004690002B03D0FB68BA689A6102E0FB68BA6830
S2140046A05A61C046BD4604B080BDC04615460000EF
S2140046B080B582B000AF0200FB1D1A70064BFA1DD3
S2140046C0127811001F220A40012191400A001A6048
S2140046D0C046BD4602B080BD00E100E080B584B0B3
S2140046E000AF78607B681B68FB60FB68DB695A1E5E
S2140046F09341DBB21800BD4604B080BD80B582B0E1
S21400470000AF78607B6801221A707B6800225A60CE
S2140047107B6800229A607B68C0229203DA607B681E
S21400472000221A747B6800225A747B6801229A74ED
S2140047307B680122DA747B6800221A757B68242263
S214004740002199547B6818330C22002118000A4B6C
S21400475098477B68094A9A617B6800229A627B6860
S2140047600022DA627B6800221A637B6800225A63A2
S214004770C046BD4602B080BD29100200A0860100DA
S21400478080B582B000AF78607B680A221A707B68BA
S21400479000225A707B6800229A70C046BD4602B05E
S2140047A080BD000080B584B000AF786039603B689B
S2140047B01A787B681A703B685A787B685A703B6830
S2140047C09A787B689A700C23FB1818000B4B984756
S2140047D00C23FB1801221A707B681B780C22BA186F
S2140047E011001800064B98477B681B7801211800BB
S2140047F0044B9847C046BD4604B080BD394600000D
S2140048009D5501005D46000080B584B000AF78601D
S2140048107B681B68FB607B681B6818000B4B98471F
S214004820030018000A4B9847C0467B681800094BDF
S2140048309847031EF9D1FB681B6802221A43FB68DF
S2140048401A60C046BD4604B080BDC0468163000005
S214004850B1460000DD46000080B58EB000AF1D4BAF
S21400486000221A703B0018001B4B98473B00802222
S2140048705202DA603B00194A9A623B000022DA6272
S2140048803B00174A1A633B00164A5A633B00242231
S214004890002199543B00144A9A613A001349144B7C
S2140048A01800144B9847124B1800134B9847134B9D
S2140048B01800134B9847134B1A78104B1A700F4A70
S2140048C0114B11001800114B9847C046BD460EB05C
S2140048D080BDC046E30C0020FD4600000300280013
S2140048E003002A0003002B00801A06000010004276
S2140048F0A41000202D43010009480000E00C002011
S21400490081470000D4000020DC0C0020A5470000F2
S21400491080B584B000AF0200FB1D1A700F23FB1891
S21400492001221A700F23FB181B781800BD4604B02E
S21400493080BD80B584B000AF02003960FB1D1A70E0
S2140049400F23FB1801221A700F23FB181B78180080
S214004950BD4604B080BD80B584B000AF0200FB1D2C
S2140049601A700F23FB1800221A700F23FB181B78EF
S2140049701800BD4604B080BD80B584B000AF02000C
S214004980FB1D1A700F23FB1801221A700F23FB1849
S2140049901B781800BD4604B080BD000080B582B00C
S2140049A000AF104B1B68002B12D1EFF310837B6017
S2140049B07B68002B09D172B6BFF35F8F0A4B0022CB
S2140049C01A700A4B01221A7002E0084B00221A7075
S2140049D0044B1B685A1C034B1A60C046BD4602B007
S2140049E080BDC046E40C0020D5000020E80C002066
S2140049F080B500AF0B4B1B685A1E0A4B1A60094B5A
S214004A001B68002B0AD1084B1B78DBB2002B05D0A5
S214004A10064B01221A70BFF35F8F62B6C046BD46D2
S214004A2080BDC046E40C0020E80C0020D500002025
S214004A3080B584B000AF0200FB1D1A700F23FB1870
S214004A40FA1D127852091A700F23FB181B78002BD8
S214004A500CD1094BBB600F23FB181B789B00102260
S214004A609446BC446344083B1B6800E000231800DF
S214004A70BD4604B080BDC0460024004080B584B06A
S214004A8000AF0200FB1D1A70FB1D1B7818000B4BB5
S214004A9098470300FB60FB1D1B781F221340012272
S214004AA09A401300BB60FB685B69BA6813405A1EE5
S214004AB09341DBB21800BD4604B080BD314A000009
S214004AC080B584B000AF0200FB1D1A70FB1D1B787A
S214004AD01800094B98470300FB60FB1D1B781F223C
S214004AE0134001229A401300BB60FB68BA685A6103
S214004AF0C046BD4604B080BD314A000080B582B0D5
S214004B0000AF786008001100FB1C021C1A70BB1C6A
S214004B100A1C1A70BB1C1B78002B01D0172319E047
S214004B20FB1C1A780D4B9200D358002B07D1FB1CA8
S214004B301A780A4B92007968D15000230AE0FB1CD1
S214004B401A78064B9200D2587B689A4201D100230D
S214004B5000E01D231800BD4602B080BDE011002015
S214004B6080B584B000AF0200FB1D1A70BB1D0A1C86
S214004B701A70BB1D1B78002B0ED1FB1D1B7818006E
S214004B80084B98470300FB60FB1D1B7801229A40E8
S214004B90FB681A61002300E017231800BD4604B026
S214004BA080BDC046314A000080B500AF024B1B787E
S214004BB01800BD4680BDC046DD11002080B500AFA0
S214004BC0154B00221A7020E0134B1B781800134B6D
S214004BD09847031E13D0104B1B781800104B9847AD
S214004BE00D4B1B781A000F4B9200D358002B06D0A3
S214004BF0094B1B781A000B4B9200D3589847064B6C
S214004C001B780133DAB2044B1A70034B1B780F2B58
S214004C10DAD9C046BD4680BDDD1100207D4A0000C1
S214004C20C14A0000E011002080B582B000AF02004B
S214004C303960FB1D1A70FB1D1B78042B27D89A00C1
S214004C40164BD3181B689F46154B154A51693A6890
S214004C500A435A611DE0124B114A91693A680A43A9
S214004C609A6116E00E4B0E4AD1693A680A43DA6139
S214004C700FE00B4B0A4A116A3A680A431A6208E0C8
S214004C80074B074A516A3A680A435A6201E01723FB
S214004C9000E000231800BD4602B080BDD0520200DE
S214004CA00004004080B582B000AF78607B68802248
S214004CB01A707B6800225A707B6801229A707B68A3
S214004CC00022DA70C046BD4602B080BD80B582B014
S214004CD000AF0200FB1D1A70064BFA1D1278110079
S214004CE01F220A40012191400A001A60C046BD46B4
S214004CF002B080BD00E100E080B584B000AF0200E5
S214004D00FB1D1A700F23FB18FA1D127852091A7031
S214004D100F23FB181B78002B0CD1094BBB600F230D
S214004D20FB181B789B0010229446BC446344083B47
S214004D301B6800E000231800BD4604B080BDC046D6
S214004D400024004080B582B000AF154B3B600023C6
S214004D507B601CE07B689B0008229446BC4463444E
S214004D60083B1B685B68022213400BD17B689B00E4
S214004D7008229446BC446344083B1B685B680122D7
S214004D80134001D0012306E07B6801337B607B681B
S214004D90002BDFD000231800BD4602B080BDC04601
S214004DA00024004080B584B000AF2E4B3B608023CB
S214004DB09B00190000202C4B98470023FB6018E04E
S214004DC0FB689B0010229446BC446344103B1A6860
S214004DD0FB689B0010218C46BC446344103B1B6858
S214004DE01B78DBB201210B43DBB21370FB68013387
S214004DF0FB60FB68002BE3D0C0461C4B9847031EA5
S214004E00FBD10023BB600EE0BB689B0010229446DB
S214004E10BC446344103B1A68137810210B4313708C
S214004E20BB680133BB60BB68002BEDD0FB1D0022C6
S214004E301A700AE0FB1D1A780D4B92000021D15023
S214004E40FB1D1A78FB1D01321A70FB1D1B780F2BF9
S214004E50F0D90320074B9847074B9847C046BD46F6
S214004E6004B080BD00240040294C0000454D0000E1
S214004E70E0110020CD4C00007D4E000080B582B0D1
S214004E8000AF154B3B6000237B6018E07B689B00FF
S214004E9008229446BC446344083B1A687B689B001F
S214004EA008218C46BC446344083B1B681B78DBB275
S214004EB002210B43DBB213707B6801337B607B6897
S214004EC0002BE3D0C046054B9847031EFBD1C046D7
S214004ED0BD4602B080BDC04600240040454D0000DF
S214004EE080B582B000AF154B3B6000237B6018E0B6
S214004EF07B689B0008229446BC446344083B1A68BF
S214004F007B689B0008218C46BC446344083B1B68B6
S214004F101B78DBB202218B43DBB213707B68013354
S214004F207B607B68002BE3D0C046054B9847031E8A
S214004F30FBD1C046BD4602B080BDC046002400403E
S214004F40454D000080B582B000AF78607B680022D7
S214004F501A607B6800225A607B6801221A727B689E
S214004F6000229A727B680222DA727B6800225A72EA
S214004F70C046BD4602B080BD80B586B000AF020018
S214004F803960FB1D1A703C4B98470823FB18180025
S214004F903A4B98473B685B68DAB20823FB181A70EE
S214004FA00823FB1800225A703B681A7A0823FB185D
S214004FB09A703B681B68DBB20822BA18110018000A
S214004FC02F4B9847FB1D1B7818002E4B9847030065
S214004FD03B61FB1D1B78072213409B00FB603B6870
S214004FE0DB7A7B613B689B7A002B03D07B690822C7
S214004FF013437B61FB1D1B78DB08DBB21800FB1D2F
S2140050001B78DB08DBB23A6906339B00D3180433FF
S2140050101B680F21FA6891400A00D2431A4079694A
S214005020FB6899400B001A433969831D9B00CB1817
S21400503004331A603B685B7A002B0AD03B699A6996
S214005040FB1D1B78012199400B001A433B699A61AE
S2140050500CE03B699B69FA1D1278012191400A0019
S214005060D24313401B041A0C3B699A61064B9847BF
S214005070C046BD4606B080BDE14E0000A54C00000F
S21400508035620100F94C00007D4E000080B586B008
S21400509000AF7860584B7A689200D3583B613B6902
S2140050A01B68FB600A23FB183A69D28E1A803B699C
S2140050B09B8E9AB20A23FB180A21791809880A409F
S2140050C01A800823FB18FA6892891A80FB685B89A5
S2140050D09AB20823FB180821791809880A401A8012
S2140050E00823FB1800229B5E002B0DDA0A23FB1810
S2140050F01A888023DB00134002D03B691B6B98475D
S214005100FB683E4A9A8172E00823FB181B88FF2240
S214005110134041D01723FB1800221A701723FB18E0
S21400512000221A7032E00823FB181B881722BA18D0
S2140051301278012191400A001340FF22134012D03A
S2140051400A23FB181A881723FB181B781A4113002A
S2140051500122134007D01723FB181A783B69023246
S2140051609200D35898471723FB181B7801229A40C1
S21400517013009BB2FF2213409AB2FB689A81172352
S214005180FB181A781723FB1801321A701723FB181E
S2140051901B78072BC7D92AE00823FB181A88802318
S2140051A05B0013400ED00A23FB181A8880235B008E
S2140051B0134002D03B699B6A9847FB6880225200E6
S2140051C09A8114E00823FB181A8880239B0013405A
S2140051D00DD00A23FB181A8880239B00134002D0A8
S2140051E03B69DB6A9847FB68802292009A81C0463A
S2140051F0BD4606B080BDC046201200200080FFFFDE
S21400520080B500AF0020024B9847C046BD4680BD23
S2140052108D50000080B582B000AF78607B680022B9
S2140052201A70C046BD4602B080BD000080B582B090
S21400523000AF02003960FB1D1A70FB1D1B78042BA3
S21400524027D89A00164BD3181B689F46154B154A4D
S21400525051693A680A435A611DE0124B114A916936
S2140052603A680A439A6116E00E4B0E4AD1693A68CC
S2140052700A43DA610FE00B4B0A4A116A3A680A439E
S2140052801A6208E0074B074A516A3A680A435A62AC
S21400529001E0172300E000231800BD4602B080BDE1
S2140052A0E45202000004004080B582B000AF78608F
S2140052B07B6880221A707B6800225A707B68012205
S2140052C09A707B680022DA70C046BD4602B080BD88
S2140052D080B500AF054B9B78DBB21A000223134063
S2140052E05A1E9341DBB21800BD4680BD0020004127
S2140052F080B584B000AF78607B681B68FB60FB6895
S214005300DB69072213405A1E9341DBB21800BD46E4
S21400531004B080BD80B582B000AF7860C0467B68C0
S2140053201800044B9847031EF9D1C046BD4602B08C
S21400533080BDC046F1520000F0B597B000AF78616E
S21400534039610023FB6300233B650023FB643B239A
S21400535010229446BC44634400221A707B691B6882
S214005360BB637B691B687B6323231022BA18D4189F
S2140053707B6B1800C04B9847030023700C23102249
S2140053809446BC4463441800BC4B98473B69DB69B1
S2140053907B643B691B6A3B647B6C002B06D17B6B92
S2140053A000211800B64B984703007B647B6CDAB28A
S2140053B00C2310218C46BC4463441A700C23102224
S2140053C09446BC44634402225A707B6C1B0CDBB2CE
S2140053D00C2210218C46BC44624411001800A94BD4
S2140053E098473B6C002B06D17B6B01211800A44B21
S2140053F0984703003B643B6CDAB20C2310218C46C2
S214005400BC4463441A700C2310229446BC44634484
S21400541002225A703B6C1B0CDBB20C2210218C460D
S214005420BC44624411001800964B98473B699A8A20
S2140054307B69DA803B69DA8A7B691A813B691B7E65
S214005440002B03D1904B9847031E02D080237B6528
S21400545001E000237B653B691B69002B04D03B6998
S2140054601B697A6D13437B653B699B687A6D1343B2
S2140054707B653B6924229B5C002B04D07B6D8022DD
S214005480D20513437B653B699B6A002B04D03B69BE
S2140054909B6A7A6D13437B653B692C229B5C002BD1
S2140054A005D13B699A6880239B049A4204D17B6DA0
S2140054B08022120513437B653B692D229B5C002BE3
S2140054C004D07B6D8022120413437B653B692E2239
S2140054D09B5C002B04D07B6D8022D20313437B653C
S2140054E0BB6B1A687B6D1A43BB6B1A60BB6B802262
S2140054F052005A60232310229446BC4463441B780F
S2140055001233DBB21800614B98470300FB623B691D
S2140055101B68FA2292005343BB623B695B68FA221F
S214005520920053437B623B691B8E3B62584BF86A82
S214005530984705000E00564BB86A9847B860F96061
S214005540534BF86A9847534C534A544BA0470300B2
S2140055500C003B607C604E4B386A984702000B009C
S2140055604C4C38687968A04703000C0018002100EE
S2140055704B4C00224B4BA04703000C001A002300A4
S214005580444CB868F968A04703000C001A002300D2
S214005590454C28003100A04703000C001D002600E3
S2140055A0BB6A5A003A4B1000984702000B003C4C6E
S2140055B028003100A04703000C00180021003A4CD8
S2140055C000223A4BA04703000C001D002600BB6AD1
S2140055D05A002F4B1000984702000B00344C28004E
S2140055E03100A04703000C0019002200314B0800D0
S2140055F0110098470300FB633B699A6880239B046D
S2140056009A426AD1224BF86A9847254C02000B0052
S214005610A04703000C001D0026001D4B786A984723
S2140056201C4C0022244BA04703000C001A00230049
S2140056301F4C28003100A04703000C001800210072
S214005640194C0022194BA04703000C001900220039
S214005650184B0800110098470300FB64FB6C002BF6
S2140056602ED0164B796AF86A984703009A1EFB6C90
S214005670D31A3B6531E0C04639540100A9520000F8
S2140056807D52010035620100D152000071600100B8
S214005690290D0200D100020095D626E80B2E113EF9
S2140056A049F2010000002440D10502000000F03F4E
S2140056B069F801003D0C02000000084049DF0100C7
S2140056C07B6A5A00FB6AD3185A1E7B6A59001D4B28
S2140056D0100098470300013B3B65FB6BFF2B08DC83
S2140056E0FB6B002B05DB3B6DFF2B02DC3B6D002BC1
S2140056F006DA3B2310229446BC44634440221A70C8
S2140057003B2310229446BC4463441B78402B0ED0A7
S214005710FB6BFF221A403B6D1B041900FF231B0482
S2140057200B401343FA6C12061A43BB6BDA603B233A
S21400573010229446BC4463441B781800BD4617B03C
S214005740F0BDC04649DF010090B58BB000AFF860F1
S214005750B9607A60FB68BA681A60FB681B68FB6110
S214005760FB681B681800444B98470300BB61BB6985
S214005770052B04D101237B6218233B6204E0BB693E
S2140057807B62BB6912333B62BB69052B08D10122E1
S2140057907B6A9A40130019000320384B984707E0AD
S2140057A001227B6A9A40130019000220334B984767
S2140057B01423FB181800324B98477B681A7B142377
S2140057C0FB181A703B6ADBB21422BA1811001800D4
S2140057D02C4B98473B6ADBB218002B4B98477B68EC
S2140057E01B7B00211800294B9847FB691B68022287
S2140057F0134001D01C233BE0FB691B6801221340C9
S21400580001D0052334E0FB681B681722BC1818007B
S214005810194B9847030023701D4A1723FB181B7863
S214005820110018001B4B98471723FB181A781A4BC1
S2140058309200F968D150FB6800221A76FB680022B5
S2140058405A76FB6800225A83FB6800229A83FB681C
S214005850252200219954FB6800221A62FB69142253
S2140058601A607A68FB68110018000C4B9847030012
S2140058701800BD460BB090BD395401002D520000F3
S21400588015520000815F0100C15F0100F151010067
S2140058908D600000156300002412002039530000BC
S2140058A080B584B000AF78607B681B68FB60FB68DF
S2140058B01B7EDBB21A00022313400BD0FB680222C9
S2140058C01A76FB685B8B9BB21A000223134011D03A
