:1000000088730020B59300004994000049940000D3
:1000100000000000000000000000000000000000E0
:1000200000000000000000000000000049940000F3
:100030000000000000000000499400004994000006
:1000400049940000C9140000F56F0000B169000078
:1000500049940000499400004D12000049940000AA
:10006000B9810000D1810000E98100000182000017
:100070001982000031820000499400004994000078
:10008000499400009D8C0000B18C0000000000002D
:1000900000000000C58C0000499400004994000055
:1000A00049940000499400004994000049940000DC
:1000B0000000000010B5064C2378002B07D1054B3B
:1000C000002B02D0044800E000BF0123237010BDC4
:1000D000500C0020000000009CA00200084B10B54E
:1000E000002B03D00749084800E000BF0748036819
:1000F000002B00D110BD064B002BFBD09847F9E731
:1001000000000000540C00209CA002009CA00200F3
:100110000000000080B582B000AF39601100FB1D07
:10012000021C1A70BB1D0A1C1A70FB1D1B785A1E7C
:100130009341DAB2044B1A70044B01221A70C04684
:10014000BD4602B080BDC046880E00200D000020D4
:1001500090B587B002AFB9607A603B600F23FB189F
:10016000021C1A702F4B1B78DBB201225340DBB20A
:10017000002B01D0002351E02A4B00221A700F23DC
:10018000FB181B78002B01D0812000E002203B6887
:10019000002B01D03B6800E0234B7968BA680093DC
:1001A0000B000021214CA04703001A0001235340FB
:1001B000DBB2002B04D01B4B01221A7000232DE070
:1001C0003B68002B23D1C046164B1B78DBB20122C3
:1001D0005340DBB2002BF7D1154B1B78DBB2002B61
:1001E00001D000231AE0134B9A687B68D21A114B96
:1001F0009A600F4B1B78DBB25A1E9341DBB201228F
:100200005340DBB21A1C01231340DBB206E0094B5A
:100210009A687B68D21A074B9A6001231800BD4682
:1002200005B090BD0D000020150100003103000055
:10023000880E00200000002080B582B000AFEFF3F0
:1002400010837B607B685A425341DBB23B6072B6DD
:10025000BFF35F8F034B00221A703B681800BD4646
:1002600002B080BDAD00002080B582B000AF7860E4
:100270007B685A1E9341DBB21800BD4602B080BDB8
:1002800080B582B000AF78607B681800064B984755
:10029000031E05D0054B01221A70BFF35F8F62B6B3
:1002A000C046BD4602B080BD69020000AD0000201E
:1002B00080B582B000AF0200FB1D1A70FB1D1B78D9
:1002C000002B03D0FB1D1B78802B01D1002312E0F3
:1002D000FB1D1B780F2213405B00FA1D127852B2EF
:1002E000D2B2D209D2B29B189A1E13009B009B185F
:1002F0009B00034A9B181800BD4602B080BDC04653
:100300006C0C002080B582B000AF0200FB1D1A709B
:10031000FB1D1A78044B11001800044B984703008A
:100320001800BD4602B080BD0C0F0020F50A000089
:1003300090B589B000AFBA607B600F23FB18021C38
:100340001A700E23FB180A1C1A701D23FB180F22AB
:10035000BA1812780F210A401A701D23FB181B7857
:10036000022B07D80F23FB181B7818009F4B9847C8
:10037000031E01D0002334E10F23FB181B78180063
:100380009B4B98470300BB619A4B984703007B61E6
:10039000BB699B7C01221340DBB2002B05D07B693B
:1003A0001800954B984700231BE1BB699A7C0121FB
:1003B0000A439A747B6918008F4B9847BB69BA68E7
:1003C0005A60BB697A689A60BB690022DA60BB69CF
:1003D0003A6B1A60BB690E22BA18127801210A40E2
:1003E00090189A7C02218A43111C021C0A439A74B9
:1003F000BB699A7C04218A439A740F23FB181B78EB
:100400005BB2002B00DB78E0BB699B68002B3FD020
:10041000BB699A681E23FB181A801E23FB181B88D1
:10042000764A93420DD9BB691B8A1900734A744BF3
:10043000100098470B009AB21E23FB186F498A1AC6
:100440001A80BB699B7C02221340DBB2002B0DD0CB
:10045000BB69198A1E23FB181A886A4B100098473B
:100460000B009BB2002B01D1012300E00023DBB283
:100470001A1C01231340DAB2BB6901210A4090180B
:100480009A7C02218A43111C021C0A439A7423E0BD
:10049000BB699B7C02221340DBB2002B09D0BB69F5
:1004A0009A7C02218A439A741E23FB1800221A8028
:1004B00012E0BB699A7C01218A439A74BB691B686C
:1004C000002B07D0BB691B680F22BA1812780021D5
:1004D00000209847012384E0BB695A681E23FB185B
:1004E0001C881D23FB18197847482300474CA04758
:1004F00003005A425341DBB273E0BB699B68002B97
:100500005DD0BB699A681E23FB181A801E23FB1856
:100510001B883A4A93420ED9BB691B8A1900374A95
:10052000374B100098470B009AB21E23FB18334933
:100530008A1A1A8010E0BB69198A1E23FB181A88D0
:10054000304B100098470B009AB21E23FB181E2157
:10055000791809888A1A1A80BB691B8A1E22BA1860
:1005600012889A421AD2BB699A7C04210A439A746F
:100570001D23FB181B78013B9A01254BD218BB6940
:100580001B8A1C001D23FB1819781F482300214CCF
:10059000A04703005A425341DBB222E0BB695A68CC
:1005A0001E23FB181C881D23FB18197816482300EE
:1005B000184CA04703005A425341DBB211E0BB691B
:1005C0009A7C01218A439A74BB691B68002B07D06F
:1005D000BB691B680F22BA181278002100209847C7
:1005E00001231800BD4609B090BDC04605030000B8
:1005F000B10200003902000081020000FF1F00006C
:100600009D0E0200C90C02000C0F0020690B0000B7
:100610008C0E00201D0C000080B582B000AFC04BD6
:100620001B681B681B8C9BB2002B0AD0BC4B1B6841
:100630001B681B8C9BB21A00BA4B10009847030032
:1006400000E020237B607B681F2B00D974E1B44B52
:100650001B681A687B6808335B01D31807331B7863
:10066000DBB23B603B680322134000D188E00122EB
:100670007B689A401300DB431A00AB4B1B681A409F
:10068000A94B1A60A64B1B681A687B6808335B018C
:10069000D318073303221A70A14B1A68AE217B6866
:1006A000D3185B181B781A000123134068D07B68AD
:1006B000DAB29E4B1A709A4B1B681B687A68083234
:1006C0005201D35C9B079B0FDBB2012B1ED1984AD2
:1006D0007B685B01D3185B689B049B0C9BB21A0080
:1006E000924B5A80924A7B685B01D3185B681B016E
:1006F0009B0C9BB21A008D4B9A808D4A7B685B01E4
:10070000D3185A68920B92035A602CE0884A7B688F
:100710005B01D3185B681B019B0C9BB21A00834BD7
:100720005A80834A7B685B01D3185B689B049B0CEF
:100730009BB21A007D4B9A807D4A7B685B01D3187F
:100740005A687C490A405A60784B5B88002B0AD172
:10075000774A7B685B01D3185B689B049B0C9BB258
:100760001A00724B5A806E4B1A687B6802331B0169
:10077000D31804331A686A4B1B686C4918009047F9
:100780003B680422134014D001227B689A40130076
:10079000DB431A00644B1B681A40634B1A60604BC2
:1007A0001B681A687B6808335B01D318073304227F
:1007B0001A703B68082213403CD001227B689A40A3
:1007C0001300DB431A00584B1B681A40564B1A6043
:1007D000534B1B681A687B6808335B01D3180733D7
:1007E00008221A704E4B1A68AE217B68D3185B182A
:1007F0001B781A00022313401CD07B68DAB24B4BE3
:100800001A704B4A7B685B01D3180E331B889BB26E
:10081000DBB21F221340DAB2444B5A70404B1A68C5
:100820007B681B01D31828331A683D4B1B683F496E
:10083000180090473B68102213403AD001227B6891
:100840009A401300DB431A00374B1B681A40364BA3
:100850001A60334B1B681A687B6808335B01D31836
:10086000073310221A702E4B1A68AE217B68D318FA
:100870005B181B781A00042313401AD07B68DAB285
:100880002A4B1A702A4A7B685B01D3185B681B01EC
:100890009B0C9BB21A00254B5A80214B1A687B682F
:1008A0001B01D3182C331A681D4B1B68002118003C
:1008B00090473B682022134000D112E101227B685F
:1008C0009A401300DB431A00174B1B681A40164B63
:1008D0001A60134B1B681A687B6808335B01D318D6
:1008E000073320221A700E4B1A68AE217B68D3188A
:1008F0005B181B781A000823134000D1F1E07B68D5
:10090000DAB20A4B1A70064B1A687B681B01D318BF
:1009100030331A68024B1B68044918009047E0E026
:10092000BC0C0020D50F0200D40C0020C00C00200D
:10093000CC100020FF3F00F06C4B1B681B689B8BAA
:100940009BB23B603B680422134013D0674B1B688B
:100950001B6804229A83654B1B68A5229B5C1A00C6
:100960000123134006D0614B1B685A685F4B1B681C
:10097000180090473B680822134016D05C4B0022B9
:100980001A605A4B1B681B6808229A83574B1B68D6
:10099000A5229B5C1A000223134006D0534B1B6810
:1009A0009A68524B1B68180090473B6840221340DE
:1009B00013D04E4B1B681B6840229A834B4B1B681D
:1009C000A5229B5C1A001023134006D0474B1B68DE
:1009D0005A69464B1B68180090473B682022134019
:1009E00013D0424B1B681B6820229A833F4B1B6825
:1009F000A5229B5C1A000823134006D03B4B1B68C2
:100A00001A693A4B1B68180090473B681022134044
:100A100013D0364B1B681B6810229A83334B1B681C
:100A2000A5229B5C1A000423134006D02F4B1B68A1
:100A3000DA682E4B1B68180090473B6880221340F1
:100A400016D02B4B00221A60284B1B681B68802293
:100A50009A83264B1B68A5229B5C1A002023134017
:100A600006D0224B1B689A69204B1B6818009047E0
:100A70003A6880235B00134017D01D4B00221A6098
:100A80001A4B1B681B68802252009A83174B1B6805
:100A9000A5229B5C1A004023134006D0134B1B6811
:100AA000DA69124B1B68180090473A6880239B0054
:100AB000134016D00E4B00221A600C4B1B681B68AB
:100AC000802292009A83094B1B68A5229B5C5BB233
:100AD000002B06DA054B1B681A6A044B1B681800CA
:100AE0009047C046BD4602B080BDC046BC0C002049
:100AF000D40C002080B584B000AF78600A00FB1CE5
:100B00001A700F23FB18FA1C12780F210A401A7072
:100B1000FB1C1B785BB2002B11DA7B681A680F2371
:100B2000FB181B7808335B01D31806331B78DBB244
:100B30001A00202313405A1E9341DBB210E07B6859
:100B40001A680F23FB181B7808335B01D318063390
:100B50001B78DBB21A00102313405A1E9341DBB2FC
:100B60001800BD4604B080BD80B586B000AFF86007
:100B70007A603B600B23FB180A1C1A70FB681B6829
:100B80000B22BA18127808325201D35C5B065B0F55
:100B9000DAB21723FB181A701723FB181B78002BE7
:100BA00001D11C2332E00B23FB181B787A6819490A
:100BB0005B01CB1810331A600B23FB181B78154A06
:100BC0005B01D31810335A6813490A405A600B234B
:100BD000FB181B783A6892B29204920C91B20D4ABB
:100BE0005B01D31810335A688904890C920B920365
:100BF0000A435A60FB681A680B23FB181B780833FA
:100C00005B01D318053380221A7000231800BD46FB
:100C100006B080BDCC100020FF3F00F080B586B04C
:100C200000AFF8607A603B600B23FB180A1C1A7057
:100C3000FB681B680B22BA18127808325201D35C89
:100C40005B075B0FDAB21723FB181A701723FB1828
:100C50001B78002B01D11C232FE00B23FB181A78E3
:100C60007968184B5201D1500B23FB181B783A6856
:100C700092B29204920C91B2124A5B01D3185A6854
:100C80008904890C8903104802400A435A600B23E7
:100C9000FB181B780B4A5B01D3185A68920B92031E
:100CA0005A60FB681A680B23FB181B7808335B013A
:100CB000D318043340221A7000231800BD4606B032
:100CC00080BDC046CC100020FF3F00F080B584B04E
:100CD00000AFBD4B1B681A680823FB18128C1A80E2
:100CE0000823FB181B88002B55D1B74B1B681A68CB
:100CF000BB1D928B1A80B44B1A68AB235B00D35A8E
:100D0000BA1D128813409AB2AF4B1968AA235B0030
:100D1000C95A3B1D0A401A800023FB6037E0AB4BE9
:100D2000FA685200D35ABA1D128813409BB2002BA6
:100D300007D0A54B1B681B68A44AF96849008A5A6A
:100D40009A83A24BFA685200D35A3A1D1288134074
:100D50009BB2002B18D0FB68062B0AD19C4B1B8939
:100D60005B045B0D9BB21A0080235B001A40994B19
:100D70001A60954B1B68FA682E329200D258924B3B
:100D80001B68944918009047FB680133FB60FB68BF
:100D9000062BC4DD50E20B23FB1800221A703BE245
:100DA0000823FB181A880B23FB181B781A41130021
:100DB0000122134000D128E2834B1B681A680B23E1
:100DC000FB181B7808335B01D31807331B78DAB2A2
:100DD000BB1D1A807C4B19680B23FB181A78B023B3
:100DE0005B008A18D3181B789BB2BA1D1288134077
:100DF0009BB21AB2744B18680B23FB181978AC23FA
:100E00005B004118CB181B781BB213401AB23B1D74
:100E10001A80BB1D1B88602213405CD06A4B1B6884
:100E20001A680B23FB181B7808335B01D3180733B0
:100E30001B78DBB21A004023134015D0624B1B68AD
:100E40001A680B23FB181B7808335B01D318073390
:100E500040221A700B23FB181B7880225242134346
:100E6000DAB25D4B9A7120E0574B1B681A680B236E
:100E7000FB181B7808335B01D31807331B78DBB2F0
:100E80001A002023134010D04F4B1B681A680B2305
:100E9000FB181B7808335B01D318073320221A7024
:100EA0004D4B0B22BA1812789A713B1D1B88602299
:100EB000134000D1B7E1444B1A680B23FB181B7891
:100EC000E0211B01D3185B181A683F4B1B6842498D
:100ED00018009047A7E1BB1D1B881022134038D093
:100EE000394B1B681A680B23FB181B7808335B010E
:100EF000D318073310221A70334B19680B23FB18D1
:100F00001A78B0235B008A18D3181B78102213407C
:100F1000DBB2002B00D188E10B23FB181B782C4A95
:100F20005B01D3185B689B049B0C9BB21A002A4B95
:100F30001A80254B1A680B23FB181B78DC211B0138
:100F4000D3185B181A68204B1B6823491800904778
:100F50006BE1BB1D1B880322134000D18FE01A4BAD
:100F60001B681A680B23FB181B7808335B01D31826
:100F700007331B78DBB21A00022313402ED0124B2A
:100F80001B681A680B23FB181B7808335B01D31806
:100F9000073302221A700B23FB181B78802252425F
:100FA0001343DAB20C4B9A710B23FB181B78084AD7
:100FB0005B01D31810335B689B049B0C9BB21A0037
:100FC000054B5A8045E0C046BC0C0020587D02000D
:100FD000CC100020C80C0020CC0C0020984B1B68C3
:100FE0001A680B23FB181B7808335B01D3180733EF
:100FF0001B78DBB21A00012313402AD0904B1B68E8
:101000001A680B23FB181B7808335B01D3180733CE
:1010100001221A708B4B0B22BA1812789A710B238B
:10102000FB181B78884A5B01D3185B689B049B0CF8
:101030009BB21A00834B1A800B23FB181B78824A41
:101040005B01D3185B681B019B0C9BB21A007D4BA4
:101050009A803B1D1B880322134000D1E7E0784BA8
:101060001A680B23FB181B780D331B01D3180433AC
:101070001A68734B1B68734918009047D7E0BB1D73
:101080001B880C22134000D1BFE06D4B1B681A680F
:101090000B23FB181B7808335B01D31807331B782D
:1010A000DBB21A000823134047D0654B1B681A684F
:1010B0000B23FB181B7808335B01D3180733082276
:1010C0001A700B23FB181B785F4A5B01D3181A3385
:1010D0001B78DBB21A000223134014D00B23FB1839
:1010E0001B780B22BA181278574952018A181A3203
:1010F0001278D2B202218A43D1B2534A5B01D3188B
:101100001A330A1C1A700B23FB181B7880225242D8
:101110001343DAB24B4B9A71494B1B681A680B2385
:10112000FB181B7808335B01D31807331B78DBB23D
:101130001A000223134053D07EE0414B1B681A680B
:101140000B23FB181B7808335B01D31807331B787C
:10115000DBB21A000423134042D0394B1B681A68D3
:101160000B23FB181B7808335B01D31807330422C9
:101170001A700B23FB181B78334A5B01D3180A3310
:101180001B78DBB21A000223134014D00B23FB1888
:101190001B780B22BA1812782B4952018A180A328E
:1011A0001278D2B202218A43D1B2274A5B01D31806
:1011B0000A330A1C1A70234B0B22BA1812789A7140
:1011C0001F4B1B681A680B23FB181B7808335B0145
:1011D000D31807331B78DBB21A000123134028D140
:1011E0003B1D1B880C22134025D0154B1A680B237E
:1011F000FB181B78D8211B01D3185B181A68104BF9
:101200001B6810491800904715E00B23FB181A784B
:101210000B23FB1801321A700B23FB181B78072BCA
:1012200000D8BDE508E0C04606E0C04604E0C04680
:1012300002E0C04600E0C046BD4604B080BDC046E6
:10124000BC0C0020CC0C0020CC10002080B500AFDE
:10125000084B1B681B681B781B06DB0FDBB2002BDF
:1012600002D0054B984701E0044B9847C046BD4665
:1012700080BDC046BC0C002019060000CD0C00004B
:1012800080B582B000AF02003960FB1D1A70FB1DF3
:101290001B78042B27D89A00164BD3181B689F463F
:1012A000154B154A51693A680A435A611DE0124BC1
:1012B000114A91693A680A439A6116E00E4B0E4A48
:1012C000D1693A680A43DA610FE00B4B0A4A116AA6
:1012D0003A680A431A6208E0074B074A516A3A68BB
:1012E0000A435A6201E0172300E000231800BD46BC
:1012F00002B080BD687D02000004004080B582B06D
:1013000000AF064B7B607B689B68002B01D00123FC
:1013100000E000231800BD4602B080BD001C004064
:1013200080B582B000AF074B7B607B681B78DBB277
:101330001A00802313405A1E9341DBB21800BD46A9
:1013400002B080BD001C004080B584B000AF786062
:10135000474BBB6080210020464B9847464B98473F
:10136000031E01D010237EE07B689B78002B01D107
:10137000172378E07B689A787B68DB789A4205D3FC
:101380007B689A787B681B799A4201D217236AE0BE
:10139000BB681B78DBB202229343DAB2BB681A70D7
:1013A000C046364B9847031EFBD17B685B78012211
:1013B0005340DBB2002B01D0002354E00023FB603C
:1013C0007B689B78013B1A00FB681343FB607B68DA
:1013D000DB78002B10D0BB681B78DBB204221343F0
:1013E000DAB2BB681A707B68DB78013B1B011A001C
:1013F000FB681343FB6007E0BB681B78DBB2042289
:101400009343DAB2BB681A70C0461C4B9847031E60
:10141000FBD1FB68DAB2BB685A707B681B79002B82
:1014200005D07B681B79013BDAB2BB689A707B6898
:101430001B78002B09D0BB681B78DBB2802252429C
:101440001343DAB2BB681A7007E0BB681B78DBB2E3
:1014500002221343DAB2BB681A70C046074B9847A2
:10146000031EFBD100231800BD4604B080BDC0465A
:10147000001C00408112000021130000FD1200003A
:1014800080B582B000AF074B7B607B68A5221A73E2
:10149000C046054B9847031EFBD1C046BD4602B06F
:1014A00080BDC046001C0040FD12000080B582B027
:1014B00000AF044B7B607B6801229A71C046BD4639
:1014C00002B080BD001C004080B500AF054B9847BE
:1014D000054B1B68002B02D0034B1B689847C04686
:1014E000BD4680BDAD140000CC11002080B584B095
:1014F00000AF0200FB1D1A70BB1D0A1C1A70FB1DF9
:101500001B78622B0FD002DC4C2B1CD023E0672B06
:1015100011D0722B1FD1294BFB600B23FB18284ADB
:10152000127C1A701EE0274BFB600B23FB18244A29
:10153000127C1A7016E0244BFB600B23FB18204A28
:10154000127C1A700EE0214BFB600B23FB181C4A27
:10155000527C1A7006E01D4BFB600B23FB18184AE7
:10156000527C1A70BB1D1B785BB2002B0FDDFB6831
:101570001B780B22BA1812789A4218D9FB681A788D
:10158000BB1D1B78D318DAB2FB681A700FE0BB1DC5
:101590001B787F2B0BD9FB681B78002B07D0FB68CF
:1015A0001A78BB1D1B78D318DAB2FB681A70084B87
:1015B0009847084B1800BD4604B080BD14000020B9
:1015C000A83400201500002016000020B4340020AC
:1015D000B91600001000002080B500AF084B9B7CBE
:1015E0000133DAB2064B9A74054B9B7C062B02D969
:1015F000034B01229A74034B9847C046BD4680BDF9
:10160000A8340020B916000080B500AF084B1A7B43
:10161000074B5B7C9A4205D2054B1B7B0133DAB248
:10162000034B1A73034B9847C046BD4680BDC04666
:10163000A8340020B916000080B500AF074B1B7B13
:10164000002B05D0054B1B7B013BDAB2034B1A7311
:10165000034B9847C046BD4680BDC046A834002015
:10166000B916000080B500AF094B1B7B0133DAB21D
:10167000074B1A73064B1A7B054B5B7C9A4202D9C7
:10168000034B00221A73034B9847C046BD4680BDEA
:10169000A8340020B916000080B500AF044B9B7C35
:1016A0001A00044B9200D3581B681800BD4680BD39
:1016B000A83400204800002080B500AF034B18007C
:1016C000034B9847C046BD4680BDC046B434002099
:1016D000D5160000F0B591B000AFF8616B46BB6164
:1016E000FB699B791A00974B9200D3581A79964B55
:1016F00010009847031CBB63FB699B791A00914B50
:101700009200D3589A79904B10009847031C7B6342
:10171000FB699B791A008B4B9200D3585A798A4BFC
:1017200010009847031C3B63884B796BB86B984754
:10173000031C1A1C854B396B101C9847031C1A1C80
:10174000834B111CFE2080059847031CFB62FB693C
:101750001B781A007F4B10009847021C7E4BF96AD9
:10176000101C9847031C1C1CFB695B791A00794B01
:1017700010009847021C764B111C201C9847031C34
:10178000FB62754BF96AB86B9847031CBB63724BDD
:10179000F96A386B9847031C3B636F4BF96A786BA7
:1017A0009847031C7B636C4B6C49B86B9847031CD0
:1017B0001A1C262318217918CC18694B101C98473D
:1017C00003002370644B6549386B9847031C1A1C4F
:1017D000272318217918CC18614B101C9847030057
:1017E00023705D4B5D49786B9847031C1A1C1323CB
:1017F00018217918CC185A4B101C984703002370F5
:10180000262318229446BC4463441B78E12B06D956
:10181000262318229446BC446344E1221A702723ED
:1018200018229446BC4463441B78E12B06D9272335
:1018300018229446BC446344E1221A7027231822DC
:101840009446BC4463441B78E12B06D92723182215
:101850009446BC446344E1221A7010231822944633
:10186000BC4463440A221A80102318229446BC44C4
:1018700063441B881A00013A7A62BB600022FA6056
:10188000B868F9680200520F0C00E4007C617C69C2
:1018900014437C610200D2003A613B6000227A600E
:1018A000386879680200520F0C00E6001643020007
:1018B000D5000733DB08DB006A46D31A9D466B462A
:1018C00000333B623B6A80221A703B6A80225A7066
:1018D0003B6A08229A703B6A272218218C46BC4436
:1018E00062441278DA703B6A132218218C46BC4499
:1018F000624412781A713B6A262218218C46BC4435
:10190000624412785A713B6A00229A713B6A002243
:10191000DA713B6A00221A723B6A2A225A723A6AC8
:10192000102318218C46BC4463441B88DBB262211F
:1019300001200C4CA047BB699D46C046BD4611B076
:10194000F0BDC04648000020311E0200D510020044
:10195000F9130200911D0200D91702000000614333
:101960006910020069060100F0B5C64600B58AB0EC
:1019700000AF684678600E2018239C46BC44604443
:101980000A239C46634603800E2318203818C0188B
:101990000088844601235B429846C44463463B6208
:1019A000386100237B613B695B0F9C467B69DA00F1
:1019B00063461A433B69D9000500002216006A0FEE
:1019C000F300FB60FB681343FB60EB00BB600300AC
:1019D0000733DB08DB006A46D31A9D466B460033AB
:1019E000FB61FB6980221A70FB6980225A70FB69D7
:1019F00008229A70FB690022DA70FB6900221A71D2
:101A0000FB6900225A71FB6900229A71FB6900226E
:101A1000DA71FB6900221A72FB692A225A72FA698A
:101A20000E2318218C46BC4463441B88DBB2622120
:101A30000120054CA0477B689D46C046BD460AB0C4
:101A400004BC9046F0BDC0466906010080B582B076
:101A500000AFBB1D1A0000210020134B9847BB1D8F
:101A60001B88022213409AB2BB1D1A80BB1D1B8823
:101A7000002B01D00D4B9847BB1D1A000021002000
:101A8000094B9847BB1D1B88022293439AB2BB1D8A
:101A90001A80BB1D1A0000210120034B9847C04645
:101AA000BD4602B080BDC046A9070100B11A0000C2
:101AB00080B582B000AFBB1D1A003D2100204D4B08
:101AC000984708E00A204C4B9847BB1D1A003D215F
:101AD0000020484B9847BB1D1B881A000123134068
:101AE000F0D1464B1A0018210120424B9847434B36
:101AF0001B885B099AB2BB1D1A80BB1D1A004521C9
:101B000001203C4B98473E4B1A001E210120394BC7
:101B100098473C4B1A003A210120364B98473A4BE4
:101B20001A00BA210020334B9847BB1D90221A801F
:101B3000BB1D1A00602101202E4B9847BB1D0022BF
:101B40001A80BB1D1A00BA2101202A4B9847BB1DE1
:101B500000221A80BB1D1A0060210120254B9847E6
:101B6000264B1B885B099AB2BB1D1A80BB1D1B88C4
:101B7000264A53439AB2BB1D1A80BB1D1A881F4BBD
:101B80001988234B1000984703009AB2BB1D1A8096
:101B9000BB1D1A0046210120164B9847BB1D1D4A4C
:101BA0001A80BB1D1A00D8210120124B9847BB1D7B
:101BB00000221A800FE00A200F4B9847BB1D1A0025
:101BC000D82100200B4B9847BB1D1B88DB0BDB0388
:101BD0009AB2BB1D1A80BB1D1B88002BEBD00A4B91
:101BE0001A00BA210120034B9847C046BD4602B0F7
:101BF00080BDC046A9070100B58101006400002036
:101C00006600002068000020881300206AACFFFFF7
:101C1000BD0B02000080FFFF90B583B000AFBB1D7D
:101C20001A0006210020154B9847BB1D1B881B0A74
:101C30009AB2BB1D1A80BB1D1B881A00104B1000E6
:101C40009847104C104A114BA04703000C00190094
:101C500022000F4B08001100984703009AB2BB1DE9
:101C60001A80BB1D1B88642B02D9BB1D64221A80FD
:101C7000BB1D1B881800BD4603B090BDA90701001D
:101C800019390200452D02007B14AE47E17AF03F7E
:101C90009910020080B582B000AF0B4B5A68FA234E
:101CA0005B009A4203D1FB1D06221A7002E0FB1D65
:101CB00000221A70FB1D1A0002210120034B9847D5
:101CC000C046BD4602B080BDA834002069080100AE
:101CD00090B583B000AFFC1D0B20084B9847030064
:101CE0002370FB1DFA1D127807210A401A70FB1D94
:101CF0001B781800BD4603B090BDC046011D000012
:101D000080B584B000AF0200FB1D1A700F23FA18D3
:101D1000FB1D1B7819000020044B98470F23FB186C
:101D20001B781800BD4604B080BDC046690801009C
:101D300080B584B000AF02003960FB1D1A700E231D
:101D4000FB1880221A700F23FB1800221A7025E05E
:101D5000FB1D0E22BA181B7812781340DBB2002B41
:101D600007D00F23FB181B783A68D31831221A705A
:101D700006E00F23FB181B783A68D31830221A703C
:101D80000E23FB180E22BA18127852081A700F236D
:101D9000FB181A780F23FB1801321A700F23FB1857
:101DA0001B78072BD4D93B68083300221A70C04631
:101DB000BD4604B080BD000080B586B000AF3B00DA
:101DC00018000F4B98471723FB1814221A7017237B
:101DD000FB181A780B4981235B0018000A4B9847BF
:101DE000084BDA7C3B00DB7C9A4205D0054B18009F
:101DF000034B9847054B9847C046BD4606B080BD8B
:101E000019E10100A8340020ED1F0000111E0000A0
:101E100080B582B000AFFB1D14221A70FB1D1A782A
:101E2000044981235B001800034B9847C046BD4618
:101E300002B080BDA8340020F520000080B59AB023
:101E400000AF6723FB1854221A706623FB18602228
:101E50001A703B1D1800304B98476623FB181A7800
:101E60002E49C0239B0018002D4B98476623FB1872
:101E70001A782C498023DB001800294B98476623E9
:101E8000FB181A782849A023DB001800244B984738
:101E90006623FB181A782549C023DB001800204B65
:101EA00098476623FB181A782149E023DB001800C5
:101EB0001B4B98476723FB181A781E4980231B0188
:101EC0001800174B98476723FB181A781A49902374
:101ED0001B011800124B98473B1D1A780F4B1B78BB
:101EE0009A4215D00D4B18000B4B98470D4B18001C
:101EF000094B98470C4B1800074B98470B4B1800A1
:101F0000054B98470A4B1800034B98470B4B9847D3
:101F1000C046BD461AB080BDB9E30000384F00206E
:101F2000ED1F0000144B002034340020AC230020AF
:101F300088480020481E0020DC340020411F00009B
:101F400080B582B000AFFB1D54221A70BB1D602209
:101F50001A70BB1D1A781D49C0239B0018001C4B2A
:101F60009847BB1D1A781B498023DB001800184BCB
:101F70009847BB1D1A781849A023DB001800144BA2
:101F80009847BB1D1A781549C023DB001800104B79
:101F90009847BB1D1A781249E023DB0018000C4B50
:101FA0009847FB1D1A780F4980231B011800084B26
:101FB0009847FB1D1A780C4990231B011800044B0D
:101FC0009847C046BD4602B080BDC046384F00208D
:101FD000F5200000144B002034340020AC230020F6
:101FE00088480020481E0020DC34002080B588B0DE
:101FF00000AF39601100BB1D021C1A807B1D0A1C3A
:102000001A701C23FB1814221A801023FB181800C6
:102010000C231A000021334B98471023FB1857223A
:102020001A801023FB183A685A60BB1D1B881B0AD4
:102030009BB2DAB20C23FB181A70BB1D1B88DAB2F4
:102040000C23FB185A701023FB180C22BA185A6084
:102050001023FB1802225A801E23FB1800221A802C
:102060000BE01E23FB181B881E22BA18591C118076
:102070001C22BA1812889A4209D01023FA181A4B57
:1020800011001800194B9847031EEAD100E0C04622
:102090001023FB183A685A607B1D1B789AB21023F4
:1020A000FB185A801E23FB1800221A800BE01E2307
:1020B000FB181B881E22BA18591C11801C22BA1842
:1020C00012889A4209D01023FA18074B1100180001
:1020D000074B9847031EEAD100E0C046C046BD4604
:1020E00008B080BD9D3C0200AC120020D17B0000F6
:1020F000197A000090B593B000AF39601100BB1D94
:10210000021C1A807B1D0A1C1A704023FB18C8226F
:102110001A800C23FB181822BA185A600C23FB18DB
:1021200000221A720C23FB1800225A720C23FB188F
:1021300000229A720C23FB1857221A807B1D1B78F1
:102140005B09DBB21A00564B1000984703000C00E5
:1021500018002100534B9847534C0022534BA04783
:1021600003000C00190022003F23FC18504B08000C
:1021700011009847030023704623FB1800221A70B1
:1021800081E07B1D1B78202B09D94523FB182022D9
:102190001A707B1D7A1D1278203A1A7004E04523CC
:1021A000FB187A1D12781A704523FB181B789BB216
:1021B00002339AB20C23FB185A804623FB181B7873
:1021C0009BB25B0199B23C23FB18BA1D12888A1896
:1021D0001A803C23FB181B881B0A9BB2DAB2182317
:1021E000FB181A703C23FB181B88DAB21823FB1863
:1021F0005A704723FB1800221A7019E04723FB1876
:102200001B7802334622BA18127851014722BA18B5
:1022100012788A1811003A68521811781822BA18E0
:10222000D1544723FB181A784723FB1801321A7040
:102230004723FA184523FB1812781B789A42DDD3FE
:102240004223FB1800221A800BE04223FB181B8854
:102250004222BA18591C11804022BA1812889A4298
:1022600009D00C23FA18134B11001800124B984791
:10227000031EEAD100E0C0464623FB181A78462325
:10228000FB1801321A704623FA183F23FB18127804
:102290001B789A4200D274E7C046BD4613B090BD89
:1022A00019390200F5E10100BD1E02000000F03FF7
:1022B00099100200AC120020D17B000080B582B0E2
:1022C00000AF78607B685B091800BD4602B080BD36
:1022D00080B582B000AF78607B68DB01034A94462A
:1022E00063441800BD4602B080BDC04600280040CF
:1022F00080B582B000AF78607B681800054B9847C6
:1023000003001800044B984703001800BD4602B0B4
:1023100080BDC046BD220000D122000080B582B041
:1023200000AF78607B681F22134001229A4013009F
:102330001800BD4602B080BD90B583B000AF786094
:102340000A00FB1C1A70FB1C1B78002B0BD07B684F
:1023500018000C4B984704007B6818000A4B9847FC
:102360000300A3610AE07B681800064B984704004D
:102370007B681800044B984703006361C046BD4664
:1023800003B090BDF12200001D23000080B582B093
:1023900000AF78600A00FB1C1A70FB1C1A787B687F
:1023A00011001800024B9847C046BD4602B080BDE0
:1023B0003923000080B500AF0D4B9A680D4BFA2110
:1023C0008905101C9847031C1A1C094B9A60084B7E
:1023D0009A68094B0949101C9847031E00D103E075
:1023E000034BFC2292059A60C046BD4680BDC046A4
:1023F000A8340020D5100200710F020000004040F8
:10240000F0B599B002AF7860C94B9A69C84BD969E9
:10241000C84B101C9847031E07D0C54B9A69C64B82
:10242000C649101C9847031C06E0C14BDA69C24B31
:10243000C249101C9847031CBB64BD4B1A6ABC4BB5
:10244000596ABC4B101C9847031E07D0B84B1A6A38
:10245000B94BBA49101C9847031C06E0B44B5A6AA2
:10246000B54BB649101C9847031C7B64FC239B05A5
:10247000BB64FC239B057B647B6820331800B04B56
:102480009847031C3B647B682C331800AC4B98477F
:10249000031CFB637B6838331800A94B9847031C67
:1024A000BB637B6844331800A54B9847031C7B63D0
:1024B000A44BFE218905386C9847031C5B005B0820
:1024C0003B63A04BFE218905386C9847031C5B00D9
:1024D0005A08984BB96C101C9847031E14D07B689F
:1024E0009B6D7A685C21D3185B1801221A707B6897
:1024F0009B6D7A6818339B00D31804333A6C1A60CA
:102500007B681800904B98478E4BFE218905F86B2D
:102510009847031C5B005B083B63864BB96C386BC8
:102520009847031E14D07B689B6D7A685C21D31892
:102530005B1802221A707B689B6D7A6818339B00C7
:10254000D3180433FA6B1A607B6818007E4B9847E7
:102550007C4BFE218905B86B9847031C5B005B0828
:102560003B63744B796C386B9847031E14D07B68BF
:102570009B6D7A685C21D3185B1803221A707B6804
:102580009B6D7A6818339B00D3180433BA6B1A60BA
:102590007B6818006C4B98476A4BFE218905786B65
:1025A0009847031C5B005B083B63624B796C386B9C
:1025B0009847031E14D07B689B6D7A685C21D31802
:1025C0005B1804221A707B689B6D7A6818339B0035
:1025D000D31804337A6B1A607B6818005A4B9847FB
:1025E000534B9A69524BD969524B101C9847031EA2
:1025F00007D04F4B9A69504B5049101C9847031C09
:1026000006E04B4BDA694C4B4C49101C9847031CB5
:10261000BB64474B1A6A464B596A464B101C984795
:10262000031E07D0424B1A6A434B4449101C98477B
:10263000031C06E03E4B5A6A3F4B4049101C98472A
:10264000031C7B644F23FB1800221A7066E04F23A3
:10265000FB181A787B6808329200D2583B4B396CD1
:10266000101C9847031C1C1C4F23FB181B787A680E
:102670000A339B00D31804331A68344BF96B101CCF
:102680009847031C1A1C2F4B111C201C9847031C35
:102690005B005B083B634F23FB181A78244B0A321C
:1026A0009200D258244B2549101C9847031CBB6448
:1026B000FC239B05BB641F4BB96C386B9847031E0A
:1026C00025D07B689B6D7A685C21D3185B18052246
:1026D0001A707B689B6D7A6818339B00D31804339B
:1026E0003A6B1A607B689C6D4F23FB181B785A1C51
:1026F000174B10009847011C7A68230020339B0079
:10270000D318043319607B6818000F4B98474F2388
:10271000FB181A784F23FB1801321A704F23FB184D
:102720001B78022B93D94F23FB1800221A707AE0F2
:10273000481E0020710F0200D91702000000484314
:102740003D2C0000191A0200F92B0000F9130200B9
:10275000911D02004F23FB181A787B680E329200FD
:10276000D258DB4BB96B101C9847031C1C1C4F2321
:10277000FB181B787A6810339B00D31804331A684F
:10278000D34B796B101C9847031C1A1CD14B111C9E
:10279000201C9847031C5B005B083B634F23FB181E
:1027A0001B78CD4A0C339B00D31804331A68CB4BEB
:1027B000CB49101C9847031C7B64FC239B057B645E
:1027C000C84B796C386B9847031E25D07B689B6D8E
:1027D0007A685C21D3185B1806221A707B689B6D9F
:1027E0007A6818339B00D31804333A6B1A607B68FD
:1027F0009C6D4F23FB181B785A1CBB4B100098474D
:10280000011C7A68230020339B00D318043319601D
:102810007B681800B54B98474F23FB181A784F2355
:10282000FB1801321A704F23FB181B78022B91D929
:102830007B68203318007B68383319001023FC189C
:102840002023FA180823FB1801930C23FB1800938C
:102850002300A74CA0477B682C3318007B683833D3
:1028600019001023FB181C1D2023FB181A1D082318
:10287000FB1801930C23FB18009323009C4CA047EA
:102880007B68203318007B68443319001023FB1841
:1028900008331C002023FB1808331A000823FB18F8
:1028A00001930C23FB1800932300914CA0477B68F5
:1028B0002C3318007B68443319001023FB180C33A9
:1028C0001C002023FB180C331A000823FB1801936B
:1028D0000C23FB1800932300854CA0471023FB1802
:1028E0001B683B651023FB181B687B654F23FB1897
:1028F00001221A7034E04F23FB181A781023FB18BA
:102900009200D258774B396D101C9847031E01D0A6
:102910003B6D06E04F23FB181A781023FB1892003A
:10292000D3583B654F23FB181A781023FB189200ED
:10293000D258704B796D101C9847031E01D07B6DE7
:1029400006E04F23FB181A781023FB189200D35887
:102950007B654F23FB181A784F23FB1801321A703E
:102960004F23FB181B78032BC5D95A4B396D786D53
:102970009847031C3B63604B9A685E4B396B101C95
:102980009847031E14D07B689B6D7A685C21D3182E
:102990005B180D221A707B689B6D7A6818339B0058
:1029A000D31804333A6B1A607B6818004F4B984772
:1029B0004E23FB1800221A704F23FB1800221A70B6
:1029C00017E04F23FB181A782023FB189200D258E7
:1029D000484B4A49101C9847031E03D04E23FB184E
:1029E00001221A704F23FB181A784F23FB1801326B
:1029F0001A704F23FB181B78032BE2D94E23FB18C8
:102A00001B78002B31D04F23FB1800221A7027E0CF
:102A10004F23FB181A782023FB189200D258314B11
:102A20003749101C9847031E13D04F23FB181C78FE
:102A30004F23FB181A782023FB189200D258254BFD
:102A40003049101C9847031C191C2023FB18A200B6
:102A5000D1504F23FB181A784F23FB1801321A70FC
:102A60004F23FB181B78032BD2D92023FB181B689C
:102A70003B652023FB181B687B654F23FB18012255
:102A80001A7050E04F23FB181A782023FB1892008D
:102A9000D258144B396D101C9847031E01D03B6D62
:102AA00006E04F23FB181A782023FB189200D35816
:102AB0003B654F23FB181A782023FB189200D2584D
:102AC0000C4B796D101C9847031E1DD07B6D22E0C6
:102AD000F9130200191A0200481E0020D91702003B
:102AE00000004843710F0200911D0200F92B000005
:102AF000D9C40000490F0200A83400200000B442ED
:102B0000000087430000B4434F23FB181A782023AA
:102B1000FB189200D3587B654F23FB181A784F237C
:102B2000FB1801321A704F23FB181B78032BA9D90D
:102B3000274B396D786D9847031C1A1C254B101CC8
:102B4000984705000E007B681A69234B1968234BD0
:102B5000101C9847031C1A1C1E4B101C984703009E
:102B60000C00180021001E4B984702000B001D4C62
:102B700028003100A04703000C00190022001A4B66
:102B8000080011009847031C3B63184B9A68184BC8
:102B9000396B101C9847031E00D114E07B689B6DB5
:102BA0007A685C21D3185B180E221A707B689B6DC3
:102BB0007A6818339B00D31804333A6B1A607B6829
:102BC00018000C4B9847C046BD4617B0F0BDC04634
:102BD000191A02000D3A0200688D0200D91702008E
:102BE00069E10100452D0200B13A0200A83400203D
:102BF000490F0200F92B000080B584B000AF786067
:102C00000823BB607B689B6D5A1CBB689A4209D243
:102C10007B689B6D5A1C7B689A650F23FB18012209
:102C20001A7003E00F23FB1800221A700F23FB1801
:102C30001B781800BD4604B080BD0000F0B585B01B
:102C400000AF78607B681A68244B101C98470023FB
:102C50008024E4051A002300214CA04705000E0043
:102C60007B6804331A681D4B101C9847002380248E
:102C7000E4051A0023001A4CA04702000B00194C6F
:102C800028003100A04703000C001D0026007B68CF
:102C900008331A68114B101C984700238024E40560
:102CA0001A0023000E4CA04702000B000D4C280018
:102CB0003100A04703000C00180021000A4B984780
:102CC0000A000100094B080011009847031CFB6033
:102CD000FB68181CBD4605B0F0BDC0460D3A0200A9
:102CE000BDE30100BD1E020015E70100B13A02007C
:102CF00080B582B000AF78600120164B98477B68A2
:102D000020331A00144B11001800144B98477B68AD
:102D10002C331A00124B11001800104B98477B6897
:102D200038331A000F4B110018000F4B98477B687F
:102D300044331A000D4B110018000B4B984700202C
:102D4000044B98477B681800094B9847C046BD461E
:102D500002B080BD11030100F01200208136000096
:102D600008120020F4120020E9380000D0110020E1
:102D7000D5C00000B0B590B000AF78600A00FB1C71
:102D80001A70A24B9B781800A14B9847A14B98470B
:102D90000120A14B98473F23FB1800221A702AE01C
:102DA0003F23FB181A787B68083292000021D1502B
:102DB0003F23FB181B787A680A339B00D31804332F
:102DC00000221A603F23FB181A787B680E329200AB
:102DD0000021D1503F23FB181B787A6810339B00E9
:102DE000D318043300221A603F23FB181A783F23BC
:102DF000FB1801321A703F23FB181B78022BCFD926
:102E00007B6800229A657B6800221A65834B98478D
:102E1000834B00221A708349834B05221800834B91
:102E20009847834B1B78DBB21A00824BD2187E4B3B
:102E300011001800804B98473023FA187F4B11007F
:102E400018007F4B98472423FA187E4B1100180076
:102E50007B4B98471823FA187B4B110018007B4BCB
:102E600098470C23FA187A4B11001800774B9847B3
:102E70003F23FB1800221A707AE03F23FB181C78CE
:102E80003F23FB181A787B6808329200D0583F2302
:102E9000FB181A783023FB189200D2586D4B111C86
:102EA0009847031C191C7B68220008329200D150FD
:102EB0003F23FB181C783F23FB181B787A680A33E2
:102EC0009B00D318043318683F23FB181A78242377
:102ED000FB189200D2585F4B111C9847031C191C19
:102EE0007A6823000A339B00D318043319603F2308
:102EF000FB181C783F23FB181A787B680E3292006F
:102F0000D0583F23FB181A781823FB189200D25888
:102F1000504B111C9847031C191C7B6822000E3271
:102F20009200D1503F23FB181C783F23FB181B78DD
:102F30007A6810339B00D318043318683F23FB18BA
:102F40001A780C23FB189200D258424B111C984758
:102F5000031C191C7A68230010339B00D318043318
:102F600019603F23FB181A783F23FB1801321A70AF
:102F70003F23FB181B78022B00D87EE77B681B6D74
:102F80005A1C7B681A657B681B6DC82B05D9264BBC
:102F900000211800304B984708E0214B1B78DBB22A
:102FA00001225340DBB2002B00D045E77B681800BC
:102FB0002A4B9847FB1C1B78002B0AD07B68DA69E8
:102FC000274B996D234B101C9847031C1A1C7B68D8
:102FD000DA610E4B1B78002B0FD17B68DA69214B2D
:102FE0001968214B101C9847031C1A1C7B68DA6176
:102FF0007B6854220021995403E07B68542201210C
:1030000099543F23FB1800221A70AAE0A83400202C
:10301000613200006919000011030100150501006B
:10302000F8120020980000200C120020598800009F
:103030006C1200205812002035880000F012002089
:103040008136000008120020F4120020E938000048
:10305000D0110020D5100200A18800002933000003
:10306000884800206C8D0200D91702003F23FB180E
:103070001C783F23FB181A787B6808329200D558D9
:103080007B681A6D674B10009847021C664B111C39
:10309000281C9847031C191C7B68220008329200E8
:1030A000D1503F23FB181C783F23FB181B787A680C
:1030B0000A339B00D31804331D687B681A6D594B83
:1030C00010009847021C584B111C281C9847031CE1
:1030D000191C7A6823000A339B00D3180433196043
:1030E0003F23FB181C783F23FB181A787B680E32AD
:1030F0009200D5587B681A6D4A4B10009847021C05
:10310000494B111C281C9847031C191C7B68220082
:103110000E329200D1503F23FB181C783F23FB183E
:103120001B787A6810339B00D31804331D687B68C2
:103130001A6D3C4B10009847021C3B4B111C281C7D
:103140009847031C191C7A68230010339B00D3187E
:10315000043319603F23FB181A783F23FB18013210
:103160001A703F23FB181B78022B00D87EE7FB1C4C
:103170001B78002B23D07B68203318007B6820331A
:103180002A4A19002A4B98477B682C3318007B6821
:103190002C33284A1900264B98477B68383318008F
:1031A0007B683833244A1900214B98477B684433A5
:1031B00018007B684433214A19001D4B98477B68EF
:1031C00018001F4B9847FB1C1B78002B03D07B6813
:1031D00018001C4B98471C4B98471C4B18001C4B65
:1031E000984702007B685A601A4B5B78042B08D121
:1031F000164BDA687B689A607B68552204219954E3
:1032000007E0124B1A697B689A607B68552205219A
:103210009954114B98470020104B9847C046BD4623
:1032200010B0B0BD311E0200F9130200384F00206B
:1032300089E20000144B002034340020AC2300202D
:10324000D5C000000124000001100100F41100208D
:10325000D5110100A8340020B916000011030100A7
:1032600080B584B000AF0200FB1D1A700F23FB185D
:1032700000221A700DE00D4B9847C8239B001800E0
:103280000B4B98470F23FB180F22BA181278013204
:103290001A700F23FA18FB1D12781B789A42EAD392
:1032A000024B9847C046BD4604B080BDB532000011
:1032B000B581010080B500AF124B9847124B002238
:1032C0001A701249124B06221800124B9847124BE3
:1032D0001B78DBB21A00114BD2180D4B11001800ED
:1032E0000F4B9847C046084B1B78DBB20122534076
:1032F000DBB2002BF7D10F200A4B9847C046BD46E2
:1033000080BDC04615050100F8120020A000002075
:103310000C120020598800006C1200205812002066
:1033200035880000B581010090B587B000AF7860A6
:103330000D23FB180F221A700E23FB18FF221A70A0
:103340000F23FB1800221A7015E00F23FB181B78BF
:103350008C4AD35CDBB2AA2B06D10E23FB180F22BA
:10336000BA1812781A700BE00F23FB181A780F2383
:10337000FB1801321A700F23FB181B78132BE4D9AA
:103380000E23FB181B78FF2B18D17B689B6D7A6886
:103390005C21D3185B180A221A707B689B6D7A68CF
:1033A00018339B00D318043300221A607B6818007E
:1033B000754B98477B680022DA61DEE07B681B6D05
:1033C000C82B18D97B689B6D7A685C21D3185B1871
:1033D0000B221A707B689B6D7A6818339B00D31898
:1033E000043300221A607B681800674B98477B689B
:1033F0000022DA61C1E00E23FB181B780333614A17
:10340000D35CDBB2452B6ED100233B6164237B612F
:103410000F23FB1806221A7023E00E23FB181A78DC
:103420000F23FB181B78D318564AD35CDBB20D224E
:10343000BA1812781340DBB2BB60BB687A69534399
:103440003A69D3183B617A69504B0A2110009847BA
:1034500003007B610F23FB181A780F23FB1801323E
:103460001A700F23FB181B78082BD6D93B69FF2B4A
:103470000ED080225200934213D0CC2B1AD17B68FD
:103480009B6D7A685C21D3185B1807221A7019E0CB
:103490007B689B6D7A685C21D3185B1808221A70D0
:1034A00010E07B689B6D7A685C21D3185B18092259
:1034B0001A7007E07B689B6D7A685C21D3185B18F3
:1034C0000C221A707B689B6D7A6818339B00D318A6
:1034D000043300221A607B6818002B4B98477B68E6
:1034E0000022DA6149E02A4B7B610023BB607B68E4
:1034F0000022DA610F23FB1803221A702EE00E233C
:10350000FB181A780F23FB181B78D3181D4AD35CBD
:10351000DBB20D22BA1812781340DBB2BB607B68B5
:10352000DC69BB687A695A431A4B10009847021C41
:10353000194B111C201C9847031C1A1C7B68DA616C
:103540007A69124B0A211000984703007B610F2310
:10355000FB181A780F23FB1801321A700F23FB187F
:103560001B78082BCBD97B68DA690C4B0C49101CF3
:103570009847031C1A1C7B68DA61C046BD4607B039
:1035800090BDC04658120020F92B0000BD0B020070
:10359000A0860100311E0200D5100200F9130200BE
:1035A00000007A4480B582B000AF0200FB1D1A70A3
:1035B000FB1D1B78002B07D001210220084B9847E8
:1035C0006420084B984703E000210220044B9847F1
:1035D000054B00221A70C046BD4602B080BDC046F1
:1035E0008D230000B5810100A823002080B582B0A2
:1035F00000AF0200FB1D1A701A4B00221A70FB1D4F
:103600001B78002B15D01849184B05221800184BB1
:103610009847C046134B1B78DBB201225340DBB204
:10362000002BF7D1134B01221A700120124B98473F
:1036300014E012490D4B052218000D4B9847C04667
:10364000084B1B78DBB201225340DBB2002BF7D1D1
:10365000084B00221A700020074B9847C046BD4611
:1036600002B080BDF7120020880000200C1200205C
:1036700059880000A8230020354700009000002052
:1036800090B587B000AF7860396079684E4B012201
:1036900018004E4B98474E4B98470C23FA184D494B
:1036A000494804234C4CA0477968474B0022180036
:1036B000464B98477968444B01221800434B984782
:1036C0000C23FA18454940480423434CA047796825
:1036D0003D4B002218003D4B98470C23FB18180067
:1036E0003F4B9847021C3B681A607968364B0122B1
:1036F0001800364B98470C23FA183A4932480423ED
:10370000354CA0477968304B002218002F4B984762
:103710003B681C1D0C23FB181800314B9847031CF9
:1037200023607968284B01221800284B98470C2306
:10373000FA182D4924480423274CA0477968224BC6
:1037400000221800214B98473B6808331C000C23CB
:10375000FB181800224B9847031C23603B685B68EA
:103760003B613B6804333A6812681A603B69802207
:1037700012065A403B681A601723FB1800221A7081
:1037800019E01723FB181B789B003A68D4181723FD
:10379000FB181B789B003A68D3181A68134B14491E
:1037A000101C9847031C23601723FB181A78172353
:1037B000FB1801321A701723FB181B78022BE0D973
:1037C000C046BD4607B090BD7012002025730100B1
:1037D000790301006C00002039770100700000209F
:1037E000F53700007400002078000020F913020073
:1037F00000409C4580B584B000AF78600023FB603A
:103800007B6801331A780A23FB181A800A23FB18F5
:1038100000229B5E1A020A23FB181A807B6802337F
:103820001B789AB20A23FB181B88D3189AB20A2372
:10383000FB181A800A23FB1800229A5E044B100022
:103840009847031CFB60FB68181CBD4604B080BD94
:10385000911D020090B585B000AF786001201A4B31
:1038600098477968194B01221800194B9847194B52
:1038700098470C23FA18184914480423174CA047FA
:103880007968124B00221800114B98470A20144BFC
:10389000984779680D4B012218000D4B98470C236F
:1038A000FA181049094804230C4CA0477968074BC3
:1038B00000221800064B98470020034B9847C0464B
:1038C000BD4605B090BDC046110301007012002036
:1038D0002573010079030100800000203977010081
:1038E000B58101007C00002090B589B000AF786000
:1038F00039607968694B01221800694B9847694B18
:1039000098471823FB1800221A701823FB187022FE
:103910005A701823F918614B02221800624B98471D
:1039200079685E4B002218005D4B984701205F4B81
:1039300098471F23FB1800221A701E23FB18002231
:103940001A7038E07968554B01221800544B98479B
:103950001823FB18B4221A701823FB18FF225A7080
:103960000C23FA181823F9184C480223504CA0478E
:103970001F23FB180C22BA1852781A701F23FB1849
:103980001F22BA1812787F218A431A701E23FB184F
:103990001E22BA18127801321A7079683F4B002241
:1039A00018003F4B98470120404B98471E23FB18B7
:1039B0001B78FF2B05D01F23FB181B78002BC1D0D1
:1039C00000E0C0467968354B01221800344B984717
:1039D0001823FB18A4221A701823F9182F4B012260
:1039E0001800314B98470C23F9182C48FF23092263
:1039F000304CA0477968294B00221800284B984783
:103A000001202A4B98470C23FB1818002A4B984793
:103A1000021C3B681A603B681C1D0C23FB18033317
:103A20001800254B9847031C23603B6808331C0093
:103A30000C23FB18063318001F4B9847021C8023E9
:103A40001B06534023601D23FB1800221A7019E047
:103A50001D23FB181B789B003A68D4181D23FB1804
:103A60001B789B003A68D3181A68144B1449101C31
:103A70009847031C23601D23FB181A781D23FB188D
:103A800001321A701D23FB181B78022BE0D91E236C
:103A9000FB181B781800BD4609B090BD70120020BD
:103AA000257301007903010015740100858101006F
:103AB0003977010069710100C53A0000F91302006D
:103AC00000C0DA4580B584B000AF78600023FB60A9
:103AD0007B681B785BB2002B04DAFF23FB60FB687A
:103AE0001B02FB607B681B781A00FB689B18FB605D
:103AF000FB681B02FB607B6801331B781A00FB68C4
:103B00009B18FB60FB681B02FB607B6802331B7821
:103B10001A00FB689B18FB60044BF8689847031C6D
:103B2000BB60BB68181CBD4604B080BD911D02007F
:103B300080B584B000AF786001204D4B984779681C
:103B40004C4B012218004C4B98474C4B984708238C
:103B5000FB1804221A704A4B1A780823FB185A7073
:103B6000484B1A780823FB189A70454B1A7808239B
:103B7000FB18DA70434B1A780823FB181A71404B74
:103B80001A780823FB185A713E4B1A780823FB1841
:103B90009A710823F918374B072218003A4B9847B7
:103BA0007968344B00221800334B98470A20374B72
:103BB00098470823FB1801221A700823FB180022DB
:103BC0005A7079682B4B012218002B4B9847082319
:103BD000F918284B022218002B4B98477968254B7F
:103BE00000221800244B98470120294B98470823AE
:103BF000FB1833221A700823FB1800225A707968C8
:103C00001C4B012218001C4B98470823F918194B2C
:103C1000022218001C4B98477968164B00221800A6
:103C2000154B984701201A4B98470823FB1835225B
:103C30001A700823FB181B225A7079680D4B012259
:103C400018000D4B98470823F9180A4B0222180058
:103C50000D4B98477968074B00221800064B984790
:103C60000020034B9847C046BD4604B080BDC04607
:103C70001103010070120020257301007903010077
:103C8000840000208500002015740100B58101002A
:103C900085810100B0B58AB002AFF860B960FB1D44
:103CA0001A70FB1D1B78BA6818339B00D3180433B5
:103CB0001B68FB61FB1D1B78BA6820339B00D3187F
:103CC00004331B68BB611723FC18864BB8699847FF
:103CD00003002370FB1D1B78BA685C21D3185B18A6
:103CE0001B780E2B00D9F1E09A007F4BD3181B688C
:103CF0009F467E4BFE218905F8699847031E0BD02D
:103D00007B4BF869984703000C007A49F8681A0061
:103D10002300794CA047E1E0754BF8699847030010
:103D20000C007649F8681A002300734CA047D5E0D0
:103D30006E4BFE218905F8699847031E0BD06C4B2A
:103D4000F869984703000C006D49F8681A002300D1
:103D5000694CA047C2E0664BF869984703000C0025
:103D60006849F8681A002300634CA047B6E05F4B2F
:103D7000FE218905F8699847031E0BD05C4BF86952
:103D8000984703000C006049F8681A0023005A4C59
:103D9000A047A3E0564BF869984703000C005B4925
:103DA000F8681A002300544CA04797E04F4BFE21BF
:103DB0008905F8699847031E0BD04D4BF869984761
:103DC00003000C005249F8681A0023004A4CA0472F
:103DD00084E0474BF869984703000C004D49F868A8
:103DE0001A002300444CA04778E01723FB181D78E5
:103DF000494B4A49F8699847031C1A1C3C4B101C54
:103E0000984703000C004649F868009301942A0083
:103E1000394B984762E01723FB181D783E4B3F490A
:103E2000F8699847031C1A1C314B101C9847030073
:103E30000C003C49F868009301942A002E4B9847E7
:103E40004CE02B4BF869984703000C003649F868A2
:103E50001A002300284CA04740E0254BF8699847FA
:103E600003000C003149F8681A002300224CA047D7
:103E700034E0FA682E4B1000190011231A002D4B64
:103E800098472BE0FA682C4B1000190012231A00F7
:103E9000284B984722E0FA68284B10001900142399
:103EA0001A00244B984719E0FA68254B10001900B6
:103EB00013231A001F4B984710E0FA68214B10009B
:103EC000190015231A001B4B984707E0FA681E4B90
:103ED0001000190013231A00164B9847C046BD4620
:103EE00008B0B0BD69100200287F0200710F020007
:103EF0000D3A0200B47D0200313D0200C87D02008F
:103F0000D87D0200EC7D0200FC7D0200107E0200E4
:103F1000247E0200387E0200D91702000000C84249
:103F20004C7E0200647E02007C7E0200947E0200D1
:103F3000AC7E0200193C0200C07E0200D47E02006A
:103F4000E87E0200FC7E0200147F020080B582B091
:103F500000AF0200FB1D1A70064BFA1D127811000B
:103F60001F220A40012191400A001A60C046BD4646
:103F700002B080BD00E100E080B584B000AF7860A1
:103F80007B681B68FB60FB681B695A1E9341DBB2B0
:103F90001800BD4604B080BD80B582B000AF786027
:103FA0007B6800221A707B680022DA707B6800222E
:103FB0009A807B6800229A717B680022DA717B68A4
:103FC00000225A707B6800229A707B6800221A7265
:103FD0007B6800225A727B6800229A727B680022FA
:103FE000DA727B6800221A737B6800229A737B68FE
:103FF00000225A737B6800221A747B6800225A617F
:104000007B6800229A617B6800221A777B68002215
:104010001A627B6800225A627B6800221A857B68DC
:1040200000225A857B6800229A857B683422002111
:104030009954C046BD4602B080BD000080B584B032
:1040400000AF78607B681B68FB60C0467B68180027
:10405000064B9847031EF9D1FB681B6802221A43DE
:10406000FB681A60C046BD4604B080BD793F0000C1
:1040700080B584B000AF78607B681B68FB60C04689
:104080007B6818000A4B9847031EF9D1FB6833225E
:104090001A72FB6833229A72FB681B6802229343F0
:1040A0001A00FB681A60C046BD4604B080BDC04619
:1040B000793F000080B584B000AF78607B681B68F2
:1040C000FB60C0467B681800054B9847031EF9D17A
:1040D000FB6840225A71C046BD4604B080BDC04650
:1040E000793F000080B584B000AF78607B681B68C2
:1040F000FB60C0467B6818000A4B9847031EF9D145
:10410000FB6800221A71C0467B681800054B98476F
:10411000031EF9D1FB6820225A71C046BD4604B087
:1041200080BDC046793F000080B582B000AF7860A6
:10413000044A7B68D3181B785BB21800BD4602B0F6
:1041400080BDC046A800002080B582B000AF786076
:104150000A00FB1C1A707B681B681800224B9847EA
:1041600003001800214B984703001800204B984784
:10417000FB1C1B78022B0BD17B685B7E1022134348
:10418000DAB27B685A767B681B6810225A7226E086
:10419000FB1C1B78032B0BD17B685B7E2022134317
:1041A000DAB27B685A767B681B6820225A7216E066
:1041B0007B685B7E5AB2FB1C1B78012199400B0087
:1041C0005BB213435BB2DAB27B685A767B681B68DA
:1041D000FA1C1278012191400A00D2B25A72C046EC
:1041E000BD4602B080BDC0466D8E00002941000072
:1041F0004D3F000080B582B000AF78607B68002240
:104200001A707B6801225A707B680C229A707B6856
:104210000022DA707B6800221A71C046BD4602B0E7
:1042200080BD000080B500AF064B1800064B9847D4
:10423000044B0A229A70034B1800044B9847C0465F
:10424000BD4680BD8C130020F541000049130000DD
:1042500080B500AF064B1800064B9847044B002270
:104260005A70034B1800044B9847C046BD4680BDAA
:104270008C130020F54100004913000080B500AF09
:104280000D4B1B78DBB2072B05D10C4B1B685A1C5E
:104290000A4B1A6002E0094B00221A60074B1B68A8
:1042A0003C2B05D9044B06221A70044B00221A60DD
:1042B000C046BD4680BDC04634410020DC0C002015
:1042C00080B582B000AF0200FB1D1A70FB1D1B7889
:1042D000042B09D0052B00D01EE0114B9847114B41
:1042E0009847114B984717E0104B1800104B984710
:1042F000104B00221A70104B18000D4B98470F4BB3
:1043000000221A700E4B1800094B98470D4B0022E3
:104310001A700D4B9847C046C046BD4602B080BDDE
:104320004D43000005440000C9440000D4120020A1
:1043300071400000D80C0020D8110020D90C0020BA
:1043400034130020DA0C00209145000080B58EB0B7
:1043500000AF3B001800204B98473B000422DA7066
:104360003B00E022D2009A803B0002221A703B0000
:1043700000229A733B001022DA713B0029221F2190
:104380009954164B1B78002B06D0154B1800154B73
:104390009847124B00221A703A001349104B18002C
:1043A000124B98470E4B1800114B98470B4B0122AC
:1043B0001A700B4B18000F4B98470F49084B0022FF
:1043C00018000E4B9847064B002118000C4B9847DD
:1043D000C046BD460EB080BD993F0000D90C0020FC
:1043E000D81100207140000000240042B58E00006A
:1043F0003D400000E540000061460000298C0000BF
:104400004941000080B58EB000AF3B001800224B40
:1044100098473B000022DA703B00E022D2009A80ED
:104420003B0002221A703B0001229A733B001022CB
:10443000DA711A4B1B78002B06D0194B1800194B58
:104440009847164B00221A703A001749144B18006F
:10445000164B9847124B1800154B98470F4B0122EB
:104460001A700F4B1800134B9847E1239A000C4B1E
:1044700011001800104B98471049094B00221800F2
:104480000F4B9847064B002118000E4B9847C0462B
:10449000BD460EB080BDC046993F0000DA0C00203A
:1044A000341300207140000000080043B58E000066
:1044B0003D400000B5400000559300007D460000DF
:1044C000298C00004941000080B58EB000AF3B0050
:1044D0001800234B98473B000422DA703B00E0228F
:1044E000D2009A803B0002221A703B0000229A738D
:1044F0003B001022DA713B00292260219954194BAC
:104500001B78002B06D0184B1800184B9847154BFA
:1045100000221A703A001649134B1800154B9847A1
:10452000114B1800144B98470E4B01221A700E4B7A
:104530001800124B98470C4B00211800104B98475D
:104540001049094B002218000F4B9847064B0021D9
:1045500018000E4B9847C046BD460EB080BDC04601
:10456000993F0000D80C0020D412002071400000B8
:1045700000200042B58E00003D400000B540000024
:1045800055930000C5460000298C000049410000F9
:1045900080B58EB000AF3B001800244B98473B001D
:1045A0000422DA703B00E022D2009A803B00022213
:1045B0001A703B0000229A733B001022DA713B0014
:1045C0002922102199541A4B1B78002B06D0194B25
:1045D0001800194B9847164B00221A703A001749D9
:1045E000144B1800164B9847124B1800154B984760
:1045F0000F4B01221A700F4B1800134B98470D4BAD
:1046000000211800114B984711490A4B002218004D
:10461000104B9847074B002118000F4B98470F4B42
:1046200000221A70C046BD460EB080BD993F000002
:10463000D90C0020D8110020714000000024004255
:10464000B58E00003D400000B540000055930000CD
:10465000FD460000298C0000494100003035002053
:1046600080B582B000AF7860034B07221A70C04655
:10467000BD4602B080BDC0463441002080B582B046
:1046800000AF78600A4B18000A4B9847E1239A0064
:10469000074B11001800084B98470020074B98471C
:1046A000074B16221A70C046BD4602B080BDC046F8
:1046B00034130020B540000055930000A5350000DC
:1046C0003441002080B582B000AF7860074B0622ED
:1046D0001A70074B1800074B9847054B002118002C
:1046E000054B9847C046BD4602B080BD344100200E
:1046F000D4120020B54000005593000080B582B070
:1047000000AF7860074B1800074B9847054B002116
:104710001800064B9847064B00221A70C046BD464B
:1047200002B080BDD8110020B540000055930000B4
:104730003035002080B582B000AF0200FB1D1A703A
:10474000FB1D1B78002B0BD0E1239A000C4B1100B2
:1047500018000C4B98470A4B18000B4B98470AE07F
:10476000074B1800094B9847E1239A00044B1100AE
:104770001800044B9847C046BD4602B080BDC046F5
:104780003413002055930000E5400000B5400000C0
:1047900080B582B000AF0200FB1D1A70FB1D1B78B4
:1047A000002B09D00B4B002118000B4B9847094BED
:1047B00018000A4B984708E0064B1800084B98472A
:1047C000044B00211800044B9847C046BD4602B078
:1047D00080BDC046D811002055930000E540000080
:1047E000B540000080B500AFC046BD4680BD90B565
:1047F00087B000AFF8600C00100019000A23FB1806
:10480000221C1A800823FB18021C1A80FB1D0A1C9C
:104810001A700A23FB181A880823FB181B88D31A5E
:104820000733002B00DA0733DB10013BFA68D3189B
:104830001B7819000823FB181B8807221340194115
:104840000B007B610823FB181B8807221A40FB1D05
:104850001B78D318082B1CDD0A23FB181A880823A1
:10486000FB181B88D31A0733002B00DA0733DB1041
:10487000023BFA68D3181B7819000823FB181B8821
:10488000072213400822D31A99400B007A69134378
:104890007B610823FB181B8807221A40FB1D1B782D
:1048A000D318102B1CDD0A23FB181A880823FB18C9
:1048B0001B88D31A0733002B00DA0733DB10033BC6
:1048C000FA68D3181B7819000823FB181B880722E5
:1048D00013401022D31A99400B007A6913437B616D
:1048E0000823FB181B8807221A40FB1D1B78D318CE
:1048F000102B1CDD0A23FB181A880823FB181B88C1
:10490000D31A0733002B00DA0733DB10033BFA68B6
:10491000D3181B7819000823FB181B8807221340A3
:104920001022D31A99400B007A6913437B61FB1D57
:104930001B7801229A4013005A1E7B6913407B6149
:104940007B691800BD4607B090BD000080B582B0FD
:1049500000AF234B7B60234B00211800224B98476C
:1049600003001A0001235340DBB2002B01D00023C7
:1049700031E01E4B984703003B603B680122134027
:1049800006D07B685A1E7A60002BE4D1002322E017
:10499000C046174B00211800134B984703001A001C
:1049A00001235340DBB2002B01D0002313E00F4B57
:1049B00098470200C023DB051A408023DB059A429A
:1049C00008D10C4B1A680B4B1B68DB7A08210B4390
:1049D000DBB2D37201231800BD4602B080BDC046D1
:1049E000EE1B00000111000025610000656300005E
:1049F0003A050000040D002080B586B000AF02002B
:104A0000FB1D1A702E4B3B612E4B002118002E4BC4
:104A1000984703001A0001235340DBB2002B01D05A
:104A2000002348E000237B61FB1D1B78002B04D092
:104A30007B698022D20513437B617B69234A19007D
:104A40001000214B984703001A0001235340DBB2AA
:104A5000002B01D000232EE01D4B98470300FB6084
:104A6000FB680122134006D03B695A1E3A61002BB5
:104A7000CAD100231FE0C046164B00211800124B7C
:104A8000984703001A0001235340DBB2002B01D0EA
:104A9000002310E00E4B984702008023DB051340F3
:104AA00008D00D4B1A680C4B1B68DB7A08210B43AE
:104AB000DBB2D37201231800BD4606B080BDC046EC
:104AC000EE1B0000371100002561000029110000D5
:104AD000656300003A050000040D002080B500AFBA
:104AE00001231800BD4680BD80B584B000AF78605A
:104AF0007B6800221A70D5235B00144A190010004D
:104B0000134B984703001A0001235340DBB2002BDC
:104B100001D0012315E00F4B98470300FB60FB68B1
:104B2000013301D101230CE0FB681B051A0DD523CD
:104B30005B009A4201D0002303E07B6801221A70D7
:104B400001231800BD4604B080BDC04608550000D2
:104B5000256100006563000090B589B002AF786000
:104B600080239A0041480023009301230021404CF8
:104B7000A04703001A0001235340DBB2002B01D0F1
:104B800000236EE01623FB1800221A8014E0102385
:104B9000FB181800374B984703001A0001235340B5
:104BA000DBB2002B01D000235BE01623FB181A8830
:104BB0001623FB1801321A801623FB181B88312B91
:104BC000E5D93B69DBB202221340DAB27B681A7086
:104BD000294B1B680E3318000C233E228021274CE2
:104BE000A0470200264B9A4235D114E00C23FB1853
:104BF0001800204B984703001A0001235340DBB2F2
:104C0000002B01D000232CE01623FB181A88162352
:104C1000FB1801321A801623FB181B88352BE5D9A7
:104C2000154B1B68FA6852085A6014E00C23FB18F5
:104C30001800104B984703001A0001235340DBB2C1
:104C4000002B01D000230CE01623FB181A88162332
:104C5000FB1801321A801623FB181B887F2BE5D91D
:104C600001231800BD4607B090BDC04608110800DA
:104C70004D61000079630000040D0020EF47000043
:104C8000FF0F000090B583B002AF154B1B681B8966
:104C9000190414480123009301231022124CA04749
:104CA00003001A0001235340DBB2002B01D0002384
:104CB00012E00B4B1B680E33012118000B4B984779
:104CC00003001A0001235340DBB2002B01D0002364
:104CD00002E0074B984703001800BD4601B090BDA5
:104CE000040D0020091108004D6100001D64000042
:104CF000C1640000B0B584B000AF454B1B680E33F3
:104D0000180004237A228021424CA0470300022B82
:104D100011D002D8012B09D003E0032B10D0042BB3
:104D200013D03B4B1B6812221A7313E0384B1B68DD
:104D300014221A730EE0364B1B6822221A7309E004
:104D4000334B1B6830221A7304E0314B1B6840223E
:104D50001A73C0462E4B1B680E33180008236022BE
:104D600080212C4CA0470300FB60FB6807221A40FF
:104D7000294B9200D358BB60FB68DB080F221A4016
:104D8000264B9200D3587B60214B1B68BA68796828
:104D90004A43FA2189004A431A601D4B1B680E33AF
:104DA00018000C233E2280211A4CA04702001C4B05
:104DB0009A4228D0164B1B680E3318000C233E2253
:104DC0008021144CA04703005C1C114B1B680E3360
:104DD000180003232F2280210E4DA8470300023321
:104DE0009C4023003B600A4B1C68094B1B680E3338
:104DF0001800042350228021064DA84702003B687A
:104E000093409B0A6360C046BD4604B0B0BDC04637
:104E1000040D0020EF470000647F0200C07F020005
:104E2000FF0F0000B0B584B000AF354B1B680E33E8
:104E30001800082360228021324CA0470300FB6049
:104E4000FB6807221A40304B9200D358BB60FB68C6
:104E5000DB080F221A402D4B9200D3587B60284B61
:104E60001B68BA6879684A43FA2189004A431A6084
:104E7000234B1B680E33180002237E228021214C15
:104E8000A047031E0FD01E4B1C681D4B1B680E3322
:104E900018001623302280211A4DA8470300013341
:104EA0005B02636028E0164B1B680E3318000C236E
:104EB0003E228021134CA04703005C1C104B1B6852
:104EC0000E33180003232F2280210E4DA847030024
:104ED00002339C4023003B60094B1C68084B1B6855
:104EE0000E331800042350228021064DA8470200EB
:104EF0003B6893409B0A6360C046BD4604B0B0BDAA
:104F0000040D0020EF470000647F0200807F020054
:104F100080B582B000AF114B7B60114B00211800AF
:104F2000104B984703001A0001235340DBB2002BBB
:104F300001D000230EE00C4B98470200FF231340E2
:104F400006D07B685A1E7A60002BE6D1002301E070
:104F5000C04601231800BD4602B080BD400D0300CD
:104F60000D1B0000256100006563000090B585B051
:104F700002AF384B1B681B891B04374A190010000D
:104F8000364B984703001A0001235340DBB2002B35
:104F900001D0002359E03248012300930123082265
:104FA0000021304CA04703001A0001235340DBB21C
:104FB000002B01D0002348E03B00012118002A4BC0
:104FC000984703001A0001235340DBB2002B01D0A5
:104FD00000233AE0254B984703001A000123534071
:104FE000DBB2002B01D000232FE03800042338224D
:104FF00040211F4CA0470300012B08D002D3022BF5
:105000000AD01CE0134B1B6810221A731CE0114BD2
:105010001B681A221A7317E0380001232F2240213F
:10502000134CA0470300012B04D10A4B1B6830220C
:105030001A7309E0074B1B6820221A7304E0054B22
:105040001B6810221A73C04601231800BD4603B026
:1050500090BDC046040D00203711000025610000FE
:10506000331108004D6100001D640000C1640000A0
:10507000EF47000080B582B000AF0200FB1D1A7040
:10508000FB1D1B78002B01D0042347E0FB1D1B7880
:10509000244A5B01D3180A331B78042B08D0FB1D6C
:1050A0001B78204A5B01D3180A331B78032B1DD1D0
:1050B000FB1D1B781B4A5B01D3180A3302221A70AE
:1050C000FB1D1A78174B52011749D150FB1D1B7855
:1050D000144A5B01D3180D3301221A70FB1D1B7893
:1050E000104A5B01D3181E3300221A700F4BFA1DB1
:1050F00012781A70FB1D1B785A010A4BD2180C4B00
:105100001A600C4B9847FB1D1B78064A5B01D318AD
:105110000A331B78023B5A425341DBB21800BD46AA
:1051200002B080BDE00C0020801A0600000D0020B7
:10513000040D002039510000B0B500AF094B1878BC
:10514000094B1B681968084B1B685A7B064B1B6888
:105150009B7F5C1EA341DBB2044CA047C046BD460A
:10516000B0BDC046000D0020040D00200D60000001
:1051700080B500AF054B1B78002B04D1034B1B7887
:105180001800034B9847C046BD4680BD000D002067
:105190009560000080B582B000AFFB1D00221A7040
:1051A000644B1B680122DA72624B1B6800221A737F
:1051B000604B1B6800221A815F49604B0022180077
:1051C0005F4B984701205F4B98475F4B9847012002
:1051D0005C4B98475849594B01221800584B984747
:1051E0000120584B984788235B0100211800574B3A
:1051F000984703001A0001235340DBB2002B01D073
:10520000002392E0FB1D1800514B984703001A0041
:1052100001235340DBB2002B01D0002385E04D4B2E
:10522000984703001A0001235340DBB2002B01D042
:1052300000237AE03F4B1B68DB7A1A0001231340FE
:1052400021D0FB1D1B781800434B984703001A0020
:1052500001235340DBB2002B07D0364B1B680222E0
:10526000DA723E4B984703005FE03D4B0021180087
:10527000364B984703001A0001235340DBB2002B42
:1052800001D0002351E02B4B1B68DB7A1A0001236D
:10529000134017D0334B984703001A0001235340A3
:1052A000DBB2002B01D000233FE02F4B98472F4B60
:1052B000984703001A0001235340DBB2002B01D0B2
:1052C000002332E01B4B1B68DB7A1A0001231340DA
:1052D00016D0184B1B68DB7A1A00082313400FD135
:1052E00080239B00224A19001000184B98470300A6
:1052F0001A0001235340DBB2002B01D0002314E03D
:105300000C4B1B68DB7A1A00012313400AD0194B9F
:10531000984703001A0001235340DBB2002B01D051
:10532000002302E0144B984701231800BD4602B049
:1053300080BDC046040D00204012002070120020E5
:1053400025730100B5810100D960000025610000CE
:10535000E94A0000DD4A0000F94900007D530000E1
:105360003B110000854C0000254E00006D4F0000F1
:1053700010110000114F00003951000080B582B0BB
:1053800000AF88235B0100211800324B98470300CF
:105390001A0001235340DBB2002B01D0002355E05B
:1053A0002D4B984703001A0001235340DBB2002B1A
:1053B00001D000234AE0294B00211800254B9847D3
:1053C00003001A0001235340DBB2002B01D000235D
:1053D0003CE0234B984703001A0001235340DBB203
:1053E000002B01D0002331E01E4B98471E4B1B6859
:1053F0001B7B3F2B0CD9FB1D18001C4B984703004F
:105400001A0001235340DBB2002B01D000231DE022
:1054100080239B00164A190010000E4B984703008A
:105420001A0001235340DBB2002B01D000230DE012
:10543000104B984703001A0001235340DBB2002BA6
:1054400001D0002302E00C4B984701231800BD4611
:1054500002B080BD256100004D4900003B110000F5
:10546000854C0000F54C0000040D0020594B000055
:1054700010110000114F00003951000080B582B0BA
:1054800000AFFB1D00221A700CE0FB1D1B780C4ABC
:105490005B01D3180A3304221A70FB1D1A78FB1D16
:1054A00001321A70FB1D1B78002BEED0054BFF223A
:1054B0001A70054B9847C046BD4602B080BDC04635
:1054C000E00C0020000D0020555F000090B585B075
:1054D00000AF0200FB1D1A700F23FC18FB1D1B7888
:1054E0001800134B9847030023700F23FB181B78F9
:1054F000012B05D00F4B98470F23FB181B7812E0A8
:105500000D4B9847031E07D00C4B1B6800229A7264
:10551000084B9847012306E0084B1B6803229A7248
:10552000044B984703231800BD4605B090BDC04604
:10553000755000007151000095510000040D0020CD
:1055400080B582B000AF0200FB1D1A70FB1D1B78F6
:105550001800074B9847031E01D0002304E0054BB9
:105560009847054B1B68DB7A1800BD4602B080BD2A
:105570007550000071510000040D002080B582B00C
:1055800000AF0200FB1D1A70FB1D1B781800074BB3
:105590009847031E01D0002304E0054B9847054BB4
:1055A0001B685B681800BD4602B080BD75500000E6
:1055B00071510000040D002080B582B000AF0200E0
:1055C000FB1D1A7000231800BD4602B080BD00000C
:1055D00090B589B002AF39601100FB1D021C1A7032
:1055E0003B1D0A1C1A800F23FC18FB1D1B7818009A
:1055F000294B9847030023700F23FB181B78002BBF
:1056000003D00F23FB181B7841E0244B984703007D
:105610001A0001235340DBB2002B03D0204B9847E4
:10562000052334E03B1D1B88012B02D91D4B7B61F8
:1056300001E01D4B7B611D4B1B68DB7A1A000823C0
:10564000134002D03B683B6102E03B685B023B6178
:105650003B1D1C8880239A003969786901230093D7
:105660002300134CA04703001A0001235340DBB270
:10567000002B03D00A4B9847052308E00D4B3A1D39
:1056800012881A800C4B3A1D12881A8000231800C9
:10569000BD4607B090BDC04675500000114F0000D8
:1056A000715100001211100011110800040D0020AA
:1056B0004D6100000A0D0020080D002080B582B069
:1056C00000AF78600A00BB1C1A80BB1C1A887B687C
:1056D000110018000D4B984703001A000123534096
:1056E000DBB2002B04D00A4B00221A80052308E00D
:1056F000074B1A88BB1C1B88D31A9AB2044B1A801A
:1057000000231800BD4602B080BDC0461D640000E5
:105710000A0D002080B582B000AF0200FB1D1A7098
:105720001C4B984703001A0001235340DBB2002BA7
:1057300001D0052329E0FB1D1B78002B03D0164B5D
:1057400000221A8005E0144B1B88002B01D0002397
:105750001BE0124B1B88012B03D1114B98470023F0
:1057600013E0104B002118000F4B984703001A005C
:1057700001235340DBB2002B04D00A4B0021180058
:10578000094B9847064B984700231800BD4602B0C6
:1057900080BDC046C16400000A0D0020080D002035
:1057A000715100000C3100002561000090B589B0F6
:1057B00002AF39601100FB1D021C1A703B1D0A1C50
:1057C0001A800F23FC18FB1D1B781800284B9847E4
:1057D000030023700F23FB181B78002B03D00F232B
:1057E000FB181B783FE0FB1D1B781800214B9847E6
:1057F000031E03D0204B9847072334E03B1D1B8832
:10580000012B02D91D4B7B6101E01D4B7B611D4BC0
:105810001B68DB7A1A000823134002D03B683B6107
:1058200002E03B685B023B613B1D1C8880239A00C1
:1058300039697869012300932300134CA0470300C2
:105840001A0001235340DBB2002B03D00A4B9847C8
:10585000052308E00D4B3A1D12881A800C4B3A1DA7
:1058600012881A8000231800BD4607B090BDC046BC
:1058700075500000B95500007151000019911000D9
:1058800018910800040D00204D6100000A0D002051
:10589000080D002080B582B000AF78600A00BB1C04
:1058A0001A80BB1C1A887B68110018000D4B9847A2
:1058B00003001A0001235340DBB2002B04D00A4B33
:1058C00000221A80052308E0074B1A88BB1C1B889E
:1058D000D31A9AB2044B1A8000231800BD4602B0B6
:1058E00080BDC046CD6400000A0D002080B582B0A6
:1058F00000AF0200FB1D1A70134B984703001A00FB
:1059000001235340DBB2002B01D0052318E0FB1D1F
:105910001B78002B03D00D4B00221A8005E00B4BA7
:105920001B88002B01D000230AE0094B1B88012BA8
:1059300003D1084B9847002302E0064B9847002309
:105940001800BD4602B080BD8D6500000A0D002024
:10595000080D00207151000080B584B000AF020036
:10596000FB1D1A700F23FB18FA1D1278D2091A704A
:105970000E23FB18FA1D127852091A700D4BBB60EA
:105980000F23FB181B78002B0FD10F23FB181B785C
:105990009B0010229446BC446344083B1A680E23C3
:1059A000FB181B78DB01D31800E000231800BD466C
:1059B00004B080BD0028004080B582B000AF020076
:1059C000FB1D1A70FB1D1B781800034B9847030042
:1059D0001800BD4602B080BD5959000080B582B0A4
:1059E00000AF78607B6800221A707B6801225A70D1
:1059F0007B6800229A70C046BD4602B080BD0000A0
:105A000080B584B000AF0200FB1D1A70BB1D0A1CDC
:105A10001A70FB1D1B7818000D4B98470300FB60A4
:105A2000FB1D1B781F22134001229A401300BB600C
:105A3000BB1D1B78002B03D0FB68BA689A6102E09B
:105A4000FB68BA685A61C046BD4604B080BDC04616
:105A5000B959000080B582B000AF0200FB1D1A707A
:105A6000064BFA1D127811001F220A4001219140B5
:105A70000A001A60C046BD4602B080BD00E100E0E9
:105A800080B584B000AF78607B681B68FB60FB6802
:105A9000DB695A1E9341DBB21800BD4604B080BDDD
:105AA00080B582B000AF78607B6801221A707B6895
:105AB00000225A607B6800229A607B68C0229203B1
:105AC000DA607B6800221A747B6800225A747B6853
:105AD00001229A747B680122DA747B6800221A75AD
